:100000000C943F0E7BD0000079D0000077D0000028
:1000100075D0000073D0000071D000006FD00000D8
:100020006DD000006BD0000069D0000067D00000E8
:1000300065D0000063D0000061D000005FD00000F8
:100040005DD000005BD0000059D0000057D0000008
:1000500055D0000068C0000051D000004FD0000013
:100060004DD000004BD0000049D0000047D0000028
:1000700045D0000043D0000041D000003FD0000038
:100080003DD000003BD0000039D0000037D0000048
:1000900035D0000033D0000031D000002FD0000058
:1000A0002DD000002BD0000029D0000027D0000068
:1000B00025D0000023D0000021D000001FD0000078
:1000C0001DD000001BD0000019D0000017D0000088
:1000D00015D0000013D0000011D000000FD0000098
:1000E0000DD000009F918F911F910F91FF91EF9183
:1000F000A991B991B0935F00B9911895BA93B09155
:100100005F00BA93AA93BF91BF91AF91EF93FF9312
:100110000F931F938F939F93552401E0A00FB3E09B
:10012000ED91FD911994BA93B0915F00E60CF51C26
:10013000E1CFB091C600A0917803A395A093780376
:10014000E9E7F3E0A0917603EA0FF51DB083A395EC
:10015000AF71A0937603C6CFB091CE00A0919B0360
:10016000A395A0939B03ECE9F3E0A0919903EA0F18
:10017000F51DB083A395AF71A0939903B3CF000091
:100180001C540C22C604624C4443000268042B0435
:10019000B84DE04D244E0A006C041C3400000000F1
:1001A00000000000EA03B636C436D436523E603E44
:1001B000703E24528377642BF894A8959091600048
:1001C0009861909360008770886080936000789455
:1001D0000C94DE03B4338377642DF894A895509281
:1001E000540008E1009360005092600078940895F4
:1001F000D633A3637764A895089500008465786971
:1002000074000F910F910F910895344E886F7065AF
:100210007261746F72000E940A021C34EA030000CB
:10022000400040005A00FC338469646C65007064CF
:10023000089528348462757379007F7B08957A521B
:10024000846D73657400FC01899199910191082B6B
:1002500002938991999108954034846D636C720082
:10026000FC018991999101918095082302938991CC
:10027000999108955A34866C736869667400FC011C
:100280008991999131971AF0880F991FFBCF0895A2
:1002900076348672736869667400FC01899199915D
:1002A00031971AF096958795FBCF089583D59FD205
:1002B00081D59DC29234826E3D00A991B991FC0115
:1002C000F25387918F700D90102C081A31F487919A
:1002D0000D90081A11F41A94D1F7802D99270895DA
:1002E000B63484736B697000182F89919991A99124
:1002F000B991009751F00C91103211F4003210F0C6
:10030000011719F411960197F4CFBA93AA9308959F
:10031000E234847363616E00182F89919991A991D9
:10032000B991009751F00C91103211F4003228F07D
:10033000101719F011960197F4CFBA93AA93089564
:100340001235846D74737400FC01819109911991C7
:100350008023992708954235834663795BD0803E98
:10036000583584656D69740086D30C94D301623569
:10037000836B657986D30C94D3017035846B657972
:100380003F0085D30C94D3017C3587657865637510
:100390007465FC01F25389919991F695E79519944A
:1003A0008A3583406578AAD60C94C901A23588762F
:1003B00061726961626C6500A6D0BBD0F8D10C9403
:1003C000F301AE3589327661726961626C659BD0EA
:1003D00057D70400ECD10C94F301C43588636F6ED9
:1003E0007374616E74000E94160A0E94120F0C94BE
:1003F000240ADC358932636F6E7374616E74E5D1E3
:100400000E94160A0E94120F0E94120F0C94240AD6
:1004100083286329FF91FF91EF910FD0FF91FF9106
:10042000EF91199483286429BF91BF91AF91FF91F7
:10043000FF91EF9102D0FD0119949A938A93EE0FE8
:10044000FF1F87919791089583282C290F91FF9181
:10045000EF91F3DFF695E795EF93FF930F939AC033
:10046000F43583737040FE019A938A93CF01089507
:10047000623683737021EC01089583727030BF91EE
:10048000BF91AF910E94810A39D68DBF9EBF8991DD
:100490009991FD0119947236B37270409A938A93C0
:1004A0008DB79EB708959836A23E3C00082F892F3D
:1004B000902F0895A83685666C6173685092CC03BE
:1004C0000895B63686656570726F6D007092CC03C4
:1004D0000895C4368372616D04E00093CC030895DF
:1004E000D4368264700070D704D00C9427048363E0
:1004F00073659A938A938091CC0399270895E23685
:10050000846865726500EFDF0C947E0F0037812CE4
:10051000FADF60D40ED00C94D7030E3782632C0020
:10052000F2DF20D3B3D00C94D7031C378463656CFF
:100530006C009A938A9382E090E008952C3785614D
:100540006C69676EE0DF08D0CEDF0C94430F3E3756
:1005500087616C69676E656401968E7F0895503778
:10056000A563656C6C2B029608956037A563656C76
:100570006C73880F991F08956C37A5636861722B9F
:10058000019608957A37A563686172730895863776
:100590008363662C7FD6A4D668D154D171D6F00F70
:1005A00013D279D241F06CD60E940E94351092533A
:1005B0009695879506C094D658D180D7D6D19F708E
:1005C000906D0C94351082213A005AD6FAFF0C94A3
:1005D0003C0B9037823240005DD690D5F6D0C3DF19
:1005E0000C947E08D43782322100EFD0F8D0BBDFE4
:1005F000F1D30C94430FE637853264726F70DED00E
:100600000C94DE03F837843264757000E8D00C94E3
:10061000EF030638853273776170E9D0F0D0E7D008
:10062000F9D00895143885326F7665729A938A935B
:100630008E819F819A938A938E819F810895263817
:100640008573706163653FD70C94B401403886733D
:10065000706163657300009719F0F5DF6FD1FBCF10
:100660000C94DE034E3884756D696E00CFDFB9D10E
:1006700006C0663884756D617800C8DFABD10BD2D7
:1006800009F0A3D00C94DE03743881319A938A93D5
:1006900081E090E008958A38866163636570740034
:1006A0009ED0D5D0ACD0F6D565DE8D3039F08A300D
:1006B00041F0883079F08F3769F01AC02AD052D2D1
:1006C00021C07CD026D04AD2E6D1E1F07AD521D023
:1006D00049D2EACF76D51DD045D270D097DF66D10A
:1006E000DAD111F72BD129D00308200818D0DCCF9C
:1006F000D1D53ADE74D036D21CD197D070D056D135
:10070000CAD191F20F910F9160D00C943504836699
:100710006372E0D2F5FF98388474797065006FD009
:1007200002C048D321DE0E94070CD8F71F910F9119
:100730000C94DE03183983287322FF91FF91EF9107
:10074000EE0FFF1F07919A938A93CF019E5C9A93B5
:100750008A93802F9927E00FF91F3196F695E79538
:1007600019948ED52200E4C23639C2732200F9DF13
:10077000B1D691D131F06ADE3A39A0DE07D0E2DE9F
:10078000ABDE08956A39822C2200EBDFBCDE27D075
:10079000D0D0E2DE0CD005C38639D22E2200E7DFAE
:1007A00055DE1E3908959A3985616C6C6F749BDE35
:1007B0000C94BB04A839A464726F7000899199915C
:1007C0000895B639847377617000099119919A93ED
:1007D0008A93C8010895C439846F766572009A932C
:1007E0008A938A819B810895D83983726F7407D068
:1007F000ECDF10D00C94E503EA39923E7200FF91D1
:10080000FF91EF918F939F93899199911994FA3960
:1008100092723E00FF91FF91EF919A938A939F917C
:100820008F911994103A92724000FF91FF91EF91CD
:100830009A938A939F918F918F939F931994904449
:100840008361627327D50C949B05403A812B0991F3
:100850001991800F911F08954C3A826D2B000E94D0
:100860002A0C0C944C0C5A3A812D09911991081BB1
:10087000190BC80108950090BC031090BD030895A2
:10088000FADF00941094060C151C0BD001C008D0A0
:10089000906521D0FFD4812D07D0806990641BC062
:1008A000EADF1CD71BD7802D982F92958F709F70F1
:1008B00080680895F5DF90670ED0ECD4812DF4DFC9
:1008C0008069906708C0ECDF906605D0E3D4812D85
:1008D000EBDF806990660C943510683A83616E6432
:1008E00009911991802391230895DC3A826F720057
:1008F00009911991802B912B0895EC3A83786F72AE
:1009000009911991802791270895FC3AA6696E767E
:10091000657274008095909508950C3B866E6567AE
:100920006174650080959095019608951C3BA231F5
:100930002B00019608952E3BA2312D0001970895BA
:10094000383BA2322B0002960895423B853E626FEF
:10095000647904960C947E0F4C3BA2322A00880FD7
:10096000991F08955A3BA2322F00959587950895B7
:10097000663B822B210029DF32DFC0D368DF25DF11
:100980000C94430F723B8677697468696E0027DFA9
:100990006CDF35DF6ADF3EDF0C94EA04863B823C85
:1009A0003E0004D00C9474069C44813D5EDF0C94A0
:1009B0007406AA3B813C59DF8FEF9FEF14F08095BE
:1009C00090950895B43B813E00DF0C94DB04C63B58
:1009D00082753C004ADF880B990B0895D03B8275E5
:1009E0003E00F3DE0C94EA04DE3B82217000AC0191
:1009F000899199910895EA3B9421703E7200FF918C
:100A0000FF91EF914F935F93AC0189919991199464
:100A1000F83B93723E70FF91FF91EF915F914F9180
:100A20001994123C827040009A938A93CA010C94E4
:100A30007E0F243C827021009A938A93CA010C9401
:100A4000430F343C837063219A938A93CA010C94B8
:100A5000B20F443CA2702B00460D551D0895543C26
:100A600083702B2B480F591F899199910895603CF1
:100A70008527656D69742ED1E8FF703C84276B650E
:100A8000790028D1EAFF7C3C85276B65793F22D12C
:100A9000ECFF833F303D00978991999108958364DD
:100AA000303D00970895883C83756D2A0D9402FFB0
:100AB000A83C86756D2F6D6F64000D941BFFB23CD2
:100AC00085752F6D6F647DD380DE0D941BFFC03C58
:100AD000812AECDF0C94DE03D03C82752F00F3DF1B
:100AE0000C948C05DA3C86752A2F6D6F640087DEC6
:100AF000DDDF90DE0C945D05E63C812F87DD00DFB5
:100B00007EDEA0DE62DE9EDE60DEE9DF83DE0C9448
:100B10009B05FA3CA36E6970099109910895143DF3
:100B2000847475636B0051DE0C94EF03203D873FA6
:100B30006E6567617465B4D3AEDF09F0F3DE0895C6
:100B40002E3D836D617862DD36DF99CD423D836D48
:100B5000696E5CDD39DF93CD826340000C94990FA0
:100B6000826321000C94B20F4E3D8275700052DCFE
:100B700002006A3D84686F6C64002CD392D0FBDE67
:100B800090D0BCD20C94B20F743D823C23008ED026
:100B900088D00C94430F8A3D8564696769748A30F4
:100BA0000CF08796C0960895983D812387D0A6D2F1
:100BB00095D11DDEF4DF0C94BD05AA3D82237300A0
:100BC000F5DF24DD95DE67DFD9F70895BC3D82238C
:100BD0003E0015DD66D092D269D001DE0C9435045A
:100BE000CE3D847369676E0090301AF449D32D00AE
:100BF000C4DF0C94DE03E23D82752E00C8DFE1D233
:100C0000DFDFE7DF8CDD0C942303F83D83752E7264
:100C1000BEDF94DEF4DDD5D201C0C8DFF8D5E8F739
:100C20001F910F91CDDFD5DF7ADD0C9423030C3EAD
:100C3000812EADDF2FD306DEC4D2C2DFD8DDD4DFF4
:100C4000C8DF6DDD0C942303303E87646563696DF6
:100C5000616C8DD233D00C94430F4A3E8368657823
:100C60000FD310002BD00C94430F5C3E8362696E4F
:100C700060DC24D00C94430F6C3E85727361766502
:100C800029D0FEFF7A3E85756C696E6B23D0FCFF20
:100C9000863E847461736B001DD0F2FF923E8268C1
:100CA000700018D000009E3E826862008ED185D10F
:100CB0000C942704A83E8462617365000BD0EEFF9C
:100CC000B63E84757365720029D333DC2BDED4D431
:100CD00002DE81D3FF91FF91EF91AFDB820D931D77
:100CE00008959E3B82303D000197880B990B089533
:100CF000C23E86736F757263650079D10C94EC0205
:100D0000F23E872F737472696E675FDD68DDADDD5B
:100D100076DD9DDD7FDD0895023FC15CEEDF60D1B1
:100D200059D060640C94DE031A3F8570617273655C
:100D3000B1D2E3DF55D1E2D1E8DF8F939F9357DD46
:100D4000D3DA4DDD5CDD53DDE7DA009709F0F6DD3F
:100D500061DD60DD4CDD89DD43D10DDEE4DE0C9428
:100D600035042A3F84776F726400E2DF2EDDE6DD12
:100D7000DADE0C94B20F643F85636D6F766525DD16
:100D80003EDE3DDD03C016D05FDE66DE40D5D8F71F
:100D90001F910F9140DE0C94DE03783F85706C61EB
:100DA000636534DCDFDEECDB10DD0C94BF069C3FBA
:100DB0008363402B9A938A93019607DD0C94990FD5
:100DC000B03F82402B009A938A930296FEDC0C94EB
:100DD0007E0F81210C94430FC23F836E3E63EADF96
:100DE0008F7035DD0C94AC02DA3F83633E6E66D3C0
:100DF00051D2B4DE0E943C0F27FFC9F30895EA3FA9
:100E000083286629A881B9819A938A9358DA009732
:100E100051F0899199910297FC01F2538791979132
:100E2000009781F709C0CADC77DE34D2D8DFCDDC89
:100E300009D05ADF2BDC5CDD0895004086696D6DBA
:100E400065643F008BDE982E807408953C40846674
:100E5000696E640015D2564CD5DF009729F4AEDCDC
:100E60000FD208224BD1CEDF08954E4086646967C9
:100E700069743F008A331CF081361AF08797C09757
:100E80000AF49FC107D21ADF39D10C94DB046C40FD
:100E9000857369676E3FA3DC61DE082F8FDC0D323E
:100EA00019F00B3219F003C004D094C102D00C9495
:100EB000E108ECDB0C94850690408375642A8F93DF
:100EC0009F93F4DD7BDC81DCA5DCF0DD90DC0C9411
:100ED0002704BA408675642F6D6F640090DC71D171
:100EE000A4DCEBDD84DC83DC95DCE7DD0C94F7032C
:100EF000D440873E6E756D62657221E00097D1F037
:100F00007EDC8F939F932ADE8E3279F0B3DFC3DDD0
:100F100021F454DC7FDC7EDC0DC071DCCFDEEED052
:100F2000CEDF78DC9CDC20E001C048DC73DC72DCC6
:100F3000C0DFE4CF820F0895F240876E756D626561
:100F4000723FA8D13ED13DD152DC34DFA4DF57DC63
:100F5000B5DED4D054DC43DC01DE8397833038F433
:100F600008DB8ED1AC3373DC1EDAA3DF01C026DCD4
:100F7000C4DF50DCA3DE2EDF8EDD29F04BDC3FDB4F
:100F80003EDB1FD111C00197E9DD0E943C0F42DC1E
:100F900082DD09F067D42E3221F429DC82E090E072
:100FA00003C00CDCB9DD72DB0895847377617000D7
:100FB0000C94E5033A41837469236EDE9FD0089652
:100FC0000C947E0FB6418374696205D00C947E0F39
:100FD000C641837469757EDEF0FFD241833E696E3F
:100FE00079DEFAFFDC418727736F7572636572DE05
:100FF000F6FF50D10F91FF91EF911FDAF695E7952B
:10100000D5DC49DD1994E64189696E7465727072A8
:101010006574EDDFEADAD5D0E3DFDCDE27D653D224
:10102000A4DE38D19BDD37DD09F464C013DF0097FF
:1010300009F445C07EDC4ED257DE5ADC2CDD99F037
:1010400094FE0AC047D279DB0D434F4D50494C45C1
:10105000204F4E4C591500D16F7B9BD966FDDECFDA
:101060006F7E6F7D2AC06F7EC4DFE83E11F0606145
:1010700020C067FF14C0BDDFE03A11F01BDC1DC0CB
:10108000B8DFF03A11F01FDC18C0B3DF4E3A11F0B0
:10109000F7DB13C0AEDF6A3A11F0F9DB0EC06F7DEB
:1010A000A8DF944409F0606295FE03C00E94DD0B46
:1010B00004C022D16D7F94FC62606F77AFCF6F74F4
:1010C0007DDB3FDF009781F005D2E5DC59F0082F8A
:1010D0008991999101FF03C06BDF0E94120F0E945A
:1010E000120F9CCF6BDBE9CF69DB46D063DE17DBE9
:1010F00068D0A8D0BBD50C94DE0381400C947E0F41
:10110000084283736862F2D1F9DFC4D027DD6FDB58
:10111000EFDB4EDF0C94B20F024389696D6D65649D
:1011200069617465ADD040000C9483081A438769E7
:101130006E6C696E6564A4D020000C9483082E4305
:10114000832E73749DD03C000FD90E9447100CD998
:1011500097D02C0009D90E946B10E1DA91D03E00A3
:1011600003D90C94F80A823E72000C94FF0352D902
:101170000A0040438364703E83D00022C6D1F7DF6B
:101180000C94BF067443833E64707AD0002237DC2F
:10119000BCD176D0090033DB0DDE7CD04CD401DC31
:1011A0007ADC11F051DC01C009DB56DC30D3A0F74A
:1011B0001F910F9130DC0C94DE0386438566616CD1
:1011C00073659A938A93882799270895BC438474FA
:1011D000727565009A938A938FEF9FEF0895CE43BF
:1011E0008471756974004BD917D176D9C5DF7F77C3
:1011F00088D0EBDE4FD0E1DE0A9752DA24DA09DF3D
:1012000069D149DCA1F71AD5C0DF97DA03206F6BEB
:1012100086DA07D00C94F608E0438670726F6D7022
:1012200074000E94EE0F0A221A448561626F727484
:1012300063D164DF20D90C94F3082A44873F6162AC
:101240006F72743F7ADA023F15000C942C093C440B
:10125000863F61626F727400CADA1DDC19F4F3D93B
:101260005EDAE6DF0C94FF025044D661626F72745E
:1012700022007DDAEBD8584408956A44836C69747F
:10128000FF91FF91EF91D9D8F695E7951994263AF9
:10129000A36475709A938A930895E43E82303C006B
:1012A000990F880B990B08957C4481270CD15DDD43
:1012B000D1DD0C942209AA4484636861720003D1D1
:1012C00037DD7CDA0C94990FB844C128D9DF2900A6
:1012D0002FDD60640C94FF02CA44856968657265FD
:1012E00073D00CCFDA44D65B636861725D00E7DFD0
:1012F0000C94120F8363662C0C94CA02E64482633A
:101300007200BEDF0D000E94B401BADF0A000C9427
:10131000B401FE44866372656174650077FD8ED406
:1013200077FD33DFD0D021DDB5DF94DDF5DBDCDC0C
:1013300004DA0F414C524541445920444546494E38
:1013400045448ADFA7DF0ADCA1D99ADF10001FDB42
:1013500079DF7068C5DF00D937D03CDDC7D0CEDE7D
:10136000BADA28DDBDDF96DFC1D034DD38DA806837
:1013700036DAF8DB05D929DA02DDB2DFEFDB8F7769
:10138000D8DAEAD879D17CDF14360DD9DBD8BBD8CE
:10139000B0D881DB09F4D7DA0C9435101445D87035
:1013A0006F7374706F6E65008ED0DFDC53DD72DF9B
:1013B00049DF76DF70DB21F00E9426024C368BCAB3
:1013C0000C94CA02836964700E940A02C0038728D1
:1013D000646F65733E29FF911DDA88D08FDEFFDCD4
:1013E000F3DF8CDEC2DEF0DFF5DC4ADF0E940E9414
:1013F00035100E9435100EDAE7DF0C94430F9E453E
:10140000D5646F65733E0E942602D6450E9426026F
:10141000283608950046C15B5092CD0308951646C4
:10142000815D6092CD0308952046813A77DFF9DF30
:101430000C94E5022A46873A6E6F6E616D6550DF47
:101440000C94110A3646D13BE7DF61FD23C048DF2B
:1014500028D08C01107F105D59F08991999121D08D
:101460008E509449B1F48CE094E9AFD90C94430FB9
:1014700053DB9F7093FD906F72DA32DFE8D900DFA3
:10148000FEFFFAD0FDDE0C9407D092539695879517
:1014900003C0B5D8F5DE08950C9435104646822D6C
:1014A00040000CD0F7DE0C947E0F9E46D35B275D88
:1014B000FDDE0C94120FAC46A2322D000297089567
:1014C000B84682626C000E940A022000C246857300
:1014D000746174659A938A938091CD039091CD0342
:1014E0000895CE46866C6174657374000E940A028A
:1014F000C603E44682733000EDDBE4FFF4468272FB
:101500003000E8DBE6FF83696E690E940A02BE03D1
:10151000FE46857469636B739A938A93C701089535
:101520001247826D7300F8DF92D97FD58C01F89451
:101530000E191F097894CAF70C94DE032247832EF4
:10154000696438DC8F705BD903C034DC0AD0DFDE1D
:101550005ED1D8F71F910F910C94DE033E47833E76
:1015600070729927803012F080320AF48EE208956A
:1015700021DC86DE0F00B4D928D939DA26D91ADC65
:1015800036D92DD972D9D5D91CDEDDDA38D90AC0C1
:101590000E94060349D260DA18D90E94591011F04E
:1015A000989403C034D1A0F718941F910F910CC0E8
:1015B0000E940603DDDF21F06DDEC3DF0E942303FE
:1015C0007DDF9CDD0097A1F70C94FF025E478577D5
:1015D0006F72647378DFC9DB5DDE52DE564C02D079
:1015E00085DF8CDD8EDE0C94D80ACE47822E730008
:1015F0000E9423034FDE0E9433027EDF7FDD5EDF29
:101600000E940603D8D947DA19F04BDFF7DAF8CF92
:10161000D5D80C94FF02EC478464756D70000F966A
:101620002FDE10005CDAEBD820C06BDE33DE28DE64
:101630000400EEDA25DE3A006ADE22DE0F00DFD893
:10164000B9DB1EDE0200E4DAE2D0D0F71F910F9181
:1016500017DE10000AD914DE0F00D1D8ABDB81DF12
:1016600056DED5D0D8F71F910F91D1D0F0F61F914B
:101670000F910C94DE038120A7DE0C94BB04184864
:1016800083783E72FC01899199910AD031968293B8
:10169000929352925292CF0108958048833E78618E
:1016A00092539695879508959C488378613E880F5C
:1016B000991F9E5C0895AA488370666C0E940A0276
:1016C0000032842C3F303D0065FD03C0D9DD963CDF
:1016D00003C004D0D5DDA23C6F7D6FC0D1DDFCFF1F
:1016E000CBCF43D99F70906CD7CECADD08F0D4CE53
:1016F000C7DD09F464FD9B7FCFCEB848D269660090
:1017000064FDECDFE1DFF4DF6F7EEADD5ADD0C948F
:10171000710BFC48D4656C736500E2DD52DDE1DFDE
:1017200047DC0C94970B1449D47468656E006260B2
:10173000D7DD0E94EF0399D8C1DE17D9A1DD00C023
:10174000D7D836DC0C94430F2849D5626567696E9B
:101750000C9470094A49D5756E74696C626064FDB9
:10176000BDDFB2DFC5DF6F7E0C94BA0B5649D56181
:101770006761696E6260B4DD0E9435049FDE0C947F
:10178000710B6E49D57768696C65BADF0C94E50317
:101790008449D672657065617400ECDF0C94970B18
:1017A0009249D6696E6C696E65006F7E6F7D7EDDD5
:1017B0000C94DD0BA24983696E2C05DB6BDD60DDCB
:1017C0000895EFD868D919F00E943510F6CF0C941F
:1017D000FF02B649D3666F720E942602FE3980DD91
:1017E000F0DC7FDF7DDD0C94E503D449D46E6578B1
:1017F00074009DDF0E9426020E4A77DFBBDF40DDCA
:10180000224A0C94DD0B87286E6578742920FF919D
:10181000FF91EF91BF91AF911197AF93BF9319943F
:1018200008951F910F910895EC4995656E64697450
:10183000FF91FF91EF911F910F915F925F92199429
:101840002A4AB57264726F700F910F910895424ADF
:1018500083733E6497FFB5CCBDCC504A87646E65F8
:101860006761746549D00E9446030C942F045C4A5A
:10187000883F646E65676174650012DD0CD909F0FC
:10188000F1DF0895704A84646162730003DD0C9493
:101890003D0C864A82642B00A991B991E991F99196
:1018A00009911991A00FB11F8E1F9F1FBA93AA9380
:1018B0000895944A82642D00D5DF0C944C0CB44AF0
:1018C0008364322F099119919595879517950795FE
:1018D0001A930A930895C04A8364322A0991199190
:1018E000000F111F881F991F1A930A930895D84A51
:1018F0008764696E766572740991199100951095E7
:10190000809590951A930A930895F04A8364303D28
:10191000A991B991892B8A2B8B2B51F48FEF9FEFD3
:1019200008950C4B8364303CA991B9919030B2F387
:10193000882799270895244B82643D00BDDF0C94CD
:10194000880C384B82643C00B7DF899199918FEF06
:101950009FEF14F0809590950895444B82643E006B
:101960000E940D030C94A40C5C4B8375642E0FD95C
:1019700027D92FD90E948F030C9423036A4B8264CA
:101980002E0005D98F939F9381DF1AD90E940A04F4
:101990002BD91FD90E948F030C9423037E4B86758D
:1019A0006E757365640009D00E9483020E9435043D
:1019B0000C9499049E4B8268690062DCCA4B0E94B9
:1019C00079020E9427040C947E0FFFFFFF31FF2154
:1019D000B64B8278400080935B0089919991FC011D
:1019E0008791979150925B000895D24B82782100A5
:1019F000082F899199910F9442FF0C942E0FEC4B74
:101A000085706F7274629A938A9385E290E008956C
:101A1000004C8464647262009A938A9384E290E03A
:101A20000895124CA24070009A938A93CA010895B7
:101A3000244C837063409A938A93CA010C94990F43
:101A4000324C837061649A938A938091C40390911D
:101A5000C5030895424CA370322B470D551D0895C0
:101A60000000866D61726B6572000E945E0256DC3A
:101A700007DC00220E9483027ADB81D978DB0E9496
:101A8000D7030E946C02A7DC0E9414023EDD6FDBCC
:101A90000C94BF063434856C6F61642B70610895BB
:101AA000964C856C6F61642D7F7E2F9808951E4E35
:101AB00083747831813161F0833191F0B6D2009135
:101AC000C80005FFFBCF8093CE00899199910895BE
:101AD0008991999102C071FF08957D7FF1E107C05E
:101AE0008991999102C071FD08957260F3E1E091CE
:101AF000C800E5FFFCCFF093CE000895B04C837290
:101B0000783193D220D00E944B05D9F39A938A93CF
:101B1000ECE9F3E0A0919A03EA0FF51D8081992783
:101B200000915F00F894A395AF71A0939A03A091E0
:101B30009B03AA95A0939B0300935F000895FE4C1E
:101B4000847278313F00A0919B03A5110C94EA08A0
:101B50000C94E10800FE03C093DB5000D8DB01FECB
:101B600003C08EDB4500D3DB02FE03C089DB4200ED
:101B7000CEDB03FE03C084DB5700C9DB16FE03C0C7
:101B80007FDB4D00C4DB0C94230374FF01C02F984E
:101B900076FF0CC00AEE201649F4E0917803E0309D
:101BA00029F46092530088955092530074FD2F9A47
:101BB0000895A24C8374783038D20091C00005FF9C
:101BC000FBCF8093C600899199910895E091C00060
:101BD000E5FFFCCFF093C6000895B44D83727830D2
:101BE00024D220D00E944B05D9F39A938A93E9E737
:101BF000F3E0A0917703EA0FF51D8081992700910A
:101C00005F00F894A395AF71A0937703A091780338
:101C1000AA95A093780300935F000895DC4D847229
:101C200078303F00A0917803A5110C94EA080C9439
:101C3000E108F2338669666C7573680060FD0D9487
:101C400079FF0895404D85656D70747919DB7E3399
:101C500017DB002215DB0C000E94BF060E94E10882
:101C60000FDB02220E94B20F0C94BC085524E1E065
:101C7000F2E03F010895464E847761726D00F8945A
:101C8000AA27BB27C9E1D0E0DD93C150E9F7109046
:101C90005F000090540050925400B2E0A0E05D92CA
:101CA000B132E9F7AF3FD9F75C92BA94B092CB0367
:101CB000C8E6D4E00BE214E00DBF1EBFD7DF0E94E0
:101CC000ED000AEE13E0180150925B00D9DA8A3376
:101CD000D7DACC03D5DA1C000E94BF06D1DA002285
:101CE0000DD178DA0E94D6040E944B0509F0AEDFD0
:101CF0007092440003E00093450009EF0093470011
:101D000070926E00BDDA3233BBDA1A007BD003E387
:101D10000093C40002E00093C00008E90093C100F2
:101D200006E00093C200ACDA5833AADA25006AD084
:101D300003E30093CC0002E00093C80008E900939D
:101D4000C90006E00093CA0017DA50927803509257
:101D5000760378940E94AA0D25D0279A5FD10E941D
:101D60004B05D9F00E949D03034553430E948F0306
:101D700087DAD0070E94930A0E94C1010E944B0596
:101D800049F00E94BA017CDA1B000E94D6040E942E
:101D90004B0519F443D10E94C9010C941809784EDF
:101DA000837665720E949D0324466C617368466F5A
:101DB00072746820352041546D6567613235363064
:101DC0002031312E30342E323032340D0A000C9452
:101DD0008F03A04FA265690078940895D44FA26440
:101DE0006900F8940895DE4FC23B690049DA0C940B
:101DF0003CD146DA720039D10C940C0AE84F846960
:101E00006E742100FC01EE0F80E0E80FF3E0899191
:101E100099910E94500B0C94480FFE4FC76C697447
:101E20006572616C2DDA94440E94DD0B8093BC03D3
:101E30009093BD0360680E944A09982F92959F7005
:101E40008F70906E806811D1892F92959F708F70DE
:101E5000906E80690C9435100F943FFF8991999191
:101E6000A091C803A0FD47C1AF7FB2E08D939D93C1
:101E700074C01C50823E6100282F392F899199919E
:101E8000089574508121923240F4FC018991999116
:101E90009183808389919991089509D09233E0F6D6
:101EA0000E9406036BD001960981088367C062FF18
:101EB00008950E94F80A0E949D030341443F0E9436
:101EC0008F036BCFFC01F25360FF0BC0FB1109C005
:101ED0000E2F00700A1529F4EF7FF2E081919191A5
:101EE0000895879197910895845082613E009A9356
:101EF0008A93822F932F0895EA508140923220F4E2
:101F0000FC018191919108959233E0F6F999FECF09
:101F1000925281BD92BDF89A00B5839581BDF89A21
:101F200090B5802F0895CEDF99270895FA508263E7
:101F30004000923220F4FC01819199270895923358
:101F400090F7E4DF992708950F943FFF89919991C5
:101F5000A091C803AF7FB2E08D93616009C02E519C
:101F600082632100923238F4FC0189919991808337
:101F70008991999108959BDF923330F7F894F999FC
:101F8000FDCF925281BD92BD8991999180BDFA9AFF
:101F9000F99AF999FECF7894EBCF605183666C2D56
:101FA000646008959C5183666C2B6B7F0895A651E5
:101FB0008576616C7565B2D90E9488020CDA0E9440
:101FC00014020C947E0FB051856465666572A6D9C3
:101FD0000E94400930440E948802FDD90E941402E8
:101FE0000C94D301C851C26973000E9456090E9423
:101FF000A90470DA0E944B0529F014DF0E94260222
:10200000865001C040DF0895E651C2746F000C9401
:10201000F50F0A52877475726E6B65790E94DF0F37
:10202000BE031452857061757365AFDDA895DF93AB
:10203000CF939F938F935F934F93F101F8940EB7D3
:1020400002930DB70293B291A2911D010E910EBFA2
:102050000E910DBF4F915F918F919F91CF91DF9125
:10206000789408950C3482692C000E9470090BDF6B
:102070000E9499020C943C0B66528369632C0E9467
:10208000700970DF0E9446030C943C0B81200E9473
:102090005E060E947E0F803111F484E209C08A300E
:1020A00011F483E205C0823011F485E201C08FE3B0
:1020B00008950E94FF0309C00E9456010E94350442
:1020C0000E944B0511F00C94D40A0E94070CA0F753
:1020D0000C94D00A81200E9479020E944009A63304
:1020E0000E9427040E947E080E94DA060E9440098E
:1020F0000F000C9470049A938A938091C803909176
:10210000C9030E94F80A0E949D030441443F150040
:102110000E948F030C94180908950895020004C8C2
:0621200080000C94720027
:020000023000CC
:10FE00000C943F0E0F921F9209911991809FD0017F
:10FE1000EE27FF27909FB00DE11DF51D819FB00DCE
:10FE2000E11DF51D919FE00DF11DBA93AA93CF013D
:10FE30001F900F900895E894882329F4992319F4CA
:10FE400068940C943F0E1F92DC011990E9918991FE
:10FE5000999100E1FF27880F991F111CEE1FFF1FCA
:10FE60001A16EB07F50518F083951A1AEB0B0A958D
:10FE700089F7EA931A921F9008950C948110925377
:10FE8000052D02C00093CA038093C8039093C90351
:10FE9000033011F49E3F88F7003011F4923268F37A
:10FEA0000091C80300700A110BC00091C9030B1127
:10FEB00007C00091CA031091CB03011301C008953C
:10FEC0000E941E0E0091C8030070A02EB090C903BE
:10FED0000091CA030093CB0300935B0000E0F5019F
:10FEE000A0E0B2E017911D930A95E1F750925B00F4
:10FEF00008950E948C10F8940091CB0300935B004E
:10FF0000F501033011F4FE3F38F5003011F4F23200
:10FF100018F113E034D011E132D000E8A0E0B2E0F3
:10FF20000F921F920D901D9011E00F94BFFF32961B
:10FF30000150C1F7E050F14015E00F94BFFF17D01A
:10FF400000E0A050B14007901D9001100C943F0EAE
:10FF50000150C9F71F900F900FEFB02E0093CB0305
:10FF600050925B006E7F78940E948D10089580906F
:10FF7000570086FE089511E10F94BFFFF8CF8090DF
:10FF8000570080FCFCCF10935700E89580905700F5
:06FF900080FCFCCF089587
:00000001FF
