:100000000C94490E7BD0000079D0000077D000001E
:1000100075D0000073D0000071D000006FD00000D8
:100020006DD000006BD0000069D0000067D00000E8
:1000300065D0000063D0000061D000005FD00000F8
:100040005DD000005BD0000059D0000057D0000008
:1000500055D0000068C0000051D000004FD0000013
:100060004DD000004BD0000049D0000047D0000028
:1000700045D0000043D0000041D000003FD0000038
:100080003DD000003BD0000039D0000037D0000048
:1000900035D0000033D0000031D000002FD0000058
:1000A0002DD000002BD0000029D0000027D0000068
:1000B00025D0000023D0000021D000001FD0000078
:1000C0001DD000001BD0000019D0000017D0000088
:1000D00015D0000013D0000011D000000FD0000098
:1000E0000DD000009F918F911F910F91FF91EF9183
:1000F000A991B991B0935F00B9911895BA93B09155
:100100005F00BA93AA93BF91BF91AF91EF93FF9312
:100110000F931F938F939F93552401E0A00FB3E09B
:10012000ED91FD911994BA93B0915F00E60CF51C26
:10013000E1CFB091C600A0917803A395A093780376
:10014000E9E7F3E0A0917603EA0FF51DB083A395EC
:10015000AF71A0937603C6CFB091CE00A0919B0360
:10016000A395A0939B03ECE9F3E0A0919903EA0F18
:10017000F51DB083A395AF71A0939903B3CF000091
:1001800044540C22C604764C6043000268042B04DD
:10019000CC4DF44D384E0A006C041C3400000000B5
:1001A00000000000EA03DA36E836F8366C3E7A3EA4
:1001B0008A3E4E528377642BF894A8959091600004
:1001C0009861909360008770886080936000789455
:1001D0000C94EB03B4338377642DF894A895509274
:1001E000540008E1009360005092600078940895F4
:1001F000D633A3637764A895089500008465786971
:1002000074000F910F910F910895484E886F70659B
:100210007261746F72000E941C021C34EA030000B9
:10022000400040005A00FC338469646C65007064CF
:10023000089528348462757379007F7B0895A452F1
:10024000846D73657400FC01899199910191082B6B
:1002500002938991999108954034846D636C720082
:10026000FC018991999101918095082302938991CC
:10027000999108955A34866C736869667400FC011C
:100280008991999131971AF0880F991FFBCF0895A2
:1002900076348672736869667400FC01899199915D
:1002A00031971AF096958795FBCF08958FD5ACD2EC
:1002B0008DD5AAC29234826E3D00A991B991FC01FC
:1002C000F25387918F700D90102C081A31F487919A
:1002D0000D90081A11F41A94D1F7802D99270895DA
:1002E000B63484736B69700099910991A991B991A1
:1002F000903051F00C91803211F4003210F0081758
:1003000019F411969A95F4CFBA93AA93892F992745
:100310000895E234847363616E009991A991A99163
:10032000B991903051F00C91803211F4003228F0E4
:10033000801719F011969A95F4CFBA93AA93892F42
:1003400090E008951435846D74737400FC018191FC
:100350000991199180239927089546358346637939
:100360006BD0803E8373703F90D00E948B0AD4D6AE
:100370000E94860AD1D6EAD217D3F1D10353503F57
:1003800077D708955C3584656D69740081D30C94CA
:10039000E5018635836B657981D30C94E50194354D
:1003A000846B65793F0080D30C94E501A0358765A7
:1003B000786563757465FC01F25389919991F6959E
:1003C000E7951994AE3583406578A6D60C94DB0189
:1003D000C635887661726961626C6500A6D0BBD053
:1003E000F3D10C940502D23589327661726961626B
:1003F0006C659BD051D70400E7D10C940502E83519
:1004000088636F6E7374616E74000E94200A0E948C
:100410001C0F0C942E0A00368932636F6E73746160
:100420006E74E0D10E94200A0E941C0F0E941C0FD3
:100430000C942E0A83286329FF91FF91EF910FD02E
:10044000FF91FF91EF91199483286429BF91BF9187
:10045000AF91FF91FF91EF9102D0FD0119949A9312
:100460008A93EE0FFF1F87919791089583282C2977
:100470000F91FF91EF91F3DFF695E795EF93FF93DF
:100480000F939AC0183683737040FE019A938A9333
:10049000CF010895863683737021EC01089583722D
:1004A0007030BF91BF91AF910E948B0A35D68DBF3E
:1004B0009EBF89919991FD0119949636B37270404F
:1004C0009A938A938DB79EB70895BC36A23E3C009E
:1004D000082F892F902F0895CC3685666C6173683C
:1004E0005092CC030895DA3686656570726F6D00A0
:1004F0007092CC030895E8368372616D04E0009336
:10050000CC030895F8368264700068D704D00C9448
:100510003404836373659A938A938091CC039927FB
:1005200008950637846865726500EFDF0C94910FBB
:100530002437812CFADF5AD40ED00C94E4033237DE
:1005400082632C00F2DF1BD3B3D00C94E40340375A
:100550008463656C6C009A938A9382E090E00895BE
:10056000503785616C69676EE0DF08D0CEDF0C9490
:10057000500F623787616C69676E656401968E7F84
:1005800008957437A563656C6C2B029608958437C3
:10059000A563656C6C73880F991F08959037A563E8
:1005A0006861722B019608959E37A5636861727326
:1005B0000895AA378363662C79D69ED663D14FD12E
:1005C0006BD6F00F0ED274D241F066D60E940E9414
:1005D0004A1092539695879506C08ED653D178D7F8
:1005E000D1D19F70906D0C944A1082213A0054D65C
:1005F000FAFF0C94460BB4378232400057D68CD5A4
:10060000F1D0C3DF0C948C08F83782322100EAD095
:10061000F3D0BBDFEBD30C94500F0A3885326472F1
:100620006F70D9D00C94EB031C3884326475700061
:10063000E3D00C94FC032A38853273776170E4D0E0
:10064000EBD0E2D0F4D00895383885326F766572F9
:100650009A938A938E819F819A938A938E819F81A8
:1006600008954A3885737061636537D70C94C60165
:1006700064388673706163657300009719F0F5DF65
:100680006AD1FBCF0C94EB03723884756D696E00F0
:10069000CFDFB4D106C08A3884756D617800C8DFB9
:1006A000A6D106D209F09ED00C94EB039838813184
:1006B0009A938A9381E090E00895AE3886616363EF
:1006C0006570740099D0D0D0A7D0F0D565DE8D309C
:1006D00039F08A3041F0883079F08F3769F01AC0EC
:1006E0002AD04DD221C077D026D045D2E1D1E1F039
:1006F00074D521D044D2EACF70D51DD040D26BD072
:1007000097DF61D1D5D111F726D129D00308200870
:1007100018D0DCCFCBD53ADE6FD031D217D192D002
:100720006BD051D1C5D191F20F910F915BD00C9448
:10073000420483666372DBD2F5FFBC38847479703F
:1007400065006AD002C042D321DE0E94110CD8F7A6
:100750001F910F910C94EB033C3983287322FF9176
:10076000FF91EF91EE0FFF1F07919A938A93CF01AC
:100770009E5C9A938A93802F9927E00FF91F3196F8
:10078000F695E79519945A39D273220071DE5E39D5
:10079000A7DE05D00C947E028839822C22007CD5FD
:1007A0002200D3D2C2DE28D0D1D0E8DE0DD00C9406
:1007B000DD069A39D22E2200E9DF5ADE4239089549
:1007C000B43985616C6C6F74A0DE0C94C804C239B6
:1007D000A464726F7000899199910895D0398473DF
:1007E00077617000099119919A938A93C8010895CD
:1007F000DE39846F766572009A938A938A819B8131
:100800000895F23983726F7407D0ECDF10D00C9426
:10081000F203043A923E7200FF91FF91EF918F93A1
:100820009F93899199911994143A92723E00FF9185
:10083000FF91EF919A938A939F918F9119942A3AFD
:1008400092724000FF91FF91EF919A938A939F914A
:100850008F918F939F931994A8448361627326D5D7
:100860000C94A8055A3A812B09911991800F911F78
:100870000895663A826D2B000E94340C0C94560C3D
:10088000743A812D09911991081B190BC80108951B
:100890000090BC031090BD030895FADF00941094FB
:1008A000060C151C0BD001C008D0906521D0FED4D9
:1008B000812D07D0806990641BC0EADF19D718D753
:1008C000802D982F92958F709F7080680895F5DF26
:1008D00090670ED0EBD4812DF4DF8069906708C05B
:1008E000ECDF906605D0E2D4812DEBDF8069906665
:1008F0000C944A10823A83616E64099119918023A5
:1009000091230895F63A826F720009911991802B14
:10091000912B0895063B83786F7209911991802776
:1009200091270895163BA6696E76657274008095CE
:1009300090950895263B866E656761746500809585
:10094000909501960895363BA2312B0001960895AB
:10095000483BA2312D0001970895523BA2322B0053
:10096000029608955C3B853E626F647904960C9410
:10097000910F663BA2322A00880F991F0895743B9D
:10098000A2322F00959587950895803B822B2100F8
:1009900029DF32DFC1D368DF25DF0C94500F8C3B99
:1009A0008677697468696E0027DF6CDF35DF6ADF80
:1009B0003EDF0C94F704A03B823C3E0004D00C9434
:1009C0008106B444813D5EDF0C948106C43B813CCA
:1009D00059DF8FEF9FEF14F0809590950895CE3BEF
:1009E000813E00DF0C94E804E03B82753C004ADF66
:1009F000880B990B0895EA3B82753E00F3DE0C9458
:100A0000F704F83B82217000AC0189919991089517
:100A1000043C9421703E7200FF91FF91EF914F933F
:100A20005F93AC01899199911994123C93723E7035
:100A3000FF91FF91EF915F914F9119942C3C82703F
:100A400040009A938A93CA010C94910F3E3C8270A5
:100A500021009A938A93CA010C94500F4E3C8370E4
:100A600063219A938A93CA010C94C70F5E3CA270CB
:100A70002B00460D551D08956E3C83702B2B480F9F
:100A8000591F8991999108957A3C8527656D6974FC
:100A90002ED1E8FF8A3C84276B65790028D1EAFFD4
:100AA000963C85276B65793F22D1ECFF833F303D33
:100AB00000978991999108958364303D0097089536
:100AC000A23C83756D2A0D9402FFC23C86756D2F82
:100AD0006D6F64000D941BFFCC3C85752F6D6F64AA
:100AE0007CD380DE0D941BFFDA3C812AECDF0C9472
:100AF000EB03EA3C82752F00F3DF0C949905F43C7C
:100B000086752A2F6D6F640087DEDDDF90DE0C9422
:100B10006A05003D812F8CDD00DF7EDEA0DE62DE17
:100B20009EDE60DEE9DF83DE0C94A805143DA36E33
:100B300069700991099108952E3D847475636B0065
:100B400051DE0C94FC033A3D873F6E656761746526
:100B5000B3D3AEDF09F0F3DE0895483D836D6178CD
:100B600067DD36DF9ECD5C3D836D696E61DD39DF0B
:100B700098CD826340000C94AC0F826321000C94EA
:100B8000C70F683D8275700057DC0200843D8468A1
:100B90006F6C64002BD392D0FBDE90D0BDD20C944E
:100BA000C70F8E3D823C23008ED088D00C94500F0E
:100BB000A43D8564696769748A300CF08796C09695
:100BC0000895B23D812387D0A7D296D11DDEF4DFF0
:100BD0000C94CA05C43D82237300F5DF29DD95DE40
:100BE00067DFD9F70895D63D82233E001ADD66D02F
:100BF00093D269D001DE0C944204E83D84736967A6
:100C00006E0090301AF448D32D00C4DF0C94EB032F
:100C1000FC3D82752E00C8DFE0D2DFDFE7DF91DD2B
:100C20000C943503123E83752E72BEDF94DEF4DD24
:100C3000D4D201C0C8DFF5D5E8F71F910F91CDDF01
:100C4000D5DF7FDD0C943503263E812EADDF2ED31C
:100C500006DEC3D2C2DFD8DDD4DFC8DF72DD0C947C
:100C600035034A3E87646563696D616C8ED233D00B
:100C70000C94500F643E836865780ED310002BD01F
:100C80000C94500F763E8362696E65DC24D00C9420
:100C9000500F863E85727361766529D0FEFF943EC3
:100CA00085756C696E6B23D0FCFFA03E8474617304
:100CB0006B001DD0F2FFAC3E8268700018D00000BF
:100CC000B83E826862008FD186D10C943404C23E53
:100CD0008462617365000BD0EEFFD03E847573654E
:100CE000720028D338DC2BDED1D402DE7ED3FF9114
:100CF000FF91EF91B4DB820D931D0895B83B8230D4
:100D00003D000197880B990B0895DC3E86736F7543
:100D1000726365007AD10C94FE020C3F872F7374C6
:100D200072696E675FDD68DDADDD76DD9DDD7FDDDF
:100D300008951C3FC15CEEDF61D158D060640C9413
:100D4000EB03343F857061727365B0D2E3DF56D137
:100D5000E3D1E8DF8F939F9357DDC6DA4DDD5CDD8D
:100D600053DDDBDA009709F0F6DD61DD60DD4CDD97
:100D700089DD44D10DDEE4DE0C944204443F8477E7
:100D80006F726400E2DF69D618D00C942D0D7E3F9F
:100D900085636D6F766526DD3FDE3EDD03C016D0D0
:100DA00060DE67DE3ED5D8F71F910F9141DE0C94CF
:100DB000EB03903F85706C6163653ADCE0DEF2DB4B
:100DC00011DD0C94CB06B43F8363402B9A938A9336
:100DD000019608DD0C94AC0FC83F82402B009A931B
:100DE0008A930296FFDC0C94910F81210C94500F92
:100DF000DA3F836E3E63EADF8F7036DD0C94BE020D
:100E0000F23F83633E6E64D351D2B5DE0E94490F38
:100E100027FFC9F308950240832866299A938A938D
:100E20008A819B819A938A938A819B8146DA009773
:100E300041F08991999102970E946F0F009771F785
:100E40000AC08991999175DE31D2D5DFCBDC09D00A
:100E500058DF2EDC5ADD0895184086696D6D656493
:100E60003F0089DE982E807408955A408466696E2A
:100E7000640012D26A4CD2DF009721F4ACDC40D37C
:100E80004BD1CCDF08956C408664696769743F007C
:100E90008A331CF081361AF08797C0970AF49DC1F7
:100EA00005D219DF39D10C94E8048840857369674D
:100EB0006E3FA2DC60DE082F8EDC0D3219F00B32A3
:100EC00019F003C004D092C102D00C94ED08F0DBFD
:100ED0000C949206AC408375642A8F939F93F3DD44
:100EE0007ADC80DCA4DCEFDD8FDC0C943404D640AB
:100EF0008675642F6D6F64008FDC6FD1A3DCEADD33
:100F000083DC82DC94DCE6DD0C940404F040873E54
:100F10006E756D62657221E00097D1F07DDC8F9374
:100F20009F9329DE8E3279F0B3DFC2DD21F453DCEA
:100F30007EDC7DDC0DC070DCCEDEEED0CEDF77DC7B
:100F40009BDC20E001C047DC72DC71DCC0DFE4CF59
:100F5000820F08950E41876E756D6265723FA6D14E
:100F60003CD13BD151DC32DFA4DF56DCB4DED4D03F
:100F700053DC42DC00DE8397833038F40CDB8CD109
:100F8000AC3372DC22DAA3DF01C025DCC4DF4FDC26
:100F9000A2DE2CDF8DDD29F04ADC43DB42DB1DD1F4
:100FA00011C00197E8DD0E94490F41DC81DD09F0A5
:100FB00063D42E3221F428DC82E090E003C00BDC05
:100FC000B8DD76DB08958473776170000C94F203CA
:100FD0005641837469236DDE9FD008960C94910F5F
:100FE000D2418374696205D00C94910FE2418374FD
:100FF00069757DDEF0FFEE41833E696E78DEFAFFB3
:10100000F8418727736F7572636571DEF6FF4ED105
:101010000F91FF91EF9123DAF695E795D4DC48DD47
:101020001994024289696E74657270726574EDDF9D
:10103000EEDAD3D0E3DFDADE23D64FD2A3DE36D129
:101040009ADD36DD09F464C014DF009709F445C069
:101050007DDC4AD256DE59DC2BDD99F094FE0AC0C5
:1010600043D27DDB0C434F4D50494C45204F4E4CF5
:101070005900FED06F7B9FD966FDDECF6F7E6F7DFE
:101080002AC06F7EC4DF023F11F0606120C067FF9D
:1010900014C0BDDFFA3A11F01ADC1DC0B8DF0A3BFC
:1010A00011F01EDC18C0B3DF683A11F0F6DB13C094
:1010B000AEDF843A11F0F8DB0EC06F7DA8DFAC44E0
:1010C00009F0606295FE03C00E94E70B04C020D1C6
:1010D0006D7F94FC62606F77AFCF6F747CDB3FDF16
:1010E000009781F001D2E4DC59F0082F89919991A1
:1010F00001FF03C06BDF0E941C0F0E941C0F9CCFDE
:101100006ADBE9CF68DB45D061DE1BDB66D0A7D0A8
:10111000B7D50C94EB0381400C94910F2442837358
:101120006862EED1F9DFC2D026DD6EDBEEDB4EDF8A
:101130000C94C70F1E4389696D6D656469617465A0
:10114000ABD040000C949108364387696E6C696E91
:101150006564A2D020000C9491084A43832E7374D6
:101160009BD03C0013D90E945C1010D995D02C0064
:101170000DD90E948010E5DA8FD03E0007D90C947B
:10118000020B823E72000C940C0456D90A00836450
:10119000703E82D00022C3D1F8DF0C94CB06833E90
:1011A00064707AD0002238DCBAD176D0090034DB02
:1011B0000DDE7CD04AD402DC7BDC11F052DC01C0B5
:1011C0000ADB57DC2ED3A0F71F910F9131DC0C9472
:1011D000EB035C438566616C73659A938A938827F9
:1011E00099270895D4438474727565009A938A93FD
:1011F0008FEF9FEF0895E64384717569740051D9AC
:1012000015D17CD9C6DF7F77AFD887D0ECDE4ED042
:10121000E2DE0A9757DA29DA0ADF66D149DC99F764
:1012200017D5BFDF9CDA03206F6B8BDA07D00C94E5
:101230000209F8438670726F6D7074000E9403108B
:101240000A2234448561626F727460D165DF25D9EA
:101250000C94FF084444873F61626F72743F7FDAE9
:10126000013F0C9438095644863F61626F727400E6
:10127000CBDA1EDC19F4F9D964DAE7DF0C94110338
:101280006844D661626F7274220080DAF1D87044CB
:1012900008958244836C6974FF91FF91EF91DFD8C8
:1012A000F695E7951994403AA36475709A938A93DA
:1012B0000895FE3E82303C00990F880B990B0895EB
:1012C000944481270AD15EDDD4DD0C942F09C244F9
:1012D00084636861720001D138DD7DDA0C94AC0F53
:1012E000D044C128D9DF290030DD60640C9411039B
:1012F000E24485696865726571D00ECFF244D65BB1
:10130000636861725D00E7DF0C941C0F8363662CD9
:101310000C94DC02FE4482637200BEDF0D000E946A
:10132000C601BADF0A000C94C601164586637265D1
:101330006174650077FD8CD4D0D024DDB7DF99DDF2
:10134000F8DBDFDC0CDA0F414C52454144592044B4
:101350004546494E45448CDFA9DF0DDCA9D99CDF09
:10136000100022DB7CDF7068C7DF08D937D03EDD94
:10137000C7D0D2DEBDDA2ADDBFDF98DFC1D036DDCF
:101380003BDA806839DAFBDB0DD92CDA04DDB4DF17
:10139000F2DB8F77DBDAF2D879D17EDF383615D9F8
:1013A000E3D8C3D8B8D884DB09F4DADA0C944A104D
:1013B0002C45D8706F7374706F6E65008ED0E2DC50
:1013C00058DD74DF4CDF78DF73DB21F00E943802D8
:1013D00070368ECA0C94DC02836964700E941C0211
:1013E000C0038728646F65733E29FF9120DA88D097
:1013F00093DE01DDF3DF90DEC6DEF0DFF7DC4CDFED
:101400000E940E944A100E944A1011DAE7DF0C94F1
:10141000500FB245D5646F65733E0E943802EA45AD
:101420000E9438024C3608951446C15B5092CD0399
:1014300008952A46815D6092CD0308953446813A2D
:1014400079DFF9DF0C94F7023E46873A6E6F6E61E2
:101450006D6552DF0C941B0A4A46D13BE7DF61FD04
:1014600023C04ADF28D08C01107F105D59F089918C
:10147000999121D08E509449B1F48CE094E9B2D97D
:101480000C94500F56DB9F7093FD906F75DA34DF2C
:10149000EBD902DFFEFFFAD0FFDE0C9407D09253A7
:1014A0009695879503C0BDD8F7DE08950C944A1031
:1014B0005A46822D40000CD0F9DE0C94910FB246B2
:1014C000D35B275DFFDE0C941C0FC046A2322D00BB
:1014D00002970895CC4682626C000E941C02200094
:1014E000D6468573746174659A938A938091CD030F
:1014F0009091CD030895E246866C61746573740023
:101500000E941C02C603F84682733000F0DBE4FF41
:10151000084782723000EBDBE6FF83696E690E9448
:101520001C02BE031247857469636B739A938A9396
:10153000C70108952647826D7300F8DF95D98AD5D3
:101540008C01F8940E191F097894CAF70C94EB03D8
:101550003647832E69643ADC8F705ED903C036DC6F
:101560000AD0E1DE5ED1D8F71F910F910C94EB0306
:101570005247833E70729927803012F080320AF40D
:101580008EE2089523DC88DE0F00B7D92BD93CDA30
:1015900029D91CDC39D930D975D9D8D91EDEE0DA81
:1015A0003BD90AC00E94180349D263DA1BD90E94B2
:1015B0006E1011F0989403C034D1A0F718941F91C5
:1015C0000F910CC00E941803DDDF21F06FDEC3DF36
:1015D0000E9435037DDFA0DD0097A1F70C94110375
:1015E000724785776F72647378DFCCDB5FDE54DE21
:1015F0006A4C02D085DF90DD90DE0C94E20AE2476F
:10160000822E73000E94350351DE0E9445027EDF68
:1016100083DD5EDF0E941803DBD94ADA19F04BDF65
:10162000FADAF8CFD8D80C94110300488464756DA9
:1016300070000F9631DE10005FDAEED820C06DDE4C
:1016400035DE2ADE0400F1DA27DE3A006CDE24DE25
:101650000F00E2D8BBDB20DE0200E7DAE2D0D0F7F1
:101660001F910F9119DE10000DD916DE0F00D4D88E
:10167000ADDB81DF58DED5D0D8F71F910F91D1D0E7
:10168000F0F61F910F910C94EB038120A7DE0C94D0
:10169000C8042C4883783E72FC01899199910AD044
:1016A00031968293929352925292CF010895944828
:1016B000833E78619253969587950895B0488378D4
:1016C000613E880F991F9E5C0895BE488370666CCA
:1016D0000E941C020032842C3F303D0065FD03C097
:1016E000DBDDB03C03C004D0D7DDBC3C6F7D6FC0F8
:1016F000D3DDFCFFCBCF46D99F70906CD7CECCDD2D
:1017000008F0D4CEC9DD09F464FD9B7FCFCECC4870
:10171000D269660064FDECDFE1DFF4DF6F7EECDDB3
:101720005CDD0C947B0B1049D4656C736500E4DDC3
:1017300054DDE1DF4BDC0C94A10B2849D4746865BF
:101740006E006260D9DD0E94FC039CD8C1DE1AD90C
:10175000A3DD00C0DAD83ADC0C94500F3C49D562C6
:101760006567696E0C947C095E49D5756E74696C09
:10177000626064FDBDDFB2DFC5DF6F7E0C94C40B19
:101780006A49D5616761696E6260B6DD0E94420494
:101790009FDE0C947B0B8249D57768696C65BADF54
:1017A0000C94F2039849D672657065617400ECDFA1
:1017B0000C94A10BA649D6696E6C696E65006F7EAC
:1017C0006F7D80DD0C94E70BB64983696E2C07DBD7
:1017D0006DDD62DD0895F2D86BD919F00E944A10D0
:1017E000F6CF0C941103CA49D3666F720E94380277
:1017F000183A82DDF2DC7FDF7FDD0C94F203E849EA
:10180000D46E657874009DDF0E943802224A77DF2B
:10181000BBDF42DD364A0C94E70B87286E6578748F
:101820002920FF91FF91EF91BF91AF911197AF9355
:10183000BF93199408951F910F910895004A9565DB
:101840006E646974FF91FF91EF911F910F915F9208
:101850005F9219943E4AB57264726F700F910F9146
:101860000895564A83733E6497FFB7CCBFCC644A51
:1018700087646E656761746549D00E9458030C9453
:101880003C04704A883F646E65676174650014DDCE
:101890000FD909F0F1DF0895844A8464616273000E
:1018A00005DD0C94470C9A4A82642B00A991B991EA
:1018B000E991F99109911991A00FB11F8E1F9F1FF6
:1018C000BA93AA930895A84A82642D00D5DF0C9498
:1018D000560CC84A8364322F0991199195958795C2
:1018E000179507951A930A930895D44A8364322A68
:1018F00009911991000F111F881F991F1A930A93BC
:101900000895EC4A8764696E76657274099119913D
:1019100000951095809590951A930A930895044B1D
:101920008364303DA991B991892B8A2B8B2B51F47B
:101930008FEF9FEF0895204B8364303CA991B991BC
:101940009030B2F3882799270895384B82643D0080
:10195000BDDF0C94920C4C4B82643C00B7DF899144
:1019600099918FEF9FEF14F0809590950895584BC3
:1019700082643E000E941F030C94AE0C704B837572
:10198000642E12D92AD932D90E94A1030C943503AE
:101990007E4B82642E0008D98F939F9381DF1DD9DF
:1019A0000E9417042ED922D90E94A1030C9435035A
:1019B000924B86756E757365640009D00E9495021E
:1019C0000E9442040C94A604B24B8268690064DC55
:1019D000DE4B0E948B020E9434040C94910FFFFF97
:1019E000FF31FF2110518278400080935B00899184
:1019F0009991FC018791979150925B000895E64B75
:101A000082782100082F899199910F9440FF0C94BE
:101A1000380FCA4B85706F7274629A938A9385E20D
:101A200090E00895144C8464647262009A938A93DF
:101A300084E290E00895264CA24070009A938A9325
:101A4000CA010895384C837063409A938A93CA01FF
:101A50000C94AC0F464C837061649A938A93809186
:101A6000C4039091C5030895564CA370322B470DC3
:101A7000551D08950000866D61726B6572000E94AD
:101A8000700258DC09DC00220E9495027EDB83D9BB
:101A90007CDB0E94E4030E947E02A7DC0E942602F7
:101AA0003EDD73DB0C94CB063434856C6F61642BA4
:101AB00070610895AA4C856C6F61642D7F7E2F98AC
:101AC0000895324E83747831813161F0833191F021
:101AD000C1D20091C80005FFFBCF8093CE00899151
:101AE000999108958991999102C071FF08957D7F20
:101AF000F1E107C08991999102C071FD089572606A
:101B0000F3E1E091C800E5FFFCCFF093CE0008952B
:101B1000C44C837278319ED220D00E945805D9F3EC
:101B20009A938A93ECE9F3E0A0919A03EA0FF51DEA
:101B30008081992700915F00F894A395AF71A093DD
:101B40009A03A0919B03AA95A0939B0300935F0027
:101B50000895124D847278313F00A0919B03A51126
:101B60000C94F6080C94ED0800FE03C095DB5000C1
:101B7000DADB01FE03C090DB4500D5DB02FE03C0CB
:101B80008BDB4200D0DB03FE03C086DB5700CBDBE0
:101B900016FE03C081DB4D00C6DB0C94350374FFD9
:101BA00001C02F9876FF0CC00AEE201649F4E09190
:101BB0007803E03029F460925300889550925300E6
:101BC00074FD2F9A0895B64C8374783043D20091F7
:101BD000C00005FFFBCF8093C600899199910895BD
:101BE000E091C000E5FFFCCFF093C6000895C84D1A
:101BF000837278302FD220D00E945805D9F39A935F
:101C00008A93E9E7F3E0A0917703EA0FF51D80815D
:101C1000992700915F00F894A395AF71A093770383
:101C2000A0917803AA95A093780300935F0008958C
:101C3000F04D847278303F00A0917803A5110C9488
:101C4000F6080C94ED08F2338669666C75736800CB
:101C500060FD0D9477FF0895544D85656D7074791E
:101C60001BDB7E3319DB002217DB0C000E94CB0646
:101C70000E94ED0811DB02220E94C70F0C94C908D4
:101C80005524E1E0F2E03F0108955A4E84776172F5
:101C90006D00F894AA27BB27C9E1D0E0DD93C150BD
:101CA000E9F710905F000090540050925400B2E0A9
:101CB000A0E05D92B132E9F7AF3FD9F75C92BA94F8
:101CC000B092CB03C8E6D4E00BE214E00DBF1EBF18
:101CD000D7DF0E94ED000AEE13E0180150925B007E
:101CE000DBDA8A33D9DACC03D7DA1C000E94CB06C0
:101CF000D3DA002216D17ADA0E94E3040E94580552
:101D000009F0AEDF7092440003E00093450009EF54
:101D10000093470070926E00BFDA3233BDDA1A00CA
:101D20007BD000E10093C40002E00093C00008E90A
:101D30000093C10006E00093C200AEDA5833ACDA7B
:101D400025006AD003E30093CC0002E00093C800B2
:101D500008E90093C90006E00093CA001ADA50921D
:101D600078035092760378940E94B40D25D0279A78
:101D70006AD10E945805D9F00E94AF03034553432E
:101D80000E94A10389DAD0070E949D0A0E94D30114
:101D90000E94580549F00E94CC017EDA1B000E9487
:101DA000E3040E94580519F44ED10E94DB010C9403
:101DB00025098C4E837665720E94AF0324466C61C0
:101DC0007368466F72746820352041546D65676191
:101DD000323536302030332E30362E323032330D1D
:101DE0000A000C94A103B44FA26569007894089589
:101DF000E84FA2646900F8940895F24FC23B69006D
:101E00004BDA0C9447D148DA720044D10C94160A8C
:101E1000FC4F84696E742100FC01EE0F80E0E80F36
:101E2000F3E0899199910E945A0B0C94550F12502E
:101E3000C76C69746572616C2FDAAC440E94E70B61
:101E40008093BC039093BD0360680E945609982F4D
:101E500092959F708F70906E80681CD1892F92959B
:101E60009F708F70906E80690C944A100F943DFFA4
:101E700089919991A0E0B2E00091C80300FD0C9413
:101E800090100F7FA00F8D939D937CC03050823EA9
:101E90006100282F392F8991999108958E508121C1
:101EA000923240F4FC0189919991918380838991C8
:101EB0009991089509D09233C8F60E94180373D0FF
:101EC0000196098108836FC062FF08950E94020B8A
:101ED0000E94AF030341443F0E94A10368CFFC016D
:101EE000F25360FF11C0FB110FC00E2F00700A15D6
:101EF00059F4AF93BF93A0E0B2E0EF7FAE0F8D91A6
:101F00009D91BF91AF9108958791979108959E50AB
:101F100082613E009A938A93822F932F0895004CFA
:101F20008140923220F4FC01819191910895923385
:101F3000B0F6F999FECF925281BD92BDF89A00B5E4
:101F4000839581BDF89A90B5802F0895C8DF9927B1
:101F50000895205182634000923220F4FC01819167
:101F600099270895923390F7E4DF992708950F9405
:101F70003DFF89919991A0E0B2E00091C8030F7FE5
:101F8000A00F8D93616009C0545182632100923289
:101F900038F4FC01899199918083899199910895F0
:101FA00093DF923320F7F894F999FDCF925281BDD7
:101FB00092BD8991999180BDFA9AF99AF999FECFCB
:101FC0007894EBCF8A5183666C2D64600895C65176
:101FD00083666C2B6B7F0895D0518576616C756537
:101FE000A9D90E949A0201DA0E9426020C94910F4C
:101FF000DA518564656665729DD90E944C094A4430
:102000000E949A02F2D90E9426020C94E501F25134
:10201000C26973000E9462090E94B60465DA0E94D8
:10202000580529F009DF0E943802A05001C038DFAE
:1020300008951052C2746F000C940A1034528774C1
:1020400075726E6B65790E94F40FBE033E52857007
:1020500061757365A4DDA895DF93CF939F938F93EC
:102060005F934F93F101F8940EB702930DB702936B
:10207000B291A2911D010E910EBF0E910DBF4F9115
:102080005F918F919F91CF91DF91789408950C3457
:1020900082692C000E947C0903DF0E94AB020C9431
:1020A000460B90528369632C0E947C0970DF0E946A
:1020B00058030C94460B81200E946B060E94910FDE
:1020C000803111F484E209C08A3011F483E205C042
:1020D000823011F485E201C08FE308950E940C0460
:1020E00009C00E9456010E9442040E94580511F046
:1020F0000C94DE0A0E94110CA0F70C94DA0A8120DD
:102100000E948B020E944C09A6330E9434040E9454
:102110008C080E94E6060E944C090F000C947D0476
:102120009A938A938091C8039091C9030E94020BED
:102130000E94AF030341443F0E94A1030C94250970
:0E21400008950895020004C880000C947200F7
:020000023000CC
:10FE00000C94490E0F921F9209911991809FD00175
:10FE1000EE27FF27909FB00DE11DF51D819FB00DCE
:10FE2000E11DF51D919FE00DF11DBA93AA93CF013D
:10FE30001F900F900895E894882329F4992319F4CA
:10FE400068940C94490EDC011990E991899199917B
:10FE500000E1FF27880F991F111CEE1FFF1F1A16C4
:10FE6000EB07F50518F083951A1AEB0B0A9589F73D
:10FE7000EA931A9208950C9496109253052D02C09D
:10FE80000093CA038093C8039093C903033011F40D
:10FE90009E3F88F7003011F4923268F30091C80356
:10FEA00000700A110BC00091C9030B1107C000912B
:10FEB000CA031091CB03011301C008950E94280EBC
:10FEC0000091C8030070A02EB090C9030091CA032E
:10FED0000093CB0300935B0000E0F501A0E0B2E0EB
:10FEE00017911D930A95E1F750925B0008950E94C7
:10FEF000A010F8940091CB0300935B00F501033050
:10FF000011F4FE3F38F5003011F4F23218F113E02D
:10FF100034D011E132D000E8A0E0B2E00F921F929D
:10FF20000D901D9011E00F94BDFF32960150C1F766
:10FF3000E050F14015E00F94BDFF17D000E0A05055
:10FF4000B14007901D9001100C94490E0150C9F763
:10FF50001F900F900FEFB02E0093CB0350925B00D9
:10FF60006E7F78940E94A11008958090570086FEBD
:10FF7000089511E10F94BDFFF8CF8090570080FCE9
:10FF8000FCCF10935700E8958090570080FCFCCF81
:02FF90000895D2
:00000001FF
