:100000000C94230E7BD0000079D0000077D0000044
:1000100075D0000073D0000071D000006FD00000D8
:100020006DD000006BD0000069D0000067D00000E8
:1000300065D0000063D0000061D000005FD00000F8
:100040005DD000005BD0000059D0000057D0000008
:1000500055D0000068C0000051D000004FD0000013
:100060004DD000004BD0000049D0000047D0000028
:1000700045D0000043D0000041D000003FD0000038
:100080003DD000003BD0000039D0000037D0000048
:1000900035D0000033D0000031D000002FD0000058
:1000A0002DD000002BD0000029D0000027D0000068
:1000B00025D0000023D0000021D000001FD0000078
:1000C0001DD000001BD0000019D0000017D0000088
:1000D00015D0000013D0000011D000000FD0000098
:1000E0000DD000009F918F911F910F91FF91EF9183
:1000F000A991B991B0935F00B9911895BA93B09155
:100100005F00BA93AA93BF91BF91AF91EF93FF9312
:100110000F931F938F939F93552401E0A00FB3E09B
:10012000ED91FD911994BA93B0915F00E60CF51C26
:10013000E1CFB091C600A0917803A395A093780376
:10014000E9E7F3E0A0917603EA0FF51DB083A395EC
:10015000AF71A0937603C6CFB091CE00A0919B0360
:10016000A395A0939B03ECE9F3E0A0919903EA0F18
:10017000F51DB083A395AF71A0939903B3CF000091
:10018000DC530C22C6042A4C6243000268042B0490
:10019000804DA84DEC4D0A006C041C34000000009A
:1001A00000000000EA03DA36E836F836523E603ED8
:1001B000703EE6518377642BF894A8959091600087
:1001C0009861909360008770886080936000789455
:1001D0000C94DE03B4338377642DF894A895509281
:1001E000540008E1009360005092600078940895F4
:1001F000D633A3637764A895089500008465786971
:1002000074000F910F910F910895FC4D886F7065E8
:100210007261746F72000E941C021C34EA030000B9
:10022000400040005A00FC338469646C65007064CF
:10023000089528348462757379007F7B08953C5259
:10024000846D73657400FC01899199910191082B6B
:1002500002938991999108954034846D636C720082
:10026000FC018991999101918095082302938991CC
:10027000999108955A34866C736869667400FC011C
:100280008991999131971AF0880F991FFBCF0895A2
:1002900076348672736869667400FC01899199915D
:1002A00031971AF096958795FBCF089583D59FD205
:1002B00081D59DC29234826E3D00FC01F253A9911A
:1002C000B99197919F708D91891B39F49A95879177
:1002D0000D91801B11F49A95D2F7982F0895B6349A
:1002E00084736B69700099910991A991B9919A955C
:1002F00039F00D910930D9F3081709F4F8CF1197A7
:10030000BA93AA93892F992701960895E0348473AC
:1003100063616E00A82FB991E991E991F99109C043
:100320008191893009F402C08A1719F43197CF01FD
:1003300003C0BA95AAF7CF019A938A938B2F01969F
:10034000952D08950E35846D74737400FC018191B0
:100350000991199180239927089546358346637939
:100360006BD0803E8373703F90D00E94880AD5D6B0
:100370000E94830AD2D6DDD20AD3E4D10353503F80
:1003800077D708955C3584656D69740074D30C94D7
:10039000E5018635836B657974D30C94E50194355A
:1003A000846B65793F0073D30C94E501A0358765B4
:1003B000786563757465FC01F25389919991F6959E
:1003C000E7951994AE3583406578A7D60C94DB0188
:1003D000C635887661726961626C6500A6D0BBD053
:1003E000E6D10C940502D235893276617269616278
:1003F0006C659BD051D70400DAD10C940502E83526
:1004000088636F6E7374616E74000E941D0A0E948F
:10041000F00E0C942B0A00368932636F6E73746190
:100420006E74D3D10E941D0A0E94F00E0E94F00E3D
:100430000C942B0A83286329FF91FF91EF910FD031
:10044000FF91FF91EF91199483286429BF91BF9187
:10045000AF91FF91FF91EF9102D0FD0119949A9312
:100460008A93EE0FFF1F87919791089583282C2977
:100470000F91FF91EF91F3DFF695E795EF93FF93DF
:100480000F939AC0183683737040FE019A938A9333
:10049000CF010895863683737021EC01089583722D
:1004A0007030BF91BF91AF910E94880A36D68DBF40
:1004B0009EBF89919991FD0119949636B37270404F
:1004C0009A938A938DB79EB70895BC36A23E3C009E
:1004D000082F892F902F0895CC3685666C6173683C
:1004E0005092CC030895DA3686656570726F6D00A0
:1004F0007092CC030895E8368372616D04E0009336
:10050000CC030895F8368264700065D704D00C944B
:100510002704836373659A938A938091CC03992708
:1005200008950637846865726500EFDF0C945F0FED
:100530002437812CFADF4ED40ED00C94D7033237F7
:1005400082632C00F2DF0ED3A6D00C94D703403781
:100550008463656C6C009A938A9382E090E00895BE
:10056000503785616C69676EE0DF08D0CEDF0C9490
:10057000240F623787616C69676E656401968E7FB0
:1005800008957437A563656C6C2B029608958437C3
:10059000A563656C6C73880F991F08959037A563E8
:1005A0006861722B019608959E37A5636861727326
:1005B0000895AA378363662C79D69ED656D142D148
:1005C0006BD6F00F01D267D241F066D60E940E942E
:1005D000161092539695879506C08ED646D175D73C
:1005E000C4D19F70906D0C94161082213A0054D69D
:1005F000FAFF0C94420BB4378232400057D68DD5A7
:10060000E4D0C3DF0C948D08F83782322100DDD0AE
:10061000E6D0BBDFDFD30C94240F0A388532647236
:100620006F70CCD00C94DE031C388432647570007B
:10063000D6D00C94EF032A38853273776170D7D007
:10064000DED0D5D0E7D00895383885737061636502
:1006500041D70C94C6014A38867370616365730094
:10066000009719F0F5DF6AD1FBCF0C94DE03583800
:1006700084756D696E00DCDFB4D106C07038847596
:100680006D617800D5DFA6D106D209F09ED00C941A
:10069000DE037E3881319A938A9381E090E0089559
:1006A0009438866163636570740099D0D0D0A7D008
:1006B000FDD572DE8D3039F08A3041F0883079F026
:1006C0008F3769F01AC02AD04DD221C077D026D0FA
:1006D00045D2E1D1E1F082D521D044D2EACF7ED516
:1006E0001DD040D26BD0A4DF61D1D5D111F726D176
:1006F00029D00308200818D0DCCFD8D547DE6FD02A
:1007000031D217D192D06BD051D1C5D191F20F9186
:100710000F915BD00C94350483666372DBD2F5FFD6
:10072000A2388474797065006AD002C043D32EDE8B
:100730000E94130CD8F71F910F910C94DE032239FD
:1007400083287322FF91FF91EF91EE0FFF1F079116
:100750009A938A93CF019E5C9A938A93802F9927CC
:10076000E00FF91F3196F695E79519944039D27349
:1007700022007EDE4439B4DE05D00C947E026E3950
:10078000822C220089D52200D3D2CFDE28D0D1D02E
:10079000F5DE0DD00C94D1068039D22E2200E9DF8F
:1007A00067DE283908959A3985616C6C6F74ADDE07
:1007B0000C94BB04A839A464726F7000899199915C
:1007C0000895B639847377617000099119919A93ED
:1007D0008A93C8010895C439846F766572009A932C
:1007E0008A938A819B810895D83983726F7407D068
:1007F000ECDF10D00C94E503EA39923E7200FF91D1
:10080000FF91EF918F939F93899199911994FA3960
:1008100092723E00FF91FF91EF919A938A939F917C
:100820008F911994103A92724000FF91FF91EF91CD
:100830009A938A939F918F918F939F931994A84431
:100840008361627333D50C949B05403A812B0991E7
:100850001991800F911F08954C3A826D2B000E94D0
:10086000360C0C94580C5A3A812D09911991081B99
:10087000190BC80108950090BC031090BD030895A2
:10088000FADF00941094060C151C0BD001C008D0A0
:10089000906521D00BD5812D07D0806990641BC055
:1008A000EADF28D727D7802D982F92958F709F70D9
:1008B00080680895F5DF90670ED0F8D4812DF4DFBD
:1008C0008069906708C0ECDF906605D0EFD4812D79
:1008D000EBDF806990660C941610683A83616E6451
:1008E00009911991802391230895DC3A826F720057
:1008F00009911991802B912B0895EC3A83786F72AE
:1009000009911991802791270895FC3AA6696E767E
:10091000657274008095909508950C3B866E6567AE
:100920006174650080959095019608951C3BA231F5
:100930002B00019608952E3BA2312D0001970895BA
:10094000383BA2322B0002960895423B853E626FEF
:10095000647904960C945F0F4C3BA2322A00880FF6
:10096000991F08955A3BA2322F00959587950895B7
:10097000663B822B210029DF32DFCFD368DF25DF02
:100980000C94240F723B8677697468696E0027DFC8
:100990006CDF35DF6ADF3EDF0C94EA04863B823C85
:1009A0003E0004D00C947406B444813D5EDF0C9488
:1009B0007406AA3B813C59DF8FEF9FEF14F08095BE
:1009C00090950895B43B813E00DF0C94DB04C63B58
:1009D00082753C004ADF880B990B0895D03B8275E5
:1009E0003E00F3DE0C94EA04DE3B82217000AC0191
:1009F000899199910895EA3B9421703E7200FF918C
:100A0000FF91EF914F935F93AC0189919991199464
:100A1000F83B93723E70FF91FF91EF915F914F9180
:100A20001994123C827040009A938A93CA010C94E4
:100A30005F0F243C827021009A938A93CA010C9420
:100A4000240F343C837063219A938A93CA010C94D7
:100A5000950F443CA2702B00460D551D0895543C43
:100A600083702B2B480F591F899199910895603CF1
:100A70008527656D69742ED1E8FF703C84276B650E
:100A8000790028D1EAFF7C3C85276B65793F22D12C
:100A9000ECFF833F303D00978991999108958364DD
:100AA000303D00970895883C83756D2A0D9400FFB2
:100AB000A83C86756D2F6D6F64000D9419FFB23CD4
:100AC00085752F6D6F648AD380DE0D9419FFC03C4D
:100AD000812AECDF0C94DE03D03C82752F00F3DF1B
:100AE0000C948C05DA3C86752A2F6D6F640087DEC6
:100AF000DDDF90DE0C945D05E63C812F99DD00DFA3
:100B00007EDEA0DE62DE9EDE60DEE9DF83DE0C9448
:100B10009B05FA3CA36E6970099109910895143DF3
:100B2000847475636B0051DE0C94EF03203D873FA6
:100B30006E6567617465C0D3AEDF09F0F3DE0895BA
:100B40002E3D836D617874DD36DF9ECD423D836D31
:100B5000696E6EDD39DF98CD826340000C947A0FA8
:100B6000826321000C94950F4E3D8275700064DC09
:100B700002006A3D84686F6C640039D392D0FBDE5A
:100B800090D0CBD20C94950F743D823C23008ED034
:100B900088D00C94240F8A3D8564696769748A3013
:100BA0000CF08796C0960895983D812387D0B5D2E2
:100BB000A4D11DDEF4DF0C94BD05AA3D8223730091
:100BC000F5DF36DD95DE67DFD9F70895BC3D82237A
:100BD0003E0027DD66D0A1D269D001DE0C94350439
:100BE000CE3D847369676E0090301AF455D32D00A2
:100BF000C4DF0C94DE03E23D82752E00C8DFEED226
:100C0000DFDFE7DF91DD0C942803F83D83752E725A
:100C1000BEDF94DEF4DDE2D201C0C8DF04D6E8F71F
:100C20001F910F91CDDFD5DF7FDD0C9428030C3EA3
:100C3000812EADDF3BD306DED1D2C2DFD8DDD4DFDB
:100C4000C8DF72DD0C942803303E87646563696DEC
:100C5000616C9CD233D00C94240F4A3E8368657833
:100C60001BD310002BD00C94240F5C3E8362696E62
:100C700072DC24D00C94240F6C3E8572736176650F
:100C800029D0FEFF7A3E85756C696E6B23D0FCFF20
:100C9000863E847461736B001DD0F2FF923E8268C1
:100CA000700018D000009E3E837061649DD194D185
:100CB0000C942704A83E8462617365000BD0EEFF9C
:100CC000B63E84757365720035D345DC2BDEDAD40D
:100CD00002DE88D3FF91FF91EF91C1DB820D931D5E
:100CE00008959E3B82303D000197880B990B089533
:100CF000C23E86736F757263650088D10C94FE02E4
:100D0000F23E872F737472696E675FDD68DDADDD5B
:100D100076DD9DDD7FDD0895023FC15CEEDF6FD1A2
:100D200059D060640C94DE031A3F8570617273655C
:100D3000BDD2E3DF64D1F1D1E8DF8F939F9357DD1C
:100D4000D2DA4DDD5CDD53DDE5DA009709F0F6DD42
:100D500061DD60DD4CDD89DD52D10DDEE4DE0C9419
:100D600035042A3F84776F726400E2DF2EDDE6DD12
:100D7000DADE0C94950F643F85636D6F766525DD33
:100D80003EDE3DDD03C016D05FDE66DE4CD5D8F713
:100D90001F910F9140DE0C94DE03783F85706C61EB
:100DA000636546DCDFDEFEDB10DD0C94BF069C3F96
:100DB0008363402B9A938A93019607DD0C947A0FF4
:100DC000B03F82402B009A938A930296FEDC0C94EB
:100DD0005F0F81210C94240FC23F836E3E63EADFD4
:100DE0008F7035DD0C94BE02DA3F83633E6E6DD3A7
:100DF0005DD2B4DE0E941D0F27FFC9F30895EA3FBC
:100E00008328662970689C01FC01F253A881B9818E
:100E100097919F708D91891B39F49A9587910D91C7
:100E2000801B11F49A95D2F78030C90171F00297B6
:100E300077FD05C0FC01F2538791979103C00E9492
:100E40005F0F7F770097F9F607C088839983C7DF24
:100E5000BCDC08D049DF81600895004086696D6D73
:100E600065643F007BDE982E807408955C40846644
:100E7000696E640011D21E4CC5DF009721F49EDC20
:100E80003CD34BD1BFDF08956E40866469676974B7
:100E90003F008A331CF081361AF08797C0970AF416
:100EA0009DC104D20BDF39D10C94DB048A408573D9
:100EB00069676E3F94DC52DE082F80DC0D3219F03A
:100EC0000B3219F003C004D092C102D00C94EE088A
:100ED000E2DB0C948506AE408375642A8F939F9362
:100EE000E5DD6CDC72DC96DCE1DD81DC0C94270452
:100EF000D8408675642F6D6F640081DC6FD195DCFE
:100F0000DCDD75DC74DC86DCD8DD0C94F703F240A4
:100F1000873E6E756D62657221E00097D1F06FDCDF
:100F20008F939F931BDE8E3279F0B3DFB4DD21F413
:100F300045DC70DC6FDC0DC062DCC0DEEED0CEDFE5
:100F400069DC8DDC20E001C039DC64DC63DCC0DFFF
:100F5000E4CF820F08951041876E756D6265723F10
:100F6000A5D13CD13BD143DC25DFA4DF48DCA6DEA4
:100F7000D4D045DC34DCF2DD8397833038F40BDBEE
:100F80008BD1AC3364DC21DAA3DF01C017DCC4DF12
:100F900041DC94DE1FDF7FDD29F03CDC42DB41DBFE
:100FA0001DD111C00197DADD0E941D0F33DC73DD06
:100FB00009F064D42E3221F41ADC82E090E003C000
:100FC000FDDBAADD68DB08958473776170000C9403
:100FD000E5035841837469235FDE9FD008960C9423
:100FE0005F0FD4418374696205D00C945F0FE441B4
:100FF000837469756FDEF0FFF041833E696E6ADECF
:10100000FAFFFA418727736F7572636563DEF6FF37
:101010004DD10F91FF91EF9122DAF695E795C6DC5D
:101020003ADD1994044289696E7465727072657450
:10103000EDDFEDDAD3D0E3DFCDDEFCD54BD295DEAC
:1010400035D18CDD28DD09F464C014DF009709F484
:1010500045C06FDC46D248DE4BDC1DDD99F094FEC6
:101060000AC03FD26FDB0C434F4D50494C45204FD7
:101070004E4C5900FDD06F7B9ED966FDDECF6F7E52
:101080006F7D2AC06F7EC4DFE83E11F0606120C032
:1010900067FF14C0BDDFE03A11F00CDC1DC0B8DF03
:1010A000F03A11F010DC18C0B3DF4E3A11F0E8DB73
:1010B00013C0AEDF6A3A11F0EADB0EC06F7DA8DF25
:1010C000AC4409F0606295FE03C00E94E90B04C0C5
:1010D0001FD16D7F94FC62606F77AFCF6F746EDB52
:1010E0003FDF009781F0FDD1D6DC59F0082F8991C0
:1010F000999101FF03C06BDF0E94F00E0E94F00E79
:101100009CCF5CDBE9CF5ADB45D054DE0DDB66D0EB
:10111000A6D090D50C94DE0381400C945F0F26423C
:1011200083736862EAD1F9DFC1D018DD60DBE0DBF0
:101130004EDF0C94950F204389696D6D656469617C
:101140007465AAD040000C949208384387696E6C8D
:10115000696E6564A1D020000C9492084C43832EE4
:1011600073749AD03C0012D90E9428100FD994D0E1
:101170002C000CD90E944C10D7DA8ED03E0006D934
:101180000C94FF0A823E72000C94FF0355D90A00AA
:101190008364703E81D00022BFD1F8DF0C94BF067B
:1011A000833E647079D000222ADCB6D175D0090064
:1011B00026DB00DE7BD02DD4F4DB6DDC11F044DCCB
:1011C00001C0FCDA49DC2FD3A0F71F910F9123DC7B
:1011D0000C94DE035E438566616C73659A938A9313
:1011E000882799270895D6438474727565009A9369
:1011F0008A938FEF9FEF0895E843847175697400B7
:1012000050D911D17BD9C6DFAFD887D0EDDE4ED013
:10121000E3DE0A974ADA1CDA0BDF63D13CDCA1F784
:10122000F1D4C0DF8FDA03206F6B7EDA07D00C9425
:101230000309FA438670726F6D7074000E94CF0FBD
:101240000A2234448561626F72745DD166DF25D9EC
:101250000C9400094444873F61626F72743F72DAF4
:10126000013F0C9438095644863F61626F727400E6
:10127000BEDA11DC19F4ECD957DAE7DF0C9411036C
:101280006844D661626F7274220073DAF1D87044D8
:1012900008958244836C6974FF91FF91EF91DFD8C8
:1012A000F695E7951994263AA36475709A938A93F4
:1012B0000895E43E82303C00990F880B990B089505
:1012C0009444812707D151DDD5DD0C942F09C24408
:1012D000846368617200FED02BDD70DA0C947A0FA3
:1012E000D044C128D9DF290023DD60640C941103A8
:1012F000E2448569686572656ED00FCFF244D65BB3
:10130000636861725D00E7DF0C94F00E8363662C06
:101310000C94DC02FE4482637200BEDF0D000E946A
:10132000C601BADF0A000C94C601164586637265D1
:1013300061746500CFD019DDB9DF9CDDEDDBD4DC55
:1013400001DA0F414C524541445920444546494E2B
:1013500045448EDFABDF02DC9ED99EDF100017DB39
:101360007EDFCADF0BD937D035DDC7D0D6DEB3DAA2
:1013700021DDC2DF9BDFC1D02DDD31DA80682FDABD
:10138000F1DB10D922DAFBDCB7DFE8DB8F77D1DACB
:10139000F5D878D181DF383618D9E6D8C6D8BBD889
:1013A0007ADB09F4D0DA0C9416102C45D8706F73E0
:1013B00074706F6E65008ED0D8DC5CDD77DF4FDF38
:1013C0007BDF69DB21F00E943802703684CA0C94FE
:1013D000DC02836964700E941C02C0038728646F6A
:1013E00065733E29FF9116DA88D097DEF8DCF3DFCB
:1013F00094DECADEF0DFEEDC4FDF0E940E941610A2
:101400000E94161007DAE7DF0C94240FAC45D56470
:101410006F65733E0E943802E4450E9438024C36E4
:1014200008950E46C15B5092CD0308952446815D18
:101430006092CD0308952E46813A7CDFF9DF0C944B
:10144000F7023846873A6E6F6E616D6555DF0C9412
:10145000180A4446D13BE7DF61FD23C04DDF28D0A9
:101460008C01107F105D59F08991999121D08E5097
:101470009449B1F48CE094E9A8D90C94240F4CDB86
:101480009F7093FD906F6BDA37DFE1D905DFFEFFC8
:10149000F9D002DF0C9407D092539695879503C03C
:1014A000C0D8FADE08950C9416105446822D4000E0
:1014B0000CD0FCDE0C945F0FAC46D35B275D02DFE3
:1014C0000C94F00EBA46A2322D0002970895C6463B
:1014D00082626C000E941C022000D04685737461F9
:1014E00074659A938A938091CD039091CD0308956A
:1014F000DC46866C6174657374000E941C02C6032E
:10150000F24682733000E6DBE4FF0247827230006D
:10151000E1DBE6FF83696E690E941C02BE030C4793
:10152000857469636B739A938A93C7010895204702
:10153000826D7300F8DF8BD959D58C01F8940E19A0
:101540001F097894CAF70C94DE033047832E696430
:1015500031DC8F7054D903C02DDC0AD0E4DE63D1B6
:10156000D8F71F910F910C94DE034C47833E7072A5
:101570009927803012F080320AF48EE208951ADC46
:101580008BDE0F00ADD921D932DA1FD913DC2FD968
:1015900026D96BD9CED922DED6DA31D90AC00E943B
:1015A000180330D259DA11D90E943A1011F09894E8
:1015B00003C039D1A0F718941F910F910CC00E945D
:1015C0001803DDDF21F072DEC3DF0E9428037DDF18
:1015D000A4DD0097A1F70C9411036C4785776F7217
:1015E000647378DFC2DB62DE57DE1E4C02D085DF1B
:1015F00094DD93DE0C94DF0ADC47822E73000E9498
:10160000280354DE0E9445027EDF87DD5EDF0E94F4
:101610001803D1D940DA19F04BDFF0DAF8CFCED881
:101620000C941103FA478464756D700035DE100068
:1016300056DAE5D820C071DE39DE2EDE0400E8DAA5
:101640002BDE3A0070DE28DE0F00D9D8B3DB24DEB3
:101650000200DEDAE8D0D0F71F910F911DDE1000F6
:1016600004D91ADE0F00CBD8A5DB82DF5CDEDBD02D
:10167000D8F71F910F91D7D0F0F61F910F910C94CE
:10168000DE038120A8DE0C94BB04264883783E72DA
:10169000FC01899199910AD031968293929352924A
:1016A0005292CF0108958C48833E7861925396956B
:1016B00087950895A8488378613E880F991F9E5C9E
:1016C0000895B6488370666C0E941C020032C448BC
:1016D000837A666C0E941C020000842C3F303D001F
:1016E00065FD03C0D9DD963C03C004D0D5DDA23C26
:1016F0006F7D6FC0D1DDFCFFC5CF37D99F70906C77
:10170000D2CECADD08F0CFCEC7DD09F464FD9B7FE1
:10171000CACED048D269660064FDECDFE1DFF4DFB9
:101720006F7EEADD5BDD0C947D0B1449D4656C7330
:101730006500E2DD53DDE1DF4ADC0C94A30B2C49AC
:10174000D47468656E006260D7DD0E94EF038DD8A7
:10175000BCDE0BD9A1DD00C0CBD839DC0C94240F42
:101760004049D5626567696E0C947C096249D575FC
:101770006E74696C626064FDBDDFB2DFC5DF6F7ED1
:101780000C94C60B6E49D5616761696E6260B4DD09
:101790000E9435049ADE0C947D0B8649D5776869E2
:1017A0006C65BADF0C94E5039C49D672657065617F
:1017B0007400ECDF0C94A30BAA49D6696E6C696EB9
:1017C00065006F7E6F7D7EDD0C94E90BBA498369FD
:1017D0006E2CF9DA6BDD60DD0895E3D85CD919F081
:1017E0000E941610F6CF0C941103CE49D3666F7287
:1017F0000E943802FE3980DDF1DC7FDF7DDD0C9454
:10180000E503EC49D46E657874009DDF0E943802D0
:10181000264A77DFBBDF40DD3A4A0C94E90B872884
:101820006E6578742920FF91FF91EF91BF91AF9180
:101830001197AF93BF93199408951F910F91089535
:10184000044A95656E646974FF91FF91EF911F9151
:101850000F915F925F921994424AB57264726F70F1
:101860000F910F9108955A4A83733E6497FFB6CC47
:10187000BECC684A87646E656761746549D00E9412
:101880004B030C942F04744A883F646E656761743F
:10189000650012DD00D909F0F1DF0895884A8464FB
:1018A0006162730003DD0C94490C9E4A82642B0034
:1018B000A991B991E991F99109911991A00FB11FDD
:1018C0008E1F9F1FBA93AA930895AC4A82642D007D
:1018D000D5DF0C94580CCC4A8364322F09911991AE
:1018E00095958795179507951A930A930895D84A61
:1018F0008364322A09911991000F111F881F991FC3
:101900001A930A930895F04A8764696E7665727433
:101910000991199100951095809590951A930A93C5
:101920000895084B8364303DA991B991892B8A2B86
:101930008B2B51F48FEF9FEF0895244B8364303C41
:10194000A991B9919030B2F38827992708953C4B1B
:1019500082643D00BDDF0C94940C504B82643C00CB
:10196000B7DF899199918FEF9FEF14F08095909553
:1019700008955C4B82643E000E941F030C94B00CDF
:10198000744B8375642E03D91BD923D90E94940309
:101990000C942803824B82642E00F9D88F939F9376
:1019A00081DF0ED90E940A041FD913D90E94940323
:1019B0000C942803964B826869006EDCCA4B0E9427
:1019C0008B020E9427040C945F0F00CCFF31FF2193
:1019D000AC508278400080935B0089919991FC0122
:1019E0008791979150925B000895D24B82782100A5
:1019F000082F899199910F943EFF0C940C0FB64BD0
:101A0000A24070009A938A93CA010895004C837093
:101A100063409A938A93CA010C947A0F0E4CA37078
:101A2000322B470D551D08950000866D61726B6560
:101A300072000E9470027EDC2FDC00220E94950260
:101A4000A5DB9DD9A3DB0E94D7030E947E02CADCDE
:101A50000E94260261DD9ADB0C94BF063434856C4B
:101A60006F61642B706108955E4C856C6F61642DAD
:101A70007F7E2F980895E64D83747831813161F02F
:101A8000833191F0B3D20091C80005FFFBCF809362
:101A9000CE008991999108958991999102C071FF21
:101AA00008957D7FF1E107C08991999102C071FD90
:101AB00008957260F3E1E091C800E5FFFCCFF09378
:101AC000CE000895784C8372783190D220D00E9455
:101AD0004B05D9F39A938A93ECE9F3E0A0919A032A
:101AE000EA0FF51D8081992700915F00F894A39576
:101AF000AF71A0939A03A0919B03AA95A0939B0317
:101B000000935F000895C64C847278313F00A09125
:101B10009B03A5110C94F7080C94EE0800FE03C07B
:101B2000BBDB500000DC01FE03C0B6DB4500FBDB85
:101B300002FE03C0B1DB4200F6DB03FE03C0ACDBF8
:101B40005700F1DB16FE03C0A7DB4D00ECDB0C9465
:101B5000280374FF01C02F9876FF0CC00AEE2016F0
:101B600049F4E0917803E03029F4609253008895BD
:101B70005092530074FD2F9A08956A4C8374783004
:101B800035D20091C00005FFFBCF8093C60089913C
:101B900099910895E091C000E5FFFCCFF093C60055
:101BA00008957C4D8372783021D220D00E944B055D
:101BB000D9F39A938A93E9E7F3E0A0917703EA0FC8
:101BC000F51D8081992700915F00F894A395AF716E
:101BD000A0937703A0917803AA95A093780300932C
:101BE0005F000895A44D847278303F00A09178037F
:101BF000A5110C94F7080C94EE08F2338669666C14
:101C00007573680060FD0D9475FF0895084D856536
:101C10006D70747941DB7E333FDB00223DDB0C00CD
:101C20000E94BF060E94EE0837DB02220E94950F39
:101C30000C94CA085524E1E0F2E03F0108950E4EED
:101C4000847761726D00F894AA27BB27C9E1D0E0C0
:101C5000DD93C150E9F710905F000090540050925E
:101C60005400B2E0A0E05D92B132E9F7AF3FD9F79E
:101C70005C92BA94B092CB03C8E6D4E00BE214E0D5
:101C80000DBF1EBFD7DF0E94ED000AEE13E0180162
:101C900050925B0001DB8A33FFDACC03FDDA1C00D3
:101CA0000E94BF06F9DA00220AD1A1DA0E94D60406
:101CB0000E944B0509F0AEDF7092440003E00093F0
:101CC000450009EF0093470070926E00E5DA323369
:101CD000E3DA1A0075D009E10093C40008E9009323
:101CE000C10006E00093C200D7DA5833D5DA2500E8
:101CF00067D009E10093CC0008E90093C90006E031
:101D00000093CA0047DA5092780350927603789491
:101D10000E948E0D25D0279A62D10E944B05D9F0E2
:101D20000E94A203034553430E949403B5DAD007EF
:101D30000E949A0A0E94D3010E944B0549F00E941A
:101D4000CC01AADA1B000E94D6040E944B0519F4AC
:101D500046D10E94DB010C942509404E83766572C2
:101D60000E94A20324466C617368466F72746820F7
:101D7000352041546D656761323536302030342E60
:101D800030392E323032310D0A000C9494035C4FFE
:101D9000A265690078940895904FA2646900F89450
:101DA00008959A4FC23B690077DA0C943FD174DAF8
:101DB00072003CD10C94130AA44F84696E74210004
:101DC000FC01EE0F80E0E80FF3E0899199910E9409
:101DD000560B0C94290FBA4FC76C69746572616C0D
:101DE0005BDAAC440E94E90B8093BC039093BD0383
:101DF00060680E945609982F92959F708F70906E20
:101E0000806814D1892F92959F708F70906E806931
:101E10000C9416100F943BFF89919991A0E0B2E0C9
:101E20000091C80300FD0C945C100F7FA00F8D93F0
:101E30009D9376C0D84F823E6100282F392F89911B
:101E40009991089536508121923240F4FC01899194
:101E500099919183808389919991089509D09233C2
:101E6000C8F60E9418036DD001960981088369C0E5
:101E700062FF08950E94FF0A0E94A2030341443FAB
:101E80000E94940368CFFC01F253FB110BC00E2F8C
:101E900000700A1539F4A0E0B2E0EF7FAE0F8D912B
:101EA0009D910895879197910895465082613E00D3
:101EB0009A938A93822F932F0895EC4B814092320C
:101EC00020F4FC018191919108959233E0F6F99903
:101ED000FECF925281BD92BDF89A00B5839581BD27
:101EE000F89A90B5802F0895CEDF99270895BC50B9
:101EF00082634000923220F4FC0181919927089579
:101F0000923390F7E4DF992708950F943BFF89916E
:101F10009991A0E0B2E00091C8030F7FA00F8D93CC
:101F2000616009C0F05082632100923238F4FC01F4
:101F300089919991808389919991089599DF92333C
:101F400020F7F999FECF925281BD92BD8991999166
:101F500080BDFA9AF99AF999FECFEDCF26518366A2
:101F60006C2D646008955E5183666C2B6B7F0895C1
:101F700068518576616C7565DDD90E949A0232DA06
:101F80000E9426020C945F0F72518564656665722B
:101F9000D1D90E944C094A440E949A0223DA0E9435
:101FA00026020C94E5018A51C26973000E946209FD
:101FB0000E94A90496DA0E944B0529F011DF0E94C5
:101FC0003802485001C040DF0895A851C2746F0024
:101FD0000C94D60FCC51877475726E6B65790E9424
:101FE000C00FBE03D651857061757365B2DDA895CB
:101FF000DF93CF939F938F935F934F93F101F89467
:102000000EB702930DB70293B291A2911D010E91EA
:102010000EBF0E910DBF4F915F918F919F91CF9108
:10202000DF91789408950C3482692C000E947C0919
:102030000BDF0E94AB020C94420B28528369632C85
:102040000E947C0972DF0E944B030C94420B81209A
:102050000E945E060E945F0F803111F484E209C085
:102060008A3011F483E205C0823011F485E201C0A8
:102070008FE308950E94FF0309C00E9456010E9449
:1020800035040E944B0511F00C94DB0A0E94130CDE
:10209000A0F70C94D70A81200E948B020E944C0961
:1020A000A6330E9427040E948D080E94DA060E942F
:1020B0004C090F000C9470049A938A938091C80382
:1020C0009091C9030E94FF0A0E94A2030341443F6A
:1020D0000E9494030C94250908950895020004C8F1
:0620E00080000C94720068
:020000023000CC
:10FE00000F921F9209911991809FD001EE27FF2731
:10FE1000909FB00DE11DF51D819FB00DE11DF51DF9
:10FE2000919FE00DF11DBA93AA93CF011F900F90FF
:10FE30000895E894882329F4992319F468940C947C
:10FE4000230EDC011990E9918991999100E1FF2736
:10FE5000880F991F111CEE1FFF1F1A16EB07F505DF
:10FE600018F083951A1AEB0B0A9589F7EA931A9200
:10FE700008950C9462109253052D02C00093CA039A
:10FE80008093C8039093C903033011F49E3F88F711
:10FE9000003011F4913268F30091C80300700A1128
:10FEA0000BC00091C9030B1107C00091CA03109148
:10FEB000CB03011301C008950E94020E0091C803F4
:10FEC0000070A02EB090C9030091CA030093CB0329
:10FED00000935B0000E0F501A0E0B2E017911D93F4
:10FEE0000A95E1F750925B0008950E946C10F89417
:10FEF0000091CB0300935B00F501033011F4FE3F4A
:10FF000038F5003011F4F13218F113E034D011E17A
:10FF100032D000E8A0E0B2E00F921F920D901D9049
:10FF200011E00F94BBFF32960150C1F7E050F14051
:10FF300015E00F94BBFF17D000E0A050B140079030
:10FF40001D9001100C94230E0150C9F71F900F90C3
:10FF50000FEFB02E0093CB0350925B006E7F78942E
:10FF60000E946D1008958090570086FE089511E15B
:10FF70000F94BBFFF8CF8090570080FCFCCF10930C
:0EFF80005700E8958090570080FCFCCF089554
:00000001FF
