:020000022000DC
:10FD00000F94D3F109C00F941BEF0F9408F20F94D6
:10FD100019F311F00D9486F80F94B6F9A0F70D942D
:02FD200082F867
:020000023000CC
:10DD00000002A404670458F980F9C0F90A00A804C5
:10DD1000A6DD0000000000000000260481200F9412
:10DD200060F00F94F9F61AFF0F94FBF10F943AF696
:10DD30000F94A1F40F94F9F60F000D9443F28CFEAA
:10DD40008377642BF894A8959091600098619093E4
:10DD50006000877088608093600078940D94B2F1C1
:10DD600040DD8377642DF894A89554BE08E10093B4
:10DD70006000509260007894089562DDA363776438
:10DD8000A895089500008465786974000F910F913B
:10DD90000F910895C2FA886F70657261746F720096
:10DDA0000F94F2EFA6DD26040000400040005A0068
:10DDB00086DD8469646C650070640895B2DD8462F8
:10DDC000757379007F7B0895E4FE846D736574003C
:10DDD000FC01899199910081082B00838991999187
:10DDE0000895CADD846D636C7200FC01899199917C
:10DDF0000081809508230083899199910895E4DD3D
:10DE0000866C736869667400FC01899199913197F9
:10DE10001AF0880F991FFBCF089500DE8672736891
:10DE200069667400FC018991999131971AF0969571
:10DE30008795FBCF089585D5AED283D5ACC21CDEC5
:10DE4000826E3D00F8DF8F7083D3F3D3B1F049D3F6
:10DE500078D5A9D20CC0EFDF76D3EBD321F074D7FD
:10DE60000F94C7F904C0B5D2E4D309F464D70F9472
:10DE7000B6F988F71F910F9101C066D71BD40D9496
:10DE80005AF340DE84736B6970008DD2D8D389F069
:10DE90007AD232D4B8D7ADD709005AD3CAD329F42D
:10DEA00098D256D3C6D329F001C05CD2C9D1F4D4DC
:10DEB000EDCF0F910F91089584DE847363616E003E
:10DEC0006CD371D210C03DD59ED793D7090040D3F3
:10DED000B0D311F047D205C00F949CFA39D3A9D31F
:10DEE00011F0FFD203C00F94B6F968F767D2F4D2ED
:10DEF00060D30895BADE846D74737400FC0181915F
:10DF000009911991802399270895F6DE8346637954
:10DF100069D0803E8373703F8ED00F9430F8AAD6BC
:10DF20000F942BF8A7D6D8D204D3E0D10353503F97
:10DF30004CD708950CDF84656D6974006AD30D9425
:10DF4000BDEF36DF836B65796AD30D94BDEF44DF97
:10DF5000846B65793F0069D30D94BDEF50DF876511
:10DF6000786563757465FC01899199910894F795BA
:10DF7000E79519945EDF834065787CD60D94B3EF06
:10DF800076DF887661726961626C6500A3D0B8D073
:10DF9000E2D10D94DDEF82DF8932766172696162D0
:10DFA0006C6598D026D70400D6D10D94DDEF98DFAC
:10DFB00088636F6E7374616E7400E7D70F9446FECA
:10DFC0000D94D3F7B0DF8932636F6E7374616E7432
:10DFD000D0D1DBD70F9446FE0F9446FE0D94D3F7B5
:10DFE00083286329FF91FF91EF910FD0FF91FF915B
:10DFF000EF91199483286429BF91BF91AF91FF914C
:10E00000FF91EF9102D0FD0119949A938A93EE0F3C
:10E01000FF1F87919791089583282C290F91FF91D5
:10E02000EF91F3DFF795E795EF93FF930F9399C087
:10E03000C6DF83737040FE019A938A93CF010895DF
:10E0400083737021EC01089583727030BF91BF918A
:10E05000AF910F9430F80ED68DBF9EBF89919991E4
:10E06000FD01199432E0B37270409A938A938DB790
:10E070009EB7089566E0A23E3C00082F892F902F9E
:10E08000089576E085666C6173685092080408957F
:10E0900084E086656570726F6D0070920804089563
:10E0A00092E08372616D04E0009308040895A2E099
:10E0B000826470003ED704D00D94FBF183637365D6
:10E0C0009A938A938091080499270895B0E0846810
:10E0D00065726500EFDF0D94B2FECEE0812CFADFB1
:10E0E0003ED40ED00D94ABF1DCE082632C00F2DF65
:10E0F00007D3A6D00D94ABF1EAE08463656C6C00A5
:10E100009A938A9382E090E00895FAE085616C69C1
:10E11000676EE0DF08D0CEDF0D9475FE0CE18761FD
:10E120006C69676E656401968E7F08951EE1A56334
:10E13000656C6C2B029608952EE1A563656C6C737B
:10E14000880F991F08953AE1A5636861722B0196C3
:10E15000089548E1A56368617273089554E183638B
:10E16000662C51D67DD654D141D143D6F00FFAD189
:10E1700060D241F03ED60F940F946AFF08949795B1
:10E18000879506C06DD644D148D7C1D19F70906D98
:10E190000D946AFF82213A002CD6FAFF0D94E9F81B
:10E1A0005EE1823240002FD665D5E3D0C3DF0D9407
:10E1B0003AF6A2E182322100DCD0E5D0BBDFCFD33A
:10E1C0000D9475FEB4E1853264726F70CBD00D94FE
:10E1D000B2F1C6E1843264757000D5D00D94C3F1FC
:10E1E000D4E1853273776170D6D0DDD0D4D0E6D05B
:10E1F0000895E2E185737061636514D70D949EEF15
:10E20000F4E1867370616365730019D219F0F5DF6C
:10E2100068D1FBCF0D94B2F102E284756D696E0096
:10E22000DCDFADD106C01AE284756D617800D5DF00
:10E230009FD1FFD109F09DD00D94B2F128E2813138
:10E240009A938A9381E090E008953EE28661636349
:10E250006570740098D0CFD0A6D0D5D575DE8D303E
:10E2600039F08A3041F0883079F08F3769F01AC080
:10E270002AD046D221C076D026D03ED2DAD1E1F0E3
:10E280005AD521D03DD2EACF56D51DD039D26AD049
:10E29000A4DF5ED1CED111F724D128D00308200805
:10E2A00018D0DCCFB0D54ADE6ED02AD215D191D0AD
:10E2B0006AD04ED1BED191F20F910F915AD00D94E8
:10E2C00008F283666372D4D2F5FF4CE284747970ED
:10E2D000650069D002C035D331DE0F94B6F9D8F7A6
:10E2E0001F910F910D94B2F183287322FF91FF913A
:10E2F000EF91EE0FFF1F07919A938A93CF019A93A4
:10E300008A93802F9927E00FF91F31960894F7958B
:10E31000E7951994CCE2D273220080DEECE2B5DE00
:10E3200005D00D9453F016E3822C220062D5220012
:10E33000C6D2D0DE28D0D0D0F6DE0DD00D9498F421
:10E3400028E3D22E2200E9DF69DED2E2089542E31B
:10E3500085616C6C6F74AEDE0D948DF250E3A46435
:10E36000726F70008991999108955EE3847377616B
:10E370007000099119919A938A93C80108956CE3EA
:10E38000846F766572009A938A938A819B8108953F
:10E3900080E383726F7407D0ECDF10D00D94B9F175
:10E3A00092E3923E7200FF91FF91EF918F939F93C2
:10E3B000899199911994A2E392723E00FF91FF9185
:10E3C000EF919A938A939F918F911994B8E39272E7
:10E3D0004000FF91FF91EF919A938A939F918F91C3
:10E3E0008F939F93199402EE836162730CD50D9401
:10E3F00069F3E8E3812B09911991800F911F08952A
:10E40000F4E3826D2B00D5D70D94FBF902E4812D46
:10E4100009911991081B190BC80108950090F80380
:10E420001090F9030895FADF00941094060C151C5F
:10E430000BD001C008D0906521D0E5D4812D07D044
:10E44000806990641BC0EADFFBD6FAD6802D982F36
:10E4500092958F709F7080680895F5DF90670ED059
:10E46000D2D4812DF4DF8069906708C0ECDF90661C
:10E4700005D0C9D4812DEBDF806990660D946AFFC9
:10E480000EE483616E6409911991802391230895AC
:10E4900082E4826F720009911991802B912B08956B
:10E4A00092E483786F7209911991802791270895DA
:10E4B000A2E4A6696E7665727400809590950895C1
:10E4C000B2E4866E656761746500809590950196EB
:10E4D0000895C2E4A2312B0001960895D4E4A2313C
:10E4E0002D0001970895DEE4A2322B0002960895D4
:10E4F000E8E4A53E626F647904960895F2E4A232DE
:10E500002A00880F991F0895FEE4A2322F009595E6
:10E51000879508950AE5822B21002BDF34DFAAD3EB
:10E520006ADF27DF0D9475FE16E5867769746869E2
:10E530006E0029DF6DDF37DF6BDF40DF0D94B8F24F
:10E540002AE5823C3E0004D00D9409F71CEE813D83
:10E550005FDF0D9409F74EE5813C5ADF0D9410F70B
:10E5600058E5813E06DF0D94ADF262E582753C0010
:10E570004FDF880B990B08956CE582753E00F9DE3C
:10E580000D94B8F27AE582217000AC0189919991DD
:10E59000089586E59421703E7200FF91FF91EF91FE
:10E5A0004F935F93AC0189919991199494E593727B
:10E5B0003E70FF91FF91EF915F914F911994AEE5FD
:10E5C000827040009A938A93CA010D94B2FEC0E50E
:10E5D000827021009A938A93CA010D9475FED0E54A
:10E5E000837063219A938A93CA010D94E7FEE0E554
:10E5F000A2702B00460D551D0895F0E583702B2B5E
:10E60000480F591F899199910895FCE58527656DFB
:10E6100069742ED1E8FF0CE684276B65790028D158
:10E62000EAFF18E685276B65793F22D1ECFF833F2F
:10E63000303D00978991999108958364303D00970A
:10E64000089524E683756D2A0D9490FF44E686753F
:10E650006D2F6D6F64000D94A9FF4EE685752F6DCB
:10E660006F6469D386DE0D94A9FF5CE6812AECDF36
:10E670000D94B2F16CE682752F00F3DF0D945AF31E
:10E6800076E686752A2F6D6F64008DDEDDDF96DEFF
:10E690000D942BF382E6812FA0DD05DF84DEA6DE5C
:10E6A00068DEA4DE66DEE9DF89DE0D9469F396E6B6
:10E6B000A36E6970099109910895B0E68474756339
:10E6C0006B0057DE0D94C3F1BCE6873F6E65676152
:10E6D0007465A6D3AEDF09F0F8DE0895CAE6836D4F
:10E6E00061787BDD3ADFA5CDDEE6836D696E75DD91
:10E6F00039DF9FCD826340000D94CDFE82632100FF
:10E700000D94E7FEEAE6827570006CDC020006E715
:10E7100084686F6C640018D392D0FFDE90D0AAD2C8
:10E720000D94E7FE10E7823C23008ED088D00D9434
:10E7300075FE26E78564696769748A300CF08796F0
:10E74000C096089534E7812387D094D283D123DE05
:10E75000F4DF0D948BF346E782237300F5DF3DDD94
:10E760009ADE67DFD9F7089558E782233E002EDD51
:10E7700066D080D269D007DE0D9408F26AE7847310
:10E7800069676E0090301AF434D32D00C4DF0D9405
:10E79000B2F17EE782752E00C8DFCDD2DFDFE7DF82
:10E7A00098DD0D94FDF094E783752E72BEDF99DE3F
:10E7B000FADDC1D201C0C8DFD9D5E8F71F910F91AA
:10E7C000CDDFD5DF86DD0D94FDF0A8E7812EADDF2E
:10E7D0001AD30CDEB0D2C2DFDEDDD4DFC8DF79DDD4
:10E7E0000D94FDF0CCE787646563696D616C7BD245
:10E7F00033D00D9475FEE6E783686578FAD2100091
:10E800002BD00D9475FEF8E78362696E79DC24D015
:10E810000D9475FE08E885727361766529D0FEFF58
:10E8200016E885756C696E6B23D0FCFF22E8847452
:10E8300061736B001DD0F2FF2EE88268700018D063
:10E8400000003AE8837061647CD173D10D94FBF1D0
:10E8500044E88462617365000BD0EEFF52E8847572
:10E86000736572001AD34CDC30DEB3D407DE67D395
:10E87000FF91FF91EF91C9DB820D931D08955EE832
:10E8800086736F75726365006ED10D94D3F080E866
:10E89000872F737472696E676CDD75DDB9DD83DD9A
:10E8A000AADD8CDD089590E8C15CEEDF55D157D02C
:10E8B00060640D94B2F1A8E8857061727365A3D2AB
:10E8C000E3DF4AD1D7D1E8DF8F939F9364DDDDDAB0
:10E8D0005ADD69DD60DDF4DAB2DE09F002DE6EDDFC
:10E8E0006DDD59DD95DD38D118DEEBDE0D9408F2D3
:10E8F000B8E884776F726400E2DF3BDDF2DDE1DED1
:10E900000D94E7FEF2E885636D6F766532DD45DED6
:10E910004ADD03C016D066DE6DDE28D5D8F71F911C
:10E920000F9147DE0D94B2F106E985706C61636565
:10E9300054DCE6DE0CDC1DDD0D9486F42AE98363ED
:10E94000402B61D2C9DD15DD0D94CDFE3EE982403C
:10E950002B0059D2CBDD0DDD0D94B2FE81210D943B
:10E9600075FE4EE9836E3E63ECDF8F7044DD0D94DF
:10E9700093F064E983633E6E50D345D2BDDE0F94BD
:10E980006EFE27FFC9F3089574E98328662925DC04
:10E9900059DA55DE21F0E6DC40D36CD134D249DEC1
:10E9A000B1F74DDE41F086DE2ED2DEDFE2DC09D0AB
:10E9B00030D246DC70DD08958AE986696D6D656444
:10E9C0003F009ADE982E80740895BAE98466696ED5
:10E9D00064000FD252F5DBDF32DE21F4C3DC35D325
:10E9E00049D1D5DF0895CCE98664696769743F0031
:10E9F00080340CF08797C0970AF49DC104D22CDFB5
:10EA000039D10D94ADF2E8E9857369676E3FBBDCDF
:10EA100073DE082FA7DC0D3219F00B3219F003C09A
:10EA200004D092C102D00D949BF60ADC0D944CF4F4
:10EA300008EA8375642A8F939F9306DE93DC99DC42
:10EA4000BDDC02DEA8DC0D94FBF132EA8675642F92
:10EA50006D6F6400A8DC6FD1BCDCFDDD9CDC9BDC51
:10EA6000ADDCF9DD0D94CBF14CEA873E6E756D623D
:10EA7000657221E0E4DDD1F096DC8F939F933CDE5C
:10EA80008E3279F0B5DFD5DD21F46CDC97DC96DCD5
:10EA90000DC089DCE1DEEED0CEDF90DCB4DC20E01E
:10EAA00001C060DC8BDC8ADCC0DFE4CF820F08951C
:10EAB0006AEA876E756D6265723FA5D13CD13BD124
:10EAC0006ADC3FDFA4DF6FDCC7DED4D06CDC5BDC4C
:10EAD00013DE8397833038F433DB8BD192FF8BDCEA
:10EAE0004CDAA3DF01C03EDCC4DF68DCB5DE37DF13
:10EAF000A0DD29F063DC6ADB69DB1DD111C0019761
:10EB0000FBDD0F946EFE5ADC94DD09F05AD42E32F0
:10EB100021F441DC82E090E003C024DCCBDD90DB1B
:10EB200008958473776170000D94B9F1B2EA83742B
:10EB3000692380DE9FD008960D94B2FE2EEB83747D
:10EB4000696205D00D94B2FE3EEB8374697590DE68
:10EB5000F0FF4AEB833E696E8BDEFAFF54EB8727AA
:10EB6000736F7572636584DEF6FF4DD10F91FF916F
:10EB7000EF914BDAF795E795EBDC5BDD19945EEBF3
:10EB800089696E74657270726574EDDF15DBD3D0C0
:10EB9000E3DFE5DEABD746D2AFDE35D1ADDD49DD13
:10EBA00009F464C016DF4BDD09F445C095DC41D2A1
:10EBB00030D171DC3EDD99F094FE0AC03AD296DB8A
:10EBC0000C434F4D50494C45204F4E4C5900FDD001
:10EBD0006F7BC9D966FDDECF6F7E6F7D2AC06F7EE9
:10EBE000C4DF12EE11F0606120C067FF14C0BDDF0A
:10EBF00086E411F032DC1DC0B8DF96E411F036DC9B
:10EC000018C0B3DFF6E311F00EDC13C0AEDF10E482
:10EC100011F010DC0EC06F7DA8DF06EE09F0606217
:10EC200095FE03C00F948DF904C026D16D7F94FC2E
:10EC300062606F77AFCF6F7495DB3FDF00DD81F0EF
:10EC4000F8D1F7DC59F0082F8991999101FF03C0A1
:10EC50006BDF0F9446FE0F9446FE9CCF83DBE9CF1B
:10EC600081DB45D06EDE35DB66D0A6D03FD70D9474
:10EC7000B2F181400D94B2FE80EB83736862E5D1FE
:10EC8000F9DFC1D039DD87DB06DC4EDF0D94E7FE0E
:10EC90007AEC89696D6D656469617465AAD040001C
:10ECA0000D943FF692EC87696E6C696E6564A1D035
:10ECB00020000D943FF6A6EC832E73749AD03C008E
:10ECC0003DD90F947CFF3AD994D02C0037D90F94BA
:10ECD0008FEEFFDA8ED03E0031D90D94A8F8823E37
:10ECE00072000D94D3F17ED90A008364703E81D006
:10ECF0000022BAD1F8DF0D9486F4833E647079D097
:10ED000000224BDCB1D175D004004DDB22DE7BD07C
:10ED100059DC19DC8EDC11F05DDC01C023DB1BD477
:10ED200025D3A0F71F910F9144DC0D94B2F1B8ECFC
:10ED30008566616C73659A938A93882799270895ED
:10ED400030ED8474727565009A938A938FEF9FEF0C
:10ED5000089542ED84717569740078D90CD1A3D9F6
:10ED6000C6DFDAD88ED0EDDE4ED0E3DE0A9772DA57
:10ED700044DA0BDF5ED15DDCA1F7A7D6C0DFB6DADF
:10ED800003206F6BA6DA07D00D94B0F654ED8670B1
:10ED9000726F6D7074000F941FFF0A228EED8561F3
:10EDA000626F727458D166DF4DD90D94ADF69EED49
:10EDB000873F61626F72743F99DA013F0D94E5F607
:10EDC000B0ED863F61626F727400E5DA32DC19F4EF
:10EDD00014DA7FDAE7DF0D94E6F0C2EDD661626FF8
:10EDE000727422009ADA1AD9CAED0895DCED836CA8
:10EDF0006974FF91FF91EF9108D9F795E795199400
:10EE0000CEE3A36475709A938A93089542E58230A5
:10EE10003D000197880B990B08950EEE82303C005F
:10EE2000990F880B990B0895EEED8127FBD064DDD7
:10EE3000D0DD0D94DCF62AEE846368617200F2D0B6
:10EE40003EDD90DA0D94CDFE38EEC128D2DF2900E8
:10EE500036DD60640D94E6F04AEE8569686572659A
:10EE600068D008CF5AEED65B636861725D00E7DF59
:10EE70000D9446FE8363662C0D94B1F066EE8263BA
:10EE80007200B7DF0D005AD8B4DF0A000D949EEF70
:10EE90007EEE8663726561746500C4D02DDDB3DFDC
:10EEA00098DD08DCB6DF22DA0F414C524541445967
:10EEB00020444546494E454488DFA5DF1DDCC0D9C6
:10EEC00098DF100036DB78DFCBDF2DD932D047DD7D
:10EED000BCD0D0DED3DA35DDC3DF95DFB6D03FDD81
:10EEE00027DDBEDF09DC85DF8000C9DEF5DA1BD94E
:10EEF00070D17FDFE4DF3ED90CD9ECD8E1D899DBC3
:10EF000009F4F4DA0D946AFF92EED8706F7374709E
:10EF10006F6E650087D0F0DC5CDD75DF4DDF80DF74
:10EF200088DB19F07BD81CE0A9CA0D94B1F0836985
:10EF3000647058D8FC038728646F65733E29FF917D
:10EF40003DDA83D097DE10DDF4DF94DECADEF1DF38
:10EF500006DD880F991F0ED931DAEBDF0D9475FEAF
:10EF60000AEFD5646F65733E59D83EEF57D8F8DF86
:10EF7000089562EFC15B50920904089574EF815DBA
:10EF80006092090408957EEF813A87DFF9DF0D94DE
:10EF9000CCF088EF873A6E6F6E616D6561DF0D941E
:10EFA000C0F794EFD13BE7DF61FD23C059DF28D0E4
:10EFB0008C01107F105D59F08991999121D08F506B
:10EFC0009449B1F48DE094E9D4D90D9475FE72DBC7
:10EFD0009F7093FD906F95DA43DF0DDA0ADFFEFF35
:10EFE000F8D007DF0D9407D008949795879503C054
:10EFF000EDD8FFDE08950D946AFFA4EF822D400046
:10F000000CD001DF0D94B2FEFCEFD35B275D0EDF69
:10F010000D9446FE0AF0A2322D000297089516F0D4
:10F0200082626C000F94F2EF200020F0857374610F
:10F0300074659A938A9380910904909109040895C4
:10F040002CF0866C6174657374000F94F2EF020407
:10F0500042F0827330000CDCE4FF52F08272300028
:10F0600007DCE6FF83696E690F94F2EFFA035CF048
:10F07000857469636B739A938A930FB7F8948E2D96
:10F080009F2D0FBF089570F0826D7300F4DFB3D928
:10F0900000D7B9DEF0DFBCD9C3DECBDAC9F30D94FB
:10F0A000B2F188F0832E69644CDC8F707CD903C088
:10F0B00048DC0AD0EBDE5AD1D8F71F910F910D949E
:10F0C000B2F1A4F0833E70729927803012F0803242
:10F0D0000AF48EE2089535DC8CDE0F00D4D949D9CC
:10F0E00054DA47D92EDC57D94ED992D9F5D923DE37
:10F0F000F8DA59D909C071D81FD27CDA3AD90F94FD
:10F10000807E11F0989403C031D1A8F718941F9114
:10F110000F910AC062D8DFDF19F075DEC5DF6DD848
:10F120007CDFA8DD8CDAB1F70D94E6F0C4F08577CA
:10F130006F72647377DFE0DB66DE5BDE52F502D070
:10F1400084DF98DD9EDE0D948AF82EF1822E730006
:10F1500054D859DE0F941BF07EDF8CDD5EDF3DD886
:10F16000FCD967DA19F04CDF17DBF9CFFBD80D9427
:10F17000E6F04CF18464756D70003BDE10007DDAC2
:10F1800012D920C07EDE3FDE34DE04000FDB31DE2C
:10F190003A007CDE2EDE0F0006D9D3DB2ADE020029
:10F1A00005DBE4D0D0F71F910F9123DE100030D99A
:10F1B00020DE0F00F8D8C5DB87DF68DED7D0D8F7B0
:10F1C0001F910F91D3D0F0F61F910F910D94B2F1D2
:10F1D0008120AFDE0D948DF274F183783E72FC01D4
:10F1E000899199910AD03196829392936292529228
:10F1F000CF010895DAF1833E786108949795879559
:10F200000895F6F18378613E880F991F089504F2FE
:10F210008370666C0F94F2EF003210F2837A666CA2
:10F220000F94F2EF0300842C3F303D0065FD03C0D6
:10F23000E0DD32E603C004D0DCDD3EE66F7D6DC06C
:10F24000D8DDFCFFC6CF63D99F70906CD4CED1DDE2
:10F2500008F0D1CECEDD09F464FD9B7FCCCE1CF24C
:10F26000D269660064FDECDFE1DFF4DF6F7EF8DD7C
:10F2700062DD0D9423F960F2D4656C736500F0DDF6
:10F280005ADDE1DF51DC0D9449F978F2D4746865F8
:10F290006E006260E5DD77D8BBD8BFDE38D9A9DD66
:10F2A00000C0F9D841DC0D9475FE8CF2D56265671B
:10F2B000696E0D9430F7ACF2D5756E74696C62604E
:10F2C00064FDBEDFB3DFC6DF6F7E0D946BF9B8F26D
:10F2D000D5616761696E6260C3DD9AD89EDE0D9468
:10F2E00023F9D0F2D57768696C65BCDF0D94B9F16C
:10F2F000E4F2D672657065617400EDDF0D9449F932
:10F30000F2F2D6696E6C696E65006F7E6F7D8EDD80
:10F310000D948DF902F383696E2C1BDB74DD69DDBE
:10F32000089511D986D911F0D5D5F7CF0D94E6F00F
:10F3300016F3D3666F720F940EF0A6E391DDFBDC3B
:10F3400082DF8EDD0D94B9F132F3D46E65787400EE
:10F35000A0DF0F940EF06CF37ADFBDDF4ADD80F39F
:10F360000D948DF987286E6578742920FF91FF919F
:10F37000EF91BF91AF911197AF93BF9319940895F7
:10F380001F910F9108954AF395656E646974FF911A
:10F39000FF91EF911F910F915F925F92199488F303
:10F3A000B57264726F700F910F910895A0F383731B
:10F3B0003E6497FFC0CCC8CCAEF387646E656761CE
:10F3C000746549D00F9420F10D9403F2BAF3883F8D
:10F3D000646E65676174650023DD2BD909F0F1DF88
:10F3E0000895CEF38464616273000DDD0D94ECF931
:10F3F000E4F382642B00A991B991E991F991099103
:10F400001991A00FB11F8E1F9F1FBA93AA93089541
:10F41000F2F382642D00D5DF0D94FBF912F48364BE
:10F42000322F0991199195958795179507951A93FC
:10F430000A9308951EF48364322A09911991000FEA
:10F44000111F881F991F1A930A93089536F4876431
:10F45000696E766572740991199100951095809581
:10F4600090951A930A9308954EF48364303DA991C0
:10F47000B991892B8A2B8B2B51F48FEF9FEF089535
:10F480006AF48364303CA991B9919030B2F3882733
:10F490009927089582F482643D00BDDF0D9437FA08
:10F4A00096F482643C00B7DF0D9443FAA2F48264C0
:10F4B0003E000F94F4F00D9453FAAEF48375642E6D
:10F4C00034D94CD954D90F9469F10D94FDF0BCF4A2
:10F4D00082642E002AD98F939F9387DF3FD90F94A0
:10F4E000DEF150D944D90F9469F10D94FDF0D0F4B8
:10F4F000826869007EDC04F50F9460F00F94FBF1E4
:10F500000D94B2FEFFDCFF31FF2152FD82784000F6
:10F510008BBF89919991FC018791979103E00BBF73
:10F5200008950CF582782100082F0F94B2F158D27B
:10F53000C7C3F0F4A24070009A938A93CA01089559
:10F5400034F5837063409A938A93CA010D94CDFE7B
:10F5500042F5A370322B470D551D08950000866DAE
:10F5600061726B6572000F9445F097DC42DC0022FB
:10F570000F946AF0B8DBCAD9B6DB0F94ABF10F94E5
:10F5800053F0DDDC0F94FCEF6FDDADDB0D9486F402
:10F59000BEDD856C6F61642B7061089592F5856C9A
:10F5A0006F61642D7F7E2F980895BAF98374783146
:10F5B000813161F0833191F06CD40091C80005FF76
:10F5C000FBCF8093CE00899199910895899199916B
:10F5D00002C071FF08957D7FF1E107C08991999183
:10F5E00002C071FD08957260F3E1E091C800E5FF8B
:10F5F000FCCFF093CE000895ACF58372783149D4F6
:10F600001ED00F9419F3D9F39A938A93E8EBF3E0A1
:10F61000A091B603EA0FF51D808199270FB7F894E2
:10F62000A395AF73A093B603A091B703AA95A09337
:10F63000B7030FBF0895FAF5847278313F00A091A7
:10F64000B703A5110D94A4F60D949BF6B091CE00CE
:10F65000A091B703A395A093B703E8EBF3E0A091C3
:10F66000B503EA0FF51DB083A395AF73A093B5035F
:10F6700038C100FE03C0BDDB500008DC01FE03C042
:10F68000B8DB450003DC02FE03C0B3DB4200FEDB57
:10F6900003FE03C0AEDB5700F9DB16FE03C0A9DB97
:10F6A0004D00F4DB0D94FDF074FF01C02F9876FF40
:10F6B0000CC006E2201649F4E0917403F091B70300
:10F6C000EF2B19F463BE889553BE74FD2F9A0895ED
:06F800000D947FFD79D09C
:02F8080077D0B7
:02F80C0075D0B5
:02F8100073D0B3
:02F8140071D0B1
:02F818006FD0AF
:02F81C006DD0AD
:02F820006BD0AB
:02F8240069D0A9
:02F8280067D0A7
:02F82C0065D0A5
:02F8300063D0A3
:02F8340061D0A1
:02F838005FD09F
:02F83C005DD09D
:02F840005BD09B
:02F8440059D099
:02F8480057D097
:02F84C0055D095
:02F8500053D093
:02F8540063C08F
:02F858004FD08F
:02F85C004DD08D
:02F860004BD08B
:02F8640049D089
:02F8680047D087
:02F86C0045D085
:02F8700043D083
:02F8740041D081
:02F878003FD07F
:02F87C003DD07D
:02F880003BD07B
:02F8840039D079
:02F8880037D077
:02F88C0035D075
:02F8900033D073
:02F8940031D071
:02F898002FD06F
:02F89C002DD06D
:02F8A0002BD06B
:02F8A40029D069
:02F8A80027D067
:02F8AC0025D065
:02F8B00023D063
:02F8B40021D061
:02F8B8001FD05F
:02F8BC001DD05D
:02F8C0001BD05B
:02F8C40019D059
:02F8C80017D057
:02F8CC0015D055
:02F8D00013D053
:02F8D40011D051
:02F8D8000FD04F
:02F8DC000DD04D
:10F8E0000BD09F918F911F910F91FF91EF91A99153
:10F8F000B991BFBFB9911895BA93BFB7BA93AA93FC
:10F90000BF91BF91AF91EF93FF930F931F938F938D
:10F910009F93A150B3E0ED91FD911994BA93BFB7B5
:10F92000BA93AA93E60CF51CE2CFB091C600A09161
:10F930007403A395A0937403E5E7F3E0A091720329
:10F94000EA0FF51DB083A395AF73A0937203C9CFDF
:10F950007DCE9EF5837478309CD20091C00005FF67
:10F96000FBCF8093C600899199910895E091C000E2
:10F97000E5FFFCCFF093C600089554F98372783008
:10F9800088D21ED00F9419F3D9F39A938A93E5E79E
:10F99000F3E0A0917303EA0FF51D808199270FB75B
:10F9A000F894A395AF73A0937303A0917403AA95E1
:10F9B000A09374030FBF08957CF9847278303F00E0
:10F9C000A0917403A5110D94A4F60D949BF6C0DBD1
:10F9D0000F9476F10341443F0F9469F1E3C903E0CA
:10F9E000809304049093050400930604033011F4FB
:10F9F0009D3D68F70091040400700A110BC000914E
:10FA000005040B1107C000910604109107040113AF
:10FA100001C008955AD0009104040070A02EB09047
:10FA2000050400910604009307040BBF00E0F501F4
:10FA3000A0E0B2E017911D930A95E1F703E00BBF38
:10FA40000895D7D90A0022DBF894F501FD3D18F599
:10FA5000009107040BBF13E02DD011E12BD000E083
:10FA6000A0E0B2E00F921F920D901D9011E022D005
:10FA700032960250C9F7E050F14015E01BD014D087
:10FA800000E0A050B14007901D90011038C0015017
:10FA9000D1F71F900F900FEFB02E0093070403E0F3
:10FAA0000BBF6E7F7894089587B686FE089511E1A6
:10FAB00001D0FACF87B680FCFDCF17BFE895089537
:10FAC0007CDD8669666C7573680060FDBACF089549
:10FAD00038F685656D7074798CD998FF8AD90022C3
:10FAE00088D90C000F9486F40D9477F65524E1E044
:10FAF000F2E03F010895D2FA847761726D00F894C4
:10FB0000AA27BB27C9E1D0E0DD93C150E9F71FB6B2
:10FB100004B650923400AFEF5D92B830E9F7BA9472
:10FB2000B0920704C4EAD4E007E614E00DBF1EBF9C
:10FB3000DDDF0F94B3EE06E214E0180103E00BBF23
:10FB40006CBE57D900DD55D9080453D91C000F9459
:10FB500086F44FD9002206D1F7D80F94A8F20F945B
:10FB600019F309F0B9DF65BE75BE74BC03E005BDCD
:10FB700009EF07BD70926E003CD995FC3AD932036B
:10FB8000B4D009E10093C40008E90093C10006E085
:10FB90000093C2002ED9A8FC2CD94803A6D009E1B5
:10FBA0000093CC0008E90093C90006E00093CA0066
:10FBB0009ED878945EDD2CD05092740350927203DC
:10FBC0005092B7035092B503279A5CD10F9419F362
:10FBD000D1F00F9476F1034553430F9469F109D99D
:10FBE000D00754DA0F94ABEF0F9419F349F00F9448
:10FBF000A4EFFFD81B000F94A8F20F9419F319F487
:10FC000041D10F94B3EF0D94D2F6F8FA8376657272
:10FC10000F9476F125466C617368466F72746820A4
:10FC2000352041546D6567613235363020203232DF
:10FC30002E31302E323032300D0A0D9469F10CFC29
:10FC4000A26569007894089540FCA2646900F89464
:10FC500008954AFCC23B6900CCD80D943BD1C9D869
:10FC600071FC38D10D94BBF754FC84696E7421008B
:10FC7000FC013197EE0FF3E089919991BEDA0D9472
:10FC80007AFE6AFCC76C69746572616CB2D806EE64
:10FC900044DB8093F8039093F90360680F9403F7B3
:10FCA000982F92959F708F70906E806813D1892FD6
:10FCB00092959F708F70906E80690D946AFF8FDEB1
:10FCC00089919991A0E0B2E0009104040F7FA00F08
:10FCD0008D939D9377C084FC823E6100282F392F3D
:10FCE000899199910895D8FC8121923240F4FC01C8
:10FCF000899199919183808389919991089509D0EF
:10FD00009233E8F60F94EDF06ED0019609810883E6
:10FD10006AC062FF08951CDA0F9476F10341443FF4
:10FD20000F9469F170CFFC0100910704033069F46E
:10FD3000FB110BC00E2F00700A1539F4A0E0B2E0E1
:10FD4000EF7FAE0F8D919D910895879197910895C2
:10FD5000E8FC82613E009A938A93822F932F089544
:10FD600024F58140923220F4FC0181919191089513
:10FD70009233C8F6F999FECF925281BD92BDF89A9E
:10FD800000B5839581BDF89A90B5802F0895CBDF9B
:10FD90009927089562FD82634000923220F4FC01AD
:10FDA000819199270895923390F7E4DF9927089578
:10FDB00016DE89919991A0E0B2E0009104040F7FD2
:10FDC000A00F8D93616009C096FD8263210092327D
:10FDD00038F4FC01899199918083899199910895D2
:10FDE00098DF923328F7F999FECF925281BD92BDE8
:10FDF0008991999180BDFA9AF99AEFCFCAFD8366ED
:10FE00006C2D64600895FEFD83666C2B6B7F0895F6
:10FE100008FE8576616C756540D80F946FF08FD8B9
:10FE20000F94FCEF0D94B2FE12FE85646566657258
:10FE300034D80F94F9F6A4ED0F946FF080D80F9496
:10FE4000FCEF0D94BDEF2AFEC26973000F9416F704
:10FE50000F9476F20F9476F285DFEBD80F9419F3B6
:10FE600029F014DF0F940EF0EAFC01C03EDF089584
:10FE700048FEC2746F000D9426FF72FE877475727F
:10FE80006E6B65790F9410FFFA037CFE85706175C7
:10FE900073650ADC1FB7F894A895DF93CF939F93FF
:10FEA0008F935F934F93F1010EB702930DB70293B7
:10FEB000B291A2911D010E910EBF0E910DBF4F91F7
:10FEC0005F918F919F91CF91DF911FBF089596DD34
:10FED00082692C000F9430F708DF0F9480F00D94A6
:10FEE000E9F8D0FE8369632C0F9430F770DF0F942C
:10FEF00020F10D94E9F881200F942CF433DF803148
:10FF000011F484E209C08A3011F483E205C0823022
:10FF100011F485E201C08FE3089584E092E0A2E04D
:10FF20000F921F9209911991809FD001EE27FF2710
:10FF3000909FB00DE11DF51D819FB00DE11DF51DD8
:10FF4000919FE00DF11DBA93AA93CF011F900F90DE
:10FF50000895E894882329F4992319F468940D945A
:10FF60007FFDDC011990E9918991999100E1FF27CA
:10FF7000880F991F111CEE1FFF1F1A16EB07F505BE
:10FF800018F083951A1AEB0B0A9589F7EA931A92DF
:10FF90000895EEE7FCE70CE8000000320C220205B1
:04FFA0005EF5BCEC62
:00000001FF
