:100000000C94750D41D000003FD000003DD00000A1
:100010003BD0000039D0000037D0000035D00000C0
:1000200033D0000031D000002FD000002DD00000D0
:100030002BD0000029D000003BC0000025D00000DC
:1000400023D0000021D000001FD000001DD00000F0
:100050001BD0000019D0000017D0000015D0000000
:1000600013D0000011D000000FD000000DD0000010
:100070009F918F911F910F91FF91EF91A991B9914C
:10008000B0935F00B9911895BA93B0915F00BA939D
:10009000AA93BF91AF91EF93FF930F931F938F9309
:1000A0009F93552401E8A00FB1E0ED91FD910994D3
:1000B000BA93B0915F00E60CF51CE2CFB091C60098
:1000C000A091BA01A395A093BA01EBEBF1E0A09146
:1000D000B801EA0FF51DB083A395AF71A093B801E5
:1000E000C7CF00006A2D0C09E30274269E1D000292
:1000F0008502480224274C2790270A0089027E0E99
:1001000000000000000000000702321140115011F1
:10011000B818C618D618742B8377642BF894A89552
:1001200090916000986190936000877088608093E0
:10013000600078940C949603180E8377642DF894DD
:10014000A8955092540008E100936000509260001E
:10015000789408953A0EA3637764A89508950000F3
:100160008465786974000F910F910895A027886FB6
:1001700070657261746F72000E94CF017E0E07027B
:100180000000400040005A00600E8469646C650005
:10019000706408958A0E8462757379007F7B089578
:1001A000CA2B846D73657400FC018991999101914A
:1001B000082B0293899199910895A20E846D636C26
:1001C0007200FC0189919991019180950823029315
:1001D000899199910895BC0E866C73686966740064
:1001E000FC018991999131971AF0880F991FFBCFE3
:1001F0000895D80E8672736869667400FC0189914F
:10020000999131971AF096958795FBCF089583D5EC
:10021000A6D281D5A4C2F40E826E3D00A991B991F7
:100220007AD58F700D90102C081A8991999141F40C
:1002300072D50D90081A8991999111F41A94C1F709
:10024000802D99270895180F84736B697000999118
:100250000991A991B991903051F00C91803211F42B
:10026000003210F0081719F411969A95F4CFBA934A
:10027000AA93892F99270895480F847363616E00AC
:100280009991A991A991B991903051F00C91803236
:1002900011F4003228F0801719F011969A95F4CFD6
:1002A000BA93AA93892F90E008957A0F846D74739E
:1002B0007400FC0181910991199180239927089577
:1002C000AC0F834663796BD0803E8373703F8AD0D6
:1002D0000E94240AC0D60E941F0ABDD6DFD20CD3CA
:1002E000EAD10353503F62D70895C20F84656D6908
:1002F000740074D30C949801EC0F836B657974D3FC
:100300000C949801FA0F846B65793F0073D30C94B9
:10031000980106108765786563757465FC01FD506A
:1003200089919991F695E795099414108340657821
:1003300092D60C948E012C10887661726961626C81
:1003400065009FD0B4D0EBD10C94B801381089323D
:100350007661726961626C6594D03CD70400DFD12C
:100360000C94B8014E1088636F6E7374616E7400E4
:100370000E94B9090E942F0E0C94C7096610893299
:10038000636F6E7374616E74D8D10E94B9090E9454
:100390002F0E0E942F0E0C94C70983286329FF910A
:1003A000EF910CD0FF91EF91099483286429BF91BC
:1003B000AF91FF91EF9102D0FD0109949A938A9336
:1003C000EE0FFF1F85919591089583282C29FF91A9
:1003D000EF91F4DFF695E795EF93FF9399C07E10C8
:1003E00083737040FE019A938A93CF010895E010C1
:1003F00083737021EC01089583727030BF91AF91C7
:100400000E94240A28D68DBF9EBF89919991FD0133
:100410000994F010B37270409A938A938DB79EB787
:1004200008951411A23E3C00082F892F902F0895A3
:10043000241185666C6173685092E9010895321148
:1004400086656570726F6D007092E90108954011C4
:100450008372616D04E00093E90108955011826494
:10046000700056D704D00C94DC03836373659A93B1
:100470008A938091E901992708955E1184686572D5
:100480006500EFDF0C94A40E7C11812CFADF53D4AD
:100490000ED00C948F038A1182632C00F2DF15D3E7
:1004A000B3D00C948F0398118463656C6C009A939D
:1004B0008A9382E090E00895A81185616C69676E67
:1004C000E0DF08D0CEDF0C94630EBA1187616C694F
:1004D000676E656401968E7F0895CC11A563656C87
:1004E0006C2B02960895DC11A563656C6C73880F04
:1004F000991F0895E811A5636861722B019608950C
:10050000F611A56368617273089502128363662C05
:100510006AD68FD65FD14BD15DD6F00F0AD26ED29C
:1005200041F058D60E940E945D0F9D509695879588
:1005300006C07FD64FD165D7CDD19F70906D0C94FA
:100540005D0F82213A0046D6FAFF0C94DF0A0C12A6
:100550008232400048D67FD5F0D0C3DF0C942B0800
:10056000501282322100E9D0F2D0BBDFE4D30C94E8
:10057000630E6212853264726F70D8D00C94960349
:100580007412843264757000E2D00C94A703821256
:10059000853273776170E3D0EAD0E1D0F2D008956C
:1005A000901285326F7665729A938A938E819F81BD
:1005B0009A938A938E819F810895A21285737061A8
:1005C000636524D70C947901BC12867370616365EE
:1005D0007300009719F0F5DF66D1FBCF0C949603FA
:1005E000CA1284756D696E00CFDFB0D106C0E21209
:1005F00084756D617800C8DFA2D100D209F09DD06A
:100600000C949603F01281319A938A9381E090E0E2
:1006100008950613866163636570740098D0CCD02A
:10062000A6D0E1D56CDE8D3039F08A3041F08830CB
:1006300079F08F3769F01AC02AD047D221C076D01E
:1006400026D03FD2DBD1E1F067D521D03ED2EACF30
:1006500063D51DD03AD26AD097DF5DD1CFD111F7E3
:1006600022D129D00308200818D0DCCFBCD541DE28
:100670006ED02BD213D18FD06AD04DD1BFD191F291
:100680000F910F915AD00C94EA0383666372D5D20E
:10069000F5FF141384747970650069D002C03BD3F0
:1006A00028DE0E94A90BD8F71F910F910C94960396
:1006B000941383287322FF91EF91EE0FFF1F059192
:1006C0009A938A93CF01935F9A938A93802F992765
:1006D000E00FF91F3196F695E7950994B213D2739E
:1006E000220075DEB613A8DE05D00C942A02DE13B4
:1006F000822C22006FD52200CDD2C3DE28D0CED0EE
:10070000E9DE0DD00C948206F013D22E2200E9DF30
:100710005EDE9A1308950A1485616C6C6F74A1DE15
:100720000C9470041814A464726F700089919991EC
:1007300008952614847377617000099119919A9332
:100740008A93C80108953414846F766572009A9371
:100750008A938A819B810895481483726F7407D0AD
:10076000ECDF0FD00C949D035A14923E7200FF915F
:10077000EF918F939F938991999109946A14927242
:100780003E00FF91EF919A938A939F918F910994E4
:100790007E1492724000FF91EF919A938A939F91F9
:1007A0008F918F939F930994E21E836162731BD58F
:1007B0000C944E05AA14812B09911991800F911F59
:1007C0000895B614826D2B000E94CA0B0C94EC0B9A
:1007D000C414812D09911991081B190BC8010895A2
:1007E0000090DB011090DC010895FADF0094109472
:1007F000060C151C0BD001C008D0906521D0F3D495
:10080000812D07D0806990641BC0EADF09D708D723
:10081000802D982F92958F709F7080680895F5DFD6
:1008200090670ED0E0D4812DF4DF8069906708C016
:10083000ECDF906605D0D7D4812DEBDF8069906620
:100840000C945D0FD21483616E6409911991802319
:10085000912308954615826F720009911991802B9A
:10086000912B0895561583786F72099119918027FD
:10087000912708956615A6696E7665727400809555
:10088000909508957615866E65676174650080950C
:100890009095019608958615A2312B000196089532
:1008A0009815A2312D0001970895A215A2322B00B0
:1008B00002960895AC15853E626F647904960C9497
:1008C000A40EB615A2322A00880F991F0895C415E8
:1008D000A2322F00959587950895D015822B21007F
:1008E0002CDF35DFB8D368DF28DF0C94630EDC150E
:1008F0008677697468696E002ADF6CDF38DF6ADF2B
:1009000040DF0C949F04F015823C3E0004D00C9410
:100910002606EE1E813D5EDF0C9426061416813CF1
:1009200059DF8FEF9FEF14F08095909508951E1674
:10093000813E03DF0C949004301682753C004ADF40
:10094000880B990B08953A1682753E00F6DE0C94DA
:100950009F04481682217000AC01899199910895F5
:1009600054169421703E7200FF91EF914F935F9364
:10097000AC01899199910994621693723E70FF912E
:10098000EF915F914F9109947A16827040009A938B
:100990008A93CA010C94A40E8A16827021009A933D
:1009A0008A93CA010C94630E9A16837063219A93FA
:1009B0008A93CA010C94DA0EAA16A2702B00460D77
:1009C000551D0895BA1683702B2B480F591F899116
:1009D00099910895C6168527656D69742ED1E8FF33
:1009E000D61684276B65790028D1EAFFE2168527A1
:1009F0006B65793F22D1ECFF833F303D00978991B1
:100A0000999108958364303D00970895EE1683759B
:100A10006D2A0C94023F0E1786756D2F6D6F640062
:100A20000C941B3F181785752F6D6F6475D385DE89
:100A30000C941B3F2617812AECDF0C949603361783
:100A400082752F00F3DF0C943F05401786752A2F1F
:100A50006D6F64008CDEDDDF94DE0C9410054C17A6
:100A6000812F92DD02DF83DEA2DE67DEA0DE65DE9F
:100A7000E9DF87DE0C944E056017A36E697009915B
:100A8000099108957A17847475636B0056DE0C948F
:100A9000A7038617873F6E6567617465AAD3AEDFCB
:100AA00009F0F5DE08959417836D61786DDD38DF08
:100AB000A4CDA817836D696E67DD3BDF9ECD826391
:100AC00040000C94BF0E826321000C94DA0EB41720
:100AD0008275700064DC0200D01784686F6C64005B
:100AE00024D392D0FDDE90D0B6D20C94DA0EDA1771
:100AF000823C23008ED088D00C94630EF01785645E
:100B0000696769748A300CF08796C0960895FE175D
:100B1000812387D0A0D290D122DEF4DF0C9470051F
:100B2000101882237300F5DF2FDD97DE67DFD9F71A
:100B30000895221882233E0020DD66D08CD269D031
:100B400006DE0C94EA033418847369676E009030F3
:100B50001AF440D32D00C4DF0C9496034818827514
:100B60002E00C8DFD9D2DFDFE7DF97DD0C94E1028A
:100B70005E1883752E72BEDF96DEF9DDCDD201C020
:100B8000C8DFE7D5E8F71F910F91CDDFD5DF85DD11
:100B90000C94E1027218812EADDF25D308DEBCD2A1
:100BA000C2DFDDDDD4DFC8DF78DD0C94E10296180A
:100BB00087646563696D616C87D233D00C94630E72
:100BC000B0188368657806D310002BD00C94630EA0
:100BD000C2188362696E6BDC24D00C94630ED21849
:100BE00085727361766529D0FEFFE01885756C69A2
:100BF0006E6B23D0FCFFEC18847461736B001DD006
:100C0000F2FFF8188268700018D00000041982689A
:100C1000620089D180D10C94DC030E198462617367
:100C200065000BD0EEFF1C198475736572001FD32D
:100C30003EDC2DDEC4D404DE72D3FF91EF91BEDB27
:100C4000820D931D0895081682303D000197880B90
:100C5000990B0895281986736F757263650075D1B5
:100C60000C94AA025619872F737472696E6765DD3A
:100C70006EDDB0DD7CDDA0DD84DD08956619C15C2C
:100C8000EEDF5CD158D060640C9496037E198570B9
:100C900061727365A8D2E3DF51D1DDD1E8DF8F93B4
:100CA0009F935DDDD4DA53DD62DD59DDE9DA00972B
:100CB00009F0F9DD66DD65DD52DD8CDD3FD110DE4A
:100CC000E5DE0C94EA038E1984776F726400E2DF2C
:100CD00043D618D00C94AC0CC81985636D6F76653B
:100CE0002CDD42DE44DD03C016D061DE68DE31D586
:100CF000D8F71F910F9143DE0C949603DA19857093
:100D00006C61636541DCE1DEF9DB17DD0C94700694
:100D1000FE198363402B9A938A9301960EDD0C94FF
:100D2000BF0E121A82402B009A938A93029605DD19
:100D30000C94A40E81210C94630E241A836E3E63DE
:100D4000EADF8F7039DD0C946A023C1A83633E6ED1
:100D500058D349D2B6DE0E945C0E27FFC9F308952E
:100D60004C1A8328662910DC59DA009731F08991F2
:100D70009991029770D19A938A930097899199914A
:100D800091F7009741F07BDE2ED2DADFD6DC09D076
:100D90005DDF3ADC62DD0895621A86696D6D656417
:100DA0003F008FDE982E807408959A1A8466696ECB
:100DB000640010D26826D7DF009721F4B7DC39D35E
:100DC0004AD1D1DF0895AC1A8664696769743F001F
:100DD0008A331CF081361AF08797C0970AF49CC1B9
:100DE00002D21FDF38D10C949004C81A857369674A
:100DF0006E3FADDC66DE082F99DC0D3219F00B3248
:100E000019F003C004D091C102D00C948C08FCDB13
:100E10000C943706EC1A8375642A8F939F93F9DD3F
:100E200085DC8BDCAEDCF5DD9ADC0C94DC03161B78
:100E30008675642F6D6F64009ADC6ED1ACDCF0DDDA
:100E40008EDC8DDC9EDCECDD0C94AF03301B873E2A
:100E50006E756D62657221E00097D1F088DC8F932A
:100E60009F932FDE8E3279F0B3DFC8DD21F45EDC94
:100E700088DC87DC0DC07BDCD4DEEDD0CEDF81DC0E
:100E8000A3DC20E001C052DC7CDC7BDCC0DFE4CFF3
:100E9000820F08954E1B876E756D6265723FA3D1F8
:100EA0003BD13AD15CDC37DFA4DF61DCBADED3D0E2
:100EB0005EDC4DDC06DE8397833038F418DB8AD1A4
:100EC000100E7ADC35DAA3DF01C030DCC4DF59DC78
:100ED000A8DE31DF93DD29F054DC4FDB4EDB1CD183
:100EE00011C00197EEDD0E945C0E4BDC87DD09F03E
:100EF00059D42E3221F433DC82E090E003C016DCBA
:100F0000BEDD82DB08958473776170000C949D03CD
:100F1000961B8374692373DE9ED008960C94A40EEE
:100F2000121C8374696205D00C94A40E221C837475
:100F3000697583DEF0FF2E1C833E696E7EDEFAFF4C
:100F4000381C8727736F7572636577DEF6FF4BD1A8
:100F5000FF91EF9133DAF695E795DDDC4FDD0994EB
:100F6000421C89696E74657270726574EEDFFBDA1B
:100F7000D3D0E4DFE0DEB0D549D2A9DE34D1A1DDA3
:100F80003DDD09F464C015DF009709F445C086DC37
:100F900044D25CDE62DC32DD99F094FE0AC03DD2C0
:100FA0008ADB0C434F4D50494C45204F4E4C590065
:100FB000FDD06F7BB3D966FDDECF6F7E6F7D2AC01B
:100FC0006F7EC5DF4C1911F0606120C067FF14C04F
:100FD000BEDF4A1511F023DC1DC0B9DF5A1511F030
:100FE00027DC18C0B4DFB81411F0FFDB13C0AFDF8B
:100FF000D41411F001DC0EC06F7DA9DFE61E09F0EC
:10100000606295FE03C00E947F0B04C01ED16D7FFD
:1010100094FC62606F77AFCF6F7488DB40DF00971E
:1010200081F0FBD1EBDC59F0082F8991999101FFF8
:1010300003C06CDF0E942F0E0E942F0E9CCF76DB28
:10104000E9CF74DB45D067DE28DB66D0A6D044D577
:101050000C94960381400C94A40E621C8373686206
:10106000E8D1F9DFC0D02DDD7ADBF7DB4FDF0C9460
:10107000DA0E5C1D89696D6D656469617465AAD05D
:1010800040000C943008741D87696E6C696E65644D
:10109000A1D020000C943008881D832E73749AD040
:1010A0003C0027D90E946F0F24D994D02C0021D95D
:1010B0000E94930FF2DA8ED03E001BD90C949B0A4B
:1010C000823E72000C94B7036AD90A008364703EB2
:1010D00081D00009BDD1F8DF0C947006833E6470A6
:1010E00079D0000941DCB4D175D0090040DB13DEB2
:1010F0007AD02AD40BDC82DC11F059DC01C016DB7B
:101100005EDC27D3A0F71F910F9139DC0C94960376
:101110009A1D8566616C73659A938A9388279927CF
:101120000895121E8474727565009A938A938FEFE6
:101130009FEF0895241E8471756974005FD90FD1E3
:1011400089D9C6DFC4D886D0EEDE4DD0E4DE0A975A
:1011500065DA37DA0BDF61D151DCA1F7A5D4C0DF46
:10116000AADA03206F6B99DA07D00C94A108361E17
:101170008670726F6D7074000E94160F0A09701EDF
:101180008561626F72745BD166DF34D90C949E08FE
:10119000801E873F61626F72743F8DDA013F0C944D
:1011A000D608921E863F61626F727400D8DA26DC20
:1011B00019F407DA72DAE7DF0C94BD02A41ED661D7
:1011C000626F727422008DDA02D9AC1E0895BE1EC1
:1011D000836C6974FF91EF91F1D8F695E7950994C6
:1011E0009214A36475709A938A9308954819823073
:1011F0003C00990F880B990B0895D01E812706D1CA
:1012000066DDD7DD0C94CD08FC1E84636861720036
:10121000FDD040DD8BDA0C94BF0E0A1FC128DADF47
:10122000290038DD60640C94BD021C1F8569686567
:1012300072656ED010CF2C1FD65B636861725D0043
:10124000E7DF0C942F0E8363662C0C948802381F02
:1012500082637200BFDF0D000E947901BBDF0A00CC
:101260000C947901501F8663726561746500CED05D
:101270002EDDB9DF9EDD03DCE9DC1DDA0F414C52C7
:101280004541445920444546494E45448FDFABDF34
:1012900018DCBAD99FDF10002FDB7FDFCADF1AD935
:1012A00037D049DDC6D0D7DECBDA35DDC2DF9BDFF4
:1012B000C0D041DD4CDA80684ADA07DC1FD93DDA5C
:1012C0000FDDB7DFFEDB8F77E9DA04D978D182DF73
:1012D0009E1027D9F5D8D5D8CAD890DB09F4E8DA1A
:1012E0000C945D0F661FD8706F7374706F6E65001D
:1012F0008DD0EDDC5EDD77DF50DF7BDF7FDB21F043
:101300000E94E701CE109CCA0C9488028369647025
:101310000E94CF01DF018728646F65733E2931DAAF
:1013200088D099DE0DDDF4DF96DECCDEF1DF03DD63
:1013300051DF0E940E945D0F0E945D0F22DAE8DFFC
:101340000C94630EE61FD5646F65733E0E94E7013F
:101350001E200E94E701AE1008954620C15B509206
:10136000EA0108955C20815D6092EA01089566209B
:10137000813A7DDFF9DF0C94A3027020873A6E6F0B
:101380006E616D6556DF0C94B4097C20D13BE7DFBC
:1013900061FD23C04EDF28D08C01107F105D59F015
:1013A0008991999121D08E509449B1F48CE094E9BF
:1013B000C4D90C94630E63DB9F7093FD906F84DA45
:1013C00038DFFAD907DFFEFFFAD004DF0C9407D02C
:1013D0009D509695879503C0D0D8FCDE08950C9457
:1013E0005D0F8C20822D40000CD0FDDE0C94A40EED
:1013F000E420D35B275D03DF0C942F0EF220A23292
:101400002D0002970895FE2082626C000E94CF0199
:10141000200008218573746174659A938A93809182
:10142000EA019091EA0108951421866C6174657354
:1014300074000E94CF01E5012A2182733000FDDB98
:10144000E4FF3A2182723000F8DBE6FF83696E69BF
:101450000E94CF01DD014421857469636B739A9307
:101460008A93C70108955821826D7300F8DFA4D9CB
:1014700004D58C01F8940E191F097894CAF70C94BE
:1014800096036821832E696446DC8F7070D903C08F
:1014900042DC0AD0E5DE5DD1D8F71F910F910C94A4
:1014A00096038421833E70729927803012F0803237
:1014B0000AF48EE208952FDC8DDE0F00C6D93DD9E7
:1014C0004BDA3BD928DC4BD942D984D9E7D924DE81
:1014D000EDDA4DD90AC00E94C4022FD270DA2DD99C
:1014E0000E94810F11F0989403C033D1A0F7189493
:1014F0001F910F910CC00E94C402DDDF21F073DE4A
:10150000C3DF0E94E1027DDFA6DD0097A1F70C9406
:10151000BD02A42185776F72647378DFD8DB63DE48
:1015200059DE682602D085DF96DD94DE0C947B0AB6
:101530001422822E73000E94E10255DE0E94F20105
:101540007EDF89DD5EDF0E94C402EAD957DA19F036
:101550004BDF07DBF8CFEAD80C94BD02322284645B
:10156000756D70000F9636DE10006CDA00D920C061
:1015700071DE39DE2FDE0400FEDA2CDE3A0070DE8A
:1015800029DE0F00F4D8C7DB25DE0200F4DAE1D053
:10159000D0F71F910F911EDE10001CD91BDE0F002B
:1015A000E6D8B9DB81DF5CDED4D0D8F71F910F918C
:1015B000D0D0F0F61F910F910C9496038120A8DEF5
:1015C0000C9470045E2283783E72FC01899199919B
:1015D00009D03196829392935292CF010895C622F8
:1015E000833E78619D50969587950895E022837893
:1015F000613E880F991F935F0895EE228370666C99
:101600000E94CF01000D842C3F303D0065FD03C0DA
:10161000E1DDFC1603C004D0DDDD08176F7D6FC06F
:10162000D9DDFCFFCCCF56D99F70906CD8CED2DDDF
:1016300008F0D5CECFDD09F464FD9B7FD0CEFC222F
:10164000D269660064FDECDFE1DFF4DF6F7EF1DD7F
:1016500063DD0C94130B4023D4656C736500E9DDE6
:101660005BDDE1DF53DC0C94390B5823D4746865DF
:101670006E006260DEDD0E94A703ACD8C2DE2AD90C
:10168000A9DD00C0EAD842DC0C94630E6C23D5625D
:101690006567696E0C9419098E23D5756E74696C33
:1016A000626064FDBDDFB2DFC5DF6F7E0C945C0B52
:1016B0009A23D5616761696E6260BBDD0E94EA03AF
:1016C000A0DE0C94130BB223D57768696C65BADF82
:1016D0000C949D03C823D672657065617400ECDFBD
:1016E0000C94390BD623D6696E6C696E65006F7EDB
:1016F0006F7D85DD0C947F0BE62383696E2C14DBF4
:1017000072DD68DD089502D979D919F00E945D0F64
:10171000F6CF0C94BD02FA23D3666F720E94E701E4
:101720006E1487DDF9DC7FDF84DD0C949D031824C3
:10173000D46E657874009DDF0E94E701522477DF44
:10174000BBDF48DD64240C947F0B87286E657874BA
:101750002920FF91EF91BF91AF911197AF93BF9364
:10176000099408951F910F910895302495656E6432
:101770006974FF91EF911F910F915F925F920994AD
:101780006C24B57264726F700F910F91089582246A
:1017900083733E6497FFC0CCC8CC902487646E6589
:1017A0006761746549D00E9404030C94E4039C248F
:1017B000883F646E6567617465001BDD1FD909F0A1
:1017C000F1DF0895B0248464616273000CDD0C9431
:1017D000DD0BC62482642B00A991B991E991F9919E
:1017E00009911991A00FB11F8E1F9F1FBA93AA9341
:1017F0000895D42482642D00D5DF0C94EC0BF424DE
:101800008364322F099119919595879517950795BE
:101810001A930A93089500258364322A0991199135
:10182000000F111F881F991F1A930A9308951825F6
:101830008764696E766572740991199100951095A7
:10184000809590951A930A93089530258364303DCE
:10185000A991B991892B8A2B8B2B51F48FEF9FEF94
:1018600008954C258364303CA991B9919030B2F32E
:10187000882799270895642582643D00BDDF0C9474
:10188000280C782582643C00B7DF899199918FEF0D
:101890009FEF14F0809590950895842582643E0012
:1018A0000E94CB020C94440C9C258375642E22D993
:1018B0003AD942D90E944D030C94E102AA258264D0
:1018C0002E0018D98F939F9381DF2DD90E94C103D9
:1018D0003ED932D90E944D030C94E102BE25867593
:1018E0006E757365640009D00E9441020E94EA038C
:1018F0000C944E04DE25826869006CDC0A260E9486
:1019000037020E94DC030C94A40EFF8AFF0CFF0830
:10191000F62585706F7274629A938A9385E290E0DF
:10192000089512268464647262009A938A9384E212
:1019300090E008952426A24070009A938A93CA01E9
:1019400008953626837063409A938A93CA010C9453
:10195000BF0E4426837061649A938A938091E30159
:101960009091E40108955426A370322B470D551D24
:1019700008950000866D61726B6572000E941C0202
:1019800076DC28DC00090E9441029EDBA9D99CDBA1
:101990000E948F030E942A02C2DC0E94D70158DDF8
:1019A00093DB0C947006960E856C6F61642B7061EE
:1019B0000895A826856C6F61642D7F7E2D9808950B
:1019C00000FE03C007DC50004BDC01FE03C002DC5C
:1019D000450046DC02FE03C0FDDB420041DC03FEA5
:1019E00003C0F8DB57003CDC16FE03C0F3DB4D0000
:1019F00037DC0C94E10274FF01C02D9876FF0CC017
:101A000007E0201649F4E091BA01E03029F4609231
:101A1000530088955092530074FD2D9A0895B42672
:101A2000837478302AD20091C00005FFFBCF8093E9
:101A3000C600899199910895E091C000E5FFFCCF1F
:101A4000F093C600089520278372783016D220D0F4
:101A50000E94FE04D9F39A938A93EBEBF1E0A091F4
:101A6000B901EA0FF51D8081992700915F00F89474
:101A7000A395AF71A093B901A091BA01AA95A093C3
:101A8000BA0100935F0008954827847278303F00C0
:101A9000A091BA01A5110C9495080C948C08560ECF
:101AA0008669666C7573680060FD0C94673F0895E5
:101AB0008A2785656D7074798DDBE20D8BDB0009FB
:101AC00089DB0C000E9470060E948C0883DB0209EF
:101AD0000E94DA0E0C9468085524E1E0F2E03F0120
:101AE0000895B227847761726D00F894AA27BB2706
:101AF000C9E1D0E0DD93C150E9F710905F0000909C
:101B0000540050925400B1E0A0E05D92B830E9F783
:101B1000AF3FD9F75C92BA94C5E8D2E008E412E08E
:101B20000DBF1EBFD9DF0E949F0007E012E0180121
:101B300051DBEE0D4FDBE9014DDB1C000E9470060E
:101B400049DB000901D1F1DA0E948B040E94FE04F6
:101B500009F0B2DF7092440003E00093450009EF02
:101B60000093470070926E0035DBBC0D33DB130031
:101B700066D009E10093C40008E90093C10006E0C3
:101B80000093C200A5DA5092BA015092B80178943D
:101B90000E94E00C25D0259A69D10E94FE04D9F05C
:101BA0000E945B03034553430E944D0313DBD007A0
:101BB0000E94360A0E9486010E94FE0449F00E949B
:101BC0007F0108DB1B000E948B040E94FE0419F4B5
:101BD0004DD10E948E010C94C308E4278376657270
:101BE0000E945B0323466C617368466F72746820C1
:101BF000352041546D6567613332382030332E30E3
:101C0000362E323032330D0A0C944D03DC28A26597
:101C10006900789408950E29A2646900F8940895E3
:101C20001829C23B6900D6DA0C9447D1D3DA3800C0
:101C300044D10C94AF09222984696E742100FC01FF
:101C4000EE0F80E8E80FF1E0899199910E94F20A85
:101C50000C94680E3829C76C69746572616CBADAC5
:101C6000E61E0E947F0B8093DB019093DC0160688D
:101C70000E94F308982F92959F708F70906E8068E5
:101C80001CD1892F92959F708F70906E80690C94F3
:101C90005D0F0E943D3F89919991A0E0B1E00091D4
:101CA000E70100FD0C94A30F0F77A00F8D939D9378
:101CB0007CC05629823E6100282F392F8991999145
:101CC0000895B4298121993040F4FC0189919991BA
:101CD0009183808389919991089509D09D30C8F6A8
:101CE0000E94C40273D00196098108836FC062FF0D
:101CF00008950E949B0A0E945B030341443F0E9497
:101D00004D0369CFFC01FD5060FF11C0FB110FC0F6
:101D10000E2F00780A1559F4AF93BF93A0E0B1E0FD
:101D2000EF77AE0F8D919D91BF91AF910895859101
:101D300095910895C42982613E009A938A93822FD7
:101D4000932F0895362A8140993020F4FC01819127
:101D5000919108959D30B0F6F999FECF995081BDCB
:101D600092BDF89A00B5839581BDF89A90B5802F01
:101D70000895C8DF99270895462A82634000993064
:101D800020F4FC018191992708959D3090F7E4DFBC
:101D9000992708950E943D3F89919991A0E0B1E073
:101DA0000091E7010F77A00F8D93616009C07A2A37
:101DB00082632100993038F4FC01899199918083E4
:101DC00089919991089593DF9D3020F7F894F999BE
:101DD000FDCF995081BD92BD8991999180BDFA9AAC
:101DE000F99AF999FECF7894EBCFB02A83666C2DDF
:101DF00064600895EC2A83666C2B6B7F0895F62A45
:101E00008576616C756533DA0E94460288DA0E9435
:101E1000D7010C94A40E002B85646566657227DAE1
:101E20000E94EA08861E0E94460279DA0E94D701C3
:101E30000C949801182BC26973000E94FF080E943D
:101E40005E04EBDA0E94FE0429F009DF0E94E7013C
:101E5000C62901C038DF0895362BC2746F000C9478
:101E60001D0F5A2B877475726E6B65790E94070F70
:101E7000DD01642B857061757365BDDDA895DF9309
:101E8000CF939F938F935F934F93F101F8940EB785
:101E900002930DB70293B291A2911D010E910EBF54
:101EA0000E910DBF4F915F918F919F91CF91DF91D7
:101EB000789408956E0E82692C000E94190903DF40
:101EC0000E9457020C94DF0AB62B8369632C0E9490
:101ED000190970DF0E9404030C94DF0A81200E941C
:101EE00011060E94A40E803111F484E209C08A30E8
:101EF00011F483E205C0823011F485E201C08FE362
:101F000008950E94B70309C00E9407010E94EA03D6
:101F10000E94FE0411F00C94770A0E94A90BA0F70E
:101F20000C94730A81200E9437020E94EA080A0E6C
:101F30000E94DC030E942B080E948B060E94EA0884
:101F40000F000C9425049A938A938091E701909155
:101F5000E8010E949B0A0E945B030341443F0E94E8
:101F60004D030C94C30808950895010002E5800014
:107E00000C94750D0F921F9209911991809FD001CA
:107E1000EE27FF27909FB00DE11DF51D819FB00D4E
:107E2000E11DF51D919FE00DF11DBA93AA93CF01BD
:107E30001F900F900895E894882329F4992319F44A
:107E400068940C94750DDC011990E99189919991D0
:107E500000E1FF27880F991F111CEE1FFF1F1A1644
:107E6000EB07F50518F083951A1AEB0B0A9589F7BD
:107E7000EA931A9208950C94A90F9D50052D00C005
:107E80008093E7019093E801003011F49E3798F752
:107E9000003011F4903278F30091E70100780A1174
:107EA00005C00091E8010B1101C008950E94540D16
:107EB0000091E7010078A02EB090E80100E8F501FC
:107EC000A0E0B1E015911D930A95E1F708950E9495
:107ED000B30FF8940027F501003011F4FE3738F5A0
:107EE000003011F4F03218F113E030D011E12ED04F
:107EF00000E4A0E0B1E00F921F920D901D9011E000
:107F00000E94A63F32960150C1F7E058F04015E0BC
:107F10000E94A63F13D000E8A058B04005901D90E5
:107F200001100C94750D0150C9F71F900F900FEFC1
:107F3000B02E6E7F78940E94B40F08958090570001
:107F400086FE089511E10E94A63FF8CF8090570069
:107F500080FCFCCF10935700E8958090570080FC80
:047F6000FCCF0895B5
:00000001FF
