:100000000C947C0D41D000003FD000003DD000009A
:100010003BD0000039D0000037D0000035D00000C0
:1000200033D0000031D000002FD000002DD00000D0
:100030002BD0000029D000003BC0000025D00000DC
:1000400023D0000021D000001FD000001DD00000F0
:100050001BD0000019D0000017D0000015D0000000
:1000600013D0000011D000000FD000000DD0000010
:100070009F918F911F910F91FF91EF91A991B9914C
:10008000B0935F00B9911895BA93B0915F00BA939D
:10009000AA93BF91AF91EF93FF930F931F938F9309
:1000A0009F93552401E8A00FB1E0ED91FD910994D3
:1000B000BA93B0915F00E60CF51CE2CFB091C60098
:1000C000A091BA01A395A093BA01EBEBF1E0A09146
:1000D000B801EA0FF51DB083A395AF71A093B801E5
:1000E000C7CF00007E2D0C09E3028226A41D00026A
:1000F0008502480232275A279E270A0089027E0E6F
:10010000000000000000000007022E113C114C11FD
:10011000B418C218D218882B8377642BF894A8954A
:1001200090916000986190936000877088608093E0
:10013000600078940C949403180E8377642DF894DF
:10014000A8955092540008E100936000509260001E
:10015000789408953A0EA3637764A89508950000F3
:100160008465786974000F910F910895AE27886FA8
:1001700070657261746F72000E94CD017E0E07027D
:100180000000400040005A00600E8469646C650005
:10019000706408958A0E8462757379007F7B089578
:1001A000DE2B846D73657400FC0189919991019136
:1001B000082B0293899199910895A20E846D636C26
:1001C0007200FC0189919991019180950823029315
:1001D000899199910895BC0E866C73686966740064
:1001E000FC018991999131971AF0880F991FFBCFE3
:1001F0000895D80E8672736869667400FC0189914F
:10020000999131971AF096958795FBCF089581D5EE
:10021000A4D27FD5A2C2F40E826E3D00A991B991FD
:10022000FC01FD5085918F700D90102C081A31F44F
:1002300085910D90081A11F41A94D1F7802D992701
:100240000895180F84736B69700099910991A991B1
:10025000B991903051F00C91803211F4003210F0CD
:10026000081719F411969A95F4CFBA93AA93892F87
:1002700099270895440F847363616E009991A99141
:10028000A991B991903051F00C91803211F4003263
:1002900028F0801719F011969A95F4CFBA93AA9383
:1002A000892F90E00895760F846D74737400FC01BB
:1002B000819109911991802399270895A80F834668
:1002C00063796BD0803E8373703F8AD00E942B0A83
:1002D000C5D60E94260AC2D6DFD20CD3EAD1035378
:1002E000503F68D70895BE0F84656D69740074D35C
:1002F0000C949601E80F836B657974D30C94960186
:10030000F60F846B65793F0073D30C94960102104D
:100310008765786563757465FC01FD5089919991D5
:10032000F695E795099410108340657897D60C945C
:100330008C012810887661726961626C65009FD0BB
:10034000B4D0EBD10C94B601341089327661726965
:1003500061626C6594D042D70400DFD10C94B60181
:100360004A1088636F6E7374616E74000E94C009D6
:100370000E94390E0C94CE0962108932636F6E733D
:1003800074616E74D8D10E94C0090E94390E0E9417
:10039000390E0C94CE0983286329FF91EF910CD07C
:1003A000FF91EF91099483286429BF91AF91FF9148
:1003B000EF9102D0FD0109949A938A93EE0FFF1FEB
:1003C00085919591089583282C29FF91EF91F4DF71
:1003D000F695E795EF93FF9399C07A108373704079
:1003E000FE019A938A93CF010895DC1083737021E4
:1003F000EC01089583727030BF91AF910E942B0A77
:100400002DD68DBF9EBF89919991FD010994EC1065
:10041000B37270409A938A938DB79EB70895101166
:10042000A23E3C00082F892F902F08952011856649
:100430006C6173685092E90108952E1186656570AC
:10044000726F6D007092E90108953C118372616DC5
:1004500004E00093E90108954C11826470005FD7B5
:1004600004D00C94DA03836373659A938A93809122
:10047000E901992708955A11846865726500EFDFD4
:100480000C94AE0E7811812CFADF53D40ED00C945C
:100490008D03861182632C00F2DF15D3B3D00C9448
:1004A0008D0394118463656C6C009A938A9382E047
:1004B00090E00895A41185616C69676EE0DF08D053
:1004C000CEDF0C946D0EB61187616C69676E656442
:1004D00001968E7F0895C811A563656C6C2B0296FA
:1004E0000895D811A563656C6C73880F991F0895E2
:1004F000E411A5636861722B01960895F211A5635A
:10050000686172730895FE118363662C70D695D668
:100510005FD14BD163D6F00F0AD26ED241F05ED6D6
:100520000E940E94670F9D509695879506C085D6BC
:100530004FD16ED7CDD19F70906D0C94670F8221F3
:100540003A004CD6FAFF0C94E60A081282324000B8
:100550004ED684D5F0D0C3DF0C942E084C128232D4
:100560002100E9D0F2D0BBDFE4D30C946D0E5E1213
:10057000853264726F70D8D00C94940370128432F8
:1005800064757000E2D00C94A5037E1285327377F7
:100590006170E3D0EAD0E1D0F2D008958C128532B8
:1005A0006F7665729A938A938E819F819A938A93CC
:1005B0008E819F8108959E128573706163652DD72A
:1005C0000C947701B81286737061636573000097AD
:1005D00019F0F5DF66D1FBCF0C949403C612847535
:1005E0006D696E00CFDFB0D106C0DE1284756D611B
:1005F0007800C8DFA2D100D209F09DD00C949403FA
:10060000EC1281319A938A9381E090E0089502136D
:10061000866163636570740098D0CCD0A6D0E7D5AE
:100620006CDE8D3039F08A3041F0883079F08F37C8
:1006300069F01AC02AD047D221C076D026D03FD246
:10064000DBD1E1F06CD521D03ED2EACF68D51DD008
:100650003AD26AD097DF5DD1CFD111F722D129D01C
:100660000308200818D0DCCFC2D541DE6ED02BD2D3
:1006700013D18FD06AD04DD1BFD191F20F910F918C
:100680005AD00C94E80383666372D5D2F5FF101339
:1006900084747970650069D002C03BD328DE0E9463
:1006A000B00BD8F71F910F910C94940390138328EB
:1006B0007322FF91EF91EE0FFF1F05919A938A939A
:1006C000CF01935F9A938A93802F9927E00FF91FA8
:1006D0003196F695E7950994AE13D273220075DE34
:1006E000B213A8DE05D00C942802DA13822C220063
:1006F00075D52200CDD2C3DE28D0CED0E9DE0DD014
:100700000C948006EC13D22E2200E9DF5EDE9613F5
:100710000895061485616C6C6F74A1DE0C946E04F0
:100720001414A464726F7000899199910895221431
:10073000847377617000099119919A938A93C80123
:1007400008953014846F766572009A938A938A8133
:100750009B810895441483726F7407D0ECDF0FD02F
:100760000C949B035614923E7200FF91EF918F936D
:100770009F93899199910994661492723E00FF911A
:10078000EF919A938A939F918F9109947A14927220
:100790004000FF91EF919A938A939F918F918F934D
:1007A0009F930994EA1E8361627321D50C944C05D2
:1007B000A614812B09911991800F911F0895B214ED
:1007C000826D2B000E94D10B0C94F30BC014812D71
:1007D00009911991081B190BC80108950090DB01BC
:1007E0001090DC010895FADF00941094060C151C9B
:1007F0000BD001C008D0906521D0F9D4812D07D04D
:10080000806990641BC0EADF12D711D7802D982F22
:1008100092958F709F7080680895F5DF90670ED075
:10082000E6D4812DF4DF8069906708C0ECDF906624
:1008300005D0DDD4812DEBDF806990660C94670FC5
:10084000CE1483616E6409911991802391230895D8
:100850004215826F720009911991802B912B089596
:10086000521583786F720991199180279127089505
:100870006215A6696E7665727400809590950895EC
:100880007215866E65676174650080959095019616
:1008900008958215A2312B00019608959415A23176
:1008A0002D00019708959E15A2322B0002960895FF
:1008B000A815853E626F647904960C94AE0EB2154D
:1008C000A2322A00880F991F0895C015A2322F0066
:1008D000959587950895CC15822B21002CDF35DF67
:1008E000BDD368DF28DF0C946D0ED8158677697448
:1008F00068696E002ADF6CDF38DF6ADF40DF0C9446
:100900009D04EC15823C3E0004D00C942406F61E97
:10091000813D5EDF0C9424061016813C59DF8FEF79
:100920009FEF14F08095909508951A16813E03DF8D
:100930000C948E042C1682753C004ADF880B990BB0
:100940000895361682753E00F6DE0C949D0444161A
:1009500082217000AC0189919991089550169421DB
:10096000703E7200FF91EF914F935F93AC018991BC
:10097000999109945E1693723E70FF91EF915F9189
:100980004F9109947616827040009A938A93CA0117
:100990000C94AE0E8616827021009A938A93CA0137
:1009A0000C946D0E9616837063219A938A93CA01F4
:1009B0000C94E40EA616A2702B00460D551D08954A
:1009C000B61683702B2B480F591F89919991089562
:1009D000C2168527656D69742ED1E8FFD21684276B
:1009E0006B65790028D1EAFFDE1685276B65793FB4
:1009F00022D1ECFF833F303D009789919991089572
:100A00008364303D00970895EA1683756D2A0C942F
:100A1000023F0A1786756D2F6D6F64000C941B3FA3
:100A2000141785752F6D6F647AD385DE0C941B3F88
:100A30002217812AECDF0C949403321782752F0061
:100A4000F3DF0C943D053C1786752A2F6D6F64000B
:100A50008CDEDDDF94DE0C940E054817812F92DDCD
:100A600002DF83DEA2DE67DEA0DE65DEE9DF87DE91
:100A70000C944C055C17A36E697009910991089557
:100A80007617847475636B0056DE0C94A503821789
:100A9000873F6E6567617465B0D3AEDF09F0F5DE40
:100AA00008959017836D61786DDD38DFA4CDA417AC
:100AB000836D696E67DD3BDF9ECD826340000C94E1
:100AC000C90E826321000C94E40EB0178275700089
:100AD00064DC0200CC1784686F6C640029D392D068
:100AE000FDDE90D0BBD20C94E40ED617823C2300DE
:100AF0008ED088D00C946D0EEC178564696769748C
:100B00008A300CF08796C0960895FA17812387D013
:100B1000A5D295D122DEF4DF0C946E050C18822349
:100B20007300F5DF2FDD97DE67DFD9F708951E1814
:100B300082233E0020DD66D091D269D006DE0C947F
:100B4000E8033018847369676E0090301AF446D356
:100B50002D00C4DF0C949403441882752E00C8DF66
:100B6000DED2DFDFE7DF97DD0C94DF025A188375F2
:100B70002E72BEDF96DEF9DDD2D201C0C8DFF0D51D
:100B8000E8F71F910F91CDDFD5DF85DD0C94DF02F3
:100B90006E18812EADDF2BD308DEC1D2C2DFDDDDC2
:100BA000D4DFC8DF78DD0C94DF02921887646563B8
:100BB000696D616C8CD233D00C946D0EAC18836867
:100BC00065780CD310002BD00C946D0EBE18836288
:100BD000696E6BDC24D00C946D0ECE188572736137
:100BE000766529D0FEFFDC1885756C696E6B23D0A5
:100BF000FCFFE818847461736B001DD0F2FFF418D9
:100C00008268700018D000000019826862008ED1DE
:100C100085D10C94DA030A198462617365000BD0E4
:100C2000EEFF181984757365720025D33EDC2DDE46
:100C3000CDD404DE7BD3FF91EF91BEDB820D931DFB
:100C40000895041682303D000197880B990B089592
:100C5000241986736F75726365007AD10C94A802AB
:100C60005219872F737472696E6765DD6EDDB0DDB2
:100C70007CDDA0DD84DD08956219C15CEEDF61D109
:100C800058D060640C9494037A198570617273650E
:100C9000AED2E3DF56D1E2D1E8DF8F939F935DDDE3
:100CA000D4DA53DD62DD59DDE9DA009709F0F9DDC8
:100CB00066DD65DD52DD8CDD44D110DEE5DE0C94B1
:100CC000E8038A1984776F726400E2DF4CD618D08B
:100CD0000C94B30CC41985636D6F76652CDD42DE10
:100CE00044DD03C016D061DE68DE3AD5D8F71F9127
:100CF0000F9143DE0C949403D61985706C61636583
:100D000041DCE1DEF9DB17DD0C946E06FA19836332
:100D1000402B9A938A9301960EDD0C94C90E0E1AFD
:100D200082402B009A938A93029605DD0C94AE0EB6
:100D300081210C946D0E201A836E3E63EADF8F7062
:100D400039DD0C946802381A83633E6E61D34FD24A
:100D5000B6DE0E94660E27FFC9F30895481A83285D
:100D600066299A938A938A819B819A938A938A812E
:100D70009B8154DA009741F08991999102970E94E2
:100D80008C0E009771F70AC08991999176DE2FD267
:100D9000D5DFD1DC09D058DF35DC5DDD08955E1A82
:100DA00086696D6D65643F008ADE982E80740895B3
:100DB000A01A8466696E640011D27626D2DF00978D
:100DC00021F4B2DC3DD34AD1CCDF0895B21A866457
:100DD000696769743F008A331CF081361AF087977F
:100DE000C0970AF49CC103D21ADF38D10C948E0448
:100DF000CE1A857369676E3FA8DC61DE082F94DC2C
:100E00000D3219F00B3219F003C004D091C102D099
:100E10000C948F08F7DB0C943506F21A8375642A5C
:100E20008F939F93F4DD80DC86DCA9DCF0DD95DC1C
:100E30000C94DA031C1B8675642F6D6F640095DCBF
:100E40006ED1A7DCEBDD89DC88DC99DCE7DD0C9476
:100E5000AD03361B873E6E756D62657221E00097AB
:100E6000D1F083DC8F939F932ADE8E3279F0B3DF4B
:100E7000C3DD21F459DC83DC82DC0DC076DCCFDEFF
:100E8000EDD0CEDF7CDC9EDC20E001C04DDC77DCE9
:100E900076DCC0DFE4CF820F0895541B876E756D3A
:100EA0006265723FA4D13BD13AD157DC32DFA4DF77
:100EB0005CDCB5DED3D059DC48DC01DE83978330BF
:100EC00038F413DB8BD1100E75DC30DAA3DF01C0F0
:100ED0002BDCC4DF54DCA3DE2CDF8EDD29F04FDCFD
:100EE0004ADB49DB1CD111C00197E9DD0E94660E87
:100EF00046DC82DD09F05DD42E3221F42EDC82E066
:100F000090E003C011DCB9DD7DDB08958473776167
:100F100070000C949B039C1B837469236EDE9ED02F
:100F200008960C94AE0E181C8374696205D00C945C
:100F3000AE0E281C837469757EDEF0FF341C833E80
:100F4000696E79DEFAFF3E1C8727736F75726365E1
:100F500072DEF6FF4CD1FF91EF912EDAF695E79510
:100F6000D8DC4ADD0994481C89696E746572707218
:100F70006574EEDFF6DAD3D0E4DFDBDEB4D54DD234
:100F8000A4DE35D19CDD38DD09F464C015DF00979F
:100F900009F445C081DC48D257DE5DDC2DDD99F0D7
:100FA00094FE0AC041D285DB0C434F4D50494C455D
:100FB000204F4E4C5900FED06F7BAED966FDDECF80
:100FC0006F7E6F7D2AC06F7EC5DF481911F06061AA
:100FD00020C067FF14C0BEDF461511F01EDC1DC027
:100FE000B9DF561511F022DC18C0B4DFB41411F0CB
:100FF000FADB13C0AFDFD01411F0FCDB0EC06F7D45
:10100000A9DFEE1E09F0606295FE03C00E94860B08
:1010100004C01FD16D7F94FC62606F77AFCF6F7497
:1010200083DB40DF009781F0FFD1E6DC59F0082F29
:101030008991999101FF03C06CDF0E94390E0E94D3
:10104000390E9CCF71DBE9CF6FDB45D062DE23DB4D
:1010500066D0A7D048D50C94940381400C94AE0E72
:10106000681C83736862ECD1F9DFC1D028DD75DBC1
:10107000F2DB4FDF0C94E40E621D89696D6D6564CF
:1010800069617465ABD040000C9433087A1D8769A0
:101090006E6C696E6564A2D020000C9433088E1DBE
:1010A000832E73749BD03C0022D90E94790F1FD9E4
:1010B00095D02C001CD90E949D0FEDDA8FD03E00F8
:1010C00016D90C94A20A823E72000C94B50365D91D
:1010D0000A008364703E82D00009C1D1F8DF0C940D
:1010E0006E06833E64707AD000093CDCB8D176D0BD
:1010F00009003BDB0EDE7BD02ED406DC7DDC11F05C
:1011000054DC01C011DB59DC2BD3A0F71F910F91E8
:1011100034DC0C949403A01D8566616C73659A930E
:101120008A93882799270895181E8474727565001C
:101130009A938A938FEF9FEF08952A1E84717569A1
:1011400074005AD913D184D9C6DF7F77BED886D030
:10115000EDDE4DD0E3DE0A975FDA31DA0ADF64D1E3
:101160004BDC99F7A8D4BFDFA4DA03206F6B93DAC6
:1011700007D00C94A4083C1E8670726F6D707400CA
:101180000E94200F0A09781E8561626F72745ED119
:1011900065DF2ED90C94A108881E873F61626F72AB
:1011A000743F87DA013F0C94DA089A1E863F616229
:1011B0006F727400D2DA20DC19F401DA6CDAE7DF3E
:1011C0000C94BB02AC1ED661626F7274220087DA87
:1011D000FCD8B41E0895C61E836C6974FF91EF910C
:1011E000EBD8F695E79509948E14A36475709A93DD
:1011F0008A930895441982303C00990F880B990B0B
:101200000895D81E812709D160DDD6DD0C94D10860
:10121000041F84636861720000D13ADD85DA0C94A2
:10122000C90E121FC128DADF290032DD60640C9478
:10123000BB02241F85696865726571D00FCF341FAA
:10124000D65B636861725D00E7DF0C94390E8363DF
:10125000662C0C948602401F82637200BFDF0D0073
:101260000E947701BBDF0A000C947701581F866348
:1012700072656174650077FD1ED4CFD026DDB7DFBF
:101280009BDDFBDBE1DC15DA0F414C524541445953
:1012900020444546494E45448DDFA9DF10DCB2D9D4
:1012A0009DDF100027DB7DDF7068C7DF11D937D0E5
:1012B00040DDC6D0D3DEC2DA2CDDBFDF98DFC0D080
:1012C00038DD43DA806841DAFEDB16D934DA06DD30
:1012D000B4DFF5DB8F77E0DAFBD878D17FDF9A10C7
:1012E0001ED9ECD8CCD8C1D887DB09F4DFDA0C944E
:1012F000670F6E1FD8706F7374706F6E65008DD03E
:10130000E4DC5ADD74DF4DDF78DF76DB21F00E940C
:10131000E501CA1093CA0C948602836964700E9426
:10132000CD01DF018728646F65733E2928DA88D0F4
:1013300095DE04DDF4DF92DEC8DEF1DFFADC4EDF9D
:101340000E940E94670F0E94670F19DAE8DF0C9471
:101350006D0EF41FD5646F65733E0E94E5012C206D
:101360000E94E501AA1008955420C15B5092EA0141
:1013700008956A20815D6092EA0108957420813A9F
:101380007ADFF9DF0C94A1027E20873A6E6F6E61DE
:101390006D6553DF0C94BB098A20D13BE7DF61FD0B
:1013A00023C04BDF28D08C01107F105D59F089914C
:1013B000999121D08E509449B1F48CE094E9BBD935
:1013C0000C946D0E5ADB9F7093FD906F7BDA35DFC6
:1013D000F1D904DFFEFFFAD001DF0C9407D09D5055
:1013E0009695879503C0C7D8F9DE08950C94670FCA
:1013F0009A20822D40000CD0FADE0C94AE0EF22022
:10140000D35B275D00DF0C94390E0021A2322D0042
:10141000029708950C2182626C000E94CD01200089
:1014200016218573746174659A938A938091EA0199
:101430009091EA0108952221866C617465737400AD
:101440000E94CD01E501382182733000F4DBE4FF16
:10145000482182723000EFDBE6FF83696E690E94EB
:10146000CD01DD015221857469636B739A938A9370
:10147000C70108956621826D7300F8DF9BD907D5F7
:101480008C01F8940E191F097894CAF70C949403F0
:101490007621832E69643DDC8F7067D903C039DC07
:1014A0000AD0E2DE5DD1D8F71F910F910C9494031E
:1014B0009221833E70729927803012F080320AF4B4
:1014C0008EE2089526DC8ADE0F00BDD934D942DAD7
:1014D00032D91FDC42D939D97BD9DED920DEE4DA12
:1014E00044D90AC00E94C2022FD267DA24D90E94CE
:1014F0008B0F11F0989403C033D1A0F718941F916B
:101500000F910CC00E94C202DDDF21F070DEC3DF4C
:101510000E94DF027DDFA2DD0097A1F70C94BB02E1
:10152000B22185776F72647378DFCFDB60DE56DEC1
:10153000762602D085DF92DD91DE0C94820A22228B
:10154000822E73000E94DF0252DE0E94F0017EDFD5
:1015500085DD5EDF0E94C202E1D94EDA19F04BDF71
:10156000FEDAF8CFE1D80C94BB0240228464756D9A
:1015700070000F9633DE100063DAF7D820C06EDEFD
:1015800036DE2CDE0400F5DA29DE3A006DDE26DEDA
:101590000F00EBD8BEDB22DE0200EBDAE1D0D0F7A1
:1015A0001F910F911BDE100013D918DE0F00DDD83C
:1015B000B0DB81DF59DED4D0D8F71F910F91D0D0A6
:1015C000F0F61F910F910C9494038120A8DE0C94E7
:1015D0006E046C2283783E72FC018991999109D046
:1015E0003196829392935292CF010895D422833EF2
:1015F00078619D50969587950895EE228378613E97
:10160000880F991F935F0895FC228370666C0E9477
:10161000CD01000D842C3F303D0065FD03C0DEDDB3
:10162000F81603C004D0DADD04176F7D6FC0D6DD75
:10163000FCFFCCCF4DD99F70906CD8CECFDD08F099
:10164000D5CECCDD09F464FD9B7FD0CE0A23D269D0
:10165000660064FDECDFE1DFF4DF6F7EEEDD5FDD71
:101660000C941A0B4E23D4656C736500E6DD57DDD0
:10167000E1DF4FDC0C94400B6623D47468656E0088
:101680006260DBDD0E94A503A3D8C2DE21D9A6DDFE
:1016900000C0E1D83EDC0C946D0E7A23D5626567FC
:1016A000696E0C941D099C23D5756E74696C62601B
:1016B00064FDBDDFB2DFC5DF6F7E0C94630BA82332
:1016C000D5616761696E6260B8DD0E94E803A0DEE3
:1016D0000C941A0BC023D57768696C65BADF0C943B
:1016E0009B03D623D672657065617400ECDF0C94A1
:1016F000400BE423D6696E6C696E65006F7E6F7D6A
:1017000082DD0C94860BF42383696E2C0BDB6FDD7A
:1017100065DD0895F9D870D919F00E94670FF6CFEA
:101720000C94BB020824D3666F720E94E5016A1410
:1017300084DDF5DC7FDF81DD0C949B032624D46EF1
:10174000657874009DDF0E94E501602477DFBBDFD0
:1017500045DD72240C94860B87286E6578742920E9
:10176000FF91EF91BF91AF911197AF93BF93099400
:1017700008951F910F9108953E2495656E646974D4
:10178000FF91EF911F910F915F925F9209947A24DC
:10179000B57264726F700F910F91089590248373E6
:1017A0003E6497FFBCCCC4CC9E2487646E656761A1
:1017B000746549D00E9402030C94E203AA24883F76
:1017C000646E65676174650018DD16D909F0F1DF94
:1017D0000895BE2484646162730009DD0C94E40BF7
:1017E000D42482642B00A991B991E991F9910991CE
:1017F0001991A00FB11F8E1F9F1FBA93AA9308952E
:10180000E22482642D00D5DF0C94F30B022583645F
:10181000322F0991199195958795179507951A93E8
:101820000A9308950E258364322A09911991000FB5
:10183000111F881F991F1A930A93089526258764FC
:10184000696E76657274099119910095109580956D
:1018500090951A930A9308953E258364303DA9918B
:10186000B991892B8A2B8B2B51F48FEF9FEF089521
:101870005A258364303CA991B9919030B2F38827FE
:1018800099270895722582643D00BDDF0C942F0CCA
:10189000862582643C00B7DF899199918FEF9FEF95
:1018A00014F0809590950895922582643E000E94E0
:1018B000C9020C944B0CAA258375642E19D931D911
:1018C00039D90E944B030C94DF02B82582642E00A4
:1018D0000FD98F939F9381DF24D90E94BF0335D9FD
:1018E00029D90E944B030C94DF02CC2586756E75B6
:1018F0007365640009D00E943F020E94E8030C94C3
:101900004C04EC258268690069DC18260E943502C7
:101910000E94DA030C94AE0EFF8AFF0CFF08042627
:1019200085706F7274629A938A9385E290E008954D
:1019300020268464647262009A938A9384E290E021
:1019400008953226A24070009A938A93CA0108959E
:101950004426837063409A938A93CA010C94C90EFB
:101960005226837061649A938A938091E3019091E7
:10197000E40108956226A370322B470D551D08958A
:101980000000866D61726B6572000E941A0273DC42
:1019900025DC00090E943F029ADBA0D998DB0E9457
:1019A0008D030E942802C2DC0E94D50158DD8FDB26
:1019B0000C946E06960E856C6F61642B70610895B1
:1019C000B626856C6F61642D7F7E2D98089500FE8C
:1019D00003C004DC500048DC01FE03C0FFDB45000F
:1019E00043DC02FE03C0FADB42003EDC03FE03C020
:1019F000F5DB570039DC16FE03C0F0DB4D0034DCAC
:101A00000C94DF0274FF01C02D9876FF0CC007E034
:101A1000201649F4E091BA01E03029F460925300B5
:101A200088955092530074FD2D9A0895C2268374B0
:101A300078302DD20091C00005FFFBCF8093C60007
:101A4000899199910895E091C000E5FFFCCFF09352
:101A5000C60008952E278372783019D220D00E94B4
:101A6000FC04D9F39A938A93EBEBF1E0A091B901CE
:101A7000EA0FF51D8081992700915F00F894A395E6
:101A8000AF71A093B901A091BA01AA95A093BA0130
:101A900000935F0008955627847278303F00A0912C
:101AA000BA01A5110C9498080C948F08560E8669FB
:101AB000666C7573680060FD0C94673F0895982705
:101AC00085656D7074798ADBE20D88DB000986DB41
:101AD0000C000E946E060E948F0880DB02090E94A3
:101AE000E40E0C946B085524E1E0F2E03F01089508
:101AF000C027847761726D00F894AA27BB27C9E1DB
:101B0000D0E0DD93C150E9F710905F0000905400E1
:101B100050925400B1E0A0E05D92B830E9F7AF3FD9
:101B2000D9F75C92BA94C5E8D2E008E412E00DBFA0
:101B30001EBFD9DF0E949F0007E012E018014EDBB4
:101B4000EE0D4CDBE9014ADB1C000E946E0646DB11
:101B5000000904D1EDDA0E9489040E94FC0409F016
:101B6000B2DF7092440003E00093450009EF009358
:101B7000470070926E0032DBBC0D30DB130069D081
:101B800000E10093C40002E00093C00008E9009364
:101B9000C10006E00093C2009EDA5092BA01509252
:101BA000B80178940E94E70C25D0259A69D10E944B
:101BB000FC04D9F00E945903034553430E944B0390
:101BC0000DDBD0070E943D0A0E9484010E94FC04A4
:101BD00049F00E947D0102DB1B000E9489040E94E3
:101BE000FC0419F44DD10E948C010C94C708F22713
:101BF000837665720E94590323466C617368466F51
:101C000072746820352041546D6567613332382025
:101C100030332E30362E323032330D0A0C944B03D3
:101C2000F028A2656900789408952229A2646900C9
:101C3000F89408952C29C23B6900D0DA0C9447D15E
:101C4000CDDA380044D10C94B609362984696E7413
:101C50002100FC01EE0F80E8E80FF1E089919991F5
:101C60000E94F90A0C94720E4C29C76C6974657253
:101C7000616CB4DAEE1E0E94860B8093DB019093B8
:101C8000DC0160680E94F708982F92959F708F7012
:101C9000906E80681CD1892F92959F708F70906E86
:101CA00080690C94670F0E943D3F89919991A0E053
:101CB000B1E00091E70100FD0C94AD0F0F77A00F8C
:101CC0008D939D937CC06A29823E6100282F392F15
:101CD000899199910895C8298121993040F4FC0196
:101CE000899199919183808389919991089509D0DF
:101CF0009D30C8F60E94C20273D001960981088304
:101D00006FC062FF08950E94A20A0E945903034116
:101D1000443F0E944B0369CFFC01FD5060FF11C09E
:101D2000FB110FC00E2F00780A1559F4AF93BF9323
:101D3000A0E0B1E0EF77AE0F8D919D91BF91AF9193
:101D40000895859195910895D82982613E009A93CE
:101D50008A93822F932F08954A2A8140993020F444
:101D6000FC018191919108959D30B0F6F999FECFD3
:101D7000995081BD92BDF89A00B5839581BDF89ABE
:101D800090B5802F0895C8DF992708955A2A826355
:101D90004000993020F4FC018191992708959D30ED
:101DA00090F7E4DF992708950E943D3F899199912A
:101DB000A0E0B1E00091E7010F77A00F8D93616083
:101DC00009C08E2A82632100993038F4FC01899180
:101DD0009991808389919991089593DF9D3020F79F
:101DE000F894F999FDCF995081BD92BD899199914F
:101DF00080BDFA9AF99AF999FECF7894EBCFC42A6C
:101E000083666C2D64600895002B83666C2B6B7F5A
:101E100008950A2B8576616C75652DDA0E9444025F
:101E200085DA0E94D5010C94AE0E142B856465668C
:101E3000657221DA0E94EE088E1E0E94440276DA54
:101E40000E94D5010C9496012C2BC26973000E944C
:101E500003090E945C04E8DA0E94FC0429F009DF0F
:101E60000E94E501DA2901C038DF08954A2BC274C7
:101E70006F000C94270F6E2B877475726E6B6579EB
:101E80000E94110FDD01782B857061757365BADDD5
:101E9000A895DF93CF939F938F935F934F93F10117
:101EA000F8940EB702930DB70293B291A2911D015F
:101EB0000E910EBF0E910DBF4F915F918F919F912B
:101EC000CF91DF91789408956E0E82692C000E9464
:101ED0001D0903DF0E9455020C94E60ACA2B836990
:101EE000632C0E941D0970DF0E9402030C94E60A15
:101EF00081200E940F060E94AE0E803111F484E210
:101F000009C08A3011F483E205C0823011F485E201
:101F100001C08FE308950E94B50309C00E94070124
:101F20000E94E8030E94FC0411F00C947E0A0E94B7
:101F3000B00BA0F70C947A0A81200E9435020E940F
:101F4000EE080A0E0E94DA030E942E080E948906FB
:101F50000E94EE080F000C9423049A938A938091B8
:101F6000E7019091E8010E94A20A0E9459030341EF
:101F7000443F0E944B030C94C70808950895010044
:041F800002E58000F6
:107E00000C947C0D0F921F9209911991809FD001C3
:107E1000EE27FF27909FB00DE11DF51D819FB00D4E
:107E2000E11DF51D919FE00DF11DBA93AA93CF01BD
:107E30001F900F900895E894882329F4992319F44A
:107E400068940C947C0DDC011990E99189919991C9
:107E500000E1FF27880F991F111CEE1FFF1F1A1644
:107E6000EB07F50518F083951A1AEB0B0A9589F7BD
:107E7000EA931A9208950C94B30F9D50052D00C0FB
:107E80008093E7019093E801003011F49E3798F752
:107E9000003011F4903278F30091E70100780A1174
:107EA00005C00091E8010B1101C008950E945B0D0F
:107EB0000091E7010078A02EB090E80100E8F501FC
:107EC000A0E0B1E015911D930A95E1F708950E9495
:107ED000BD0FF8940027F501003011F4FE3738F596
:107EE000003011F4F03218F113E030D011E12ED04F
:107EF00000E4A0E0B1E00F921F920D901D9011E000
:107F00000E94A63F32960150C1F7E058F04015E0BC
:107F10000E94A63F13D000E8A058B04005901D90E5
:107F200001100C947C0D0150C9F71F900F900FEFBA
:107F3000B02E6E7F78940E94BE0F089580905700F7
:107F400086FE089511E10E94A63FF8CF8090570069
:107F500080FCFCCF10935700E8958090570080FC80
:047F6000FCCF0895B5
:00000001FF
