:020000020000FC
:105F00000E94BB3209C00E9408300E94ED320E94FC
:105F1000FC3311F00C9466390E94973AA0F70C9468
:105F200062390002A1026402E0F82EF96EF90A005B
:105F3000A50280DF00000000000000002302812095
:105F40000E9447310E94DA37C2FE0E94E0320E946E
:105F50001B370E9483350E94DA370F000C942833D8
:105F600000008465786974000F910F91089598FA84
:105F7000886F70657261746F72000E94E03080DF1C
:105F800023020000400040005A0062DF8469646C14
:105F90006500706408958CDF8462757379007F7B7F
:105FA00008958CFE846D73657400FC01899199914C
:105FB0000081082B0083899199910895A4DF846D55
:105FC000636C7200FC01899199910081809508238E
:105FD0000083899199910895BEDF866C7368696624
:105FE0007400FC018991999131971AF0880F991FDB
:105FF000FBCF0895DADF8672736869667400FC016E
:106000008991999131971AF096958795FBCF0895CC
:106010007AD5A9D278D5A7C2F6DF826E3D00F8DF27
:106020008F707BD3E9D3B1F041D36DD5A4D20CC02E
:10603000EFDF6ED3E1D321F068D70E94A73A04C006
:10604000AED2DAD309F458D70E94973A88F71F9155
:106050000F9101C05AD711D40C943D341AE08473C7
:106060006B69700088D2CED389F075D228D4ABD7B3
:10607000A1D7090052D3C0D329F491D24ED3BCD3B7
:1060800029F001C057D2C4D1E9D4EDCF0F910F91BF
:1060900008955EE0847363616E0064D36CD210C0B7
:1060A00032D591D787D7090038D3A6D311F042D281
:1060B00005C00E94673B31D39FD311F0F7D203C0D4
:1060C0000E94973A68F761D2ECD257D3089594E0D2
:1060D000846D74737400FC0181910991199180237E
:1060E00099270895D0E0834663796AD0803E837310
:1060F000703F89D00E9410399ED60E940B399BD6E2
:10610000D0D2FCD2DBD10353503F40D70895E6E014
:1061100084656D69740060D30C94AB3010E1836BBF
:10612000657960D30C94AB301EE1846B65793F00D8
:106130005FD30C94AB302AE187657865637574652D
:10614000FC01F058899199918894F795E795099405
:1061500038E1834065786FD60C94A03052E18876A0
:1061600061726961626C65009CD0B1D0DCD10C9425
:10617000CB305EE189327661726961626C6591D083
:1061800019D70400D0D10C94CB3074E188636F6EC2
:106190007374616E7400D8D70E941D3E0C94B2389F
:1061A0008CE18932636F6E7374616E74CAD1CCD71F
:1061B0000E941D3E0E941D3E0C94B2388328632924
:1061C000FF91EF910CD0FF91EF91099483286429FE
:1061D000BF91AF91FF91EF9102D0FD0109949A9385
:1061E0008A93EE0FFF1F85919591089583282C299E
:1061F000FF91EF91F4DFF795E795EF93FF9398C048
:10620000A2E183737040FE019A938A93CF010895AF
:1062100083737021EC01089583727030BF91AF9148
:106220000E94103908D68DBF9EBF89919991FD01BA
:10623000099402E2B37270409A938A938DB79EB725
:10624000089534E2A23E3C00082F892F902F089534
:1062500044E285666C61736850920502089552E2CB
:1062600086656570726F6D0070920502089560E238
:106270008372616D04E000930502089570E2826408
:10628000700037D704D00C94E032836373659A931F
:106290008A9380910502992708957EE28468657249
:1062A0006500EFDF0C94863E9CE2812CFADF39D446
:1062B0000ED00C949332AAE282632C00F2DF03D357
:1062C000A7D00C949332B8E28463656C6C009A9307
:1062D0008A9382E090E00895C8E285616C69676EF8
:1062E000E0DF08D0CEDF0C944C3EDAE287616C69C7
:1062F000676E656401968E7F0895ECE2A563656C18
:106300006C2B02960895FCE2A563656C6C73880F94
:10631000991F089508E3A5636861722B019608959B
:1063200016E3A56368617273089522E38363662CA4
:106330004AD676D652D13FD13DD6F00FF8D15CD2B5
:1063400049F038D60E940E943E3F90588894979515
:10635000879506C065D641D140D7BED19F70906D5C
:106360000C943E3F82213A0025D6FAFF0C94C9399D
:106370002CE38232400027D65ED5E3D0C2DF0C94F6
:106380001B3772E382322100DCD0E5D0BADFC9D3FB
:106390000C944C3E84E3853264726F70CBD00C94C5
:1063A0009A3296E3843264757000D5D00C94AB3287
:1063B000A4E3853273776170D6D0DDD0D4D0E5D038
:1063C0000895B2E38573706163650CD70C948B30CC
:1063D000C4E3867370616365730014D219F0F5DF4E
:1063E00065D1FBCF0C949A32D2E384756D696E004F
:1063F000DCDFAAD106C0EAE384756D617800D5DFE1
:106400009CD1FAD109F09DD00C949A32F8E38131F5
:106410009A938A9381E090E008950EE48661636325
:106420006570740098D0CCD0A6D0CDD57ADE8D30F2
:1064300039F08A3041F0883079F08F3769F01AC02E
:106440002AD041D221C076D026D039D2D5D1E1F0A0
:1064500053D521D038D2EACF4FD51DD034D26AD00F
:10646000A4DF5BD1C9D111F721D128D003082008BE
:1064700018D0DCCFA8D54FDE6ED025D212D18FD068
:106480006AD04BD1B9D191F20F910F915AD00C949F
:10649000ED3283666372CFD2F5FF1CE484747970A9
:1064A000650069D002C02FD336DE0E94973AD8F734
:1064B0001F910F910C949A3283287322FF91EF91D0
:1064C000EE0FFF1F05919A938A93CF0190589A93EC
:1064D0008A93802F9927E00FF91F31968894F795BA
:1064E000E79509949CE4D273220082DEBCE4B4DE1A
:1064F00005D00C943A31E6E4822C22005BD52200D0
:10650000C0D2CFDE28D0CDD0F5DE0DD00C947A35B8
:10651000F8E4D22E2200E9DF6BDEA2E4089512E552
:1065200085616C6C6F74ADDE0C94723320E5A464ED
:10653000726F70008991999108952EE58473776147
:106540007000099119919A938A93C80108953CE5C6
:10655000846F766572009A938A938A819B810895ED
:1065600050E583726F7407D0ECDF0FD00C94A1322A
:1065700062E5923E7200FF91EF918F939F93899114
:106580009991099472E592723E00FF91EF919A936E
:106590008A939F918F91099486E592724000FF91B2
:1065A000EF919A938A939F918F918F939F930994E0
:1065B000C2EF8361627307D50C944C34B2E5812B32
:1065C00009911991800F911F0895BEE5826D2B00EE
:1065D000CFD70C94DA3ACCE5812D09911991081B9B
:1065E000190BC80108950090F7011090F801089563
:1065F000FADF00941094060C151C0BD001C008D0D3
:10660000906521D0E0D4812D07D0806990641BC0B3
:10661000EADFF7D6F6D6802D982F92958F709F706F
:1066200080680895F5DF90670ED0CDD4812DF4DF1A
:106630008069906708C0ECDF906605D0C4D4812DD6
:10664000EBDF806990660C943E3FD8E583616E6411
:10665000099119918023912308954CE6826F72006D
:1066600009911991802B912B08955CE683786F72C4
:10667000099119918027912708956CE6A6696E7695
:10668000657274008095909508957CE6866E6567C6
:106690006174650080959095019608958CE6A2310D
:1066A0002B00019608959EE6A2312D0001970895D2
:1066B000A8E6A2322B0002960895B2E6A53E626FCC
:1066C000647904960895BCE6A2322A00880F991FC7
:1066D0000895C8E6A2322F00959587950895D4E6CF
:1066E000822B21002EDF37DFA6D36ADF2ADF0C944E
:1066F0004C3EE0E68677697468696E002CDF6DDFDA
:106700003ADF6BDF42DF0C949D33F4E6823C3E00BF
:1067100004D00C94E937DCEF813D5FDF0C94E9375E
:1067200018E7813C5ADF0C94F03722E7813E09DFFD
:106730000C9492332CE782753C004FDF880B990B49
:10674000089536E782753E00FCDE0C949D3344E7E5
:1067500082217000AC0189919991089550E79421AC
:10676000703E7200FF91EF914F935F93AC0189915E
:10677000999109945EE793723E70FF91EF915F915A
:106780004F91099476E7827040009A938A93CA01E8
:106790000C94863E86E7827021009A938A93CA0100
:1067A0000C944C3E96E7837063219A938A93CA01B6
:1067B0000C94BB3EA6E7A2702B00460D551D089514
:1067C000B6E783702B2B480F591F89919991089533
:1067D000C2E78527656D69742ED1E8FFD2E784276B
:1067E0006B65790028D1EAFFDEE785276B65793F85
:1067F00022D1ECFF833F303D009789919991089514
:106800008364303D00970895EAE783756D2A0C9400
:10681000643F0AE886756D2F6D6F64000C947D3FB0
:1068200014E885752F6D6F6467D38BDE0C947D3F04
:1068300022E8812AECDF0C949A3232E882752F002C
:10684000F3DF0C943D343CE886752A2F6D6F6400AD
:1068500092DEDDDF9ADE0C940E3448E8812FA5DD50
:1068600007DF89DEA8DE6DDEA6DE6BDEE9DF8DDE0A
:106870000C944C345CE8A36E6970099109910895F9
:1068800076E8847475636B005CDE0C94AB3282E84E
:10689000873F6E6567617465A3D3AEDF09F0FADEEA
:1068A000089590E8836D617880DD3CDFAACDA4E88F
:1068B000836D696E7ADD3BDFA4CD826340000C946A
:1068C000A13E826321000C94BB3EB0E8827570004B
:1068D00077DC0200CCE884686F6C640016D392D039
:1068E00001DF90D0A8D20C94BB3ED6E8823C2300B6
:1068F0008ED088D00C944C3EECE88564696769744E
:106900008A300CF08796C0960895FAE8812387D0E4
:1069100092D282D128DEF4DF0C946E340CE982230B
:106920007300F5DF42DD9CDE67DFD9F708951EE9CD
:1069300082233E0033DD66D07ED269D00CDE0C941B
:10694000ED3230E9847369676E0090301AF432D307
:106950002D00C4DF0C949A3244E982752E00C8DF02
:10696000CBD2DFDFE7DF9DDD0C94E5315AE983759B
:106970002E72BEDF9BDEFFDDBFD201C0C8DFD7D5E0
:10698000E8F71F910F91CDDFD5DF8BDD0C94E5315A
:106990006EE9812EADDF17D30EDEAED2C2DFE3DDAE
:1069A000D4DFC8DF7EDD0C94E53192E9876465634E
:1069B000696D616C79D233D00C944C3EACE983683C
:1069C0006578F8D210002BD00C944C3EBEE983625F
:1069D000696E7DDC24D00C944C3ECEE985727361E7
:1069E000766529D0FEFFDCE985756C696E6B23D076
:1069F000FCFFE8E9847461736B001DD0F2FFF4E9D9
:106A00008268700018D0000000EA837061647BD156
:106A100072D10C94E0320AEA8462617365000BD093
:106A2000EEFF18EA84757365720017D350DC32DE0E
:106A3000B0D409DE64D3FF91EF91D1DB820D931DB9
:106A4000089524EA86736F75726365006ED10C94A5
:106A5000BB3144EA872F737472696E6772DD7BDD28
:106A6000BCDD89DDADDD91DD089554EAC15CEEDF6A
:106A700055D157D060640C949A326CEA857061727B
:106A80007365A1D2E3DF4AD1D6D1E8DF8F939F931C
:106A90006ADDE8DA60DD6FDD66DDFFDAB3DE09F0BE
:106AA00005DE73DD72DD5FDD98DD38D11BDEECDEE7
:106AB0000C94ED327CEA84776F726400E2DF41DD92
:106AC000F5DDE2DE0C94BB3EB6EA85636D6F76655C
:106AD00038DD48DE50DD03C016D067DE6EDE27D518
:106AE000D8F71F910F9149DE0C949A32CAEA85704B
:106AF0006C6163655ADCE7DE11DC23DD0C946835DC
:106B0000EEEA8363402B5FD2CCDD1BDD0C94A13E0B
:106B100002EB82402B0057D2CEDD13DD0C94863E73
:106B200081210C944C3E12EB836E3E63ECDF8F7040
:106B300047DD0C947A3128EB83633E6E4ED343D20B
:106B4000BEDE0E94453E27FFC9F3089538EB832837
:106B500066292BDC64DA56DE21F0ECDC3ED36BD107
:106B600032D24ADEB1F74EDE41F087DE2CD2DEDFD4
:106B7000E8DC09D02ED24CDC73DD08954EEB86693B
:106B80006D6D65643F009BDE982E807408957EEBEA
:106B90008466696E64000ED2E8F6DBDF33DE21F432
:106BA000C9DC33D348D1D5DF089590EB866469679B
:106BB00069743F0080340CF08797C0970AF49CC139
:106BC00002D22DDF38D10C949233ACEB8573696718
:106BD0006E3FC1DC74DE082FADDC0D3219F00B32D4
:106BE00019F003C004D091C102D00C947C3710DCA2
:106BF0000C942E35CCEB8375642A8F939F9307DE1C
:106C000099DC9FDCC2DC03DEAEDC0C94E032F6EBF8
:106C10008675642F6D6F6400AEDC6ED1C0DCFEDD66
:106C2000A2DCA1DCB2DCFADD0C94B33210EC873EBE
:106C30006E756D62657221E0E5DDD1F09CDC8F93AD
:106C40009F933DDE8E3279F0B5DFD6DD21F472DC24
:106C50009CDC9BDC0DC08FDCE2DEEDD0CEDF95DC72
:106C6000B7DC20E001C066DC90DC8FDCC0DFE4CF65
:106C7000820F08952EEC876E756D6265723FA3D109
:106C80003BD13AD170DC3FDFA4DF75DCC8DED3D066
:106C900072DC61DC14DE8397833038F438DB8AD110
:106CA0003AFF8EDC58DAA3DF01C044DCC4DF6DDCC0
:106CB000B6DE37DFA1DD29F068DC70DB6FDB1CD1CD
:106CC00011C00197FCDD0E94453E5FDC95DD09F0B7
:106CD00057D42E3221F447DC82E090E003C02ADC56
:106CE000CCDD96DB08958473776170000C94A1323B
:106CF00076EC8374692381DE9ED008960C94863EE0
:106D0000F2EC8374696205D00C94863E02ED8374C4
:106D1000697591DEF0FF0EED833E696E8CDEFAFF41
:106D200018ED8727736F7572636585DEF6FF4BD1AB
:106D3000FF91EF9154DAF795E795EFDC5DDD09946B
:106D400022ED89696E74657270726574EEDF1CDB0A
:106D5000D3D0E4DFE6DEB5D645D2B0DE34D1AFDD48
:106D60004BDD09F464C017DF4DDD09F445C099DC43
:106D700040D22FD175DC40DD99F094FE0AC039D2A3
:106D80009DDB0C434F4D50494C45204F4E4C590014
:106D9000FDD06F7BD5D966FDDECF6F7E6F7D2AC0BB
:106DA0006F7EC5DFD2EF11F0606120C067FF14C0B5
:106DB000BEDF50E611F036DC1DC0B9DF60E611F031
:106DC0003ADC18C0B4DFC0E511F012DC13C0AFDF4D
:106DD000DAE511F014DC0EC06F7DA9DFC6EF09F013
:106DE000606295FE03C00E946E3A04C025D16D7F9B
:106DF00094FC62606F77AFCF6F749CDB40DF02DD85
:106E000081F0F7D1F9DC59F0082F8991999101FFB0
:106E100003C06CDF0E941D3E0E941D3E9CCF8ADB9A
:106E2000E9CF88DB45D06FDE3CDB66D0A6D049D603
:106E30000C949A3281400C94863E42ED83736862D2
:106E4000E4D1F9DFC0D03BDD8EDB0ADC4FDF0C94F0
:106E5000BB3E3CEE89696D6D656469617465AAD05D
:106E600040000C94203754EE87696E6C696E65643F
:106E7000A1D020000C94203768EE832E73749AD032
:106E80003C0049D90E94503F46D994D02C0043D9A8
:106E90000E94A02F06DB8ED03E003DD90C9488398D
:106EA000823E72000C94BB328BD90A008364703E20
:106EB00081D00009B9D1F8DF0C946835833E647045
:106EC00079D000094FDCB0D175D0040054DB23DE4B
:106ED0007AD05BDC1DDC90DC11F05FDC01C02ADBCA
:106EE00005D425D3A0F71F910F9147DC0C949A325B
:106EF0007AEE8566616C73659A938A9388279927E1
:106F00000895F2EE8474727565009A938A938FEFF8
:106F10009FEF089504EF8471756974007FD90AD1D9
:106F2000A9D9C6DFE6D88DD0EEDE4DD0E4DE0A97D3
:106F300079DA4BDA0BDF5DD15FDCA1F7B1D5C0DFC9
:106F4000BDDA03206F6BADDA07D00C94913716EFE2
:106F50008670726F6D7074000E94F33E0A0950EFE4
:106F60008561626F727457D166DF54D90C948E3785
:106F700060EF873F61626F72743FA0DA013F0C944B
:106F8000C63772EF863F61626F727400ECDA34DCF0
:106F900019F41BDA86DAE7DF0C94CE3184EFD66180
:106FA000626F72742200A1DA23D98CEF08959EEFEC
:106FB000836C6974FF91EF9112D9F795E795099465
:106FC0009AE5A36475709A938A9308950CE78230CA
:106FD0003D000197880B990B0895CEEF82303C005D
:106FE000990F880B990B0895B0EF8127FBD066DDD0
:106FF000D2DD0C94BD37EAEF846368617200F2D091
:1070000040DD98DA0C94A13EF8EFC128D3DF2900C7
:1070100038DD60640C94CE310AF08569686572656C
:1070200068D009CF1AF0D65B636861725D00E7DF54
:107030000C941D3E8363662C0C94983126F0826379
:107040007200B8DF0D0067D8B5DF0A000C948B30F2
:107050003EF08663726561746500C4D02FDDB3DFD6
:107060009ADD0BDCB6DF2ADA0F414C524541445918
:1070700020444546494E454489DFA5DF20DCC8D978
:1070800099DF10003BDB79DFCBDF34D932D049DD2B
:10709000BCD0D1DED8DA37DDC3DF95DFB6D041DD35
:1070A00029DDBEDF0CDC86DF8000CADEFADA22D9F9
:1070B00070D180DFC0E145D913D9F3D8E8D89CDB83
:1070C00009F4F9DA0C943E3F52F0D8706F73747083
:1070D0006F6E650087D0F2DC5EDD75DF4EDF80DF2E
:1070E0008BDB19F085D8F0E1AECA0C949831836936
:1070F000647066D8FB018728646F65733E2945DAA2
:1071000084D099DE13DDF5DF96DECCDEF2DF09DD1B
:10711000880F991F16D939DAECDF0C944C3ECAF06F
:10712000D5646F65733E64D8FEF062D8D0E10895EF
:1071300020F1C15B50920602089532F1815D6092A8
:10714000060208953CF1813A88DFF9DF0C94B431EE
:1071500046F1873A6E6F6E616D6562DF0C949F3801
:1071600052F1D13BE7DF61FD24C05ADF29D08C0109
:10717000107F105D59F08991999122D08E509449D9
:10718000B9F48CE094E9DDD90C944C3E76DB9F7029
:1071900093FD906F9BDA44DF13DA0CDFFEFFF9D02A
:1071A00009DF0C9408D0905888949795879503C070
:1071B000F5D800DF08950C943E3F62F1822D400027
:1071C0000CD001DF0C94863EBCF1D35B275D0EDF53
:1071D0000C941D3ECAF1A2322D0002970895D6F1FB
:1071E00082626C000E94E0302000E0F185737461DF
:1071F00074659A938A93809106029091060208958D
:10720000ECF1866C6174657374000E94E0300102D9
:1072100002F2827330000FDCE4FF12F2827230005F
:107220000ADCE6FF83696E690E94E030F9011CF216
:10723000857469636B739A938A930FB7F8948E2D54
:107240009F2D0FBF089530F2826D7300F4DFB8D91F
:10725000F4D5B9DEF0DFC1D9C3DECEDAC9F30C94C0
:107260009A3248F2832E69644EDC8F7084D903C051
:107270004ADC0AD0EBDE5BD1D8F71F910F910C945A
:107280009A3264F2833E70729927803012F0803215
:107290000AF48EE2089537DC8DDE0F00D9D951D97A
:1072A00059DA4FD930DC5FD956D997D9FAD924DECB
:1072B000FBDA61D909C079D80AD27FDA42D90E94B3
:1072C000802F11F0989403C032D1A8F718941F9121
:1072D0000F910AC06AD8DFDF19F075DEC5DF75D8F7
:1072E0007CDFA9DD8FDAB1F70C94CE3184F285779B
:1072F0006F72647377DFE2DB66DE5CDEE8F602D095
:1073000084DF99DD9EDE0C946A39EEF2822E7300E2
:107310005CD859DE0E9403317EDF8DDD5EDF45D80B
:1073200001DA6ADA19F04CDF1ADBF9CF03D90C94D1
:10733000CE310CF38464756D70003CDE100080DA91
:107340001AD920C07EDE3FDE35DE040012DB32DEDD
:107350003A007CDE2FDE0F000ED9D5DB2BDE0200DB
:1073600008DBE5D0D0F71F910F9124DE100035D94E
:1073700021DE0F0000D9C7DB87DF68DED8D0D8F761
:107380001F910F91D4D0F0F61F910F910C949A3267
:107390008120AFDE0C94723334F383783E72FC01AB
:1073A0008991999109D03196829392935292CF010B
:1073B00008959AF3833E78619058889497958795BD
:1073C0000895B4F38378613E880F991F905808950B
:1073D000C4F38370666C0E94E0300080D2F3837A3D
:1073E000666C0E94E0300000842C3F303D0065FD5B
:1073F00003C0E0DDF8E703C004D0DCDD04E86F7D06
:107400006DC0D8DDFCFFC5CF67D99F70906CD3CE1F
:10741000D1DD08F0D0CECEDD09F464FD9B7FCBCE6C
:10742000DEF3D269660064FDECDFE1DFF4DF6F7E3E
:10743000F7DD62DD0C94043A22F4D4656C736500C8
:10744000EFDD5ADDE1DF52DC0C942A3A3AF4D474D1
:1074500068656E006260E4DD7ED8BFD8BEDE3CD9D0
:10746000A9DD00C0FDD842DC0C944C3E4EF4D56240
:107470006567696E0C9410386EF4D5756E74696C1E
:10748000626064FDBEDFB3DFC6DF6F7E0C944C3AF2
:107490007AF4D5616761696E6260C2DD9ED89DDE57
:1074A0000C94043A92F4D57768696C65BCDF0C944F
:1074B000A132A6F4D672657065617400EDDF0C949C
:1074C0002A3AB4F4D6696E6C696E65006F7E6F7D82
:1074D0008DDD0C946E3AC4F483696E2C1CDB73DD75
:1074E00069DD089515D988D911F0C8D4F7CF0C9467
:1074F000CE31D8F4D3666F720E94F83076E590DD15
:10750000FBDC82DF8DDD0C94A132F4F4D46E65785F
:107510007400A0DF0E94F8302EF57ADFBDDF4ADD6F
:1075200040F50C946E3A87286E6578742920FF9197
:10753000EF91BF91AF911197AF93BF9309940895C5
:107540001F910F9108950CF595656E646974FF9114
:10755000EF911F910F915F925F92099448F5F57238
:1075600064726F700F910F9108955EF583733E649E
:1075700097FFC2CCCACC6CF587646E656761746591
:1075800049D00E9408320C94E83278F5883F646E46
:1075900065676174650024DD2FD909F0F1DF089576
:1075A0008CF58464616273000EDD0C94CB3AA2F515
:1075B00082642B00A991B991E991F99109911991EE
:1075C000A00FB11F8E1F9F1FBA93AA930895B0F505
:1075D00082642D00D5DF0C94DA3AD0F58364322F23
:1075E0000991199195958795179507951A930A937F
:1075F0000895DCF58364322A09911991000F111F57
:10760000881F991F1A930A930895F4F58764696E89
:1076100076657274099119910095109580959095F1
:107620001A930A9308950CF68364303DA991B99199
:10763000892B8A2B8B2B51F48FEF9FEF089528F61F
:107640008364303CA991B9919030B2F3882799278F
:10765000089540F682643D00BDDF0C94163B54F65D
:1076600082643C00B7DF0C94223B60F682643E00EB
:107670000E94DC310C94323B6CF68375642E38D951
:1076800050D958D90E9451320C94E5317AF682646F
:107690002E002ED98F939F9387DF43D90E94C53246
:1076A00054D948D90E9451320C94E5318EF6826843
:1076B000690080DCC2F60E9447310E94E0320C94DF
:1076C000863EFFDEFF0CFF08AEF6A24070009A93E4
:1076D0008A93CA010895CAF6837063409A938A9385
:1076E000CA010C94A13ED8F6A370322B470D551D4C
:1076F00008950000866D61726B6572000E942C31E6
:10770000ACDC58DC00090E945131CEDBE1D9CCDB86
:107710000E9493320E943A31F2DC0E94E83084DD0C
:10772000C3DB0C94683598DF856C6F61642B7061E6
:10773000089528F7856C6F61642D7F7E2D980895DC
:1077400000FE03C037DC500081DC01FE03C032DCE8
:1077500045007CDC02FE03C02DDC420077DC03FE2A
:1077600003C028DC570072DC16FE03C023DC4D008A
:107770006DDC0C94E53174FF01C02D9876FF0AC0D2
:1077800003E2201639F4E091B601E03019F463BE4B
:0A779000889553BE74FD2D9A0895EC
:067800000C946A3D3BD030
:0278080039D075
:02780C0037D073
:0278100035D071
:0278140033D06F
:0278180031D06D
:02781C002FD06B
:027820002DD069
:027824002BD067
:0278280029D065
:02782C0027D063
:0278300025D061
:0278340023D05F
:0278380033C05B
:02783C001FD05B
:027840001DD059
:027844001BD057
:0278480019D055
:02784C0017D053
:0278500015D051
:0278540013D04F
:0278580011D04D
:02785C000FD04B
:027860000DD049
:107864000BD09F918F911F910F91FF91EF91A9914F
:10787400B991BFBFB9911895BA93BFB7BA93AA93F8
:10788400BF91AF91EF93FF930F931F938F939F93A8
:10789400BFE7AB0FB1E0ED91FD910994BA93BFB787
:1078A400BA93AA93E60CF51CE2CFB091C600A0915E
:1078B400B601A395A093B601A4300AF02AD0E7EB51
:1078C400F1E0A091B401EA0FF51DB083A395AF7365
:1078D400A093B401C6CF34F783747830813161F05A
:1078E400833191F0A8D20091C00005FFFBCF8093B3
:1078F400C6008991999108958991999102C070FF68
:1079040008957E7FF1E107C08991999102C070FDCD
:1079140008957160F3E1E091C000E5FFFCCFF093BE
:10792400C6000895DCF88372783085D21ED00E9498
:10793400FC33D9F39A938A93E7EBF1E0A091B50174
:10794400EA0FF51D808199270FB7F894A395AF73BB
:10795400A093B501A091B601AA95A093B6010FBF5B
:1079640008952AF9847278303F00A091B601A511D8
:107974000C948537C4DF0C947C37C8DC0E945E32DB
:107984000341443F0E945132ECCA90588093030251
:10799400909304029F3588F70091030200780A113E
:1079A40005C0009104020B1101C0089577D0009125
:1079B40003020078A02EB090040200E8F501A0E0D4
:1079C400B1E015911D930A95E1F70895F1DA1300DA
:1079D4000E948B30EDDA0A0037DCF894F501FF35AC
:1079E40000F513E02DD011E12BD000E8A0E0B1E0C8
:1079F4000F921F920D901D9011E022D032960250EA
:107A0400C9F7E058F04015E01BD014D000E8A058A6
:107A1400B04005901D9001105BC00150D1F71F903C
:107A24000F900FEFB02E6E7F7894C2DA11000E948F
:107A34008B30089587B686FE089511E101D0FACF00
:107A440087B680FCFDCF17BFE895089534FE837791
:107A5400642BF894A89590916000986190936000CD
:107A6400877088608093600078940C949A3252FAFC
:107A74008377642DF894A89554BE08E100936000C0
:107A8400509260007894089574FAA3637764A8957B
:107A940008958EFA8669666C7573680060FD96CFEA
:107AA400089568F985656D70747982DA40FF80DA2B
:107AB40000097EDA0C000E9468350C94583755246E
:107AC400E1E0F2E03F010895A8FA847761726D0065
:107AD400F894AA27BB27C9E1D0E0DD93C150E9F7A8
:107AE4001FB604B650923400AFEF5D92B830E9F798
:107AF400BA94C1EAD2E004E612E00DBF1EBFDFDF94
:107B04000E943C3D03E212E0180152DA22DF50DA0F
:107B140005024EDA1C000E9468354ADA0009F4D0E6
:107B2400F2D90E948D330E94FC3309F0BEDF65BE9A
:107B340075BE74BC03E005BD09EF07BD70926E000D
:107B440037DA573C35DAA401A5D009E10093C40023
:107B540008E90093C10006E00093C2007160A6D951
:107B64007894ECDD28D05092B6015092B401259A55
:107B74005BD10E94FC33D1F00E945E320345534333
:107B84000E94513215DAD0075FDB0E9498300E94C0
:107B9400FC3349F00E9491300BDA1B000E948D33B4
:107BA4000E94FC3319F440D10E94A0300C94B337E6
:107BB400CEFA837665720E945E3225466C617368E4
:107BC400466F72746820352041546D6567613332A5
:107BD4003850202030352E30392E323032300D0AD4
:107BE4000C945132B6FBA265690078940895EAFBBF
:107BF400A2646900F8940895F4FBC23B6900D8D9E3
:107C04000C943AD1D5D9333C37D10C949A38FEFB35
:107C140084696E742100FC013197EE0FF0E8EF0FD8
:107C2400F1E089919991C6DB0C94513E14FCC76C28
:107C340069746572616CBCD9C6EF4EDC8093F70140
:107C44009093F80160680E94E337982F92959F7093
:107C54008F70906E806810D1892F92959F708F706D
:107C6400906E80690C943E3F90DE89919991A0E0DA
:107C7400B1E0009103020F77A00F8D939D9374C020
:107C840032FC823E6100282F392F89919991089501
:107C940086FC8121993040F4FC018991999191836A
:107CA400808389919991089509D09038E8F60E94CB
:107CB400D5316BD001960981088367C062FF0895AE
:107CC40025DB0E945E320341443F0E9451326ECF55
:107CD400FC01F058FB110BC00E2F00780A1539F483
:107CE400A0E0B1E0EF77AE0F8D919D91089585915D
:107CF4009591089596FC82613E009A938A93822F0F
:107D0400932F0895FAFC8140993020F4FC0181916D
:107D1400919108959038E0F6F999FECF995081BD7C
:107D240092BDF89A00B5839581BDF89A90B5802FDD
:107D34000895CEDF992708950AFD826340009930A3
:107D440020F4FC01819199270895903890F7E4DF9D
:107D5400992708951ADE89919991A0E0B1E00091E4
:107D640003020F77A00F8D93616009C03EFD82630B
:107D74002100993038F4FC0189919991808389918B
:107D8400999108959BDF903828F7F999FECF99507F
:107D940081BD92BD8991999180BDFA9AF99AEFCFEC
:107DA40072FD83666C2D64600895A6FD83666C2B5A
:107DB4006B7F0895B0FD8576616C75654CD90E9422
:107DC40056319BD90E94E8300C94863EBAFD8564F6
:107DD4006566657240D90E94DA3766EF0E945631B3
:107DE4008CD90E94E8300C94AB30D2FDC269730088
:107DF4000E94F6370E945B330E945B3385DFF7D91C
:107E04000E94FC3329F017DF0E94F83098FC01C06F
:107E140041DF0895F0FDC2746F000C94FA3E1AFE1F
:107E2400877475726E6B65790E94E43EF90124FED5
:107E34008570617573659DDC1FB7F894A895DF9311
:107E4400CF939F938F935F934F93F1010EB7029358
:107E54000DB70293B291A2911D010E910EBF0E9126
:107E64000DBF4F915F918F919F91CF91DF911FBF74
:107E7400089570DF82692C000E9410380BDF0E9485
:107E840067310C94C93978FE8369632C0E941038D9
:107E940070DF0E9408320C94C93981200E940F358A
:107EA40033DF803111F484E209C08A3011F483E2B3
:107EB40005C0823011F485E201C08FE3089552E2D7
:107EC40060E270E20F921F9209911991809FD00194
:107ED400EE27FF27909FB00DE11DF51D819FB00D8A
:107EE400E11DF51D919FE00DF11DBA93AA93CF01F9
:107EF4001F900F900895E894882329F4992319F486
:107F040068940C946A3DDC011990E99189919991E6
:107F140000E1FF27880F991F111CEE1FFF1F1A167F
:107F2400EB07F50518F083951A1AEB0B0A9589F7F8
:107F3400EA931A920895B4E9C2E9D2E900000080F4
:087F44000C09FF02F4F67EEEC9
:00000001FF
