:100000000C945F0F63D0000061D000005FD000004F
:100010005DD000005BD0000059D0000057D0000038
:1000200055D0000053D0000051D000004FD0000048
:100030004DD000004BD0000049D0000047D0000058
:1000400045D0000043D0000041D000003FD0000068
:100050003DD000004FC0000039D0000037D0000074
:1000600035D0000033D0000031D000002FD0000088
:100070002DD000002BD0000029D0000027D0000098
:1000800025D0000023D0000021D000001FD00000A8
:100090001DD000001BD0000019D0000017D00000B8
:1000A00015D0000013D0000011D000000FD00000C8
:1000B0000DD000009F918F911F910F91FF91EF91B3
:1000C000A991B991B0935F00B9911895BA93B09185
:1000D0005F00BA93AA93BF91AF91EF93FF930F93F1
:1000E0001F938F939F93552401E9A00FB1E0ED91E9
:1000F000FD910994BA93B0915F00E60CF51CE2CF34
:10010000B091CE00A091EC01A395A093EC01EDEE8F
:10011000F1E0A091EA01EA0FF51DB083A395AF715C
:0C012000A093EA01C7CF01000317800084
:10012C001201100102000020F0FAF0FA00000001A8
:10013C000001040309040A034600460035003000A0
:10014C0009023E0002010080320904000001020293
:10015C0001000524001001042402020524060001FC
:10016C00070582030800FF09040100020A000000D1
:10017C000705030208000007058402080000862D0D
:10018C00847573622B000091D9000330F1F4009157
:10019C00D8000033D1F40091D70001600093D70050
:1001AC0002E100934900009149000170E1F30091D4
:1001BC00D80000680093D8000091D8000F7D009300
:1001CC00D8005092E0005092000108950091C800B0
:1001DC0005FFFCCF1093CE008C10847573622D003C
:1001EC00509200016092E00000E30093D80050921E
:1001FC0049005092D70008950091D8000039C1F4FD
:10020C000091E100087091F05092E9000091EB0030
:10021C0001600093EB005092EC0002E20093ED00C1
:10022C00509200016092EA005092EA005092E10074
:10023C000895BCD00091E8000470D1F705910093AB
:10024C00F1000091F200003209F4AFD01A95B1F729
:10025C000091F200003061F3C0C0A8D0019100936E
:10026C00F1001A95D1F7B9C00091EB00016200932F
:10027C00EB0008950091D8000039D1F60091E90007
:10028C005092E9000091E8000C7091F2E1E0F1E08D
:10029C0018E091D002EFA2D0009101010078F9F1A1
:1002AC00009102010630B1F0083029F0003041F025
:1002BC00013261F0D9CF009100010093F10082C0AE
:1002CC005092F1007FD05092F1007CC0E9E0F1E057
:1002DC0017E0C3CF00910401013029F0023039F04E
:1002EC00033089F0C1CFECE2F1E012E1A2CFECE4F3
:1002FC00F1E000910701109108010950104019E03C
:10030C0009F01EE396CF00910501003021F4EEE3D5
:10031C00F1E014E08ECFE2E4F1E01AE08ACF009134
:10032C000201093079F00530A9F1003219F00232DE
:10033C00E1F19ACF0091E8000470E1F3E9E0F1E01B
:10034C0017E039C04AD07092E9006092EB0001ECE2
:10035C000093EC007092ED0003E00093E9006092D2
:10036C00EB0000E80093EC007092ED0004E00093C9
:10037C00E9006092EB0001E80093EC007092ED0054
:10038C000CE10093EA005092EA0000910301009303
:10039C0000012AC0009103010093E30006D00091F4
:1003AC00E30000680093E300089517D00091E80083
:1003BC000170E1F308950091F10001931A95D9F7BA
:1003CC0008D00BC001E0A091E800A02BA093E8009E
:1003DC0008950BEF03C00FE701C00EEFA091E800EA
:1003EC00A023A093E800089506E900930A01509217
:1003FC00090150920B0150920C0150920D01509238
:10040C000E0108E000930F010895E61084727875D0
:10041C003F0000910001003049F09A938A9303E069
:10042C000093E9008091F20090E008950C94720A18
:10043C001813837278750E942F11009100010030FF
:10044C00D1F303E00093E9000091E800007899F300
:10045C00C0DF0091F200003029F09A938A938091CA
:10046C00F10090E00091F200003009F4B4DF08953F
:10047C003E13837478750E942F1100910001003097
:10048C0059F004E00093E9000091E800017099F341
:10049C00A4DF8093F1009FDF0C94770500005633A6
:1004AC000C0B1503482C6A230002B7027A02821344
:1004BC0042131E130A00BB0244140000000000008B
:1004CC0000003902F416021712177A1E881E981EA5
:1004DC0058318377642BF894A895909160009861BB
:1004EC0090936000877088608093600078940C947F
:1004FC007705DE138377642DF894A89550925400F9
:10050C0008E1009360005092600078940895001404
:10051C00A3637764A89508950000846578697400D6
:10052C000F910F910895742D886F70657261746FBF
:10053C0072000E94B00344143902000040004000D5
:10054C005A0026148469646C650070640895501414
:10055C008462757379007F7B0895B631846D736501
:10056C007400FC01899199910191082B0293899156
:10057C00999108956814846D636C7200FC018991E3
:10058C0099910191809508230293899199910895ED
:10059C008214866C736869667400FC018991999168
:1005AC0031971AF0880F991FFBCF08959E1486720D
:1005BC00736869667400FC018991999131971AF0FE
:1005CC0096958795FBCF089581D5A4D27FD5A2C2ED
:1005DC00BA14826E3D00A991B991FC01FF5085912E
:1005EC008F700D90102C081A31F485910D90081A0B
:1005FC0011F41A94D1F7802D99270895DE14847381
:10060C006B69700099910991A991B991903051F051
:10061C000C91803211F4003210F0081719F4119675
:10062C009A95F4CFBA93AA93892F992708950A150E
:10063C00847363616E009991A991A991B9919030DD
:10064C0051F00C91803211F4003228F0801719F01F
:10065C0011969A95F4CFBA93AA93892F90E00895A6
:10066C003C15846D74737400FC018191099119918E
:10067C008023992708956E15834663796BD0803E4D
:10068C008373703F8AD00E940E0CC5D60E94090C51
:10069C00C2D6DFD20CD3EAD10353503F68D70895AA
:1006AC00841584656D69740074D30C947903AE154C
:1006BC00836B657974D30C947903BC15846B657961
:1006CC003F0073D30C947903C815876578656375FF
:1006DC007465FC01FF5089919991F695E795099401
:1006EC00D6158340657897D60C946F03EE158876F3
:1006FC0061726961626C65009FD0B4D0EBD10C94CF
:10070C009903FA1589327661726961626C6594D0CD
:10071C0042D70400DFD10C949903101688636F6ED6
:10072C007374616E74000E94A30B0E9421100C94D0
:10073C00B10B28168932636F6E7374616E74D8D1E5
:10074C000E94A30B0E9421100E9421100C94B10B4B
:10075C0083286329FF91EF910CD0FF91EF910994BD
:10076C0083286429BF91AF91FF91EF9102D0FD01D5
:10077C0009949A938A93EE0FFF1F85919591089592
:10078C0083282C29FF91EF91F4DFF695E795EF93F1
:10079C00FF9399C0401683737040FE019A938A931D
:1007AC00CF010895A21683737021EC010895837212
:1007BC007030BF91AF910E940E0C2DD68DBF9EBF95
:1007CC0089919991FD010994B216B37270409A9374
:1007DC008A938DB79EB70895D616A23E3C00082F7B
:1007EC00892F902F0895E61685666C617368509278
:1007FC001B020895F41686656570726F6D00709219
:10080C001B02089502178372616D04E000931B02B2
:10081C0008951217826470005FD704D00C94BD0544
:10082C00836373659A938A9380911B029927089529
:10083C002017846865726500EFDF0C9496103E17E4
:10084C00812CFADF53D40ED00C9470054C178263B4
:10085C002C00F2DF15D3B3D00C9470055A178463B7
:10086C00656C6C009A938A9382E090E008956A1705
:10087C0085616C69676EE0DF08D0CEDF0C94551093
:10088C007C1787616C69676E656401968E7F08952D
:10089C008E17A563656C6C2B029608959E17A56345
:1008AC00656C6C73880F991F0895AA17A56368610E
:1008BC00722B01960895B817A56368617273089539
:1008CC00C4178363662C70D695D65FD14BD163D693
:1008DC00F00F0AD26ED241F05ED60E940E945311E4
:1008EC009F509695879506C085D64FD16ED7CDD1A2
:1008FC009F70906D0C94531182213A004CD6FAFFE4
:10090C000C94C90CCE17823240004ED684D5F0D050
:10091C00C3DF0C94110A121882322100E9D0F2D0F4
:10092C00BBDFE4D30C9455102418853264726F70BD
:10093C00D8D00C9477053618843264757000E2D0E8
:10094C000C9488054418853273776170E3D0EAD033
:10095C00E1D0F2D00895521885326F7665729A9371
:10096C008A938E819F819A938A938E819F81089519
:10097C0064188573706163652DD70C945A037E18C7
:10098C008673706163657300009719F0F5DF66D1AB
:10099C00FBCF0C9477058C1884756D696E00CFDFD6
:1009AC00B0D106C0A41884756D617800C8DFA2D1DF
:1009BC0000D209F09DD00C947705B21881319A932E
:1009CC008A9381E090E00895C8188661636365702E
:1009DC00740098D0CCD0A6D0E7D56CDE8D3039F031
:1009EC008A3041F0883079F08F3769F01AC02AD0FC
:1009FC0047D221C076D026D03FD2DBD1E1F06CD5E6
:100A0C0021D03ED2EACF68D51DD03AD26AD097DF3A
:100A1C005DD1CFD111F722D129D00308200818D0ED
:100A2C00DCCFC2D541DE6ED02BD213D18FD06AD0A1
:100A3C004DD1BFD191F20F910F915AD00C94CB059F
:100A4C0083666372D5D2F5FFD6188474797065000D
:100A5C0069D002C03BD328DE0E94930DD8F71F91BA
:100A6C000F910C947705561983287322FF91EF91FF
:100A7C00EE0FFF1F05919A938A93CF01915F9A9382
:100A8C008A93802F9927E00FF91F3196F695E795F9
:100A9C0009947419D273220075DE7819A8DE05D07A
:100AAC000C940B04A019822C220075D52200CDD2F7
:100ABC00C3DE28D0CED0E9DE0DD00C946308B21979
:100ACC00D22E2200E9DF5EDE5C190895CC19856117
:100ADC006C6C6F74A1DE0C945106DA19A464726FFD
:100AEC007000899199910895E81984737761700069
:100AFC00099119919A938A93C8010895F619846FF4
:100B0C00766572009A938A938A819B8108950A1A5A
:100B1C0083726F7407D0ECDF0FD00C947E051C1A17
:100B2C00923E7200FF91EF918F939F9389919991CF
:100B3C0009942C1A92723E00FF91EF919A938A932A
:100B4C009F918F910994401A92724000FF91EF91FE
:100B5C009A938A939F918F918F939F930994B0242A
:100B6C008361627321D50C942F076C1A812B099128
:100B7C001991800F911F0895781A826D2B000E9495
:100B8C00B40D0C94D60D861A812D09911991081B60
:100B9C00190BC801089500900D0210900E020895D3
:100BAC00FADF00941094060C151C0BD001C008D071
:100BBC00906521D0F9D4812D07D0806990641BC039
:100BCC00EADF12D711D7802D982F92958F709F70D6
:100BDC0080680895F5DF90670ED0E6D4812DF4DFA0
:100BEC008069906708C0ECDF906605D0DDD4812D5C
:100BFC00EBDF806990660C945311941A83616E64D8
:100C0C0009911991802391230895081B826F72001A
:100C1C0009911991802B912B0895181B83786F7271
:100C2C0009911991802791270895281BA6696E7642
:100C3C0065727400809590950895381B866E656773
:100C4C00617465008095909501960895481BA231BA
:100C5C002B00019608955A1BA2312D00019708957F
:100C6C00641BA2322B00029608956E1B853E626FA8
:100C7C00647904960C949610781BA2322A00880F83
:100C8C00991F0895861BA2322F009595879508957C
:100C9C00921B822B21002CDF35DFBDD368DF28DFD0
:100CAC000C9455109E1B8677697468696E002ADF58
:100CBC006CDF38DF6ADF40DF0C948006B21B823CAD
:100CCC003E0004D00C940708BC24813D5EDF0C94DC
:100CDC000708D61B813C59DF8FEF9FEF14F08095EE
:100CEC0090950895E01B813E03DF0C947106F21B76
:100CFC0082753C004ADF880B990B0895FC1B8275AA
:100D0C003E00F6DE0C9480060A1C82217000AC01B9
:100D1C00899199910895161C9421703E7200FF914F
:100D2C00EF914F935F93AC01899199910994241C95
:100D3C0093723E70FF91EF915F914F9109943C1C1F
:100D4C00827040009A938A93CA010C9496104C1CA2
:100D5C00827021009A938A93CA010C9455105C1CE2
:100D6C00837063219A938A93CA010C94CC106C1CE7
:100D7C00A2702B00460D551D08957C1C83702B2BE7
:100D8C00480F591F899199910895881C8527656D85
:100D9C0069742ED1E8FF981C84276B65790028D1E3
:100DAC00EAFFA41C85276B65793F22D1ECFF833FBA
:100DBC00303D00978991999108958364303D009757
:100DCC000895B01C83756D2A0C94023FD01C867557
:100DDC006D2F6D6F64000C941B3FDA1C85752F6DA5
:100DEC006F647AD385DE0C941B3FE81C812AECDF00
:100DFC000C947705F81C82752F00F3DF0C942007F8
:100E0C00021D86752A2F6D6F64008CDEDDDF94DE8B
:100E1C000C94F1060E1D812F92DD02DF83DEA2DE23
:100E2C0067DEA0DE65DEE9DF87DE0C942F07221D6E
:100E3C00A36E69700991099108953C1D84747563C2
:100E4C006B0056DE0C948805481D873F6E65676104
:100E5C007465B0D3AEDF09F0F5DE0895561D836DD1
:100E6C0061786DDD38DFA4CD6A1D836D696E67DD39
:100E7C003BDF9ECD826340000C94B1108263210055
:100E8C000C94CC10761D8275700064DC0200921DEF
:100E9C0084686F6C640029D392D0FDDE90D0BBD2F5
:100EAC000C94CC109C1D823C23008ED088D00C94CA
:100EBC005510B21D8564696769748A300CF0879689
:100ECC00C0960895C01D812387D0A5D295D122DE6E
:100EDC00F4DF0C945107D21D82237300F5DF2FDD54
:100EEC0097DE67DFD9F70895E41D82233E0020DDED
:100EFC0066D091D269D006DE0C94CB05F61D8473B6
:100F0C0069676E0090301AF446D32D00C4DF0C9440
:100F1C0077050A1E82752E00C8DFDED2DFDFE7DF21
:100F2C0097DD0C94C204201E83752E72BEDF96DEF4
:100F3C00F9DDD2D201C0C8DFF0D5E8F71F910F91CF
:100F4C00CDDFD5DF85DD0C94C204341E812EADDFE0
:100F5C002BD308DEC1D2C2DFDDDDD4DFC8DF78DD04
:100F6C000C94C204581E87646563696D616C8CD2E5
:100F7C0033D00C945510721E836865780CD3100016
:100F8C002BD00C945510841E8362696E6BDC24D0BC
:100F9C000C945510941E85727361766529D0FEFFF2
:100FAC00A21E85756C696E6B23D0FCFFAE1E84741B
:100FBC0061736B001DD0F2FFBA1E8268700018D0EE
:100FCC000000C61E826862008ED185D10C94BD05CE
:100FDC00D01E8462617365000BD0EEFFDE1E84753B
:100FEC007365720025D33EDC2DDECDD404DE7BD3BD
:100FFC00FF91EF91BEDB820D931D0895CA1B8230C9
:10100C003D000197880B990B0895EA1E86736F7546
:10101C00726365007AD10C948B04181F872F73743C
:10102C0072696E6765DD6EDDB0DD7CDDA0DD84DDB3
:10103C000895281FC15CEEDF61D158D060640C9418
:10104C007705401F857061727365AED2E3DF56D1B0
:10105C00E2D1E8DF8F939F935DDDD4DA53DD62DD5F
:10106C0059DDE9DA009709F0F9DD66DD65DD52DD61
:10107C008CDD44D110DEE5DE0C94CB05501F84775B
:10108C006F726400E2DF4CD618D00C94960E8A1F57
:10109C0085636D6F76652CDD42DE44DD03C016D0B2
:1010AC0061DE68DE3AD5D8F71F910F9143DE0C94C0
:1010BC0077059C1F85706C61636541DCE1DEF9DBB3
:1010CC0017DD0C945108C01F8363402B9A938A93AD
:1010DC0001960EDD0C94B110D41F82402B009A9314
:1010EC008A93029605DD0C94961081210C94551070
:1010FC00E61F836E3E63EADF8F7039DD0C944B0480
:10110C00FE1F83633E6E61D34FD2B6DE0E944E103B
:10111C0027FFC9F308950E20832866299A938A9392
:10112C008A819B819A938A938A819B8154DA009756
:10113C0041F08991999102970E947410009771F770
:10114C000AC08991999176DE2FD2D5DFD1DC09D0F6
:10115C0058DF35DC5DDD0895242086696D6D65648E
:10116C003F008ADE982E8074089566208466696E2E
:10117C00640011D23C2CD2DF009721F4B2DC3DD3B9
:10118C004AD1CCDF089578208664696769743F0082
:10119C008A331CF081361AF08797C0970AF49CC1E9
:1011AC0003D21ADF38D10C947106942085736967C9
:1011BC006E3FA8DC61DE082F94DC0D3219F00B3287
:1011CC0019F003C004D091C102D00C94720AF7DB61
:1011DC000C941808B8208375642A8F939F93F4DDC0
:1011EC0080DC86DCA9DCF0DD95DC0C94BD05E2200E
:1011FC008675642F6D6F640095DC6ED1A7DCEBDD1A
:10120C0089DC88DC99DCE7DD0C949005FC20873EBA
:10121C006E756D62657221E00097D1F083DC8F935F
:10122C009F932ADE8E3279F0B3DFC3DD21F459DCD3
:10123C0083DC82DC0DC076DCCFDEEDD0CEDF7CDC57
:10124C009EDC20E001C04DDC77DC76DCC0DFE4CF37
:10125C00820F08951A21876E756D6265723FA4D155
:10126C003BD13AD157DC32DFA4DF5CDCB5DED3D026
:10127C0059DC48DC01DE8397833038F413DB8BD1E7
:10128C00D61375DC30DAA3DF01C02BDCC4DF54DCF1
:10129C00A3DE2CDF8EDD29F04FDC4ADB49DB1CD1D1
:1012AC0011C00197E9DD0E944E1046DC82DD09F089
:1012BC005DD42E3221F42EDC82E090E003C011DCF0
:1012CC00B9DD7DDB08958473776170000C947E0525
:1012DC006221837469236EDE9ED008960C9496105E
:1012EC00DE218374696205D00C949610EE21837410
:1012FC0069757EDEF0FFFA21833E696E79DEFAFFB6
:10130C0004228727736F7572636572DEF6FF4CD10A
:10131C00FF91EF912EDAF695E795D8DC4ADD09942A
:10132C000E2289696E74657270726574EEDFF6DA7E
:10133C00D3D0E4DFDBDEB4D54DD2A4DE35D19CDDD9
:10134C0038DD09F464C015DF009709F445C081DC71
:10135C0048D257DE5DDC2DDD99F094FE0AC041D2F7
:10136C0085DB0C434F4D50494C45204F4E4C59009A
:10137C00FED06F7BAED966FDDECF6F7E6F7D2AC04F
:10138C006F7EC5DF0E1F11F0606120C067FF14C0B7
:10139C00BEDF0C1B11F01EDC1DC0B9DF1C1B11F0D5
:1013AC0022DC18C0B4DF7A1A11F0FADB13C0AFDFFD
:1013BC00961A11F0FCDB0EC06F7DA9DFB42409F086
:1013CC00606295FE03C00E94690D04C01FD16D7F41
:1013DC0094FC62606F77AFCF6F7483DB40DF009754
:1013EC0081F0FFD1E6DC59F0082F8991999101FF2A
:1013FC0003C06CDF0E9421100E9421109CCF71DB76
:10140C00E9CF6FDB45D062DE23DB66D0A7D048D5B1
:10141C000C94770581400C9496102E22837368628D
:10142C00ECD1F9DFC1D028DD75DBF2DB4FDF0C949A
:10143C00CC10282389696D6D656469617465ABD0C6
:10144C0040000C94160A402387696E6C696E6564C3
:10145C00A2D020000C94160A5423832E73749BD0B4
:10146C003C0022D90E9465111FD995D02C001CD9A3
:10147C000E948911EDDA8FD03E0016D90C94850CA0
:10148C00823E72000C94980565D90A008364703E04
:10149C0082D0000BC1D1F8DF0C945108833E6470EC
:1014AC007AD0000B3CDCB8D176D009003BDB0EDEE9
:1014BC007BD02ED406DC7DDC11F054DC01C011DBBA
:1014CC0059DC2BD3A0F71F910F9134DC0C947705CA
:1014DC0066238566616C73659A938A93882799272E
:1014EC000895DE238474727565009A938A938FEF46
:1014FC009FEF0895F0238471756974005AD913D144
:10150C0084D9C6DF7F77BED886D0EDDE4DD0E3DE42
:10151C000A975FDA31DA0ADF64D14BDC99F7A8D489
:10152C00BFDFA4DA03206F6B93DA07D00C94870A21
:10153C0002248670726F6D7074000E9408110A0B81
:10154C003E248561626F72745ED165DF2ED90C9476
:10155C00840A4E24873F61626F72743F87DA013FC1
:10156C000C94BD0A6024863F61626F727400D2DAFB
:10157C0020DC19F401DA6CDAE7DF0C949E04722497
:10158C00D661626F7274220087DAFCD87A240895CF
:10159C008C24836C6974FF91EF91EBD8F695E795E9
:1015AC000994541AA36475709A938A9308950A1F28
:1015BC0082303C00990F880B990B08959E2481274B
:1015CC0009D160DDD6DD0C94B40ACA248463686149
:1015DC00720000D13ADD85DA0C94B110D824C12800
:1015EC00DADF290032DD60640C949E04EA248569FC
:1015FC006865726571D00FCFFA24D65B636861722F
:10160C005D00E7DF0C9421108363662C0C94690455
:10161C00062582637200BFDF0D000E945A03BBDFF8
:10162C000A000C945A031E2586637265617465006A
:10163C0077FD1ED4CFD026DDB7DF9BDDFBDBE1DCF5
:10164C0015DA0F414C524541445920444546494E08
:10165C0045448DDFA9DF10DCB2D99DDF100027DBFC
:10166C007DDF7068C7DF11D937D040DDC6D0D3DE3F
:10167C00C2DA2CDDBFDF98DFC0D038DD43DA8068FA
:10168C0041DAFEDB16D934DA06DDB4DFF5DB8F7711
:10169C00E0DAFBD878D17FDF60161ED9ECD8CCD835
:1016AC00C1D887DB09F4DFDA0C9453113425D870D8
:1016BC006F7374706F6E65008DD0E4DC5ADD74DF6F
:1016CC004DDF78DF76DB21F00E94C803901693CAB9
:1016DC000C946904836964700E94B003110287281A
:1016EC00646F65733E2928DA88D095DE04DDF4DF5B
:1016FC0092DEC8DEF1DFFADC4EDF0E940E9453114D
:10170C000E94531119DAE8DF0C945510BA25D564F0
:10171C006F65733E0E94C803F2250E94C8037016C1
:10172C0008951A26C15B50921C0208953026815DE3
:10173C0060921C0208953A26813A7ADFF9DF0C9404
:10174C0084044426873A6E6F6E616D6553DF0C948A
:10175C009E0B5026D13BE7DF61FD23C04BDF28D029
:10176C008C01107F105D59F08991999121D08E5088
:10177C009449B1F48CE094E9BBD90C9455105ADB24
:10178C009F7093FD906F7BDA35DFF1D904DFFEFF9C
:10179C00FAD001DF0C9407D09F509695879503C023
:1017AC00C7D8F9DE08950C9453116026822D4000A1
:1017BC000CD0FADE0C949610B826D35B275D00DFB4
:1017CC000C942110C626A2322D0002970895D22621
:1017DC0082626C000E94B0032000DC268573746169
:1017EC0074659A938A9380911C0290911C020895BF
:1017FC00E826866C6174657374000E94B00317024E
:10180C00FE2682733000F4DBE4FF0E278272300078
:10181C00EFDBE6FF83696E690E94B0030F021827A5
:10182C00857469636B739A938A93C70108952C2707
:10183C00826D7300F8DF9BD90CD58C01F8940E19CE
:10184C001F097894CAF70C9477053C27832E69649A
:10185C003DDC8F7067D903C039DC0AD0E2DE5DD184
:10186C00D8F71F910F910C9477055827833E70720F
:10187C009927803012F080320AF48EE2089526DC2B
:10188C008ADE0F00BDD934D942DA32D91FDC42D9F5
:10189C0039D97BD9DED920DEE4DA44D90AC00E94DA
:1018AC00A5042FD267DA24D90E94771111F09894ED
:1018BC0003C033D1A0F718941F910F910CC00E9454
:1018CC00A504DDDF21F070DEC3DF0E94C2047DDFE2
:1018DC00A2DD0097A1F70C949E04782785776F7290
:1018EC00647378DFCFDB60DE56DE3C2C02D085DF04
:1018FC0092DD91DE0C94650CE827822E73000E9419
:10190C00C20452DE0E94D3037EDF85DD5EDF0E94BF
:10191C00A504E1D94EDA19F04BDFFEDAF8CFE1D8A5
:10192C000C949E0406288464756D70000F9633DE4B
:10193C00100063DAF7D820C06EDE36DE2CDE040031
:10194C00F5DA29DE3A006DDE26DE0F00EBD8BEDBC1
:10195C0022DE0200EBDAE1D0D0F71F910F911BDEF3
:10196C00100013D918DE0F00DDD8B0DB81DF59DE93
:10197C00D4D0D8F71F910F91D0D0F0F61F910F91C2
:10198C000C9477058120A8DE0C94510632288378BC
:10199C003E72FC018991999109D031968293929370
:1019AC005292CF0108959A28833E78619F50969564
:1019BC0087950895B4288378613E880F991F915FAD
:1019CC000895C2288370666C0E94B003000F842CAB
:1019DC003F303D0065FD03C0DEDDBE1C03C004D0FE
:1019EC00DADDCA1C6F7D6FC0D6DDFCFFCCCF4DD9C4
:1019FC009F70906CD8CECFDD08F0D5CECCDD09F43D
:101A0C0064FD9B7FD0CED028D269660064FDECDFEC
:101A1C00E1DFF4DF6F7EEEDD5FDD0C94FD0C14294D
:101A2C00D4656C736500E6DD57DDE1DF4FDC0C94AB
:101A3C00230D2C29D47468656E006260DBDD0E9476
:101A4C008805A3D8C2DE21D9A6DD00C0E1D83EDCD2
:101A5C000C9455104029D5626567696E0C94000B87
:101A6C006229D5756E74696C626064FDBDDFB2DF8E
:101A7C00C5DF6F7E0C94460D6E29D5616761696E6A
:101A8C006260B8DD0E94CB05A0DE0C94FD0C8629AB
:101A9C00D57768696C65BADF0C947E059C29D67283
:101AAC00657065617400ECDF0C94230DAA29D6696E
:101ABC006E6C696E65006F7E6F7D82DD0C94690DB6
:101ACC00BA2983696E2C0BDB6FDD65DD0895F9D8BF
:101ADC0070D919F00E945311F6CF0C949E04CE29A4
:101AEC00D3666F720E94C803301A84DDF5DC7FDF89
:101AFC0081DD0C947E05EC29D46E657874009DDF35
:101B0C000E94C803262A77DFBBDF45DD382A0C94F8
:101B1C00690D87286E6578742920FF91EF91BF912C
:101B2C00AF911197AF93BF93099408951F910F91A3
:101B3C000895042A95656E646974FF91EF911F9165
:101B4C000F915F925F920994402AB57264726F7024
:101B5C000F910F910895562A83733E6497FFBCCC66
:101B6C00C4CC642A87646E656761746549D00E9431
:101B7C00E5040C94C505702A883F646E6567617432
:101B8C00650018DD16D909F0F1DF0895842A846404
:101B9C006162730009DD0C94C70D9A2A82642B00D4
:101BAC00A991B991E991F99109911991A00FB11FDE
:101BBC008E1F9F1FBA93AA930895A82A82642D00A2
:101BCC00D5DF0C94D60DC82A8364322F0991199154
:101BDC0095958795179507951A930A930895D42A86
:101BEC008364322A09911991000F111F881F991FC4
:101BFC001A930A930895EC2A8764696E7665727459
:101C0C000991199100951095809590951A930A93C6
:101C1C000895042B8364303DA991B991892B8A2BAB
:101C2C008B2B51F48FEF9FEF0895202B8364303C66
:101C3C00A991B9919030B2F3882799270895382B40
:101C4C0082643D00BDDF0C94120E4C2B82643C0070
:101C5C00B7DF899199918FEF9FEF14F08095909554
:101C6C000895582B82643E000E94AC040C942E0EF6
:101C7C00702B8375642E19D931D939D90E942E0550
:101C8C000C94C2047E2B82642E000FD98F939F93E9
:101C9C0081DF24D90E94A20535D929D90E942E05AD
:101CAC000C94C204922B86756E757365640009D012
:101CBC000E9422040E94CB050C942F06B22B826842
:101CCC00690069DCDE2B0E9418040E94BD050C948F
:101CDC009610FF8CFF0EFF0ACA2B85706F72746210
:101CEC009A938A9385E290E00895E62B846464725B
:101CFC0062009A938A9384E290E00895F82BA240B4
:101D0C0070009A938A93CA0108950A2C83706340D9
:101D1C009A938A93CA010C94B110182C8370616445
:101D2C009A938A9380911502909116020895282C0B
:101D3C00A370322B470D551D08950000866D6172FE
:101D4C006B6572000E94FD0373DC25DC000B0E94A6
:101D5C0022049ADBA0D998DB0E9470050E940B0428
:101D6C00C2DC0E94B80358DD8FDB0C9451085C1464
:101D7C00856C6F61642B706108957C2C856C6F6130
:101D8C00642D7F7E4798089500FE03C004DC50004C
:101D9C0048DC01FE03C0FFDB450043DC02FE03C050
:101DAC00FADB42003EDC03FE03C0F5DB570039DCF6
:101DBC0016FE03C0F0DB4D0034DC0C94C20474FF3F
:101DCC0001C0479876FF0CC009E3201649F4E09156
:101DDC00EC01E03029F46092530088955092530046
:101DEC0074FD479A0895882C8374783032D2009110
:101DFC00C80005FFFBCF8093CE008991999108957F
:101E0C00E091C800E5FFFCCFF093CE000895F42CD0
:101E1C00837278301ED220D00E94DF06D9F39A93B9
:101E2C008A93EDEEF1E0A091EB01EA0FF51D8081B4
:101E3C00992700915F00F894A395AF71A093EB01E3
:101E4C00A091EC01AA95A093EC0100935F0008957A
:101E5C001C2D847278303F00A091EC01A5110C94DC
:101E6C007B0A0C94720A1C148669666C7573680084
:101E7C0060FD0C94673F08955E2D85656D707479D7
:101E8C008ADBA81388DB000B86DB0C000E94510850
:101E9C000E94720A80DB020B0E94CC100C944E0A3A
:101EAC005524E1E0F2E03F0108957E1384776172DE
:101EBC006D00F894AA27BB27C9E1D0E0DD93C1508F
:101ECC00E9F710905F000090540050925400B1E07C
:101EDC000091D80000610093D800A0E15D92BA3067
:101EEC00E9F7AF3FD9F75C92BA94C7EBD2E00AE7B7
:101EFC0012E00DBF1EBFD4DF0E94820209E312E084
:101F0C00180149DBB41347DB1B0245DB1C000E94A4
:101F1C00510841DB000B04D1E8DA0E946C060E94E8
:101F2C00DF0609F0ADDF7092440003E0009345003A
:101F3C0009EF0093470070926E002DDB00102BDB35
:101F4C001A0069D009E10093CC0008E90093C9009C
:101F5C0006E00093CA009CDA0E94C9005092EC0182
:101F6C005092EA0178940E94CA0E25D03F9A6AD109
:101F7C000E94DF06D9F00E943C05034553430E94A2
:101F8C002E0509DB70170E94200C0E9467030E942B
:101F9C00DF0649F00E946003FEDA1B000E946C060B
:101FAC000E94DF0619F44ED10E946F030C94AA0A0A
:101FBC00B82D837665720E943C0524466C6173686B
:101FCC00466F72746820352041546D6567613332F9
:101FDC0075342030332E30362E323032330D0A0029
:101FEC000C942E05BE2EA265690078940895F22EED
:101FFC00A2646900F8940895FC2EC23B6900CBDA08
:10200C000C944BD1C8DA5A0048D10C94990B062F7A
:10201C0084696E742100FC01EE0F80E9E80FF1E099
:10202C00899199910E94DC0C0C945A101C2FC76C4E
:10203C0069746572616CAFDAB4240E94690D809387
:10204C000D0290930E0260680E94DA0A982F929506
:10205C009F708F70906E806820D1892F92959F70A1
:10206C008F70906E80690C9453110E943D3F899142
:10207C009991A0E1B1E00091190200FD0C94991125
:10208C000F77A00F8D939D937CC03A2F823E6100F9
:10209C00282F392F899199910895982F81219B3060
:1020AC0040F4FC0189919991918380838991999154
:1020BC00089509D09F30C8F60E94A50473D00196EC
:1020CC00098108836FC062FF08950E94850C0E94ED
:1020DC003C050341443F0E942E0568CFFC01FF5094
:1020EC0060FF11C0FB110FC00E2F00780A1559F4B8
:1020FC00AF93BF93A0E1B1E0EF77AE0F8D919D91BF
:10210C00BF91AF910895859195910895A82F826103
:10211C003E009A938A93822F932F08951A30814010
:10212C009B3020F4FC018191919108959F30B0F681
:10213C00F999FECF9B5081BD92BDF89A00B583955D
:10214C0081BDF89A90B5802F0895C8DF992708951E
:10215C002A30826340009B3020F4FC018191992746
:10216C0008959F3090F7E4DF992708950E943D3F32
:10217C0089919991A0E1B1E0009119020F77A00F1C
:10218C008D93616009C05E30826321009B3038F40E
:10219C00FC0189919991808389919991089593DF9C
:1021AC009F3020F7F894F999FDCF9B5081BD92BDDB
:1021BC008991999180BDFA9AF99AF999FECF789400
:1021CC00EBCF943083666C2D64600895D0308366B9
:1021DC006C2B6B7F0895DA308576616C756528DA27
:1021EC000E94270480DA0E94B8030C949610E43005
:1021FC008564656665721CDA0E94D10A54240E94BB
:10220C00270471DA0E94B8030C947903FC30C2697C
:10221C0073000E94E60A0E943F06E3DA0E94DF0682
:10222C0029F009DF0E94C803AA2F01C038DF0895E6
:10223C001A31C2746F000C940F113E318774757291
:10224C006E6B65790E94F9100F02483185706175CB
:10225C0073650E9402010E944001B1DDA895DF93D5
:10226C00CF939F938F935F934F93F101F8940EB795
:10227C0002930DB70293B291A2911D010E910EBF64
:10228C000E910DBF4F915F918F919F91CF91DF91E7
:10229C0078940895341482692C000E94000BFFDEA0
:1022AC000E9438040C94C90CA2318369632C0E94DF
:1022BC00000B6CDF0E94E5040C94C90C81200E9479
:1022CC00F2070E949610803111F484E209C08A3022
:1022DC0011F483E205C0823011F485E201C08FE372
:1022EC0008950E94980509C00E94EA020E94CB053D
:1022FC000E94DF0611F00C94610C0E94930DA0F764
:10230C000C945D0C81200E9418040E94D10AD013F9
:10231C000E94BD050E94110A0E946C080E94D10AFD
:10232C000F000C9406069A938A938091190290914F
:10233C001A020E94850C0E943C050341443F0E94F6
:0A234C002E050C94AA0A08950895C6
:107E00000C945F0F0F921F9209911991809FD001DE
:107E1000EE27FF27909FB00DE11DF51D819FB00D4E
:107E2000E11DF51D919FE00DF11DBA93AA93CF01BD
:107E30001F900F900895E894882329F4992319F44A
:107E400068940C945F0FDC011990E99189919991E4
:107E500000E1FF27880F991F111CEE1FFF1F1A1644
:107E6000EB07F50518F083951A1AEB0B0A9589F7BD
:107E7000EA931A9208950C949F119F50052D00C00B
:107E80008093190290931A02003011F49E3798F7EC
:107E9000003011F4943278F30091190200780A113D
:107EA00005C000911A020B1101C008950E943E0FF7
:107EB000009119020078A02EB0901A0200E8F50196
:107EC000A0E1B1E015911D930A95E1F708950E9494
:107ED000A911F8940027F501003011F4FE3738F5A8
:107EE000003011F4F43218F113E030D011E12ED04B
:107EF00000E4A0E1B1E00F921F920D901D9011E0FF
:107F00000E94A63F32960150C1F7E058F04015E0BC
:107F10000E94A63F13D000E8A058B04005901D90E5
:107F200001100C945F0F0150C9F71F900F900FEFD5
:107F3000B02E6E7F78940E94AA1108958090570009
:107F400086FE089511E10E94A63FF8CF8090570069
:107F500080FCFCCF10935700E8958090570080FC80
:047F6000FCCF0895B5
:00000001FF
