:100000000C94910F63D0000061D000005FD000001D
:100010005DD000005BD0000059D0000057D0000038
:1000200055D0000053D0000051D000004FD0000048
:100030004DD000004BD0000049D0000047D0000058
:1000400045D0000043D0000041D000003FD0000068
:100050003DD000004FC0000039D0000037D0000074
:1000600035D0000033D0000031D000002FD0000088
:100070002DD000002BD0000029D0000027D0000098
:1000800025D0000023D0000021D000001FD00000A8
:100090001DD000001BD0000019D0000017D00000B8
:1000A00015D0000013D0000011D000000FD00000C8
:1000B0000DD000009F918F911F910F91FF91EF91B3
:1000C000A991B991B0935F00B9911895BA93B09185
:1000D0005F00BA93AA93BF91AF91EF93FF930F93F1
:1000E0001F938F939F93552401E9A00FB1E0ED91E9
:1000F000FD910994BA93B0915F00E60CF51CE2CF34
:10010000B091CE00A091EC01A395A093EC01EDEE8F
:10011000F1E0A091EA01EA0FF51DB083A395AF715C
:0C012000A093EA01C7CF01000317800084
:10012C001201100102000020F0FAF0FA00000001A8
:10013C000001040309040A034600460035003000A0
:10014C0009023E0002010080320904000001020293
:10015C0001000524001001042402020524060001FC
:10016C00070582030800FF09040100020A000000D1
:10017C000705030208000007058402080000F02DA3
:10018C00847573622B000091D9000330F1F4009157
:10019C00D8000033D1F40091D70001600093D70050
:1001AC0002E100934900009149000170E1F30091D4
:1001BC00D80000680093D8000091D8000F7D009300
:1001CC00D8005092E0005092000108950091C800B0
:1001DC0005FFFCCF1093CE008C10847573622D003C
:1001EC00509200016092E00000E30093D80050921E
:1001FC0049005092D70008950091D8000039C1F4FD
:10020C000091E100087091F05092E9000091EB0030
:10021C0001600093EB005092EC0002E20093ED00C1
:10022C00509200016092EA005092EA005092E10074
:10023C00089500910701011700910801050510F4BC
:10024C0010910701B4D00091E800047089F7059172
:10025C000093F1000091F200003209F4A7D01A9536
:10026C00B1F70091F200003019F3B8C0A0D00191A1
:10027C000093F1001A95D1F7B1C00091EB00016227
:10028C000093EB0008950091D800003989F6009195
:10029C00E9005092E9000091E8000C7049F2E1E0AD
:1002AC00F1E018E089D002EF9AD0009101010078BA
:1002BC00B9F1009102010630B1F0083029F000309C
:1002CC0041F0013261F0D9CF009100010093F100AF
:1002DC007AC05092F10077D05092F10074C0E9E0EE
:1002EC00F1E017E0C3CF00910401013029F0023096
:1002FC0039F0033049F0C1CFECE2F1E012E199CFD3
:10030C00ECE4F1E01EE395CF00910501003021F4FF
:10031C00EEE3F1E014E08DCFE2E4F1E01AE089CFF6
:10032C0000910201093079F00530A9F1003219F081
:10033C000232E1F1A2CF0091E8000470E1F3E9E0B0
:10034C00F1E017E039C04AD07092E9006092EB00FE
:10035C0001EC0093EC007092ED0003E00093E900D7
:10036C006092EB0000E80093EC007092ED0004E06A
:10037C000093E9006092EB0001E80093EC007092AE
:10038C00ED000CE10093EA005092EA0000910301A9
:10039C00009300012AC0009103010093E30006D0F2
:1003AC000091E30000680093E300089517D00091DA
:1003BC00E8000170E1F308950091F10001931A95A2
:1003CC00D9F708D00BC001E0A091E800A02BA093B6
:1003DC00E80008950BEF03C00FE701C00EEFA091EA
:1003EC00E800A023A093E800089506E900930A0111
:1003FC005092090150920B0150920C0150920D0138
:10040C0050920E0108E000930F010895E6108472DB
:10041C0078753F0000910001003049F09A938A935F
:10042C0003E00093E9008091F20090E008950C94B1
:10043C00810A1A13837278750E945211009100017F
:10044C000030D1F303E00093E9000091E80000785C
:10045C0099F3C0DF0091F200003029F09A938A934F
:10046C008091F10090E00091F200003009F4B4DFCB
:10047C0008954013837478750E9452110091000105
:10048C00003059F004E00093E9000091E80001709D
:10049C0099F3A4DF8093F1009FDF0C9452050000C8
:1004AC008E330C0B1503B62C80230002B7027A0294
:1004BC00622D8A2DCE2D0A00BB024A1400000000CA
:1004CC000000000039029416A216B216661E741EA5
:1004DC00841E9E318377642BF894A89590916000CC
:1004EC009861909360008770886080936000789426
:1004FC000C945205E0138377642DF894A8955092D0
:10050C00540008E1009360005092600078940895C4
:10051C000214A3637764A895089500008465786934
:10052C0074000F910F910895DE2D886F70657261C4
:10053C00746F72009A938A938AE494E10895390255
:10054C000000400040005A0028148469646C650067
:10055C007064089556148462757379007F7B0895D6
:10056C00FA31846D73657400FC0189919991019144
:10057C00082B02938991999108956E14846D636C84
:10058C007200FC0189919991019180950823029345
:10059C008991999108958814866C736869667400C2
:1005AC00FC018991999131971AF0880F991FFBCF13
:1005BC000895A4148672736869667400FC018991AD
:1005CC00999131971AF096958795FBCF089583D51D
:1005DC007CD281D57AC2C014826E3D00A991B991AA
:1005EC00FC01FF5085918F700D90102C081A31F47E
:1005FC0085910D90081A11F41A94D1F7802D992732
:10060C000895E41484736B697000182F8991999183
:10061C00A991B991009751F00C91103211F400325C
:10062C0010F0011719F411960197F4CFBA93AA930D
:10063C0008951015847363616E00182F8991999138
:10064C00A991B991009751F00C91103211F400322C
:10065C0028F0101719F011960197F4CFBA93AA93BA
:10066C0008954015846D74737400FC018191099197
:10067C001991802399270895701583466379A0D723
:10068C00803E0895861584656D69740069D30C9459
:10069C006B039215836B65796DD30C946B03A0156A
:1006AC00846B65793F0070D30C946B03AC15876534
:1006BC00786563757465FC01FF5089919991F69585
:1006CC00E7950994BA1583406578B0D60C9461030C
:1006DC00D215887661726961626C65007DD092D0AA
:1006EC00D4D10C948B03DE15893276617269616208
:1006FC006C6572D065D70400C8D10C948B03F415CB
:10070C0088636F6E7374616E74000E94BD0B0E94DF
:10071C0051100C94CB0B0C168932636F6E73746191
:10072C006E74C1D10E94BD0B0E9451100E945110D9
:10073C000C94CB0B241683737040FE019A938A930E
:10074C00CF010895421683737021EC0108958372D2
:10075C007030BF91AF910E94300C68D68DBF9EBF98
:10076C0089919991FD0109945216B37270409A9334
:10077C008A938DB79EB708957616A23E3C00082F3B
:10078C00892F902F0895861685666C617368509238
:10079C001B020895941686656570726F6D007092D9
:1007AC001B020895A2168372616D04E000931B0274
:1007BC000895B21682647000ABD704D00C949605E1
:1007CC00836373659A938A9380911B02992708958A
:1007DC00C016846865726500EFDF0C94BC10DE16E1
:1007EC00812CFADF88D40ED00C944B05EC16826366
:1007FC002C00F2DF38D3B3D00C944B05FA1684637B
:10080C00656C6C009A938A9382E090E008950A17C5
:10081C0085616C69676EE0DF08D0CEDF0C948110C7
:10082C001C1787616C69676E656401968E7F0895ED
:10083C002E17A563656C6C2B029608953E17A56365
:10084C00656C6C73880F991F08954A17A5636861CE
:10085C00722B019608955817A563686172730895F9
:10086C0064178363662CBAD6DFD668D154D1A8D668
:10087C00F00F21D291D241F0A3D60E940E947611A2
:10088C009F509695879506C0CFD658D1B8D7E4D14E
:10089C009F70906D0C94761182213A0091D6F4FFE2
:1008AC000C94EC0C6E178232400098D6BFD5FBD05E
:1008BC00C3DF0C941C0AB21782322100F4D0FDD095
:1008CC00BBDF19D40C948110C417853264726F701D
:1008DC00E3D00C945205D617843264757000EDD0B9
:1008EC000C946305E417853273776170EED0F5D004
:1008FC00ECD0FDD00895F21785326F7665729A931D
:10090C008A938E819F819A938A938E819F81089579
:10091C00041885737061636577D70C944C031E18AB
:10092C008673706163657300009719F0F5DF6FD102
:10093C00FBCF0C9452052C1884756D696E00CFDFBB
:10094C00C7D106C0441884756D617800C8DFB9D171
:10095C0023D209F0A8D00C945205521881319A93E5
:10096C008A9381E090E008956818866163636570EE
:10097C007400A3D0D5D0B1D031D68EDE8D3039F005
:10098C008A3041F0883079F08F3769F01AC02AD05C
:10099C006AD221C081D026D062D2FED1E1F0ABD593
:1009AC0021D061D2EACFA7D51DD05DD275D097DF0B
:1009BC0074D1F2D111F72BD12DD0030820081CD003
:1009CC00DCCF0CD663DE79D04ED21CD19AD075D048
:1009DC0064D1E2D191F20F910F9165D00C94A405E2
:1009EC00836663729A938A9385EF9FEF0C94050844
:1009FC00761884747970650070D002C06CD346DEB2
:100A0C000E94B70DD8F71F910F910C945205FE1848
:100A1C0083287322FF91EF91EE0FFF1F05919A939C
:100A2C008A93CF01915F9A938A93802F9927E00F35
:100A3C00F91F3196F695E7950994C2D5220009C3A2
:100A4C001C19C2732200F9DFE8D6A6D139F0B8D54B
:100A5C00201909DF9CDE07D0DEDEA7DE08954E19D3
:100A6C00822C2200EADFB8DE28D0CCD0DEDE0DD01E
:100A7C0029C36C19D22E2200E6DFA2D504190C94DE
:100A8C003904801985616C6C6F7496DE0C94380691
:100A9C009019A464726F70008991999108959E19B0
:100AAC00847377617000099119919A938A93C801A4
:100ABC000895AC19846F766572009A938A938A8133
:100ACC009B810895C01983726F7407D0ECDF0FD02F
:100ADC000C945905D219923E7200FF91EF918F93AD
:100AEC009F93899199910994E21992723E00FF911A
:100AFC00EF919A938A939F918F910994F619927220
:100B0C004000EDB7FEB79A938A9393818481089540
:100B1C00E4248361627362D50C9422071E1A812B24
:100B2C0009911991800F911F08952A1A826D2B003B
:100B3C000E94D80D0C94FA0D381A812D0991199137
:100B4C00081B190BC801089500900D0210900E029D
:100B5C000895FADF00941094060C151C0BD001C0FC
:100B6C0008D0906521D03AD5812D07D0806990644A
:100B7C001BC0EADF5ED75DD7802D982F92958F70C2
:100B8C009F7080680895F5DF90670ED027D5812D72
:100B9C00F4DF8069906708C0ECDF906605D01ED545
:100BAC00812DEBDF806990660C947611461A836177
:100BBC006E6409911991802391230895BA1A826F5A
:100BCC00720009911991802B912B0895CA1A837880
:100BDC006F7209911991802791270895DA1AA669E5
:100BEC006E7665727400809590950895EA1A866EFB
:100BFC006567617465008095909501960895FA1A61
:100C0C00A2312B00019608950C1BA2312D000197E7
:100C1C000895161BA2322B0002960895201B853EC8
:100C2C00626F64790496DAD409D0892B99273BDF5B
:100C3C00029604D0982B88270C94E705F7D38F7075
:100C4C009F70929508952A1BA2322A00880F991F33
:100C5C000895541BA2322F00959587950895601B1B
:100C6C00822B210020DF29DFE1D35ADF1CDF0C941B
:100C7C0081106C1B8677697468696E001EDF5EDFFD
:100C8C002CDF5CDF34DF0C946706801B823C3E005B
:100C9C0004D00C940B08F024813D50DF0C940B080D
:100CAC00A41B813C4BDF8FEF9FEF14F08095909548
:100CBC000895AE1B813EF7DE0C945806C01B82755E
:100CCC003C003CDF880B990B0895CA1B82753E00D3
:100CDC00EADE0C946706D81B82217000AC01899166
:100CEC0099910895E41B9421703E7200FF91EF914D
:100CFC004F935F93AC01899199910994F21B937274
:100D0C003E70FF91EF915F914F9109940A1C827094
:100D1C0040009A938A93CA010C94BC101A1C8270DE
:100D2C0021009A938A93CA010C9481102A1C837017
:100D3C0063219A938A93CA010C94F1103A1CA27005
:100D4C002B00460D551D08954A1C83702B2B480F04
:100D5C00591F899199910895561C8527656D697461
:100D6C009A938A9388EE9FEF0C940508661C84274F
:100D7C006B6579009A938A938AEE9FEF0C94050821
:100D8C007A1C85276B65793F9A938A938CEE9FEF3B
:100D9C000C940508833F303D0097899199910895F3
:100DAC008364303D009708958E1C83756D2A0C94D6
:100DBC00023FB61C86756D2F6D6F64000C941B3F43
:100DCC00C01C85752F6D6F6496D36DDE0C941B3F24
:100DDC00CE1C812AECDF0C945205DE1C82752F0090
:100DEC00F3DF0C941307E81C86752A2F6D6F6400D3
:100DFC0074DEDDDF7CDE0C94E406F41C812F6FDDE9
:100E0C00E8DE6BDE88DE4FDE86DE4DDEE9DF6FDE90
:100E1C000C942207081DA36E69700991099108951D
:100E2C00221D847475636B003EDE0C9463052E1DCD
:100E3C00873F6E6567617465D7D3AEDF09F0DBDE83
:100E4C0008953C1D836D61784ADD2CDF81CD501DEA
:100E5C00836D696E44DD2FDF7BCD826340000C9483
:100E6C00D710826321000C94F1105C1D8275700008
:100E7C009A938A9382E090E00895781D84686F6C51
:100E8C00640042D39ED0EEDE9CD0D0D20C94F110F4
:100E9C00881D823C23009ED094D00C9481109E1D02
:100EAC008564696769748A300CF08796C0960895DA
:100EBC00AC1D812397D0BAD2A2D107DEF4DF0C94FB
:100ECC004707BE1D82237300F5DF09DD7ADE64DF80
:100EDC00D9F70895D01D82233E00FADC72D0A6D239
:100EEC0079D0EBDD0C94A405E21D847369676E0068
:100EFC0090301AF465D32D00C4DF0C945205F61D06
:100F0C0082752E00C8DFF7D2DFDFE7DF75DD0C94CA
:100F1C0092040C1E83752E72BEDF79DEDEDDEBD201
:100F2C0001C0C8DF1ED6E8F71F910F91CDDFD5DFCA
:100F3C0063DD0C949204201E812EADDF4FD3EBDDCC
:100F4C00DAD2C2DFC2DDD4DFC8DF56DD0C949204E6
:100F5C00441E87646563696D616CA0D243D00C94A8
:100F6C0081105E1E836865782BD310003BD00C94E7
:100F7C008110701E8362696E45DC34D00C94811034
:100F8C00801E8572736176659A938A938EEF9FEFBC
:100F9C000C9405088E1E85756C696E6B9A938A93FA
:100FAC008CEF9FEF0C940508A21E847461736B0088
:100FBC009A938A9382EF9FEF0C940508B61E826871
:100FCC0070009A938A9380E090E00C940508CA1EF6
:100FDC00826862008AD181D10C949605DC1E8462F1
:100FEC00617365009A938A938EEE9FEF0C940508BB
:100FFC00EA1E847573657200BAD36ED392D3820DD8
:10100C00931D0895981B82303D000197880B990B16
:10101C000895FE1E86736F757263650080D10C9403
:10102C005B04201F872F737472696E673CDD45DD8E
:10103C0085DD53DD75DD5BDD0895301FC15CEEDFB2
:10104C0063D159D060640C945205481F857061724D
:10105C007365C4D2E3DF58D1E9D1E8DF8F939F9356
:10106C0034DDD3DA2ADD39DD30DDE7DA009709F03B
:10107C00CEDD3DDD3CDD29DD61DD46D1F3DDD4DEA9
:10108C000C94A405581F84776F726400E2DF0BDDAB
:10109C00BEDDCADE0C94F110921F85636D6F766510
:1010AC0002DD24DE1ADD03C016D043DE4ADE59D53C
:1010BC00D8F71F910F9125DE0C945205A61F857051
:1010CC006C6163650CDCCFDEC4DBEDDC0C94560884
:1010DC00CA1F8363402B01969A938A9301970C94B1
:1010EC00D710DE1F82402B0002969A938A930297A8
:1010FC000C94BC1081210C948110F01F836E3E6304
:10110C00EADF8F700DDD0C941B04082083633E6EA8
:10111C0076D364D2A4DE0E947A1027FFC9F3089517
:10112C00182083286629A881B9819A938A9358DA62
:10113C00009751F0899199910297FC01FF5085918C
:10114C009591009781F709C0A7DC67DE47D2D8DFFD
:10115C00AADC09D05ADF03DC34DD08952E20866921
:10116C006D6D65643F007BDE982E807408956A2057
:10117C008466696E640024D2AA2CD5DF009729F40A
:10118C008BDC1ED2080B52D1CEDF08957C208664F6
:10119C00696769743F008A331CF081361AF08797AF
:1011AC00C0970AF4A8C11AD21DDF40D10C9458067E
:1011BC009A20857369676E3F80DC51DE082F6CDCEA
:1011CC000D3219F00B3219F003C004D09DC102D0BE
:1011DC000C94810AC4DB0C941C08BE208375642A11
:1011EC008F939F93E4DD58DC5EDC81DCE0DD6DDC0D
:1011FC000C949605E8208675642F6D6F64006DDC89
:10120C007AD17FDCDBDD61DC60DC71DCD7DD0C945A
:10121C006B050221873E6E756D62657221E0009749
:10122C00D1F05BDC8F939F931ADE8E3279F0B3DFB3
:10123C00B3DD21F431DC5BDC5ADC0DC04EDCD2DEDC
:10124C00F5D0CEDF54DC74DC20E001C025DC4FDCB3
:10125C004EDCC0DFE4CF820F08952021876E756DC0
:10126C006265723FBBD147D146D12FDC34DFA4DF9E
:10127C0034DCB8DEDBD031DC20DCF1DD839783306D
:10128C0038F4E0DA9DD1D8134BDC1FDAA3DF01C0B0
:10129C0003DCC4DF2CDCA6DE2EDF7EDD29F027DCB0
:1012AC0017DB16DB28D110C00197D9DD1DD71FDC49
:1012BC0073DD09F07FD42E3221F407DC82E090E05C
:1012CC0003C0EADBAADD4BDB089584737761700001
:1012DC000C9459056821837469236ADEA7D008969B
:1012EC000C94BC10E2218374696205D00C94BC1080
:1012FC00F221837469759A938A9380EF9FEF0C9413
:10130C000508FE21833E696E9A938A938AEF9FEFBC
:10131C000C94050810228727736F757263659A9376
:10132C008A9386EF9FEF0C940508081B190B089500
:10133C00222289696E74657270726574F0DFBEDA90
:10134C00DAD0E2DFD8DEDED55FD2A0DE47D187DD92
:10135C0023DD09F467C00FDF009709F44AC052DCA3
:10136C005CD253DE2EDC18DD99F094FE0AC055D207
:10137C0051DB0D434F4D50494C45204F4E4C5915A8
:10138C0008D16F7B98D966FDDECF6F7E6F7D2FC045
:10139C006F7E06E11FE1C9DF11F4606124C067FFB5
:1013AC0018C00EEB1AE1C1DF11F4EDDB20C00EEC1E
:1013BC001AE1BBDF11F4F0DB1AC00CE21AE1B5DF65
:1013CC0011F4C7DB14C008E41AE1AFDF11F4C8DB79
:1013DC000EC06F7D08EE14E2A8DF09F4606295FE82
:1013EC0002C094D304C02CD16D7F94FC62606F77E3
:1013FC00AACF6F7451DB36DF009771F00ED2CCDCC4
:10140C0049F0082F8991999101FF02C061DF43D601
:10141C0042D699CF41DBEBCF3FDB48D05CDEECDA38
:10142C006AD0ADD06FD50C94520581400C94BC1091
:10143C003E2283736862FDD1F9DFD0D010DD45DB2D
:10144C00C0DB46DF0C94F1103E2389696D6D656439
:10145C0069617465B5D040000C94210A56238769E4
:10146C006E6C696E6564ACD020000C94210A6A2302
:10147C00832E7374A5D03C0009D942D707D9A0D0CC
:10148C002C0004D90E94A811B7DA9AD03E00FED8DD
:10149C000C94AA0C823E72000C9473059A938A9356
:1014AC008AE090E008957C238364703E89D0000B21
:1014BC00D9D1F4DF0C945608B423833E647080D0E9
:1014CC00000B14DCCFD17CD0090007DB04DE86D006
:1014DC0056D4DEDB61DC11F02CDC01C0DDDA31DC52
:1014EC0040D3A0F71F910F910CDC0C945205C6232E
:1014FC008566616C73659A938A93882799270895FA
:10150C00FC238474727565009A938A938FEF9FEF16
:10151C0008950E248471756974001BD91ED145D9A8
:10152C00C5DF7F7792D0E1DE59D0D7DE0A9721DA7A
:10153C00F3D904DF72D130DCA1F7CFD4C0DF6ADA83
:10154C0003206F6B59DA07D00C94960A202486700E
:10155C00726F6D7074009A938A938AE09BE00C947E
:10156C002A115A248561626F72746BD15FDFEDD8DA
:10157C000C94930A7024873F61626F72743F4ADA4D
:10158C00023F15000C94CF0A8224863F61626F7271
:10159C0074009BDA01DC19F4BFD92EDAE6DF0C9467
:1015AC006E049624D661626F727422004CDA9A93A0
:1015BC008A938EE994E20C943904B024836C697498
:1015CC00FF91EF919A938A93EE0FFF1F859195915E
:1015DC00F695E79509940A1AA36475709A938A9301
:1015EC000895121F82303C00990F880B990B0895B7
:1015FC00C824812709D14ADDBEDD0C94C50AFE241E
:10160C0084636861720000D124DD46DA0C94D71033
:10161C000C25C128D5DF29001CDD60640C946E04F8
:10162C001E2585696865726573D000CF2E25D65B43
:10163C00636861725D00E7DF0C9451108363662C64
:10164C000C9439043A2582637200BADF0D0002D083
:10165C00B7DF0A000C944C035225866372656174E3
:10166C00650077FD3AD477FD2ADFCED00FDDB6DFEB
:10167C0082DDD3DBCADCCED90F414C5245414459F3
:10168C0020444546494E454484DFA8DFE8DB67D952
:10169C0097DF1000F3DA73DF7068C6DFC6D838D076
:1016AC002ADDC7D0C3DE80DA16DDBEDF97DFC1D0FE
:1016BC0022DD03DA806801DAD6DBCBD8F4D9F0DC92
:1016CC00B3DFCDDB8F779EDAB0D880D185D800918F
:1016DC001B02003009F40C96DED47DD00CDF0C9488
:1016EC0076116625D8706F7374706F6E65008CD030
:1016FC00CDDC41DD73DF43DF77DF4EDB29F0CBD46C
:10170C009A938A9382E797E10C9439048369647005
:10171C009A938A9381E192E008958728646F6573A8
:10172C003E29F6DF83DEE3D984D080DEE9DC08963F
:10173C00EFDFE1DC45DF0C94D3D5D2D5E9DF0C9497
:10174C008110F025D5646F65733E9A938A938EE26F
:10175C0096E20C9439045026C15B50921C020895F9
:10176C006426815D60921C0208956E26813A79DFB1
:10177C00F9DF0C9454047826873A6E6F6E616D65B0
:10178C0053DF0C94B80B8426D13BE7DF61FD23C0FB
:10179C004BDF28D08C01107F105D59F08991999105
:1017AC0021D08E509449B1F48CE094E97CD90C94FE
:1017BC00811033DB9F7093FD906F48DA35DFB0D921
:1017CC00FFDEFEFF03D1FCDE0C9407D09F509695F4
:1017DC00879503C07DD8F4DE08950C947611942679
:1017EC00822D40000CD0FADE0C94BC10EC26D35B9E
:1017FC00275D00DF0C945110FA26A2322D000297BF
:10180C000895062782626C009A938A9380E290E096
:10181C00089510278573746174659A938A938091E7
:10182C001C0290911C0208952027866C61746573CC
:10183C0074009A938A9387E192E008953627827315
:10184C0030009A938A9384EE9FEF0C9405084A27F4
:10185C00827230009A938A9386EE9FEF0C9405085F
:10186C0083696E699A938A938FE092E008955C275E
:10187C00857469636B739A938A93C70108957C2767
:10188C00826D7300F8DF4CD907D58C01F8940E19D2
:10189C001F097894CAF70C9452058C27832E69641F
:1018AC001ADC8F701AD903C016DC0AD0D3DE59D1DA
:1018BC00D8F71F910F910C945205A827833E707294
:1018CC009927803012F080320AF48EE2089503DCFE
:1018DC008F70E9D803DAE7D8FEDBF7D8EED82ED92B
:1018EC0091D909DEB1DAF9D809C00E94750440D249
:1018FC0028DAD9D816D511F0989403C032D1A8F7AC
:10190C0018941F910F910CC00E947504E0DF21F018
:10191C0065DEC6DF0E94920472DF88DD0097A1F7B6
:10192C000C946E04C82785776F7264736DDFAEDB21
:10193C0055DE46DEAA2C02D07CDF78DD86DE0C94E8
:10194C008A0C3228822E73000E94920447DE0E9479
:10195C00A30377DF6BDD53DF0E947504A3D91CDA78
:10196C0019F040DFCFDAF8CF97D80C946E045028DA
:10197C008464756D70000F9623DE100031DAADD8DB
:10198C001EC063DE2BDE1CDE0400C6DA19DE3A0054
:10199C0061DE16DE0F00A1D89EDB12DE0200BCDA7F
:1019AC00E0D0D0F71F910F9140970ADE0F0095D829
:1019BC0092DB86DF4FDED5D0D8F71F910F91D1D0B7
:1019CC0000F71F910F910C9452058120A1DE0C940D
:1019DC0038067C2883783E72FC018991999109D054
:1019EC003196829392935292CF010895E028833ED0
:1019FC0078619F50969587950895FA288378613E73
:101A0C00880F991F915F089508298370666C9A93CB
:101A1C008A9380E09FE00895842C3F303D0065FD63
:101A2C0003C0CEDDA41C03C004D0CADDB01C6F7D86
:101A3C006DC0C6DDFCFFCACF0FD99F70906CCDCEA8
:101A4C00BFDD08F0CACEBCDD09F464FD9B7FC5CEBA
:101A5C001629D269660064FDECDFE1DFF4DF6F7EEE
:101A6C00E3DD49DD0C94220D5E29D4656C736500B1
:101A7C00DBDD41DDE1DF2CDC0C94480D7629D474E0
:101A8C0068656E006260D0DD18D858D8B8DEE4D82E
:101A9C0097DD00C096D81CDC0C9481108A29D56285
:101AAC006567696E0C941A0BAA29D5756E74696CEE
:101ABC00626064FDBEDFB3DFC6DF6F7E0C946A0D1F
:101ACC00B629D5616761696E6260AEDD37D897DE85
:101ADC000C94220DCE29D57768696C65BCDF0C940B
:101AEC005905E229D672657065617400EDDF0C94BE
:101AFC00480DF029D6696E6C696E65006F7E6F7D3E
:101B0C0079DD0C948C0D002A83696E2CEDDA66DD80
:101B1C0057DD0895BDD840D911F0E2D3F7CF0C941E
:101B2C006E04142AD3666F724BDDE6190E943904D9
:101B3C007BDDE1DC81DF78DD0C945905302AD46E35
:101B4C00657874009FDF3CDD6E2A0E94390478DFD3
:101B5C00BBDF36DD802A0C948C0D87286E6578747B
:101B6C002920FF91EF91BF91AF911197AF93BF9344
:101B7C00099408951F910F9108954A2A95656E64F2
:101B8C006974FF91EF911F910F915F925F9209948D
:101B9C00882AB57264726F700F910F9108959E2A06
:101BAC0083733E6497FFA7CCAFCCAC2A87646E6579
:101BBC006761746549D00E94B5040C949E05B82ADF
:101BCC00883F646E6567617465000EDDE5D809F0C9
:101BDC00F1DF0895CC2A846461627300FFDC0C94FD
:101BEC00EB0DE22A82642B00A991B991E991F9914C
:101BFC0009911991A00FB11F8E1F9F1FBA93AA9321
:101C0C000895F02A82642D00D5DF0C94FA0D102B68
:101C1C008364322F0991199195958795179507959E
:101C2C001A930A9308951C2B8364322A09911991F3
:101C3C00000F111F881F991F1A930A930895342BB4
:101C4C008764696E76657274099119910095109587
:101C5C00809590951A930A9308954C2B8364303D8C
:101C6C00A991B991892B8A2B8B2B51F48FEF9FEF74
:101C7C000895682B8364303CA991B9919030B2F3EC
:101C8C00882799270895802B82643D00BDDF0C9432
:101C9C00360E942B82643C00B7DF899199918FEFBB
:101CAC009FEF14F0809590950895A02B82643E00D0
:101CBC000E947C040C94520EB82B8375642EEBD8C6
:101CCC0003D90BD90E9402050C949204C62B826492
:101CDC002E00E1D88F939F9381DFF6D80E947D056B
:101CEC0007D9FBD80E9402050C949204DA2B867556
:101CFC006E757365640009D00E94F2030E94A405FE
:101D0C000C940806FA2B826869005ADC262C0E9477
:101D1C00E8030E9496050C94BC10FF8CFF0EFF0A82
:101D2C00122C8278400089919991FC0185919591B2
:101D3C0008952E2C82782100082F899199910E9468
:101D4C00423F0C946B10402C85706F7274629A93A6
:101D5C008A9385E290E00895542C84646472620046
:101D6C009A938A9384E290E00895662CA2407000C6
:101D7C009A938A93CA010895782C837063409A933E
:101D8C008A93CA010C94D710862C837061649A9341
:101D9C008A9380911502909116020895962CA37047
:101DAC00322B470D551D08950000866D61726B65D1
:101DBC0072000E94CD0355DC03DC000B0E94F20381
:101DCC006DDB6ED96BDB0E944B050E94DB03A9DC3B
:101DDC0049DD64DB0C9456086214856C6F61642BCE
:101DEC0070610895E62C856C6F61642D7F7E479839
:101DFC00089500FE03C0E4DB50002CDC01FE03C0A0
:101E0C00DFDB450027DC02FE03C0DADB420022DC0C
:101E1C0003FE03C0D5DB57001DDC16FE03C0D0DB70
:101E2C004D0018DC0C94920474FF01C0479876FFA7
:101E3C000CC009E3201649F4E091EC01E03029F4E0
:101E4C006092530088955092530074FD479A089500
:101E5C00F22C8374783020D20091C80005FFFBCFA0
:101E6C008093CE00899199910895E091C800E5FF87
:101E7C00FCCFF093CE0008955E2D837278300CD297
:101E8C0020D00E94D206D9F39A938A93EDEEF1E01A
:101E9C00A091EB01EA0FF51D8081992700915F005D
:101EAC00F894A395AF71A093EB01A091EC01AA95C6
:101EBC00A093EC0100935F000895862D8472783016
:101ECC003F00A091EC01A5110C948A0A0C94810A94
:101EDC001E148669666C7573680060FD0C94693F0E
:101EEC000895C82D85656D7074796ADBAA1368DB5B
:101EFC00000B66DB0C00D4D8FEDA62DB020B6BD174
:101F0C000C945C0A5524E1E0F2E03F010895801343
:101F1C00847761726D00F894AA27BB27C9E1D0E0E1
:101F2C00DD93C150E9F710905F000090540050927F
:101F3C005400B1E00091D80000610093D800A0E1FA
:101F4C005D92BA30E9F7AF3FD9F75C92BA94C7EB20
:101F5C00D2E00AE712E00DBF1EBFD4DF0E9483025D
:101F6C0009E312E018012CDBB6132ADB1B0228DB79
:101F7C001C000E94560824DB000BF8D0C5DA0E9426
:101F8C0053060E94D20609F0B0DF7092440003E0C1
:101F9C000093450009EF0093470070926E0010DB30
:101FAC0000100EDB1A0068D003E30093CC0002E0B3
:101FBC000093C80008E90093C90006E00093CA002A
:101FCC0075DA5092EC015092EA01789412DF24D029
:101FDC003F9A58D10E94D206D1F00E9410050345B9
:101FEC0053430E940205ECDAD0074CDC0E945903E3
:101FFC000E94D20649F00E945203E2DA1B000E94B2
:10200C0053060E94D20619F43DD10E9461030C9430
:10201C00BB0A1C2E837665720E94100524466C61E7
:10202C007368466F72746820352041546D65676122
:10203C00333275342032382E31312E323032340D69
:10204C000A000C940205202FA2656900789408956B
:10205C00542FA2646900F89408955E2FC23B690066
:10206C00AFDA0C943DD1ACDA5A003AD10C94B30BE4
:10207C00682F84696E742100FC01EE0F80E9E80F73
:10208C00F1E089919991B5DC0C9486107E2FC76C88
:10209C0069746572616C94DAE82438DD80930D0202
:1020AC0090930E0260689ADA982F92959F708F70B9
:1020BC00906E806815D1892F92959F708F70906E5D
:1020CC0080690C9476110E943F3F89919991A0915F
:1020DC001902A0FD44C1AF77A05FB1E08D939D9331
:1020EC0075C09A2F823E6100282F392F89919991C2
:1020FC000895F02F81219B3040F4FC018991999136
:10210C009183808389919991089509D09F30D8F655
:10211C000E9475046CD001960981088368C062FF27
:10212C00089512DC0E9410050341443F0E940205F1
:10213C006ECFFC01FF5060FF0CC0FB110AC00E2FCC
:10214C0000780A1531F4EF77E05FF1E0819191911D
:10215C000895859195910895003082613E009A937F
:10216C008A93822F932F0895663081409B3020F400
:10217C00FC018191919108959F30D8F6F999FECF89
:10218C009B5081BD92BDF89A00B5839581BDF89A9C
:10219C0090B5802F0895CDDF99270895763082630E
:1021AC0040009B3020F4FC018191992708959F30C9
:1021BC0090F7E4DF992708950E943F3F8991999108
:1021CC00A0911902AF77A05FB1E08D93616009C057
:1021DC00AA30826321009B3038F4FC0189919991DB
:1021EC0080838991999108959ADF9F3028F7F8940C
:1021FC00F999FDCF9B5081BD92BD8991999180BD7C
:10220C00FA9AF99AF999FECF7894EBCFDE3083667F
:10221C006C2D646008951A3183666C2B6B7F089566
:10222C0024318576616C75651CDA0E94F70379DAC6
:10223C000C94BC102E3185646566657212DAC0D9B7
:10224C0076240E94F7036DDA0C946B034231C26959
:10225C007300D0D90E941806E0DA0E94D20631F041
:10226C001ADFAED902300E94390401C044DF089550
:10227C005A31C2746F000C942F117E3187747572B1
:10228C006E6B65799A938A938FE092E00C941E1191
:10229C0088318570617573650E9402010E94490145
:1022AC00C3DDA895DF93CF939F938F935F934F9349
:1022BC00F101F8940EB702930DB70293B291A2916B
:1022CC001D010E910EBF0E910DBF4F915F918F911D
:1022DC009F91CF91DF9178940895361482692C00E8
:1022EC00A3D909DF0E9408040C94EC0CE831836933
:1022FC00632C9AD970DF0E94B5040C94EC0C8120ED
:10230C000E94F80733DF803111F484E209C08A306F
:10231C0011F483E205C0823011F485E201C08FE331
:10232C0008950E94730509C00E94ED020E94A40545
:10233C000E94D20611F00C94860C13DCA8F70C94B6
:10234C00820C81200E94E8033BD9D2130E9496058F
:10235C000DDF0E94710834D90F000C94DF059A939D
:10236C008A938091190290911A02EEDA0E9410055C
:10237C000441443F15000E9402050C94BB0A0895C9
:02238C000895B2
:107E00000C94910F0F921F9209911991809FD001AC
:107E1000EE27FF27909FB00DE11DF51D819FB00D4E
:107E2000E11DF51D919FE00DF11DBA93AA93CF01BD
:107E30001F900F900895E894882329F4992319F44A
:107E400068940C94910F1F92DC011990E99189912B
:107E5000999100E1FF27880F991F111CEE1FFF1F4A
:107E60001A16EB07F50518F083951A1AEB0B0A950D
:107E700089F7EA931A921F9008950C94BB119F50B2
:107E8000052D00C08093190290931A02003011F45E
:107E90009E3798F7003011F4943278F3009119026C
:107EA00000780A1105C000911A020B1101C0089553
:107EB0000E94730F009119020078A02EB0901A0250
:107EC00000E8F501A0E1B1E015911D930A95E1F7F5
:107ED00008950E94C511F8940027F501003011F4AF
:107EE000FE3738F5003011F4F43218F113E030D0D9
:107EF00011E12ED000E4A0E1B1E00F921F920D90AD
:107F00001D9011E00E94A83F32960150C1F7E05841
:107F1000F04015E00E94A83F13D000E8A058B04000
:107F200005901D9001100C94910F0150C9F71F90FE
:107F30000F900FEFB02E6E7F78940E94C6110895B7
:107F40008090570086FE089511E10E94A83FF8CF67
:107F50008090570080FCFCCF10935700E8958090EC
:087F6000570080FCFCCF0895DE
:00000001FF
