:100000000C94340F63D0000061D000005FD000007A
:100010005DD000005BD0000059D0000057D0000038
:1000200055D0000053D0000051D000004FD0000048
:100030004DD000004BD0000049D0000047D0000058
:1000400045D0000043D0000041D000003FD0000068
:100050003DD000004FC0000039D0000037D0000074
:1000600035D0000033D0000031D000002FD0000088
:100070002DD000002BD0000029D0000027D0000098
:1000800025D0000023D0000021D000001FD00000A8
:100090001DD000001BD0000019D0000017D00000B8
:1000A00015D0000013D0000011D000000FD00000C8
:1000B0000DD000009F918F911F910F91FF91EF91B3
:1000C000A991B991B0935F00B9911895BA93B09185
:1000D0005F00BA93AA93BF91AF91EF93FF930F93F1
:1000E0001F938F939F93552401E9A00FB1E0ED91E9
:1000F000FD910994BA93B0915F00E60CF51CE2CF34
:10010000B091CE00A091EC01A395A093EC01EDEE8F
:10011000F1E0A091EA01EA0FF51DB083A395AF715C
:0C012000A093EA01C7CF01000317800084
:10012C001201100102000020F0FAF0FA00000001A8
:10013C000001040309040A034600460035003000A0
:10014C0009023E0002010080320904000001020293
:10015C0001000524001001042402020524060001FC
:10016C000705820308001009040100020A000000C0
:10017C000705030208000007058402080000302D63
:10018C00847573622B000091D9000330F1F4009157
:10019C00D8000033D1F40091D70001600093D70050
:1001AC0002E100934900009149000170E1F30091D4
:1001BC00D80000680093D8000091D8000F7D009300
:1001CC00D8005092E0005092000108950091C800B0
:1001DC0005FFFCCF1093CE008C10847573622D003C
:1001EC00509200016092E00000E30093D80050921E
:1001FC0049005092D70008950091D8000039C1F4FD
:10020C000091E100087091F05092E9000091EB0030
:10021C0001600093EB005092EC0002E20093ED00C1
:10022C00509200016092EA005092EA005092E10074
:10023C000895B9D00091E8000470D1F705910093AE
:10024C00F1000091F200003209F4ACD01A95B1F72C
:10025C000091F200003061F3BAC0A5D00191009377
:10026C00F1001A95D1F7B3C00091EB000162009335
:10027C00EB0008950091D8000039D1F60091E90007
:10028C005092E9000091E8000C7091F2E1E0F1E08D
:10029C0018E08ED002EF9CD0009101010078F9F1AA
:1002AC00009102010630B1F0083029F0003041F025
:1002BC00013261F0D9CF009100010093F1007EC0B2
:1002CC005092F1007BD05092F10078C0E9E0F1E05F
:1002DC0017E0C3CF00910401013029F0023039F04E
:1002EC00033089F0C1CFECE2F1E012E1A2CFECE4F3
:1002FC00F1E000910701109108010950104019E03C
:10030C0009F01EE396CF00910501003021F4EEE3D5
:10031C00F1E014E08ECFE2E4F1E01AE08ACF009134
:10032C000201093061F0053091F10232D9F100324D
:10033C0009F09ACF37D0E9E0F1E017E039C032D0BC
:10034C007092E9006092EB0001EC0093EC0070926B
:10035C00ED0003E00093E9006092EB0000E80093ED
:10036C00EC007092ED0004E00093E9006092EB0069
:10037C0001E80093EC007092ED000CE10093EA00B0
:10038C005092EA00009103010093000127C00091F4
:10039C0003010093E30006D00091E3000068009392
:1003AC00E300089514D00091E8000170E1F3089582
:1003BC000091F10001931A95D9F7089501E0A091ED
:1003CC00E800A02BA093E80008950FE701C00EEF02
:1003DC00A091E800A023A093E800089506E90093FB
:1003EC000A015092090150920B0150920C0150924B
:1003FC000D0150920E0108E000930F010895E610D4
:10040C00847278753F0000910001003049F09A9396
:10041C008A9303E00093E9008091F20090E0089544
:10042C000C946E0A0C13837278750E94FC10009168
:10043C0000010030D1F303E00093E9000091E800E3
:10044C00007899F30BEFC4DF0091F200003029F033
:10045C009A938A938091F10090E00091F200003021
:10046C0009F4B3DF08953213837478750E94FC107D
:10047C0000910001003059F004E00093E900009174
:10048C00E800017099F3A3DF8093F1009EDF0C94D8
:10049C0065050000F0320C0B1503F22B62230002F1
:1004AC00B7027A027813361312130A00BB023A14FD
:1004BC0000000000000000003902EA16F8160817C8
:1004CC00561E641E741EF2308377642BF894A89524
:1004DC009091600098619093600087708860809321
:1004EC00600078940C946505D4138377642DF8948C
:1004FC00A8955092540008E100936000509260005F
:10050C0078940895F613A3637764A8950895000072
:10051C008465786974000F910F9108951E2D886F72
:10052C0070657261746F72000E94AB033A143902E9
:10053C000000400040005A001C148469646C650083
:10054C007064089546148462757379007F7B0895F6
:10055C005031846D73657400FC01899199910191FE
:10056C00082B02938991999108955E14846D636CA4
:10057C007200FC0189919991019180950823029355
:10058C008991999108957814866C736869667400E2
:10059C00FC018991999131971AF0880F991FFBCF23
:1005AC00089594148672736869667400FC018991CD
:1005BC00999131971AF096958795FBCF089575D53B
:1005CC0097D273D595C2B014826E3D00FC01FF50DA
:1005DC00A991B99195919F708D91891B39F49A9538
:1005EC0085910D91801B11F49A95D2F7982F08954F
:1005FC00D41484736B69700099910991A991B99184
:10060C009A9539F00D910930D9F3081709F4F8CF00
:10061C001197BA93AA93892F992701960895FE14DE
:10062C00847363616E00A82FB991E991E991F991F6
:10063C0009C08191893009F402C08A1719F43197E5
:10064C00CF0103C0BA95AAF7CF019A938A938B2F47
:10065C000196952D08952C15846D74737400FC010E
:10066C0081910991199180239927089564158346E6
:10067C0063796BD0803E8373703F8AD00E94060CE6
:10068C00C6D60E94010CC3D6D2D2FFD2DDD1035301
:10069C00503F68D708957A1584656D69740067D3E7
:1006AC000C947403A415836B657967D30C94740351
:1006BC00B215846B65793F0066D30C947403BE1538
:1006CC008765786563757465FC01FF508991999114
:1006DC00F695E7950994CC158340657898D60C94DB
:1006EC006A03E415887661726961626C65009FD05B
:1006FC00B4D0DED10C949403F01589327661726912
:10070C0061626C6594D042D70400D2D10C949403EE
:10071C00061688636F6E7374616E74000E949B0B77
:10072C000E94F60F0C94A90B1E168932636F6E7320
:10073C0074616E74CBD10E949B0B0E94F60F0E94C9
:10074C00F60F0C94A90B83286329FF91EF910CD021
:10075C00FF91EF91099483286429BF91AF91FF9188
:10076C00EF9102D0FD0109949A938A93EE0FFF1F2B
:10077C0085919591089583282C29FF91EF91F4DFB1
:10078C00F695E795EF93FF9399C0361683737040F7
:10079C00FE019A938A93CF01089598168373702162
:1007AC00EC01089583727030BF91AF910E94060CDA
:1007BC002ED68DBF9EBF89919991FD010994A816E3
:1007CC00B37270409A938A938DB79EB70895CC16E6
:1007DC00A23E3C00082F892F902F0895DC168566C9
:1007EC006C61736850921B020895EA1686656570F9
:1007FC00726F6D0070921B020895F8168372616D12
:10080C0004E000931B0208950817826470005CD703
:10081C0004D00C94AB05836373659A938A9380918F
:10082C001B02992708951617846865726500EFDF1F
:10083C000C9465103417812CFADF47D40ED00C942D
:10084C005E05421782632C00F2DF08D3A6D00C940D
:10085C005E0550178463656C6C009A938A9382E0F2
:10086C0090E00895601785616C69676EE0DF08D0D1
:10087C00CEDF0C942A10721787616C69676E656401
:10088C0001968E7F08958417A563656C6C2B029678
:10089C0008959417A563656C6C73880F991F089560
:1008AC00A017A5636861722B01960895AE17A56316
:1008BC00686172730895BA178363662C70D695D6E7
:1008CC0052D13ED163D6F00FFDD161D241F05ED64C
:1008DC000E940E9420119F509695879506C085D640
:1008EC0042D16BD7C0D19F70906D0C942011822196
:1008FC003A004CD6FAFF0C94C00CC417823240005C
:10090C004ED685D5E3D0C3DF0C940D0A081882327D
:10091C002100DCD0E5D0BBDFD8D30C942A101A18F8
:10092C00853264726F70CBD00C9465052C188432B0
:10093C0064757000D5D00C9476053A1885327377AF
:10094C006170D6D0DDD0D4D0E5D008954818857329
:10095C007061636537D70C9455035A1886737061B0
:10096C0063657300009719F0F5DF66D1FBCF0C942B
:10097C006505681884756D696E00DCDFB0D106C042
:10098C00801884756D617800D5DFA2D100D209F092
:10099C009DD00C9465058E1881319A938A9381E0D1
:1009AC0090E00895A418866163636570740098D014
:1009BC00CCD0A6D0F4D579DE8D3039F08A3041F028
:1009CC00883079F08F3769F01AC02AD047D221C00D
:1009DC0076D026D03FD2DBD1E1F07AD521D03ED2F1
:1009EC00EACF76D51DD03AD26AD0A4DF5DD1CFD173
:1009FC0011F722D129D00308200818D0DCCFCFD58D
:100A0C004EDE6ED02BD213D18FD06AD04DD1BFD148
:100A1C0091F20F910F915AD00C94B90583666372C1
:100A2C00D5D2F5FFB21884747970650069D002C014
:100A3C003CD335DE0E94900DD8F71F910F910C948A
:100A4C006505321983287322FF91EF91EE0FFF1F7A
:100A5C0005919A938A93CF01915F9A938A93802FF1
:100A6C009927E00FF91F3196F695E79509945019DF
:100A7C00D273220082DE5419B5DE05D00C94060424
:100A8C007C19822C220082D52200CDD2D0DE28D037
:100A9C00CED0F6DE0DD00C9452088E19D22E220038
:100AAC00E9DF6BDE38190895A81985616C6C6F74D9
:100ABC00AEDE0C943F06B619A464726F7000899177
:100ACC0099910895C41984737761700009911991F3
:100ADC009A938A93C8010895D219846F766572002F
:100AEC009A938A938A819B810895E61983726F7415
:100AFC0007D0ECDF0FD00C946C05F819923E720005
:100B0C00FF91EF918F939F93899199910994081A72
:100B1C0092723E00FF91EF919A938A939F918F91DD
:100B2C0009941C1A92724000FF91EF919A938A9348
:100B3C009F918F918F939F930994A62483616273E5
:100B4C002ED50C941D07481A812B09911991800FF1
:100B5C00911F0895541A826D2B000E94B10D0C94B4
:100B6C00D30D621A812D09911991081B190BC8011B
:100B7C00089500900D0210900E020895FADF009473
:100B8C001094060C151C0BD001C008D0906521D018
:100B9C0006D5812D07D0806990641BC0EADF21D770
:100BAC0020D7802D982F92958F709F708068089514
:100BBC00F5DF90670ED0F3D4812DF4DF8069906758
:100BCC0008C0ECDF906605D0EAD4812DEBDF80699C
:100BDC0090660C942011701A83616E6409911991BE
:100BEC00802391230895E41A826F72000991199160
:100BFC00802B912B0895F41A83786F7209911991B7
:100C0C00802791270895041BA6696E76657274007F
:100C1C00809590950895141B866E656761746500C8
:100C2C008095909501960895241BA2312B00019676
:100C3C000895361BA2312D0001970895401BA23256
:100C4C002B00029608954A1B853E626F64790496C8
:100C5C000C946510541BA2322A00880F991F08951A
:100C6C00621BA2322F009595879508956E1B822BDF
:100C7C0021002CDF35DFCBD368DF28DF0C942A1062
:100C8C007A1B8677697468696E002ADF6CDF38DF3F
:100C9C006ADF40DF0C946E068E1B823C3E0004D053
:100CAC000C94F507B224813D5EDF0C94F507B21B62
:100CBC00813C59DF8FEF9FEF14F08095909508954C
:100CCC00BC1B813E03DF0C945F06CE1B82753C007F
:100CDC004ADF880B990B0895D81B82753E00F6DE0F
:100CEC000C946E06E61B82217000AC0189919991DF
:100CFC000895F21B9421703E7200FF91EF914F9377
:100D0C005F93AC01899199910994001C93723E7088
:100D1C00FF91EF915F914F910994181C82704000E4
:100D2C009A938A93CA010C946510281C8270210036
:100D3C009A938A93CA010C942A10381C83706321ED
:100D4C009A938A93CA010C949B10481CA2702B0096
:100D5C00460D551D0895581C83702B2B480F591F99
:100D6C00899199910895641C8527656D69742ED1BC
:100D7C00E8FF741C84276B65790028D1EAFF801C7E
:100D8C0085276B65793F22D1ECFF833F303D00977F
:100D9C008991999108958364303D009708958C1C36
:100DAC0083756D2A0C94003FAC1C86756D2F6D6F8E
:100DBC0064000C94193FB61C85752F6D6F6488D335
:100DCC0085DE0C94193FC41C812AECDF0C9465055C
:100DDC00D41C82752F00F3DF0C940E07DE1C867575
:100DEC002A2F6D6F64008CDEDDDF94DE0C94DF0641
:100DFC00EA1C812F9FDD02DF83DEA2DE67DEA0DE30
:100E0C0065DEE9DF87DE0C941D07FE1CA36E69709E
:100E1C00099109910895181D847475636B0056DE51
:100E2C000C947605241D873F6E6567617465BDD390
:100E3C00AEDF09F0F5DE0895321D836D61787ADD41
:100E4C0038DFA4CD461D836D696E74DD3BDF9ECD0E
:100E5C00826340000C948010826321000C949B10E0
:100E6C00521D8275700071DC02006E1D84686F6CFF
:100E7C00640037D392D0FDDE90D0C9D20C949B1075
:100E8C00781D823C23008ED088D00C942A108E1DA5
:100E9C008564696769748A300CF08796C0960895EA
:100EAC009C1D812387D0B3D2A3D122DEF4DF0C9416
:100EBC003F07AE1D82237300F5DF3CDD97DE67DF55
:100ECC00D9F70895C01D82233E002DDD66D09FD238
:100EDC0069D006DE0C94B905D21D847369676E0067
:100EEC0090301AF453D32D00C4DF0C946505E61D25
:100EFC0082752E00C8DFECD2DFDFE7DF97DD0C94C4
:100F0C00B004FC1D83752E72BEDF96DEF9DDE0D2D7
:100F1C0001C0C8DFFFD5E8F71F910F91CDDFD5DFFA
:100F2C0085DD0C94B004101E812EADDF38D308DEA5
:100F3C00CFD2C2DFDDDDD4DFC8DF78DD0C94B004A6
:100F4C00341E87646563696D616C9AD233D00C94DE
:100F5C002A104E1E8368657819D310002BD00C9480
:100F6C002A10601E8362696E78DC24D00C942A10DF
:100F7C00701E85727361766529D0FEFF7E1E8575A5
:100F8C006C696E6B23D0FCFF8A1E847461736B00DA
:100F9C001DD0F2FF961E8268700018D00000A21EB1
:100FAC00837061649CD193D10C94AB05AC1E8462AC
:100FBC00617365000BD0EEFFBA1E84757365720009
:100FCC0032D34BDC2DDED6D404DE85D3FF91EF91EA
:100FDC00CBDB820D931D0895A61B82303D0001973B
:100FEC00880B990B0895C61E86736F757263650026
:100FFC0088D10C948604F41E872F737472696E6703
:10100C0065DD6EDDB0DD7CDDA0DD84DD0895041FC3
:10101C00C15CEEDF6FD159D060640C9465051C1F68
:10102C00857061727365BBD2E3DF64D1F0D1E8DF08
:10103C008F939F935DDDE0DA53DD62DD59DDF3DAEA
:10104C00009709F0F9DD66DD65DD52DD8CDD52D1EE
:10105C0010DEE5DE0C94B9052C1F84776F726400EA
:10106C00E2DF34DDE9DDDBDE0C949B10661F85636B
:10107C006D6F76652BDD41DE43DD03C016D060DE7F
:10108C0067DE48D5D8F71F910F9142DE0C946505A9
:10109C007A1F85706C6163654DDCE0DE05DC16DD66
:1010AC000C9440089E1F8363402B9A938A9301965D
:1010BC000DDD0C948010B21F82402B009A938A9302
:1010CC00029604DD0C94651081210C942A10C41F27
:1010DC00836E3E63EADF8F7038DD0C944604DC1FB0
:1010EC0083633E6E6AD35BD2B5DE0E94231027FF6A
:1010FC00C9F30895EC1F8328662970689C01FC01D4
:10110C00FF50A881B98195919F708D91891B39F4FD
:10111C009A9585910D91801B11F49A95D2F7803098
:10112C00C90171F0029777FD05C0FC01FF50859154
:10113C00959103C00E9465107F770097F9F607C060
:10114C0088839983C7DFC2DC08D049DF81600895AA
:10115C00022086696D6D65643F007CDE982E80747C
:10116C0008955E208466696E640010D2E62BC5DF9C
:10117C00009721F4A4DC39D34AD1BFDF0895702045
:10118C008664696769743F008A331CF081361AF0F3
:10119C008797C0970AF49CC102D20CDF38D10C940B
:1011AC005F068C20857369676E3F9ADC53DE082FCF
:1011BC0086DC0D3219F00B3219F003C004D091C14A
:1011CC0002D00C946E0AE9DB0C940608B0208375EF
:1011DC00642A8F939F93E6DD72DC78DC9BDCE2DD86
:1011EC0087DC0C94AB05DA208675642F6D6F640078
:1011FC0087DC6ED199DCDDDD7BDC7ADC8BDCD9DD48
:10120C000C947E05F420873E6E756D62657221E04C
:10121C000097D1F075DC8F939F931CDE8E3279F0A2
:10122C00B3DFB5DD21F44BDC75DC74DC0DC068DCA0
:10123C00C1DEEDD0CEDF6EDC90DC20E001C03FDC07
:10124C0069DC68DCC0DFE4CF820F08951221876E61
:10125C00756D6265723FA3D13BD13AD149DC25DF74
:10126C00A4DF4EDCA7DED3D04BDC3ADCF3DD839776
:10127C00833038F412DB8AD1CC1367DC2FDAA3DF8E
:10128C0001C01DDCC4DF46DC95DE1FDF80DD29F0EC
:10129C0041DC49DB48DB1CD111C00197DBDD0E942E
:1012AC00231038DC74DD09F05ED42E3221F420DCFE
:1012BC0082E090E003C003DCABDD6FDB0895847348
:1012CC00776170000C946C055A218374692360DE7D
:1012DC009ED008960C946510D6218374696205D053
:1012EC000C946510E6218374697570DEF0FFF221B1
:1012FC00833E696E6BDEFAFFFC218727736F757274
:10130C00636564DEF6FF4BD1FF91EF912DDAF69514
:10131C00E795CADC3CDD0994062289696E74657216
:10132C0070726574EEDFF5DAD3D0E4DFCEDE8DD5E6
:10133C0049D296DE34D18EDD2ADD09F464C015DF86
:10134C00009709F445C073DC44D249DE4FDC1FDD45
:10135C0099F094FE0AC03DD277DB0C434F4D5049B7
:10136C004C45204F4E4C5900FDD06F7BADD966FDDE
:10137C00DECF6F7E6F7D2AC06F7EC5DFEA1E11F057
:10138C00606120C067FF14C0BEDFE81A11F010DCEA
:10139C001DC0B9DFF81A11F014DC18C0B4DF561AEE
:1013AC0011F0ECDB13C0AFDF721A11F0EEDB0EC0E4
:1013BC006F7DA9DFAA2409F0606295FE03C00E942C
:1013CC00660D04C01ED16D7F94FC62606F77AFCF49
:1013DC006F7475DB40DF009781F0FBD1D8DC59F0DE
:1013EC00082F8991999101FF03C06CDF0E94F60FC1
:1013FC000E94F60F9CCF63DBE9CF61DB45D055DE55
:10140C0015DB66D0A6D021D50C94650581400C94D3
:10141C006510262283736862E8D1F9DFC0D01ADD2B
:10142C0067DBE4DB4FDF0C949B10202389696D6D27
:10143C00656469617465AAD040000C94120A382363
:10144C0087696E6C696E6564A1D020000C94120AD9
:10145C004C23832E73749AD03C0021D90E943211F4
:10146C001ED994D02C001BD90E945611DFDA8ED0D5
:10147C003E0015D90C947D0C823E72000C948605AE
:10148C0064D90A008364703E81D0000BBDD1F8DFB3
:10149C000C944008833E647079D0000B2EDCB4D1E0
:1014AC0075D009002DDB01DE7AD011D4F8DB6FDCAE
:1014BC0011F046DC01C003DB4BDC2CD3A0F71F91F1
:1014CC000F9126DC0C9465055E238566616C736553
:1014DC009A938A93882799270895D62384747275D2
:1014EC0065009A938A938FEF9FEF0895E823847198
:1014FC007569740059D90FD183D9C6DFBED886D08F
:10150C00EEDE4DD0E4DE0A9752DA24DA0BDF61D13D
:10151C003EDCA1F782D4C0DF97DA03206F6B86DA4A
:10152C0007D00C94830AFA238670726F6D70740066
:10153C000E94D5100A0B34248561626F72745BD1E2
:10154C0066DF2ED90C94800A4424873F61626F7247
:10155C00743F7ADA013F0C94B80A5624863F6162D4
:10156C006F727400C5DA13DC19F4F4D95FDAE7DFB3
:10157C000C9499046824D661626F727422007ADA32
:10158C00FCD8702408958224836C6974FF91EF91C8
:10159C00EBD8F695E7950994301AA36475709A9375
:1015AC008A930895E61E82303C00990F880B990BA4
:1015BC0008959424812706D153DDD7DD0C94AF0A0E
:1015CC00C024846368617200FDD02DDD78DA0C9440
:1015DC008010CE24C128DADF290025DD60640C944C
:1015EC009904E0248569686572656ED010CFF0248B
:1015FC00D65B636861725D00E7DF0C94F60F836362
:10160C00662C0C946404FC2482637200BFDF0D0012
:10161C000E945503BBDF0A000C9455031425866306
:10162C00726561746500CED01BDDB9DF9EDDF0DB29
:10163C00D6DC0ADA0F414C52454144592044454608
:10164C00494E45448FDFABDF05DCA7D99FDF100087
:10165C001CDB7FDFCADF14D937D037DDC6D0D7DE2D
:10166C00B8DA23DDC2DF9BDFC0D02FDD39DA80682A
:10167C0037DAF4DB19D92ADAFDDCB7DFEBDB8F774D
:10168C00D6DAFED877D182DF561621D9EFD8CFD84B
:10169C00C4D87DDB09F4D5DA0C9420112A25D87036
:1016AC006F7374706F6E65008DD0DADC5EDD77DF82
:1016BC0050DF7BDF6CDB21F00E94C303861689CAE6
:1016CC000C946404836964700E94AB031102872834
:1016DC00646F65733E291EDA88D099DEFBDCF4DF7B
:1016EC0096DECCDEF1DFF1DC51DF0E940E9420118E
:1016FC000E9420110FDAE8DF0C942A10AA25D56479
:10170C006F65733E0E94C303E2250E94C3036616F5
:10171C0008950A26C15B50921C0208952026815D13
:10172C0060921C0208952A26813A7DDFF9DF0C9421
:10173C007F043426873A6E6F6E616D6556DF0C94AC
:10174C00960B4026D13BE7DF61FD23C04EDF28D04E
:10175C008C01107F105D59F08991999121D08E5098
:10176C009449B1F48CE094E9B1D90C942A1050DB73
:10177C009F7093FD906F71DA38DFE7D907DFFEFFBA
:10178C00F9D004DF0C9407D09F509695879503C031
:10179C00CAD8FCDE08950C9420115026822D4000EE
:1017AC000CD0FDDE0C946510A826D35B275D03DFFF
:1017BC000C94F60FB626A2322D0002970895C2267D
:1017CC0082626C000E94AB032000CC26857374618E
:1017DC0074659A938A9380911C0290911C020895CF
:1017EC00D826866C6174657374000E94AB03170273
:1017FC00EE2682733000EADBE4FFFE2682723000B4
:10180C00E5DBE6FF83696E690E94AB030F020827D4
:10181C00857469636B739A938A93C70108951C2727
:10182C00826D7300F8DF91D9E1D48C01F8940E1914
:10183C001F097894CAF70C9465052C27832E6964CC
:10184C0034DC8F705DD903C030DC0AD0E5DE62D1A8
:10185C00D8F71F910F910C9465054827833E707241
:10186C009927803012F080320AF48EE208951DDC44
:10187C008DDE0F00B3D92AD938DA28D916DC38D93D
:10188C002FD971D9D4D924DEDADA3AD90AC00E9418
:10189C00A00416D25DDA1AD90E94441111F0989462
:1018AC0003C038D1A0F718941F910F910CC00E945F
:1018BC00A004DDDF21F073DEC3DF0E94B0047DDF06
:1018CC00A6DD0097A1F70C949904682785776F72B1
:1018DC00647378DFC5DB63DE59DEE62B02D085DF6F
:1018EC0096DD94DE0C945D0CD827822E73000E943A
:1018FC00B00455DE0E94CE037EDF89DD5EDF0E94E0
:10190C00A004D7D944DA19F04BDFF4DAF8CFD7D8E2
:10191C000C949904F6278464756D700037DE100002
:10192C005ADAEED820C072DE3ADE30DE0400ECDA91
:10193C002DDE3A0071DE2ADE0F00E2D8B6DB26DEA1
:10194C000200E2DAE7D0D0F71F910F911FDE1000F2
:10195C000AD91CDE0F00D4D8A8DB82DF5DDEDAD01A
:10196C00D8F71F910F91D6D0F0F61F910F910C94D0
:10197C0065058120A9DE0C943F06222883783E72EF
:10198C00FC018991999109D031968293929352924C
:10199C00CF0108958828833E78619F50969587954E
:1019AC000895A2288378613E880F991F915F08954E
:1019BC00B0288370666C0E94AB03000FBE28837A3C
:1019CC00666C0E94AB030000842C3F303D0065FD2B
:1019DC0003C0DCDD9A1C03C004D0D8DDA61C6F7DCF
:1019EC006FC0D4DDFCFFC6CF3ED99F70906CD3CEB8
:1019FC00CDDD08F0D0CECADD09F464FD9B7FCBCEE3
:101A0C00CA28D269660064FDECDFE1DFF4DF6F7E8B
:101A1C00ECDD5EDD0C94FA0C0E29D4656C7365005C
:101A2C00E4DD56DDE1DF4EDC0C94200D2629D47468
:101A3C0068656E006260D9DD0E94760594D8BDDEC3
:101A4C0012D9A4DD00C0D2D83DDC0C942A103A295E
:101A5C00D5626567696E0C94FB0A5C29D5756E744A
:101A6C00696C626064FDBDDFB2DFC5DF6F7E0C9414
:101A7C00430D6829D5616761696E6260B6DD0E94AD
:101A8C00B9059BDE0C94FA0C8029D57768696C65D6
:101A9C00BADF0C946C059629D6726570656174007A
:101AAC00ECDF0C94200DA429D6696E6C696E650070
:101ABC006F7E6F7D80DD0C94660DB42983696E2C6E
:101ACC00FDDA6DDD63DD0895EAD861D919F00E9465
:101ADC002011F6CF0C949904C829D3666F720E941A
:101AEC00C3030C1A82DDF4DC7FDF7FDD0C946C0504
:101AFC00E629D46E657874009DDF0E94C303202A0A
:101B0C0077DFBBDF43DD322A0C94660D87286E65C8
:101B1C0078742920FF91EF91BF91AF911197AF93FA
:101B2C00BF93099408951F910F910895FE2995650F
:101B3C006E646974FF91EF911F910F915F925F92A8
:101B4C0009943A2AB57264726F700F910F910895CF
:101B5C00502A83733E6497FFBBCCC3CC5E2A876448
:101B6C006E656761746549D00E94D3040C94B3050B
:101B7C006A2A883F646E65676174650016DD07D953
:101B8C0009F0F1DF08957E2A84646162730007DD39
:101B9C000C94C40D942A82642B00A991B991E991FB
:101BAC00F99109911991A00FB11F8E1F9F1FBA9324
:101BBC00AA930895A22A82642D00D5DF0C94D30D2C
:101BCC00C22A8364322F099119919595879517959F
:101BDC0007951A930A930895CE2A8364322A0991A1
:101BEC001991000F111F881F991F1A930A930895BA
:101BFC00E62A8764696E766572740991199100956D
:101C0C001095809590951A930A930895FE2A8364F3
:101C1C00303DA991B991892B8A2B8B2B51F48FEFE5
:101C2C009FEF08951A2B8364303CA991B9919030A1
:101C3C00B2F3882799270895322B82643D00BDDFCB
:101C4C000C940F0E462B82643C00B7DF899199915E
:101C5C008FEF9FEF14F0809590950895522B82642E
:101C6C003E000E94A7040C942B0E6A2B8375642EE5
:101C7C000AD922D92AD90E941C050C94B004782BBD
:101C8C0082642E0000D98F939F9381DF15D90E9417
:101C9C00900526D91AD90E941C050C94B0048C2BE3
:101CAC008268690073DCC02B0E9413040E94AB0590
:101CBC000C946510FF8CFF0EFF0AAC2BA240700039
:101CCC009A938A93CA010895C82B837063409A93A0
:101CDC008A93CA010C948010D62BA370322B470D1B
:101CEC00551D08950000866D61726B6572000E942F
:101CFC00F80399DC4BDC000B0E941D04C1DBBAD944
:101D0C00BFDB0E945E050E940604E5DC0E94B30363
:101D1C007BDDB6DB0C9440085214856C6F61642B30
:101D2C0070610895262C856C6F61642D7F7E4798B9
:101D3C00089500FE03C02ADC50006EDC01FE03C0D7
:101D4C0025DC450069DC02FE03C020DC420064DCBB
:101D5C0003FE03C01BDC57005FDC16FE03C016DC61
:101D6C004D005ADC0C94B00474FF01C0479876FF08
:101D7C000CC009E3201649F4E091EC01E03029F4A1
:101D8C006092530088955092530074FD479A0895C1
:101D9C00322C837478302AD20091C80005FFFBCF17
:101DAC008093CE00899199910895E091C800E5FF48
:101DBC00FCCFF093CE0008959E2C8372783016D20F
:101DCC0020D00E94CD06D9F39A938A93EDEEF1E0E0
:101DDC00A091EB01EA0FF51D8081992700915F001E
:101DEC00F894A395AF71A093EB01A091EC01AA9587
:101DFC00A093EC0100935F000895C62C8472783098
:101E0C003F00A091EC01A5110C94770A0C946E0A7A
:101E1C0012148669666C7573680060FD0C94653FDE
:101E2C000895082D85656D707479B0DB9E13AEDB5B
:101E3C00000BACDB0C000E9440080E946E0AA6DB73
:101E4C00020B0E949B100C944A0A5524E1E0F2E02C
:101E5C003F0108957413847761726D00F894AA277A
:101E6C00BB27C9E1D0E0DD93C150E9F710905F00CA
:101E7C000090540050925400B1E00091D8000061E1
:101E8C000093D800A0E15D92BA30E9F7AF3FD9F7E3
:101E9C005C92BA94C7EBD2E00AE712E00DBF1EBF0A
:101EAC00D4DF0E947D0209E312E018016FDBAA1354
:101EBC006DDB1B026BDB1C000E94400867DB000B18
:101ECC00FED00FDB0E945A060E94CD0609F0ADDF52
:101EDC007092440003E00093450009EF0093470023
:101EEC0070926E0053DB001051DB1A0069D009E1CF
:101EFC000093CC0008E90093C90006E00093CA00E7
:101F0C00C3DA0E94C9005092EC015092EA01789415
:101F1C000E949F0E25D03F9A62D10E94CD06D9F027
:101F2C000E942A05034553430E941C052FDB7017A2
:101F3C000E94180C0E9462030E94CD0649F00E9478
:101F4C005B0324DB1B000E945A060E94CD0619F489
:101F5C0046D10E946A030C94A50A622D83766572A1
:101F6C000E942A0524466C617368466F727468205F
:101F7C00352041546D656761333275342030342E11
:101F8C0030392E323032310D0A000C941C05682E7B
:101F9C00A2656900789408959C2EA2646900F89457
:101FAC000895A62EC23B6900F1DA0C9443D1EEDA07
:101FBC005A0040D10C94910BB02E84696E742100A0
:101FCC00FC01EE0F80E9E80FF1E0899199910E94F4
:101FDC00D30C0C942F10C62EC76C69746572616C8F
:101FEC00D5DAAA240E94660D80930D0290930E02FE
:101FFC0060680E94D50A982F92959F708F70906E92
:10200C00806818D1892F92959F708F70906E80691F
:10201C000C9420110E943B3F89919991A0E1B1E071
:10202C000091190200FD0C9466110F77A00F8D938F
:10203C009D9376C0E42E823E6100282F392F899122
:10204C0099910895422F81219B3040F4FC01899194
:10205C0099919183808389919991089509D09F30AA
:10206C00C8F60E94A0046DD001960981088369C04E
:10207C0062FF08950E947D0C0E942A050341443F93
:10208C000E941C0568CFFC01FF50FB110BC00E2FEA
:10209C0000780A1539F4A0E1B1E0EF77AE0F8D911D
:1020AC009D910895859195910895522F82613E00DE
:1020BC009A938A93822F932F0895B82F81409B3047
:1020CC0020F4FC018191919108959F30E0F6F999EB
:1020DC00FECF9B5081BD92BDF89A00B5839581BD12
:1020EC00F89A90B5802F0895CEDF99270895C82FC0
:1020FC00826340009B3020F4FC0181919927089564
:10210C009F3090F7E4DF992708950E943B3F899117
:10211C009991A0E1B1E0009119020F77A00F8D9376
:10212C00616009C0FC2F826321009B3038F4FC01F4
:10213C0089919991808389919991089599DF9F3024
:10214C0020F7F999FECF9B5081BD92BD8991999151
:10215C0080BDFA9AF99AF999FECFEDCF32308366A9
:10216C006C2D646008956A3083666C2B6B7F0895C8
:10217C0074308576616C756556DA0E942204ABDA90
:10218C000E94B3030C9465107E308564656665729D
:10219C004ADA0E94CC0A4A240E9422049CDA0E9449
:1021AC00B3030C9474039630C26973000E94E10A65
:1021BC000E942D060EDB0E94CD0629F011DF0E9435
:1021CC00C303542F01C040DF0895B430C2746F00B4
:1021DC000C94DC10D830877475726E6B65790E9424
:1021EC00C6100F02E2308570617573650E940201A2
:1021FC000E944001B9DDA895DF93CF939F938F93F5
:10220C005F934F93F101F8940EB702930DB70293BD
:10221C00B291A2911D010E910EBF0E910DBF4F9167
:10222C005F918F919F91CF91DF91789408952A14AB
:10223C0082692C000E94FB0A07DF0E9433040C9475
:10224C00C00C3C318369632C0E94FB0A6EDF0E9438
:10225C00D3040C94C00C81200E94E0070E946510EE
:10226C00803111F484E209C08A3011F483E205C094
:10227C00823011F485E201C08FE308950E94860537
:10228C0009C00E94E5020E94B9050E94CD0611F01A
:10229C000C94590C0E94900DA0F70C94550C8120B5
:1022AC000E9413040E94CC0AC6130E94AB050E9424
:1022BC000D0A0E945B080E94CC0A0F000C94F405D6
:1022CC009A938A938091190290911A020E947D0C24
:1022DC000E942A050341443F0E941C050C94A50A48
:0422EC0008950895B4
:107E00000F921F9209911991809FD001EE27FF27B1
:107E1000909FB00DE11DF51D819FB00DE11DF51D79
:107E2000919FE00DF11DBA93AA93CF011F900F907F
:107E30000895E894882329F4992319F468940C94FC
:107E4000340FDC011990E9918991999100E1FF27A4
:107E5000880F991F111CEE1FFF1F1A16EB07F5055F
:107E600018F083951A1AEB0B0A9589F7EA931A9280
:107E700008950C946C119F50052D00C08093190239
:107E800090931A02003011F49E3798F7003011F4E5
:107E9000933278F30091190200780A1105C000911D
:107EA0001A020B1101C008950E94130F00911902CC
:107EB0000078A02EB0901A0200E8F501A0E1B1E030
:107EC00015911D930A95E1F708950E947611F89493
:107ED0000027F501003011F4FE3738F5003011F4B9
:107EE000F33218F113E030D011E12ED000E4A0E11C
:107EF000B1E00F921F920D901D9011E00E94A43FDF
:107F000032960150C1F7E058F04015E00E94A43FBE
:107F100013D000E8A058B04005901D9001100C94BB
:107F2000340F0150C9F71F900F900FEFB02E6E7FE6
:107F300078940E94771108958090570086FE0895E6
:107F400011E10E94A43FF8CF8090570080FCFCCF45
:107F500010935700E8958090570080FCFCCF08955F
:00000001FF
