:100000000C94900F63D0000061D000005FD000001E
:100010005DD000005BD0000059D0000057D0000038
:1000200055D0000053D0000051D000004FD0000048
:100030004DD000004BD0000049D0000047D0000058
:1000400045D0000043D0000041D000003FD0000068
:100050003DD000004FC0000039D0000037D0000074
:1000600035D0000033D0000031D000002FD0000088
:100070002DD000002BD0000029D0000027D0000098
:1000800025D0000023D0000021D000001FD00000A8
:100090001DD000001BD0000019D0000017D00000B8
:1000A00015D0000013D0000011D000000FD00000C8
:1000B0000DD000009F918F911F910F91FF91EF91B3
:1000C000A991B991B0935F00B9911895BA93B09185
:1000D0005F00BA93AA93BF91AF91EF93FF930F93F1
:1000E0001F938F939F93552401E9A00FB1E0ED91E9
:1000F000FD910994BA93B0915F00E60CF51CE2CF34
:10010000B091CE00A091EC01A395A093EC01EDEE8F
:10011000F1E0A091EA01EA0FF51DB083A395AF715C
:0C012000A093EA01C7CF01000317800084
:10012C001201100102000020F0FAF0FA00000001A8
:10013C000001040309040A034600460035003000A0
:10014C0009023E0002010080320904000001020293
:10015C0001000524001001042402020524060001FC
:10016C00070582030800FF09040100020A000000D1
:10017C000705030208000007058402080000EE2DA5
:10018C00847573622B000091D9000330F1F4009157
:10019C00D8000033D1F40091D70001600093D70050
:1001AC0002E000934900009149000170E1F30091D5
:1001BC00D80000680093D8000091D8000F7D009300
:1001CC00D8005092E0005092000108950091C800B0
:1001DC0005FFFCCF1093CE008C10847573622D003C
:1001EC00509200016092E00000E30093D80050921E
:1001FC0049005092D70008950091D8000039C1F4FD
:10020C000091E100087091F05092E9000091EB0030
:10021C0001600093EB005092EC0002E20093ED00C1
:10022C00509200016092EA005092EA005092E10074
:10023C00089500910701011700910801050510F4BC
:10024C0010910701B4D00091E800047089F7059172
:10025C000093F1000091F200003209F4A7D01A9536
:10026C00B1F70091F200003019F3B8C0A0D00191A1
:10027C000093F1001A95D1F7B1C00091EB00016227
:10028C000093EB0008950091D800003989F6009195
:10029C00E9005092E9000091E8000C7049F2E1E0AD
:1002AC00F1E018E089D002EF9AD0009101010078BA
:1002BC00B9F1009102010630B1F0083029F000309C
:1002CC0041F0013261F0D9CF009100010093F100AF
:1002DC007AC05092F10077D05092F10074C0E9E0EE
:1002EC00F1E017E0C3CF00910401013029F0023096
:1002FC0039F0033049F0C1CFECE2F1E012E199CFD3
:10030C00ECE4F1E01EE395CF00910501003021F4FF
:10031C00EEE3F1E014E08DCFE2E4F1E01AE089CFF6
:10032C0000910201093079F00530A9F1003219F081
:10033C000232E1F1A2CF0091E8000470E1F3E9E0B0
:10034C00F1E017E039C04AD07092E9006092EB00FE
:10035C0001EC0093EC007092ED0003E00093E900D7
:10036C006092EB0000E80093EC007092ED0004E06A
:10037C000093E9006092EB0001E80093EC007092AE
:10038C00ED000CE10093EA005092EA0000910301A9
:10039C00009300012AC0009103010093E30006D0F2
:1003AC000091E30000680093E300089517D00091DA
:1003BC00E8000170E1F308950091F10001931A95A2
:1003CC00D9F708D00BC001E0A091E800A02BA093B6
:1003DC00E80008950BEF03C00FE701C00EEFA091EA
:1003EC00E800A023A093E800089506E900930A0111
:1003FC005092090150920B0150920C0150920D0138
:10040C0050920E0108E000930F010895E6108472DB
:10041C0078753F0000910001003049F09A938A935F
:10042C0003E00093E9008091F20090E008950C94B1
:10043C00910A1A13837278750E945211009100016F
:10044C000030D1F303E00093E9000091E80000785C
:10045C0099F3C0DF0091F200003029F09A938A934F
:10046C008091F10090E00091F200003009F4B4DFCB
:10047C0008954013837478750E9452110091000105
:10048C00003059F004E00093E9000091E80001709D
:10049C0099F3A4DF8093F1009FDF0C9462050000B8
:1004AC008E330C0B1503D82CA0230002B7027A0252
:1004BC008413441320130A00BB024A1400000000EA
:1004CC00000000003902B416C216D216861E941E05
:1004DC00A41E9E318377642BF894A89590916000AC
:1004EC009861909360008770886080936000789426
:1004FC000C946205E0138377642DF894A8955092C0
:10050C00540008E1009360005092600078940895C4
:10051C000214A3637764A895089500008465786934
:10052C0074000F910F910895DC2D886F70657261C6
:10053C00746F72009A938A938AE494E10895390255
:10054C000000400040005A0028148469646C650067
:10055C007064089556148462757379007F7B0895D6
:10056C00FA31846D73657400FC0189919991019144
:10057C00082B02938991999108956E14846D636C84
:10058C007200FC0189919991019180950823029345
:10059C008991999108958814866C736869667400C2
:1005AC00FC018991999131971AF0880F991FFBCF13
:1005BC000895A4148672736869667400FC018991AD
:1005CC00999131971AF096958795FBCF089593D50D
:1005DC008CD291D58AC2C014826E3D00A991B9917A
:1005EC00FC01FF5085918F700D90102C081A31F47E
:1005FC0085910D90081A11F41A94D1F7802D992732
:10060C000895E41484736B697000182F8991999183
:10061C00A991B991009751F00C91103211F400325C
:10062C0010F0011719F411960197F4CFBA93AA930D
:10063C0008951015847363616E00182F8991999138
:10064C00A991B991009751F00C91103211F400322C
:10065C0028F0101719F011960197F4CFBA93AA93BA
:10066C0008954015846D74737400FC018191099197
:10067C001991802399270895701583466379B1D712
:10068C00401F08958373703F68D00E94410CDED6E2
:10069C000E94380CDBD6C6D201D3CCD10353503FC9
:1006AC0089D70895861584656D69740069D30C9497
:1006BC007B03B215836B65796DD30C947B03C015EA
:1006CC00846B65793F0070D30C947B03CC158765E4
:1006DC00786563757465FC01FF5089919991F69565
:1006EC00E7950994DA1583406578B0D60C947103BC
:1006FC00F215887661726961626C65007DD092D06A
:10070C00D4D10C949B03FE158932766172696162B7
:10071C006C6572D066D70400C8D10C949B03141678
:10072C0088636F6E7374616E74000E94CE0B0E94AE
:10073C0051100C94DC0B2C168932636F6E73746140
:10074C006E74C1D10E94CE0B0E9451100E945110A8
:10075C000C94DC0B441683737040FE019A938A93BD
:10076C00CF010895621683737021EC010895837292
:10077C007030BF91AF910E94410C68D68DBF9EBF67
:10078C0089919991FD0109947216B37270409A93F4
:10079C008A938DB79EB708959616A23E3C00082FFB
:1007AC00892F902F0895A61685666C6173685092F8
:1007BC001B020895B41686656570726F6D00709299
:1007CC001B020895C2168372616D04E000931B0234
:1007DC000895D21682647000ACD704D00C94A60590
:1007EC00836373659A938A9380911B02992708956A
:1007FC00E016846865726500EFDF0C94BC10FE1681
:10080C00812CFADF88D40ED00C945B050C17826314
:10081C002C00F2DF38D3B3D00C945B051A17846329
:10082C00656C6C009A938A9382E090E008952A1785
:10083C0085616C69676EE0DF08D0CEDF0C948110A7
:10084C003C1787616C69676E656401968E7F0895AD
:10085C004E17A563656C6C2B029608955E17A56305
:10086C00656C6C73880F991F08956A17A56368618E
:10087C00722B019608957817A563686172730895B9
:10088C0084178363662CBBD6E0D668D154D1A9D625
:10089C00F00F21D291D241F0A4D60E940E94761181
:1008AC009F509695879506C0D0D658D1B9D7E4D12C
:1008BC009F70906D0C94761182213A0092D6F4FFC1
:1008CC000C94FD0C8E178232400099D6BFD5FBD00C
:1008DC00C3DF0C942C0AD21782322100F4D0FDD045
:1008EC00BBDF19D40C948110E417853264726F70DD
:1008FC00E3D00C946205F617843264757000EDD069
:10090C000C9473050418853273776170EED0F5D0B2
:10091C00ECD0FDD00895121885326F7665729A93DB
:10092C008A938E819F819A938A938E819F81089559
:10093C00241885737061636578D70C945C033E183A
:10094C008673706163657300009719F0F5DF6FD1E2
:10095C00FBCF0C9462054C1884756D696E00CFDF6B
:10096C00C7D106C0641884756D617800C8DFB9D131
:10097C0023D209F0A8D00C946205721881319A9395
:10098C008A9381E090E008958818866163636570AE
:10099C007400A3D0D5D0B1D032D68EDE8D3039F0E4
:1009AC008A3041F0883079F08F3769F01AC02AD03C
:1009BC006AD221C081D026D062D2FED1E1F0ABD573
:1009CC0021D061D2EACFA7D51DD05DD275D097DFEB
:1009DC0074D1F2D111F72BD12DD0030820081CD0E3
:1009EC00DCCF0DD663DE79D04ED21CD19AD075D027
:1009FC0064D1E2D191F20F910F9165D00C94B405B2
:100A0C00836663729A938A9385EF9FEF0C94150813
:100A1C00961884747970650070D002C06CD346DE71
:100A2C000E94C80DD8F71F910F910C9462051E19E6
:100A3C0083287322FF91EF91EE0FFF1F05919A937C
:100A4C008A93CF01915F9A938A93802F9927E00F15
:100A5C00F91F3196F695E7950994C3D5220009C381
:100A6C003C19C2732200F9DFE9D6A6D139F0B9D509
:100A7C00401909DF9CDE07D0DEDEA7DE08956E1973
:100A8C00822C2200EADFB8DE28D0CCD0DEDE0DD0FE
:100A9C0029C38C19D22E2200E6DFA3D524190C947D
:100AAC004904A01985616C6C6F7496DE0C94480631
:100ABC00B019A464726F7000899199910895BE1950
:100ACC00847377617000099119919A938A93C80184
:100ADC000895CC19846F766572009A938A938A81F3
:100AEC009B810895E01983726F7407D0ECDF0FD0EF
:100AFC000C946905F219923E7200FF91EF918F935D
:100B0C009F93899199910994021A92723E00FF91D8
:100B1C00EF919A938A939F918F910994161A9272DE
:100B2C004000EDB7FEB79A938A9393818481089520
:100B3C0006258361627363D50C9432073E1A812BB0
:100B4C0009911991800F911F08954A1A826D2B00FB
:100B5C000E94E90D0C940B0E581A812D09911991D4
:100B6C00081B190BC801089500900D0210900E027D
:100B7C000895FADF00941094060C151C0BD001C0DC
:100B8C0008D0906521D03BD5812D07D08069906429
:100B9C001BC0EADF5FD75ED7802D982F92958F70A0
:100BAC009F7080680895F5DF90670ED028D5812D51
:100BBC00F4DF8069906708C0ECDF906605D01FD524
:100BCC00812DEBDF806990660C947611661A836137
:100BDC006E6409911991802391230895DA1A826F1A
:100BEC00720009911991802B912B0895EA1A837840
:100BFC006F7209911991802791270895FA1AA669A5
:100C0C006E76657274008095909508950A1B866EB9
:100C1C0065676174650080959095019608951A1B1F
:100C2C00A2312B00019608952C1BA2312D000197A7
:100C3C000895361BA2322B0002960895401B853E68
:100C4C00626F64790496DBD409D0892B99273BDF3A
:100C5C00029604D0982B88270C94F705F7D38F7045
:100C6C009F70929508954A1BA2322A00880F991FF3
:100C7C000895741BA2322F00959587950895801BBB
:100C8C00822B210020DF29DFE1D35ADF1CDF0C94FB
:100C9C0081108C1B8677697468696E001EDF5EDFBD
:100CAC002CDF5CDF34DF0C947706A01B823C3E000B
:100CBC0004D00C941B081225813D50DF0C941B08AA
:100CCC00C41B813C4BDF8FEF9FEF14F08095909508
:100CDC000895CE1B813EF7DE0C946806E01B8275EE
:100CEC003C003CDF880B990B0895EA1B82753E0093
:100CFC00EADE0C947706F81B82217000AC01899116
:100D0C0099910895041C9421703E7200FF91EF910B
:100D1C004F935F93AC01899199910994121C937232
:100D2C003E70FF91EF915F914F9109942A1C827054
:100D3C0040009A938A93CA010C94BC103A1C82709E
:100D4C0021009A938A93CA010C9481104A1C8370D7
:100D5C0063219A938A93CA010C94F1105A1CA270C5
:100D6C002B00460D551D08956A1C83702B2B480FC4
:100D7C00591F899199910895761C8527656D697421
:100D8C009A938A9388EE9FEF0C941508861C8427FF
:100D9C006B6579009A938A938AEE9FEF0C941508F1
:100DAC009A1C85276B65793F9A938A938CEE9FEFFB
:100DBC000C941508833F303D0097899199910895C3
:100DCC008364303D00970895AE1C83756D2A0C9496
:100DDC00023FD61C86756D2F6D6F64000C941B3F03
:100DEC00E01C85752F6D6F6496D36DDE0C941B3FE4
:100DFC00EE1C812AECDF0C946205FE1C82752F0020
:100E0C00F3DF0C942307081D86752A2F6D6F640081
:100E1C0074DEDDDF7CDE0C94F406141D812F6FDD97
:100E2C00E8DE6BDE88DE4FDE86DE4DDEE9DF6FDE70
:100E3C000C943207281DA36E6970099109910895CD
:100E4C00421D847475636B003EDE0C9473054E1D5D
:100E5C00873F6E6567617465D8D3AEDF09F0DBDE62
:100E6C0008955C1D836D61784ADD2CDF81CD701D8A
:100E7C00836D696E44DD2FDF7BCD826340000C9463
:100E8C00D710826321000C94F1107C1D82757000C8
:100E9C009A938A9382E090E00895981D84686F6C11
:100EAC00640042D39ED0EEDE9CD0D0D20C94F110D4
:100EBC00A81D823C23009ED094D00C948110BE1DA2
:100ECC008564696769748A300CF08796C0960895BA
:100EDC00CC1D812397D0BAD2A2D107DEF4DF0C94BB
:100EEC005707DE1D82237300F5DF09DD7ADE64DF30
:100EFC00D9F70895F01D82233E00FADC72D0A6D2F9
:100F0C0079D0EBDD0C94B405021E847369676E0016
:100F1C0090301AF466D32D00C4DF0C946205161EB3
:100F2C0082752E00C8DFF7D2DFDFE7DF75DD0C94AA
:100F3C00A2042C1E83752E72BEDF79DEDEDDEBD2B1
:100F4C0001C0C8DF1FD6E8F71F910F91CDDFD5DFA9
:100F5C0063DD0C94A204401E812EADDF50D3EBDD7B
:100F6C00DAD2C2DFC2DDD4DFC8DF56DD0C94A204B6
:100F7C00641E87646563696D616CA0D243D00C9468
:100F8C0081107E1E836865782CD310003BD00C94A6
:100F9C008110901E8362696E45DC34D00C948110F4
:100FAC00A01E8572736176659A938A938EEF9FEF7C
:100FBC000C941508AE1E85756C696E6B9A938A93AA
:100FCC008CEF9FEF0C941508C21E847461736B0038
:100FDC009A938A9382EF9FEF0C941508D61E826821
:100FEC0070009A938A9380E090E00C941508EA1EA6
:100FFC00826862008AD181D10C94A605FC1E8462A1
:10100C00617365009A938A938EEE9FEF0C9415088A
:10101C000A1F847573657200BBD36FD393D3820D93
:10102C00931D0895B81B82303D000197880B990BD6
:10103C0008951E1F86736F757263650080D10C94C2
:10104C006B04401F872F737472696E673CDD45DD3E
:10105C0085DD53DD75DD5BDD0895501FC15CEEDF72
:10106C0063D159D060640C946205681F85706172FD
:10107C007365C5D2E3DF58D1E9D1E8DF8F939F9335
:10108C0034DDC3DA2ADD39DD30DDD7DA009709F03B
:10109C00CEDD3DDD3CDD29DD61DD46D1F3DDD4DE89
:1010AC000C94B405781F84776F726400E2DF0BDD5B
:1010BC00BEDDCADE0C94F110B21F85636D6F7665D0
:1010CC0002DD24DE1ADD03C016D043DE4ADE5AD51B
:1010DC00D8F71F910F9125DE0C946205C61F857001
:1010EC006C6163650CDCCFDEC4DBEDDC0C94660854
:1010FC00EA1F8363402B01969A938A9301970C9471
:10110C00D710FE1F82402B0002969A938A93029767
:10111C000C94BC1081210C9481101020836E3E63C2
:10112C00EADF8F700DDD0C942B04282083633E6E58
:10113C0077D365D2A4DE0E947A1027FFC9F30895F5
:10114C00382083286629A881B9819A938A9348DA32
:10115C00009751F0899199910297FC01FF5085916C
:10116C009591009781F709C0A7DC67DE48D2D8DFDC
:10117C00AADC09D05ADF03DC34DD08954E208669E1
:10118C006D6D65643F007BDE982E807408958A2017
:10119C008466696E640025D2CC2CD5DF009729F4C7
:1011AC008BDC1FD2080B52D1CEDF08959C208664B5
:1011BC00696769743F008A331CF081361AF087978F
:1011CC00C0970AF4A8C11BD21DDF40D10C9468064D
:1011DC00BA20857369676E3F80DC51DE082F6CDCAA
:1011EC000D3219F00B3219F003C004D09DC102D09E
:1011FC000C94910AC4DB0C942C08DE208375642AB1
:10120C008F939F93E4DD58DC5EDC81DCE0DD6DDCEC
:10121C000C94A60508218675642F6D6F64006DDC37
:10122C007AD17FDCDBDD61DC60DC71DCD7DD0C943A
:10123C007B052221873E6E756D62657221E00097F9
:10124C00D1F05BDC8F939F931ADE8E3279F0B3DF93
:10125C00B3DD21F431DC5BDC5ADC0DC04EDCD2DEBC
:10126C00F5D0CEDF54DC74DC20E001C025DC4FDC93
:10127C004EDCC0DFE4CF820F08954021876E756D80
:10128C006265723FBCD147D146D12FDC34DFA4DF7D
:10129C0034DCB8DEDBD031DC20DCF1DD839783304D
:1012AC0038F4E0DA9ED1D8134BDC1FDAA3DF01C08F
:1012BC0003DCC4DF2CDCA6DE2EDF7EDD29F027DC90
:1012CC0017DB16DB28D110C00197D9DD0DD71FDC39
:1012DC0073DD09F080D42E3221F407DC82E090E03B
:1012EC0003C0EADBAADD4BDB0895847377617000E1
:1012FC000C9469058821837469236ADEA7D008964B
:10130C000C94BC1002228374696205D00C94BC103E
:10131C001222837469759A938A9380EF9FEF0C94D1
:10132C0015081E22833E696E9A938A938AEF9FEF6B
:10133C000C94150830228727736F757263659A9326
:10134C008A9386EF9FEF0C941508081B190B0895D0
:10135C00422289696E74657270726574F0DFBEDA50
:10136C00DAD0E2DFD8DECDD560D2A0DE48D187DD81
:10137C0023DD09F467C00FDF009709F44AC052DC83
:10138C005DD253DE2EDC18DD99F094FE0AC056D2E5
:10139C0051DB0D434F4D50494C45204F4E4C591588
:1013AC0009D16F7B98D966FDDECF6F7E6F7D2FC024
:1013BC006F7E06E31FE1C9DF11F4606124C067FF93
:1013CC0018C00EED1AE1C1DF11F4EDDB20C00EEEFA
:1013DC001AE1BBDF11F4F0DB1AC00CE41AE1B5DF43
:1013EC0011F4C7DB14C008E61AE1AFDF11F4C8DB57
:1013FC000EC06F7D0AE015E2A8DF09F4606295FE6D
:10140C0002C095D304C02DD16D7F94FC62606F77C0
:10141C00AACF6F7451DB36DF009771F00FD2CCDCA2
:10142C0049F0082F8991999101FF02C061DF33D6F1
:10143C0032D699CF41DBEBCF3FDB48D05CDEECDA28
:10144C006AD0AED05ED50C94620581400C94BC1071
:10145C005E2283736862FED1F9DFD1D010DD45DBEB
:10146C00C0DB46DF0C94F1105E2389696D6D6564F9
:10147C0069617465B6D040000C94310A7623876993
:10148C006E6C696E6564ADD020000C94310A8A23B1
:10149C00832E7374A6D03C0009D932D707D9A1D0BA
:1014AC002C0004D90E94A811B7DA9BD03E00FED8BC
:1014BC000C94BB0C823E72000C9483059A938A9315
:1014CC008AE090E008959C238364703E8AD0000BE0
:1014DC00DAD1F4DF0C946608D423833E647081D097
:1014EC00000B14DCD0D17DD0090007DB04DE87D0E3
:1014FC0057D4DEDB61DC11F02CDC01C0DDDA31DC31
:10150C0041D3A0F71F910F910CDC0C946205E623DC
:10151C008566616C73659A938A93882799270895D9
:10152C001C248474727565009A938A938FEF9FEFD5
:10153C0008952E248471756974001BD91FD145D967
:10154C00C5DF7F77A1D892D0E0DE59D0D6DE0A97DE
:10155C0020DAF2D903DF72D12FDC99F7BDD4BFDFCB
:10156C0069DA03206F6B58DA07D00C94A60A402472
:10157C008670726F6D7074009A938A938AE09BE008
:10158C000C942A117C248561626F72746BD15EDFBE
:10159C00ECD80C94A30A9224873F61626F72743F5B
:1015AC0049DA023F15000C94E00AA424863F6162DC
:1015BC006F7274009ADA00DC19F4BED92DDAE6DF0A
:1015CC000C947E04B824D661626F727422004BDADC
:1015DC009A938A9380EC94E20C944904D224836C01
:1015EC006974FF91EF919A938A93EE0FFF1F859187
:1015FC009591F695E79509942A1AA36475709A93B8
:10160C008A930895321F82303C00990F880B990BF6
:10161C000895EA24812709D149DDBDDD0C94D60A51
:10162C00202584636861720000D123DD45DA0C94B7
:10163C00D7102E25C128D5DF29001BDD60640C9442
:10164C007E04402585696865726573D0FFCE502590
:10165C00D65B636861725D00E7DF0C9451108363A5
:10166C00662C0C9449045C2582637200BADF0D0071
:10167C0002D0B7DF0A000C945C0374258663726594
:10168C006174650077FD28D477FD29DFCED00EDD9F
:10169C00B6DF81DDD2DBC9DCCDD90F414C524541DF
:1016AC00445920444546494E454484DFA8DFE7DBD6
:1016BC0066D997DF1000F2DA73DF7068C6DFC5D821
:1016CC0038D029DDC7D0C2DE7FDA15DDBEDF97DF6B
:1016DC00C1D021DD02DA806800DAD5DBCAD8F3D9B3
:1016EC00EFDCB3DFCCDB8F779DDAAFD880D184D839
:1016FC0000911B02003009F40C96CDD47DD00BDF89
:10170C000C9476118825D8706F7374706F6E6500A9
:10171C008CD0CCDC40DD73DF43DF77DF4DDB29F091
:10172C00BAD49A938A9382E997E10C944904836919
:10173C0064709A938A9381E192E008958728646F8C
:10174C0065733E29F6DF82DEE2D984D07FDEE8DCE9
:10175C000896EFDFE0DC45DF0C94C2D5C1D5E9DF9C
:10176C000C9481101226D5646F65733E9A938A93FC
:10177C0080E596E20C9449047226C15B50921C02DF
:10178C0008958626815D60921C0208959026813A08
:10179C0079DFF9DF0C9464049A26873A6E6F6E61D8
:1017AC006D6553DF0C94C90BA626D13BE7DF61FDB9
:1017BC0023C04BDF28D08C01107F105D59F089912C
:1017CC00999121D08E509449B1F48CE094E97BD955
:1017DC000C94811032DB9F7093FD906F47DA35DFEC
:1017EC00AFD9FFDEFEFF03D1FCDE0C9407D09F5077
:1017FC009695879503C07CD8F4DE08950C947611E9
:10180C00B626822D40000CD0FADE0C94BC100E27AC
:10181C00D35B275D00DF0C9451101C27A2322D00E6
:10182C0002970895282782626C009A938A9380E22B
:10183C0090E0089532278573746174659A938A9346
:10184C0080911C0290911C0208954227866C617451
:10185C00657374009A938A9387E192E008955827F0
:10186C00827330009A938A9384EE9FEF0C94150840
:10187C006C27827230009A938A9386EE9FEF0C94B9
:10188C00150883696E699A938A938FE092E00895A4
:10189C007E27857469636B739A938A93C701089545
:1018AC009E27826D7300F8DF4BD9F6D48C01F89427
:1018BC000E191F097894CAF70C946205AE27832E73
:1018CC00696419DC8F7019D903C015DC0AD0D3DE1A
:1018DC0059D1D8F71F910F910C946205CA27833EFA
:1018EC0070729927803012F080320AF48EE20895DB
:1018FC0002DC8F70E8D802DAE6D8FDDBF6D8EDD83A
:10190C002DD990D908DEB0DAF8D809C00E94850428
:10191C0040D227DAD8D805D511F0989403C032D12B
:10192C00A8F718941F910F910CC00E948504E0DF5A
:10193C0021F065DEC6DF0E94A20472DF87DD00970E
:10194C00A1F70C947E04EA2785776F7264736DDFC0
:10195C00ADDB55DE46DECC2C02D07CDF77DD86DEBF
:10196C000C949B0C5428822E73000E94A20447DE18
:10197C000E94B30377DF6ADD53DF0E948504A2D98E
:10198C001BDA19F040DFCEDAF8CF96D80C947E042F
:10199C0072288464756D70000F9623DE100030DAA7
:1019AC00ACD81EC063DE2BDE1CDE0400C5DA19DEEB
:1019BC003A0061DE16DE0F00A0D89DDB12DE0200BD
:1019CC00BBDAE0D0D0F71F910F9140970ADE0F00E1
:1019DC0094D891DB86DF4FDED5D0D8F71F910F91CD
:1019EC00D1D000F71F910F910C9462058120A1DEDC
:1019FC000C9448069E2883783E72FC01899199913B
:101A0C0009D03196829392935292CF010895022974
:101A1C00833E78619F509695879508951C2983780D
:101A2C00613E880F991F915F08952A298370666C17
:101A3C009A938A9380E09FE00895842C3F303D0078
:101A4C0065FD03C0CEDDC41C03C004D0CADDD01CB0
:101A5C006F7D6DC0C6DDFCFFCACF0ED99F70906C38
:101A6C00CDCEBFDD08F0CACEBCDD09F464FD9B7F92
:101A7C00C5CE3829D269660064FDECDFE1DFF4DF06
:101A8C006F7EE3DD48DD0C94330D8029D4656C73D7
:101A9C006500DBDD40DDE1DF2BDC0C94590D982972
:101AAC00D47468656E006260D0DD17D857D8B8DE84
:101ABC00E3D897DD00C095D81BDC0C948110AC29C1
:101ACC00D5626567696E0C942B0BCC29D5756E7439
:101ADC00696C626064FDBEDFB3DFC6DF6F7E0C94A1
:101AEC007B0DD829D5616761696E6260AEDD36D831
:101AFC0097DE0C94330DF029D57768696C65BCDFE3
:101B0C000C946905042AD672657065617400EDDF6A
:101B1C000C94590D122AD6696E6C696E65006F7E35
:101B2C006F7D79DD0C949D0D222A83696E2CECDA85
:101B3C0066DD57DD0895BCD83FD911F0D1D3F7CF6E
:101B4C000C947E04362AD3666F724BDD061A0E9403
:101B5C0049047BDDE0DC81DF78DD0C946905522AD9
:101B6C00D46E657874009FDF3CDD902A0E94490496
:101B7C0078DFBBDF36DDA22A0C949D0D87286E65BD
:101B8C0078742920FF91EF91BF91AF911197AF938A
:101B9C00BF93099408951F910F9108956C2A956530
:101BAC006E646974FF91EF911F910F915F925F9238
:101BBC000994AA2AB57264726F700F910F910895EF
:101BCC00C02A83733E6497FFA6CCAECCCE2A876422
:101BDC006E656761746549D00E94C5040C94AE05AE
:101BEC00DA2A883F646E6567617465000EDDE4D89F
:101BFC0009F0F1DF0895EE2A846461627300FFDC62
:101C0C000C94FC0D042B82642B00A991B991E991E1
:101C1C00F99109911991A00FB11F8E1F9F1FBA93B3
:101C2C00AA930895122B82642D00D5DF0C940B0E11
:101C3C00322B8364322F09911991959587951795BD
:101C4C0007951A930A9308953E2B8364322A0991BF
:101C5C001991000F111F881F991F1A930A93089549
:101C6C00562B8764696E766572740991199100958B
:101C7C001095809590951A930A9308956E2B836412
:101C8C00303DA991B991892B8A2B8B2B51F48FEF75
:101C9C009FEF08958A2B8364303CA991B9919030C1
:101CAC00B2F3882799270895A22B82643D00BDDFEB
:101CBC000C94470EB62B82643C00B7DF8991999146
:101CCC008FEF9FEF14F0809590950895C22B82644E
:101CDC003E000E948C040C94630EDA2B8375642EE8
:101CEC00EAD802D90AD90E9412050C94A204E82B56
:101CFC0082642E00E0D88F939F9381DFF5D80E94E9
:101D0C008D0506D9FAD80E9412050C94A204FC2B5E
:101D1C0086756E757365640009D00E9402040E947A
:101D2C00B4050C9418061C2C826869005ADC482CEB
:101D3C000E94F8030E94A6050C94BC10FF8CFF0EA9
:101D4C00FF0A342C8278400089919991FC0185918D
:101D5C0095910895502C82782100082F89919991A2
:101D6C000E94423F0C946B10622C85706F727462EF
:101D7C009A938A9385E290E00895762C8464647239
:101D8C0062009A938A9384E290E00895882CA24092
:101D9C0070009A938A93CA0108959A2C83706340B9
:101DAC009A938A93CA010C94D710A82C83706164FF
:101DBC009A938A9380911502909116020895B82CEB
:101DCC00A370322B470D551D08950000866D61726E
:101DDC006B6572000E94DD0355DC03DC000B0E9476
:101DEC0002046CDB6DD96ADB0E945B050E94EB037D
:101DFC00A9DC49DD63DB0C94660800FE03C0F1DB53
:101E0C00500039DC01FE03C0ECDB450034DC02FE83
:101E1C0003C0E7DB42002FDC03FE03C0E2DB57000C
:101E2C002ADC16FE03C0DDDB4D0025DC0C94A2047D
:101E3C0076FF0CC009E3201649F4E091EC01E03088
:101E4C0029F46092530088955092530008956214BF
:101E5C008374783021D20091C80005FFFBCF8093AA
:101E6C00CE00899199910895E091C800E5FFFCCFCF
:101E7C00F093CE0008955C2D837278300DD220D073
:101E8C000E94E206D9F39A938A93EDEEF1E0A091C9
:101E9C00EB01EA0FF51D8081992700915F00F89402
:101EAC00A395AF71A093EB01A091EC01AA95A0931F
:101EBC00EC0100935F000895842D847278303F000C
:101ECC00A091EC01A5110C949A0A0C94910A1E1481
:101EDC008669666C7573680060FD0C94693F0895A3
:101EEC00C62D85656D7074797CDBAA137ADB000BCB
:101EFC0078DB0C00E5D80FDB74DB020B6CD10C9497
:101F0C006C0A5524E1E0F2E03F01089580138477D8
:101F1C0061726D00F894AA27BB27C9E1D0E0DD936C
:101F2C00C150E9F710905F0000905400509254009B
:101F3C00B1E00091D80000610093D800A0E15D925F
:101F4C00BA30E9F7AF3FD9F75C92BA94C7EBD2E05D
:101F5C000AE712E00DBF1EBFD4DF0E94830209E323
:101F6C0012E018013EDBB6133CDB1B023ADB1C0013
:101F7C000E94660836DB000BF9D0D6DA0E946306A5
:101F8C000E94E20609F0B0DF7092440003E0009377
:101F9C0045000CE70093470070926E0022DB0010A6
:101FAC0020DB1A0069D009E10093CC0002E0009319
:101FBC00C80008E90093C90006E00093CA0086DA5D
:101FCC000E94C9005092EC015092EA01789415DFFE
:101FDC0023D058D10E94E206D1F00E94200503457F
:101FEC0053430E941205FDDA70175DDC0E946903F1
:101FFC000E94E20649F00E946203F3DA1B000E9481
:10200C0063060E94E20619F43DD10E9471030C9400
:10201C00CC0A1A2E837665720E94200524466C61C8
:10202C007368466F72746820352041546D65676122
:10203C00333275342030352E30332E323032360D6B
:10204C000A000C941205202FA2656900789408955B
:10205C00542FA2646900F89408955E2FC23B690066
:10206C00C0DA0C943DD1BDDA5A003AD10C94C40BB1
:10207C00682F84696E742100FC01EE0F80E9E80F73
:10208C00F1E089919991C6DC0C9486107E2FC76C77
:10209C0069746572616CA5DA0A2549DD80930D02BD
:1020AC0090930E026068ABDA982F92959F708F70A8
:1020BC00906E806815D1892F92959F708F70906E5D
:1020CC0080690C9476110E943F3F89919991A0915F
:1020DC001902A0FD44C1AF77A05FB1E08D939D9331
:1020EC0075C09A2F823E6100282F392F89919991C2
:1020FC000895F02F81219B3040F4FC018991999136
:10210C009183808389919991089509D09F30D8F655
:10211C000E9485046CD001960981088368C062FF17
:10212C00089523DC0E9420050341443F0E941205C0
:10213C006ECFFC01FF5060FF0CC0FB110AC00E2FCC
:10214C0000780A1531F4EF77E05FF1E0819191911D
:10215C000895859195910895003082613E009A937F
:10216C008A93822F932F0895663081409B3020F400
:10217C00FC018191919108959F30D8F6F999FECF89
:10218C009B5081BD92BDF89A00B5839581BDF89A9C
:10219C0090B5802F0895CDDF99270895763082630E
:1021AC0040009B3020F4FC018191992708959F30C9
:1021BC0090F7E4DF992708950E943F3F8991999108
:1021CC00A0911902AF77A05FB1E08D93616009C057
:1021DC00AA30826321009B3038F4FC0189919991DB
:1021EC0080838991999108959ADF9F3028F7F8940C
:1021FC00F999FDCF9B5081BD92BD8991999180BD7C
:10220C00FA9AF99AF999FECF7894EBCFDE3083667F
:10221C006C2D646008951A3183666C2B6B7F089566
:10222C0024318576616C75652DDA0E9407048ADA93
:10223C000C94BC102E3185646566657223DAD1D995
:10224C0098240E9407047EDA0C947B034231C26905
:10225C007300E1D90E942806F1DA0E94E20631F0FF
:10226C001ADFBFD902300E94490401C044DF08952F
:10227C005A31C2746F000C942F117E3187747572B1
:10228C006E6B65799A938A938FE092E00C941E1191
:10229C0088318570617573650E9402010E94490145
:1022AC00C7DDA895DF93CF939F938F935F934F9345
:1022BC00F101F8940EB702930DB70293B291A2916B
:1022CC001D010E910EBF0E910DBF4F915F918F911D
:1022DC009F91CF91DF9178940895361482692C00E8
:1022EC00B4D909DF0E9418040C94FD0CE831836901
:1022FC00632CABD970DF0E94C5040C94FD0C8120BB
:10230C000E94080833DF803111F484E209C08A305E
:10231C0011F483E205C0823011F485E201C08FE331
:10232C0008950E94830509C00E94ED020E94B40525
:10233C000E94E20611F00C94970C24DCA8F70C9484
:10234C00930C81200E94F8034CD9D2130E94A6054D
:10235C000DDF0E94810845D90F000C94EF059A936C
:10236C008A938091190290911A02FFDA0E9420053B
:10237C000441443F15000E9412050C94CC0A0895A8
:02238C000895B2
:107E00000C94900F0F921F9209911991809FD001AD
:107E1000EE27FF27909FB00DE11DF51D819FB00D4E
:107E2000E11DF51D919FE00DF11DBA93AA93CF01BD
:107E30001F900F900895E894882329F4992319F44A
:107E400068940C94900F1F92DC011990E99189912C
:107E5000999100E1FF27880F991F111CEE1FFF1F4A
:107E60001A16EB07F50518F083951A1AEB0B0A950D
:107E700089F7EA931A921F9008950C94BB119F50B2
:107E8000052D00C08093190290931A02003011F45E
:107E90009E3798F7003011F4943278F3009119026C
:107EA00000780A1105C000911A020B1101C0089553
:107EB0000E94720F009119020078A02EB0901A0251
:107EC00000E8F501A0E1B1E015911D930A95E1F7F5
:107ED00008950E94C511F8940027F501003011F4AF
:107EE000FE3738F5003011F4F43218F113E030D0D9
:107EF00011E12ED000E4A0E1B1E00F921F920D90AD
:107F00001D9011E00E94A83F32960150C1F7E05841
:107F1000F04015E00E94A83F13D000E8A058B04000
:107F200005901D9001100C94900F0150C9F71F90FF
:107F30000F900FEFB02E6E7F78940E94C6110895B7
:107F40008090570086FE089511E10E94A83FF8CF67
:107F50008090570080FCFCCF10935700E8958090EC
:087F6000570080FCFCCF0895DE
:00000001FF
