:100000000C94730F63D0000061D000005FD000003B
:100010005DD000005BD0000059D0000057D0000038
:1000200055D0000053D0000051D000004FD0000048
:100030004DD000004BD0000049D0000047D0000058
:1000400045D0000043D0000041D000003FD0000068
:100050003DD000004FC0000039D0000037D0000074
:1000600035D0000033D0000031D000002FD0000088
:100070002DD000002BD0000029D0000027D0000098
:1000800025D0000023D0000021D000001FD00000A8
:100090001DD000001BD0000019D0000017D00000B8
:1000A00015D0000013D0000011D000000FD00000C8
:1000B0000DD000009F918F911F910F91FF91EF91B3
:1000C000A991B991B0935F00B9911895BA93B09185
:1000D0005F00BA93AA93BF91AF91EF93FF930F93F1
:1000E0001F938F939F93552401E9A00FB1E0ED91E9
:1000F000FD910994BA93B0915F00E60CF51CE2CF34
:10010000B091CE00A091EC01A395A093EC01EDEE8F
:10011000F1E0A091EA01EA0FF51DB083A395AF715C
:0C012000A093EA01C7CF01000317800084
:10012C001201100102000020F0FAF0FA00000001A8
:10013C000001040309040A034600460035003000A0
:10014C0009023E0002010080320904000001020293
:10015C0001000524001001042402020524060001FC
:10016C00070582030800FF09040100020A000000D1
:10017C000705030208000007058402080000AE2DE5
:10018C00847573622B000091D9000330F1F4009157
:10019C00D8000033D1F40091D70001600093D70050
:1001AC0002E100934900009149000170E1F30091D4
:1001BC00D80000680093D8000091D8000F7D009300
:1001CC00D8005092E0005092000108950091C800B0
:1001DC0005FFFCCF1093CE008C10847573622D003C
:1001EC00509200016092E00000E30093D80050921E
:1001FC0049005092D70008950091D8000039C1F4FD
:10020C000091E100087091F05092E9000091EB0030
:10021C0001600093EB005092EC0002E20093ED00C1
:10022C00509200016092EA005092EA005092E10074
:10023C000895BCD00091E8000470D1F705910093AB
:10024C00F1000091F200003209F4AFD01A95B1F729
:10025C000091F200003061F3C0C0A8D0019100936E
:10026C00F1001A95D1F7B9C00091EB00016200932F
:10027C00EB0008950091D8000039D1F60091E90007
:10028C005092E9000091E8000C7091F2E1E0F1E08D
:10029C0018E091D002EFA2D0009101010078F9F1A1
:1002AC00009102010630B1F0083029F0003041F025
:1002BC00013261F0D9CF009100010093F10082C0AE
:1002CC005092F1007FD05092F1007CC0E9E0F1E057
:1002DC0017E0C3CF00910401013029F0023039F04E
:1002EC00033089F0C1CFECE2F1E012E1A2CFECE4F3
:1002FC00F1E000910701109108010950104019E03C
:10030C0009F01EE396CF00910501003021F4EEE3D5
:10031C00F1E014E08ECFE2E4F1E01AE08ACF009134
:10032C000201093079F00530A9F1003219F00232DE
:10033C00E1F19ACF0091E8000470E1F3E9E0F1E01B
:10034C0017E039C04AD07092E9006092EB0001ECE2
:10035C000093EC007092ED0003E00093E9006092D2
:10036C00EB0000E80093EC007092ED0004E00093C9
:10037C00E9006092EB0001E80093EC007092ED0054
:10038C000CE10093EA005092EA0000910301009303
:10039C0000012AC0009103010093E30006D00091F4
:1003AC00E30000680093E300089517D00091E80083
:1003BC000170E1F308950091F10001931A95D9F7BA
:1003CC0008D00BC001E0A091E800A02BA093E8009E
:1003DC0008950BEF03C00FE701C00EEFA091E800EA
:1003EC00A023A093E800089506E900930A01509217
:1003FC00090150920B0150920C0150920D01509238
:10040C000E0108E000930F010895E61084727875D0
:10041C003F0000910001003049F09A938A9303E069
:10042C000093E9008091F20090E008950C94840A06
:10043C001813837278750E943B11009100010030F3
:10044C00D1F303E00093E9000091E800007899F300
:10045C00C0DF0091F200003029F09A938A938091CA
:10046C00F10090E00091F200003009F4B4DF08953F
:10047C003E13837478750E943B110091000100308B
:10048C0059F004E00093E9000091E800017099F341
:10049C00A4DF8093F1009FDF0C94760500006E338F
:1004AC000C0B1503702C8E230002B7027A02202D40
:1004BC00482D8C2D0A00BB024414000000000000E3
:1004CC0000003902F21600171017781E861E961EB1
:1004DC0070318377642BF894A895909160009861A3
:1004EC0090936000877088608093600078940C947F
:1004FC007605DE138377642DF894A89550925400FA
:10050C0008E1009360005092600078940895001404
:10051C00A3637764A89508950000846578697400D6
:10052C000F910F9108959C2D886F70657261746F97
:10053C0072000E94AF0344143902000040004000D6
:10054C005A0026148469646C650070640895501414
:10055C008462757379007F7B0895CE31846D7365E9
:10056C007400FC01899199910191082B0293899156
:10057C00999108956814846D636C7200FC018991E3
:10058C0099910191809508230293899199910895ED
:10059C008214866C736869667400FC018991999168
:1005AC0031971AF0880F991FFBCF08959E1486720D
:1005BC00736869667400FC018991999131971AF0FE
:1005CC0096958795FBCF089580D5A3D27ED5A1C2F1
:1005DC00BA14826E3D00FC01FF50A991B99195911E
:1005EC009F708D91891B39F49A9585910D91801B83
:1005FC0011F49A95D2F7982F0895DE1484736B69D1
:10060C00700099910991A991B991903051F00C9188
:10061C00803211F4003210F0081719F411969A95E3
:10062C00F4CFBA93AA93892F992708950815847348
:10063C0063616E009991A991A991B991903051F093
:10064C000C91803211F4003228F0801719F01196B9
:10065C009A95F4CFBA93AA93892F90E008953A15FE
:10066C00846D74737400FC0181910991199180233C
:10067C00992708956C15834663796BD0803E8373FC
:10068C00703F8AD00E941C0CD8D60E94170CD5D66D
:10069C00DFD20CD3EAD10353503F7AD70895821599
:1006AC0084656D69740074D30C947803AC15836BFA
:1006BC00657974D30C947803BA15846B65793F0013
:1006CC0073D30C947803C615876578656375746568
:1006DC00FC01FF5089919991F695E7950994D415F1
:1006EC0083406578AAD60C946E03EC1588766172FB
:1006FC006961626C65009FD0B4D0EBD10C94980307
:10070C00F81589327661726961626C6594D054D740
:10071C000400DFD10C9498030E1688636F6E73740B
:10072C00616E74000E94B10B0E9433100C94BF0BCD
:10073C0026168932636F6E7374616E74D8D10E9401
:10074C00B10B0E9433100E9433100C94BF0B832802
:10075C006329FF91EF910CD0FF91EF9109948328BD
:10076C006429BF91AF91FF91EF9102D0FD010994E3
:10077C009A938A93EE0FFF1F859195910895832884
:10078C002C29FF91EF91F4DFF695E795EF93FF930A
:10079C0099C03E1683737040FE019A938A93CF01E1
:1007AC000895A01683737021EC0108958372703044
:1007BC00BF91AF910E941C0C40D68DBF9EBF8991FA
:1007CC009991FD010994B016B37270409A938A9373
:1007DC008DB79EB70895D416A23E3C00082F892FE2
:1007EC00902F0895E41685666C61736850921B0215
:1007FC000895F21686656570726F6D0070921B021B
:10080C00089500178372616D04E000931B02089534
:10081C001017826470006ED704D00C94BC058363EF
:10082C0073659A938A9380911B02992708951E17DA
:10083C00846865726500EFDF0C94A2103C17812C64
:10084C00FADF53D40ED00C946F054A1782632C0038
:10085C00F2DF15D3B3D00C946F0558178463656C15
:10086C006C009A938A9382E090E0089568178561F2
:10087C006C69676EE0DF08D0CEDF0C9467107A17D6
:10088C0087616C69676E656401968E7F08958C171D
:10089C00A563656C6C2B029608959C17A563656C1B
:1008AC006C73880F991F0895A817A5636861722B44
:1008BC0001960895B617A563686172730895C217FF
:1008CC008363662C82D6A7D65FD14BD175D6F00F39
:1008DC000AD26ED241F070D60E940E945F119F50D6
:1008EC009695879506C097D64FD17DD7CDD19F7061
:1008FC00906D0C945F1182213A005ED6FAFF0C9435
:10090C00D70CCC178232400060D697D5F0D0C3DF1D
:10091C000C94230A101882322100E9D0F2D0BBDFEC
:10092C00E4D30C9467102218853264726F70D8D09F
:10093C000C9476053418843264757000E2D00C94F3
:10094C0087054218853273776170E3D0EAD0E1D025
:10095C00F2D00895501885326F7665729A938A9307
:10096C008E819F819A938A938E819F8108956218BC
:10097C008573706163653CD70C9459037C1886733E
:10098C00706163657300009719F0F5DF66D1FBCFDA
:10099C000C9476058A1884756D696E00CFDFB0D122
:1009AC0006C0A21884756D617800C8DFA2D100D290
:1009BC0009F09DD00C947605B01881319A938A93E6
:1009CC0081E090E00895C6188661636365707400D9
:1009DC0098D0CCD0A6D0F9D56CDE8D3039F08A30D9
:1009EC0041F0883079F08F3769F01AC02AD047D29D
:1009FC0021C076D026D03FD2DBD1E1F07FD521D0FB
:100A0C003ED2EACF7BD51DD03AD26AD097DF5DD1EA
:100A1C00CFD111F722D129D00308200818D0DCCF70
:100A2C00D4D541DE6ED02BD213D18FD06AD04DD11C
:100A3C00BFD191F20F910F915AD00C94CA058366D5
:100A4C006372D5D2F5FFD41884747970650069D0BF
:100A5C0002C03BD328DE0E94A70DD8F71F910F913F
:100A6C000C947605541983287322FF91EF91EE0FA5
:100A7C00FF1F05919A938A93CF01915F9A938A9362
:100A8C00802F9927E00FF91F3196F695E795099479
:100A9C007219D273220075DE7619A8DE05D00C947B
:100AAC000A049E19822C220087D52200CDD2C3DEE7
:100ABC0028D0CED0E9DE0DD00C946208B019D22E1D
:100ACC002200E9DF5EDE5A190895CA1985616C6C43
:100ADC006F74A1DE0C945006D819A464726F700068
:100AEC00899199910895E619847377617000099141
:100AFC0019919A938A93C8010895F419846F7665B5
:100B0C0072009A938A938A819B810895081A837242
:100B1C006F7407D0ECDF0FD00C947D051A1A923E3F
:100B2C007200FF91EF918F939F9389919991099402
:100B3C002A1A92723E00FF91EF919A938A939F9199
:100B4C008F9109943E1A92724000FF91EF919A9303
:100B5C008A939F918F918F939F930994D224836151
:100B6C00627333D50C942E076A1A812B0991199153
:100B7C00800F911F0895761A826D2B000E94C80D6C
:100B8C000C94EA0D841A812D09911991081B190BEB
:100B9C00C801089500900D0210900E020895FADF1E
:100BAC0000941094060C151C0BD001C008D0906555
:100BBC0021D00BD5812D07D0806990641BC0EADF52
:100BCC0027D726D7802D982F92958F709F7080688D
:100BDC000895F5DF90670ED0F8D4812DF4DF80698D
:100BEC00906708C0ECDF906605D0EFD4812DEBDF69
:100BFC00806990660C945F11921A83616E640991FE
:100C0C001991802391230895061B826F720009911C
:100C1C001991802B912B0895161B83786F72099173
:100C2C001991802791270895261BA6696E76657207
:100C3C007400809590950895361B866E6567617477
:100C4C0065008095909501960895461BA2312B0066
:100C5C0001960895581BA2312D0001970895621B2F
:100C6C00A2322B00029608956C1B853E626F64794C
:100C7C0004960C94A210761BA2322A00880F991F9E
:100C8C000895841BA2322F00959587950895901B8B
:100C9C00822B21002CDF35DFD0D368DF28DF0C94CA
:100CAC0067109C1B8677697468696E002ADF6CDF9D
:100CBC0038DF6ADF40DF0C947F06B01B823C3E00BD
:100CCC0004D00C940608DE24813D5EDF0C940608EB
:100CDC00D41B813C59DF8FEF9FEF14F080959095DA
:100CEC000895DE1B813E03DF0C947006F01B8275A9
:100CFC003C004ADF880B990B0895FA1B82753E0065
:100D0C00F6DE0C947F06081C82217000AC018991E0
:100D1C0099910895141C9421703E7200FF91EF91EB
:100D2C004F935F93AC01899199910994221C937212
:100D3C003E70FF91EF915F914F9109943A1C827034
:100D4C0040009A938A93CA010C94A2104A1C827098
:100D5C0021009A938A93CA010C9467105A1C8370D1
:100D6C0063219A938A93CA010C94D8106A1CA270BE
:100D7C002B00460D551D08957A1C83702B2B480FA4
:100D8C00591F899199910895861C8527656D697401
:100D9C002ED1E8FF961C84276B65790028D1EAFFD9
:100DAC00A21C85276B65793F22D1ECFF833F303D38
:100DBC0000978991999108958364303D0097089527
:100DCC00AE1C83756D2A0C94023FCE1C86756D2F5C
:100DDC006D6F64000C941B3FD81C85752F6D6F6470
:100DEC008DD385DE0C941B3FE61C812AECDF0C9422
:100DFC007605F61C82752F00F3DF0C941F07001D7F
:100E0C0086752A2F6D6F64008CDEDDDF94DE0C940A
:100E1C00F0060C1D812F92DD02DF83DEA2DE67DE81
:100E2C00A0DE65DEE9DF87DE0C942E07201DA36EA5
:100E3C0069700991099108953A1D847475636B006A
:100E4C0056DE0C948705461D873F6E656761746599
:100E5C00C2D3AEDF09F0F5DE0895541D836D6178C1
:100E6C006DDD38DFA4CD681D836D696E67DD3BDFFA
:100E7C009ECD826340000C94BD10826321000C94C3
:100E8C00D810741D8275700064DC0200901D84689B
:100E9C006F6C64003CD392D0FDDE90D0CED20C941B
:100EAC00D8109A1D823C23008ED088D00C946710E9
:100EBC00B01D8564696769748A300CF08796C0969A
:100ECC000895BE1D812387D0B8D2A8D122DEF4DFCD
:100EDC000C945007D01D82237300F5DF2FDD97DEB5
:100EEC0067DFD9F70895E21D82233E0020DD66D02E
:100EFC00A4D269D006DE0C94CA05F41D847369670C
:100F0C006E0090301AF458D32D00C4DF0C94760583
:100F1C00081E82752E00C8DFF1D2DFDFE7DF97DD18
:100F2C000C94C1041E1E83752E72BEDF96DEF9DD95
:100F3C00E5D201C0C8DF05D6E8F71F910F91CDDFD0
:100F4C00D5DF85DD0C94C104321E812EADDF3DD37F
:100F5C0008DED4D2C2DFDDDDD4DFC8DF78DD0C944F
:100F6C00C104561E87646563696D616C9FD233D072
:100F7C000C946710701E836865781ED310002BD0FC
:100F8C000C946710821E8362696E6BDC24D00C9407
:100F9C006710921E85727361766529D0FEFFA01EC4
:100FAC0085756C696E6B23D0FCFFAC1E8474617309
:100FBC006B001DD0F2FFB81E8268700018D00000C4
:100FCC00C41E82686200A1D198D10C94BC05CE1EBF
:100FDC008462617365000BD0EEFFDC1E8475736553
:100FEC00720037D33EDC2DDEDCD404DE8AD3FF91D5
:100FFC00EF91BEDB820D931D0895C81B82303D001E
:10100C000197880B990B0895E81E86736F757263B0
:10101C0065008DD10C948A04161F872F7374726926
:10102C006E6765DD6EDDB0DD7CDDA0DD84DD0895F1
:10103C00261FC15CEEDF74D158D060640C94760529
:10104C003E1F857061727365C0D2E3DF69D1F5D143
:10105C00E8DF8F939F935DDDD4DA53DD62DD59DDDC
:10106C00E9DA009709F0F9DD66DD65DD52DD8CDD2E
:10107C0057D110DEE5DE0C94CA054E1F84776F72D3
:10108C006400E2DF61D618D00C94AA0E881F856329
:10109C006D6F76652CDD42DE44DD03C016D061DE5B
:1010AC0068DE4FD5D8F71F910F9143DE0C9476056F
:1010BC009A1F85706C61636541DCE1DEF9DB17DD3D
:1010CC000C945008BE1F8363402B9A938A9301960D
:1010DC000EDD0C94BD10D21F82402B009A938A9384
:1010EC00029605DD0C94A21081210C946710E41F6C
:1010FC00836E3E63EADF8F7039DD0C944A04FC1F6B
:10110C0083633E6E70D361D2B6DE0E94601027FFFF
:10111C00C9F308950C208328662960FD24D09C0116
:10112C00FC01FF50A881B98195919F708D91891B0D
:10113C0039F49A9585910D91801B11F49A95D2F7FB
:10114C008030C90141F00297FC01FF5085919591C7
:10115C00009729F707C088839983CCDFC8DC13D0AC
:10116C004FDF81600895092F0F500B1531F4082FB4
:10117C0000780A1511F40E94673F089522208669B1
:10118C006D6D65643F0077DE982E807408958A201B
:10119C008466696E640010D2642CBFDF009721F462
:1011AC009FDC39D34AD1B9DF08959C2086646967E6
:1011BC0069743F008A331CF081361AF08797C09708
:1011CC000AF49CC102D207DF38D10C947006B82007
:1011DC00857369676E3F95DC4EDE082F81DC0D321E
:1011EC0019F00B3219F003C004D091C102D00C9449
:1011FC00840AE4DB0C941708DC208375642A8F9333
:10120C009F93E1DD6DDC73DC96DCDDDD82DC0C9420
:10121C00BC0506218675642F6D6F640082DC6ED16F
:10122C0094DCD8DD76DC75DC86DCD4DD0C948F05A3
:10123C002021873E6E756D62657221E00097D1F0BA
:10124C0070DC8F939F9317DE8E3279F0B3DFB0DDB5
:10125C0021F446DC70DC6FDC0DC063DCBCDEEDD051
:10126C00CEDF69DC8BDC20E001C03ADC64DC63DCC3
:10127C00C0DFE4CF820F08953E21876E756D6265E5
:10128C00723FA3D13BD13AD144DC1FDFA4DF49DC50
:10129C00A2DED3D046DC35DCEEDD8397833038F428
:1012AC0000DB8AD1D61362DC1DDAA3DF01C018DCA7
:1012BC00C4DF41DC90DE19DF7BDD29F03CDC37DB61
:1012CC0036DB1CD111C00197D6DD0E94601033DCD7
:1012DC006FDD09F05FD42E3221F41BDC82E090E04C
:1012EC0003C0FEDBA6DD6ADB0895847377617000B2
:1012FC000C947D058621837469235BDE9ED0089651
:10130C000C94A21002228374696205D00C94A21072
:10131C001222837469756BDEF0FF1E22833E696EA8
:10132C0066DEFAFF28228727736F757263655FDEAE
:10133C00F6FF4BD1FF91EF911BDAF695E795C5DCE3
:10134C0037DD0994322289696E7465727072657426
:10135C00EEDFE3DAD3D0E4DFC8DEB6D549D291DED6
:10136C0034D189DD25DD09F464C015DF009709F45B
:10137C0045C06EDC44D244DE4ADC1ADD99F094FEA2
:10138C000AC03DD272DB0C434F4D50494C45204FA7
:10139C004E4C5900FDD06F7B9BD966FDDECF6F7E26
:1013AC006F7D2AC06F7EC5DF0C1F11F0606120C0FD
:1013BC0067FF14C0BEDF0A1B11F00BDC1DC0B9DFC8
:1013CC001A1B11F00FDC18C0B4DF781A11F0E7DB30
:1013DC0013C0AFDF941A11F0E9DB0EC06F7DA9DFEB
:1013EC00D62409F0606295FE03C00E947D0D04C0F6
:1013FC001ED16D7F94FC62606F77AFCF6F7470DB22
:10140C0040DF009781F0FBD1D3DC59F0082F899194
:10141C00999101FF03C06CDF0E9433100E943310BE
:10142C009CCF5EDBE9CF5CDB45D04FDE10DB66D0BA
:10143C00A6D04AD50C94760581400C94A210522269
:10144C0083736862E8D1F9DFC0D015DD62DBDFDBC6
:10145C004FDF0C94D8104C2389696D6D65646961FC
:10146C007465AAD040000C94280A642387696E6CBA
:10147C00696E6564A1D020000C94280A7823832E11
:10148C0073749AD03C000FD90E9471110CD994D06E
:10149C002C0009D90E949511DADA8ED03E0003D9BE
:1014AC000C94930C823E72000C94970552D90A004E
:1014BC008364703E81D0000BBDD1F8DF0C945008D2
:1014CC00833E647079D0000B29DCB4D175D009004F
:1014DC0028DBFBDD7AD030D4F3DB6ADC11F041DCA5
:1014EC0001C0FEDA46DC2DD3A0F71F910F9121DC51
:1014FC000C9476058A238566616C73659A938A933E
:10150C0088279927089502248474727565009A932C
:10151C008A938FEF9FEF089514248471756974007A
:10152C0047D90FD171D9C6DFACD886D0EEDE4DD0FD
:10153C00E4DE0A974DDA1FDA0BDF61D139DCA1F753
:10154C00ABD4C0DF92DA03206F6B81DA07D00C9436
:10155C00990A26248670726F6D7074000E941411A3
:10156C000A0B60248561626F72745BD166DF1CD9D3
:10157C000C94960A7024873F61626F72743F75DA1F
:10158C00013F0C94CE0A8224863F61626F72740014
:10159C00C0DA0EDC19F4EFD95ADAE7DF0C949D04AB
:1015AC009424D661626F7274220075DAEAD89C2496
:1015BC000895AE24836C6974FF91EF91D9D8F69598
:1015CC00E7950994521AA36475709A938A930895B7
:1015DC00081F82303C00990F880B990B0895C0248A
:1015EC00812706D14EDDD7DD0C94C50AEC2484632B
:1015FC0068617200FDD028DD73DA0C94BD10FA24FA
:10160C00C128DADF290020DD60640C949D040C25D0
:10161C008569686572656ED010CF1C25D65B6368D2
:10162C0061725D00E7DF0C9433108363662C0C94BD
:10163C006804282582637200BFDF0D000E945903E5
:10164C00BBDF0A000C9459034025866372656174F4
:10165C006500CED016DDB9DF9EDDEBDBD1DC05DA23
:10166C000F414C524541445920444546494E45444E
:10167C008FDFABDF00DCA2D99FDF100017DB7FDF31
:10168C00CADF02D937D031DDC6D0D7DEB3DA1DDDE3
:10169C00C2DF9BDFC0D029DD34DA806832DAEFDBC1
:1016AC0007D925DAF7DCB7DFE6DB8F77D1DAECD8B0
:1016BC0078D182DF5E160FD9DDD8BDD8B2D878DBF1
:1016CC0009F4D0DA0C945F115625D8706F737470CE
:1016DC006F6E65008DD0D5DC5EDD77DF50DF7BDF94
:1016EC0067DB21F00E94C7038E1684CA0C94680431
:1016FC00836964700E94AF0311028728646F65735D
:10170C003E2919DA88D099DEF5DCF4DF96DECCDEE2
:10171C00F1DFEBDC51DF0E940E945F110E945F1130
:10172C000ADAE8DF0C946710D625D5646F65733E32
:10173C000E94C7030E260E94C7036E160895362614
:10174C00C15B50921C0208954C26815D60921C0274
:10175C0008955626813A7DDFF9DF0C9483046026C8
:10176C00873A6E6F6E616D6556DF0C94AC0B6C2610
:10177C00D13BE7DF61FD23C04EDF28D08C01107F09
:10178C00105D59F08991999121D08E509449B1F402
:10179C008CE094E9ACD90C9467104BDB9F7093FDF3
:1017AC00906F6CDA38DFE2D907DFFEFFFAD004DF86
:1017BC000C9407D09F509695879503C0B8D8FCDE43
:1017CC0008950C945F117C26822D40000CD0FDDE18
:1017DC000C94A210D426D35B275D03DF0C9433103A
:1017EC00E226A2322D0002970895EE2682626C004A
:1017FC000E94AF032000F8268573746174659A9378
:10180C008A9380911C0290911C0208950427866C87
:10181C006174657374000E94AF0317021A278273F8
:10182C003000E5DBE4FF2A2782723000E0DBE6FFC4
:10183C0083696E690E94AF030F0234278574696354
:10184C006B739A938A93C70108954827826D73002E
:10185C00F8DF8CD90AD58C01F8940E191F097894ED
:10186C00CAF70C9476055827832E69642EDC8F708A
:10187C0058D903C02ADC0AD0E5DE63D1D8F71F9112
:10188C000F910C9476057427833E707299278030E3
:10189C0012F080320AF48EE2089517DC8DDE0F0010
:1018AC00AED925D933DA23D910DC33D92AD96CD95E
:1018BC00CFD924DED5DA35D90AC00E94A40435D29A
:1018CC0058DA15D90E94831111F0989403C039D1BC
:1018DC00A0F718941F910F910CC00E94A404DDDF97
:1018EC0021F073DEC3DF0E94C1047DDFA6DD00970B
:1018FC00A1F70C949D04942785776F72647378DF3D
:10190C00C0DB63DE59DE642C02D085DF96DD94DE0D
:10191C000C94730C0428822E73000E94C10455DEB3
:10192C000E94D2037EDF89DD5EDF0E94A404D2D93F
:10193C003FDA19F04BDFEFDAF8CFD2D80C949D04D4
:10194C0022288464756D70000F9636DE100054DA10
:10195C00E8D820C071DE39DE2FDE0400E6DA2CDE9A
:10196C003A0070DE29DE0F00DCD8AFDB25DE02008A
:10197C00DCDAE7D0D0F71F910F911EDE100004D9EE
:10198C001BDE0F00CED8A1DB81DF5CDEDAD0D8F70E
:10199C001F910F91D6D0F0F61F910F910C947605F4
:1019AC008120A8DE0C9450064E2883783E72FC01F0
:1019BC008991999109D03196829392935292CF0149
:1019CC000895B628833E78619F5096958795089523
:1019DC00D0288378613E880F991F915F0895DE2887
:1019EC008370666C0E94AF03000FEC28837A666CE0
:1019FC000E94AF030000842C3F303D0065FD03C006
:101A0C00DBDDBC1C03C004D0D7DDC81C6F7D6FC0F0
:101A1C00D3DDFCFFC6CF38D99F70906CD2CECCDD15
:101A2C0008F0CFCEC9DD09F464FD9B7FCACEF8283F
:101A3C00D269660064FDECDFE1DFF4DF6F7EEBDD85
:101A4C005DDD0C94110D3C29D4656C736500E3DDF0
:101A5C0055DDE1DF4DDC0C94370D5429D4746865E9
:101A6C006E006260D8DD0E9487058ED8BCDE0CD972
:101A7C00A3DD00C0CCD83CDC0C9467106829D5627F
:101A8C006567696E0C94110B8A29D5756E74696C37
:101A9C00626064FDBDDFB2DFC5DF6F7E0C945A0D52
:101AAC009629D5616761696E6260B5DD0E94CA05D1
:101ABC009ADE0C94110DAE29D57768696C65BADF86
:101ACC000C947D05C429D672657065617400ECDFD9
:101ADC000C94370DD229D6696E6C696E65006F7ED9
:101AEC006F7D7FDD0C947D0DE22983696E2CF6DA17
:101AFC006CDD62DD0895E4D85BD919F00E945F11AA
:101B0C00F6CF0C949D04F629D3666F720E94C7031E
:101B1C002E1A81DDF3DC7FDF7EDD0C947D05142A2B
:101B2C00D46E657874009DDF0E94C7034E2A77DF60
:101B3C00BBDF42DD602A0C947D0D87286E657874BE
:101B4C002920FF91EF91BF91AF911197AF93BF9364
:101B5C00099408951F910F9108952C2A95656E6430
:101B6C006974FF91EF911F910F915F925F920994AD
:101B7C00682AB57264726F700F910F9108957E2A66
:101B8C0083733E6497FFBACCC2CC8C2A87646E6593
:101B9C006761746549D00E94E4040C94C405982ACA
:101BAC00883F646E65676174650015DD01D909F0C5
:101BBC00F1DF0895AC2A84646162730006DD0C9435
:101BCC00DB0DC22A82642B00A991B991E991F9919C
:101BDC0009911991A00FB11F8E1F9F1FBA93AA9341
:101BEC000895D02A82642D00D5DF0C94EA0DF02ADA
:101BFC008364322F099119919595879517950795BF
:101C0C001A930A930895FC2A8364322A0991199134
:101C1C00000F111F881F991F1A930A930895142BF4
:101C2C008764696E766572740991199100951095A7
:101C3C00809590951A930A9308952C2B8364303DCC
:101C4C00A991B991892B8A2B8B2B51F48FEF9FEF94
:101C5C000895482B8364303CA991B9919030B2F32C
:101C6C00882799270895602B82643D00BDDF0C9472
:101C7C00260E742B82643C00B7DF899199918FEF0B
:101C8C009FEF14F0809590950895802B82643E0010
:101C9C000E94AB040C94420E982B8375642E04D9CD
:101CAC001CD924D90E942D050C94C104A62B826446
:101CBC002E00FAD88F939F9381DF0FD90E94A10534
:101CCC0020D914D90E942D050C94C104BA2B867509
:101CDC006E757365640009D00E9421040E94CA05C8
:101CEC000C942E06DA2B8268690066DC062C0E94A6
:101CFC0017040E94BC050C94A210FF8CFF0EFF0A67
:101D0C00F22B85706F7274629A938A9385E290E0DD
:101D1C0008950E2C8464647262009A938A9384E210
:101D2C0090E00895202CA24070009A938A93CA01E7
:101D3C000895322C837063409A938A93CA010C9451
:101D4C00BD10402C837061649A938A938091150224
:101D5C00909116020895502CA370322B470D551DEF
:101D6C0008950000866D61726B6572000E94FC0321
:101D7C0070DC22DC000B0E94210498DB8BD996DBF3
:101D8C000E946F050E940A04BCDC0E94B70352DD5E
:101D9C008DDB0C9450085C14856C6F61642B706146
:101DAC000895A42C856C6F61642D7F7E47980895EF
:101DBC0000FE03C001DC500045DC01FE03C0FCDB6F
:101DCC00450040DC02FE03C0F7DB42003BDC03FEB7
:101DDC0003C0F2DB570036DC16FE03C0EDDB4D0012
:101DEC0031DC0C94C10474FF01C0479876FF0CC021
:101DFC0009E3201649F4E091EC01E03029F46092FB
:101E0C00530088955092530074FD479A0895B02C56
:101E1C00837478302AD20091C80005FFFBCF8093E1
:101E2C00CE00899199910895E091C800E5FFFCCF0F
:101E3C00F093CE0008951C2D8372783016D220D0EA
:101E4C000E94DE06D9F39A938A93EDEEF1E0A0910D
:101E5C00EB01EA0FF51D8081992700915F00F89442
:101E6C00A395AF71A093EB01A091EC01AA95A0935F
:101E7C00EC0100935F000895442D847278303F008C
:101E8C00A091EC01A5110C948D0A0C94840A1C14DD
:101E9C008669666C7573680060FD0C94673F0895E5
:101EAC00862D85656D70747987DBA81385DB000B37
:101EBC0083DB0C000E9450080E94840A7DDB020B1D
:101ECC000E94D8100C94600A5524E1E0F2E03F0126
:101EDC0008957E13847761726D00F894AA27BB274E
:101EEC00C9E1D0E0DD93C150E9F710905F0000909C
:101EFC00540050925400B1E00091D800006100935E
:101F0C00D800A0E15D92BA30E9F7AF3FD9F75C9207
:101F1C00BA94C7EBD2E00AE712E00DBF1EBFD4DFC4
:101F2C000E94820209E312E0180146DBB41344DB81
:101F3C001B0242DB1C000E9450083EDB000BFCD055
:101F4C00E6DA0E946B060E94DE0609F0ADDF7092A5
:101F5C00440003E00093450009EF009347007092A2
:101F6C006E002ADB001028DB1A0067D009E1009311
:101F7C00CC0008E90093C90006E00093CA009ADA85
:101F8C005092EC015092EA0178940E94DE0E25D01A
:101F9C003F9A64D10E94DE06D9F00E943B050345AE
:101FAC0053430E942D0508DBD0070E942E0C0E9483
:101FBC0066030E94DE0649F00E945F03FDDA1B00F7
:101FCC000E946B060E94DE0619F448D10E946E0333
:101FDC000C94BB0AE02D837665720E943B05244667
:101FEC006C617368466F72746820352041546D655E
:101FFC006761333275342030312E30342E3230322A
:10200C00330D0A000C942D05E22EA265690078941C
:10201C000895162FA2646900F8940895202FC23BEE
:10202C006900CADA0C9445D1C7DA5A0042D10C9433
:10203C00A70B2A2F84696E742100FC01EE0F80E936
:10204C00E80FF1E0899199910E94EA0C0C946C10C4
:10205C00402FC76C69746572616CAEDAD6240E942D
:10206C007D0D80930D0290930E0260680E94EB0A26
:10207C00982F92959F708F70906E80681AD1892FCF
:10208C0092959F708F70906E80690C945F110E9476
:10209C003D3F89919991A0E1B1E00091190200FDB9
:1020AC000C94A5110F77A00F8D939D9376C05E2F86
:1020BC00823E6100282F392F899199910895BC2F68
:1020CC0081219B3040F4FC0189919991918380830B
:1020DC0089919991089509D09F30C8F60E94A40463
:1020EC006DD001960981088369C062FF08950E9432
:1020FC00930C0E943B050341443F0E942D0568CF81
:10210C00FC01FF50FB110BC00E2F00780A1539F49F
:10211C00A0E1B1E0EF77AE0F8D919D91089585917F
:10212C0095910895CC2F82613E009A938A93822FC9
:10213C00932F0895323081409B3020F4FC01819123
:10214C00919108959F30E0F6F999FECF9B5081BD97
:10215C0092BDF89A00B5839581BDF89A90B5802F01
:10216C000895CEDF992708954230826340009B305A
:10217C0020F4FC018191992708959F3090F7E4DFBA
:10218C00992708950E943D3F89919991A0E1B1E072
:10219C00009119020F77A00F8D93616009C0763002
:1021AC00826321009B3038F4FC01899199918083E2
:1021BC0089919991089599DF9F3020F7F894F999B6
:1021CC00FDCF9B5081BD92BD8991999180BDFA9AAA
:1021DC00F99AF999FECF7894EBCFAC3083666C2DDD
:1021EC0064600895E83083666C2B6B7F0895F23041
:1021FC008576616C75652DDA0E94260482DA0E9460
:10220C00B7030C94A210FC3085646566657221DA04
:10221C000E94E20A76240E94260473DA0E94B70315
:10222C000C9478031431C26973000E94F70A0E945F
:10223C003E06E5DA0E94DE0629F00FDF0E94C70396
:10224C00CE2F01C03EDF08953231C2746F000C9462
:10225C001B115631877475726E6B65790E9405116E
:10226C000F0260318570617573650E9402010E94D6
:10227C004001B9DDA895DF93CF939F938F935F9324
:10228C004F93F101F8940EB702930DB70293B291EC
:10229C00A2911D010E910EBF0E910DBF4F915F913A
:1022AC008F919F91CF91DF91789408953414826926
:1022BC002C000E94110B05DF0E9437040C94D70CE4
:1022CC00BA318369632C0E94110B6CDF0E94E40409
:1022DC000C94D70C81200E94F1070E94A21080312F
:1022EC0011F484E209C08A3011F483E205C0823013
:1022FC0011F485E201C08FE308950E94970509C08F
:10230C000E94EA020E94CA050E94DE0611F00C949B
:10231C006F0C0E94A70DA0F70C946B0C81200E94EF
:10232C0017040E94E20AD0130E94BC050E94230AE3
:10233C000E946B080E94E20A0F000C9405069A9307
:10234C008A938091190290911A020E94930C0E9418
:10235C003B050341443F0E942D050C94BB0A089594
:02236C000895D2
:107E00000C94730F0F921F9209911991809FD001CA
:107E1000EE27FF27909FB00DE11DF51D819FB00D4E
:107E2000E11DF51D919FE00DF11DBA93AA93CF01BD
:107E30001F900F900895E894882329F4992319F44A
:107E400068940C94730FDC011990E99189919991D0
:107E500000E1FF27880F991F111CEE1FFF1F1A1644
:107E6000EB07F50518F083951A1AEB0B0A9589F7BD
:107E7000EA931A9208950C94AB119F50052D00C0FF
:107E80008093190290931A02003011F49E3798F7EC
:107E9000003011F4943278F30091190200780A113D
:107EA00005C000911A020B1101C008950E94520FE3
:107EB000009119020078A02EB0901A0200E8F50196
:107EC000A0E1B1E015911D930A95E1F708950E9494
:107ED000B511F8940027F501003011F4FE3738F59C
:107EE000003011F4F43218F113E030D011E12ED04B
:107EF00000E4A0E1B1E00F921F920D901D9011E0FF
:107F00000E94A63F32960150C1F7E058F04015E0BC
:107F10000E94A63F13D000E8A058B04005901D90E5
:107F200001100C94730F0150C9F71F900F900FEFC1
:107F3000B02E6E7F78940E94B611089580905700FD
:107F400086FE089511E10E94A63FF8CF8090570069
:107F500080FCFCCF10935700E8958090570080FC80
:047F6000FCCF0895B5
:00000001FF
