:100000000C944B0F63D0000061D000005FD0000063
:100010005DD000005BD0000059D0000057D0000038
:1000200055D0000053D0000051D000004FD0000048
:100030004DD000004BD0000049D0000047D0000058
:1000400045D0000043D0000041D000003FD0000068
:100050003DD000004FC0000039D0000037D0000074
:1000600035D0000033D0000031D000002FD0000088
:100070002DD000002BD0000029D0000027D0000098
:1000800025D0000023D0000021D000001FD00000A8
:100090001DD000001BD0000019D0000017D00000B8
:1000A00015D0000013D0000011D000000FD00000C8
:1000B0000DD000009F918F911F910F91FF91EF91B3
:1000C000A991B991B0935F00B9911895BA93B09185
:1000D0005F00BA93AA93BF91AF91EF93FF930F93F1
:1000E0001F938F939F93552401E9A00FB1E0ED91E9
:1000F000FD910994BA93B0915F00E60CF51CE2CF34
:10010000B091CE00A091EC01A395A093EC01EDEE8F
:10011000F1E0A091EA01EA0FF51DB083A395AF715C
:0C012000A093EA01C7CF01000317800084
:10012C001201100102000020F0FAF0FA00000001A8
:10013C000001040309040A034600460035003000A0
:10014C0009023E0002010080320904000001020293
:10015C0001000524001001042402020524060001FC
:10016C00070582030800FF09040100020A000000D1
:10017C0007050302080000070584020800005E2D35
:10018C00847573622B000091D9000330F1F4009157
:10019C00D8000033D1F40091D70001600093D70050
:1001AC0002E100934900009149000170E1F30091D4
:1001BC00D80000680093D8000091D8000F7D009300
:1001CC00D8005092E0005092000108950091C800B0
:1001DC0005FFFCCF1093CE008C10847573622D003C
:1001EC00509200016092E00000E30093D80050921E
:1001FC0049005092D70008950091D8000039C1F4FD
:10020C000091E100087091F05092E9000091EB0030
:10021C0001600093EB005092EC0002E20093ED00C1
:10022C00509200016092EA005092EA005092E10074
:10023C000895BCD00091E8000470D1F705910093AB
:10024C00F1000091F200003209F4AFD01A95B1F729
:10025C000091F200003061F3C0C0A8D0019100936E
:10026C00F1001A95D1F7B9C00091EB00016200932F
:10027C00EB0008950091D8000039D1F60091E90007
:10028C005092E9000091E8000C7091F2E1E0F1E08D
:10029C0018E091D002EFA2D0009101010078F9F1A1
:1002AC00009102010630B1F0083029F0003041F025
:1002BC00013261F0D9CF009100010093F10082C0AE
:1002CC005092F1007FD05092F1007CC0E9E0F1E057
:1002DC0017E0C3CF00910401013029F0023039F04E
:1002EC00033089F0C1CFECE2F1E012E1A2CFECE4F3
:1002FC00F1E000910701109108010950104019E03C
:10030C0009F01EE396CF00910501003021F4EEE3D5
:10031C00F1E014E08ECFE2E4F1E01AE08ACF009134
:10032C000201093079F00530A9F1003219F00232DE
:10033C00E1F19ACF0091E8000470E1F3E9E0F1E01B
:10034C0017E039C04AD07092E9006092EB0001ECE2
:10035C000093EC007092ED0003E00093E9006092D2
:10036C00EB0000E80093EC007092ED0004E00093C9
:10037C00E9006092EB0001E80093EC007092ED0054
:10038C000CE10093EA005092EA0000910301009303
:10039C0000012AC0009103010093E30006D00091F4
:1003AC00E30000680093E300089517D00091E80083
:1003BC000170E1F308950091F10001931A95D9F7BA
:1003CC0008D00BC001E0A091E800A02BA093E8009E
:1003DC0008950BEF03C00FE701C00EEFA091E800EA
:1003EC00A023A093E800089506E900930A01509217
:1003FC00090150920B0150920C0150920D01509238
:10040C000E0108E000930F010895E61084727875D0
:10041C003F0000910001003049F09A938A9303E069
:10042C000093E9008091F20090E008950C94730A17
:10043C001813837278750E9413110091000100301B
:10044C00D1F303E00093E9000091E800007899F300
:10045C00C0DF0091F200003029F09A938A938091CA
:10046C00F10090E00091F200003009F4B4DF08953F
:10047C003E13837478750E941311009100010030B3
:10048C0059F004E00093E9000091E800017099F341
:10049C00A4DF8093F1009FDF0C946A0500001E33EB
:1004AC000C0B1503202C6C230002B7027A02D02C03
:1004BC00F82C3C2D0A00BB02441400000000000084
:1004CC0000003902F41602171217601E6E1E7E1EF3
:1004DC0020318377642BF894A895909160009861F3
:1004EC0090936000877088608093600078940C947F
:1004FC006A05DE138377642DF894A8955092540006
:10050C0008E1009360005092600078940895001404
:10051C00A3637764A89508950000846578697400D6
:10052C000F910F9108954C2D886F70657261746FE7
:10053C0072000E94B00344143902000040004000D5
:10054C005A0026148469646C650070640895501414
:10055C008462757379007F7B08957E31846D736539
:10056C007400FC01899199910191082B0293899156
:10057C00999108956814846D636C7200FC018991E3
:10058C0099910191809508230293899199910895ED
:10059C008214866C736869667400FC018991999168
:1005AC0031971AF0880F991FFBCF08959E1486720D
:1005BC00736869667400FC018991999131971AF0FE
:1005CC0096958795FBCF089575D597D273D595C21F
:1005DC00BA14826E3D00FC01FF50A991B99195911E
:1005EC009F708D91891B39F49A9585910D91801B83
:1005FC0011F49A95D2F7982F0895DE1484736B69D1
:10060C00700099910991A991B9919A9539F00D9130
:10061C000930D9F3081709F4F8CF1197BA93AA93B4
:10062C00892F9927019608950815847363616E00CC
:10063C00A82FB991E991E991F99109C0819189307B
:10064C0009F402C08A1719F43197CF0103C0BA9587
:10065C00AAF7CF019A938A938B2F0196952D089523
:10066C003615846D74737400FC0181910991199194
:10067C008023992708956E15834663796BD0803E4D
:10068C008373703F8AD00E940B0CC6D60E94060C56
:10069C00C3D6D2D2FFD2DDD10353503F68D70895D1
:1006AC00841584656D69740067D30C947903AE1559
:1006BC00836B657967D30C947903BC15846B65796E
:1006CC003F0066D30C947903C8158765786563750C
:1006DC007465FC01FF5089919991F695E795099401
:1006EC00D6158340657898D60C946F03EE158876F2
:1006FC0061726961626C65009FD0B4D0DED10C94DC
:10070C009903FA1589327661726961626C6594D0CD
:10071C0042D70400D2D10C949903101688636F6EE3
:10072C007374616E74000E94A00B0E940B100C94E9
:10073C00AE0B28168932636F6E7374616E74CBD1F5
:10074C000E94A00B0E940B100E940B100C94AE0B7D
:10075C0083286329FF91EF910CD0FF91EF910994BD
:10076C0083286429BF91AF91FF91EF9102D0FD01D5
:10077C0009949A938A93EE0FFF1F85919591089592
:10078C0083282C29FF91EF91F4DFF695E795EF93F1
:10079C00FF9399C0401683737040FE019A938A931D
:1007AC00CF010895A21683737021EC010895837212
:1007BC007030BF91AF910E940B0C2ED68DBF9EBF97
:1007CC0089919991FD010994B216B37270409A9374
:1007DC008A938DB79EB70895D616A23E3C00082F7B
:1007EC00892F902F0895E61685666C617368509278
:1007FC001B020895F41686656570726F6D00709219
:10080C001B02089502178372616D04E000931B02B2
:10081C0008951217826470005CD704D00C94B00554
:10082C00836373659A938A9380911B029927089529
:10083C002017846865726500EFDF0C947A103E1700
:10084C00812CFADF47D40ED00C9463054C178263CD
:10085C002C00F2DF08D3A6D00C9463055A178463DE
:10086C00656C6C009A938A9382E090E008956A1705
:10087C0085616C69676EE0DF08D0CEDF0C943F10A9
:10088C007C1787616C69676E656401968E7F08952D
:10089C008E17A563656C6C2B029608959E17A56345
:1008AC00656C6C73880F991F0895AA17A56368610E
:1008BC00722B01960895B817A56368617273089539
:1008CC00C4178363662C70D695D652D13ED163D6AD
:1008DC00F00FFDD161D241F05ED60E940E9437111B
:1008EC009F509695879506C085D642D16BD7C0D1BF
:1008FC009F70906D0C94371182213A004CD6FAFF00
:10090C000C94C50CCE17823240004ED685D5E3D060
:10091C00C3DF0C94120A121882322100DCD0E5D00D
:10092C00BBDFD8D30C943F102418853264726F70DF
:10093C00CBD00C946A053618843264757000D5D00F
:10094C000C947B054418853273776170D6D0DDD05A
:10095C00D4D0E5D00895521885737061636537D78C
:10096C000C945A0364188673706163657300009766
:10097C0019F0F5DF66D1FBCF0C946A0572188475FB
:10098C006D696E00DCDFB0D106C08A1884756D61AC
:10099C007800D5DFA2D100D209F09DD00C946A0565
:1009AC00981881319A938A9381E090E00895AE185B
:1009BC00866163636570740098D0CCD0A6D0F4D5F2
:1009CC0079DE8D3039F08A3041F0883079F08F370C
:1009DC0069F01AC02AD047D221C076D026D03FD297
:1009EC00DBD1E1F07AD521D03ED2EACF76D51DD03D
:1009FC003AD26AD0A4DF5DD1CFD111F722D129D060
:100A0C000308200818D0DCCFCFD54EDE6ED02BD209
:100A1C0013D18FD06AD04DD1BFD191F20F910F91DC
:100A2C005AD00C94BE0583666372D5D2F5FFBC1800
:100A3C0084747970650069D002C03CD335DE0E94A5
:100A4C00950DD8F71F910F910C946A053C198328CA
:100A5C007322FF91EF91EE0FFF1F05919A938A93EA
:100A6C00CF01915F9A938A93802F9927E00FF91FFA
:100A7C003196F695E79509945A19D273220082DEC5
:100A8C005E19B5DE05D00C940B048619822C22005D
:100A9C0082D52200CDD2D0DE28D0CED0F6DE0DD03D
:100AAC000C9457089819D22E2200E9DF6BDE4219FC
:100ABC000895B21985616C6C6F74AEDE0C944406AB
:100ACC00C019A464726F7000899199910895CE1920
:100ADC00847377617000099119919A938A93C80174
:100AEC000895DC19846F766572009A938A938A81D3
:100AFC009B810895F01983726F7407D0ECDF0FD0CF
:100B0C000C947105021A923E7200FF91EF918F9333
:100B1C009F93899199910994121A92723E00FF91B8
:100B2C00EF919A938A939F918F910994261A9272BE
:100B3C004000FF91EF919A938A939F918F918F939D
:100B4C009F930994B024836162732ED50C94220771
:100B5C00521A812B09911991800F911F08955E1AD9
:100B6C00826D2B000E94B60D0C94D80D6C1A812D41
:100B7C0009911991081B190BC801089500900D02D9
:100B8C0010900E020895FADF00941094060C151CB8
:100B9C000BD001C008D0906521D006D5812D07D08F
:100BAC00806990641BC0EADF21D720D7802D982F55
:100BBC0092958F709F7080680895F5DF90670ED0C6
:100BCC00F3D4812DF4DF8069906708C0ECDF906668
:100BDC0005D0EAD4812DEBDF806990660C94371137
:100BEC007A1A83616E640991199180239123089577
:100BFC00EE1A826F720009911991802B912B089536
:100C0C00FE1A83786F7209911991802791270895A4
:100C1C000E1BA6696E76657274008095909508958A
:100C2C001E1B866E656761746500809590950196B4
:100C3C0008952E1BA2312B0001960895401BA23162
:100C4C002D00019708954A1BA2322B00029608959D
:100C5C00541B853E626F647904960C947A105E1B6B
:100C6C00A2322A00880F991F08956C1BA2322F0004
:100C7C00959587950895781B822B21002CDF35DF05
:100C8C00CBD368DF28DF0C943F10841B8677697404
:100C9C0068696E002ADF6CDF38DF6ADF40DF0C9496
:100CAC007306981B823C3E0004D00C94FA07BC24BB
:100CBC00813D5EDF0C94FA07BC1B813C59DF8FEF42
:100CCC009FEF14F0809590950895C61B813E03DF2D
:100CDC000C946406D81B82753C004ADF880B990B78
:100CEC000895E21B82753E00F6DE0C947306F01B31
:100CFC0082217000AC01899199910895FC1B94217B
:100D0C00703E7200FF91EF914F935F93AC0189910C
:100D1C00999109940A1C93723E70FF91EF915F9127
:100D2C004F910994221C827040009A938A93CA01B5
:100D3C000C947A10321C827021009A938A93CA0107
:100D4C000C943F10421C837063219A938A93CA01BE
:100D5C000C94B010521CA2702B00460D551D08951A
:100D6C00621C83702B2B480F591F89919991089500
:100D7C006E1C8527656D69742ED1E8FF7E1C842757
:100D8C006B65790028D1EAFF8A1C85276B65793F52
:100D9C0022D1ECFF833F303D0097899199910895C2
:100DAC008364303D00970895961C83756D2A0C94CE
:100DBC00003FB61C86756D2F6D6F64000C94193F47
:100DCC00C01C85752F6D6F6488D385DE0C94193F1C
:100DDC00CE1C812AECDF0C946A05DE1C82752F0078
:100DEC00F3DF0C941307E81C86752A2F6D6F6400D3
:100DFC008CDEDDDF94DE0C94E406F41C812F9FDD89
:100E0C0002DF83DEA2DE67DEA0DE65DEE9DF87DEE1
:100E1C000C942207081DA36E69700991099108951D
:100E2C00221D847475636B0056DE0C947B052E1D9D
:100E3C00873F6E6567617465BDD3AEDF09F0F5DE83
:100E4C0008953C1D836D61787ADD38DFA4CD501D8B
:100E5C00836D696E74DD3BDF9ECD826340000C9424
:100E6C009510826321000C94B0105C1D827570008B
:100E7C0071DC0200781D84686F6C640037D392D0EB
:100E8C00FDDE90D0C9D20C94B010821D823C2300A0
:100E9C008ED088D00C943F10981D85646967697456
:100EAC008A300CF08796C0960895A61D812387D0B2
:100EBC00B3D2A3D122DEF4DF0C944407B81D8223F5
:100ECC007300F5DF3CDD97DE67DFD9F70895CA1DA7
:100EDC0082233E002DDD66D09FD269D006DE0C94B5
:100EEC00BE05DC1D847369676E0090301AF453D311
:100EFC002D00C4DF0C946A05F01D82752E00C8DF2E
:100F0C00ECD2DFDFE7DF97DD0C94B504061E8375AA
:100F1C002E72BEDF96DEF9DDE0D201C0C8DFFFD550
:100F2C00E8F71F910F91CDDFD5DF85DD0C94B5046B
:100F3C001A1E812EADDF38D308DECFD2C2DFDDDD45
:100F4C00D4DFC8DF78DD0C94B5043E1E876465637E
:100F5C00696D616C9AD233D00C943F10581E836823
:100F6C00657819D310002BD00C943F106A1E836245
:100F7C00696E78DC24D00C943F107A1E85727361F4
:100F8C00766529D0FEFF881E85756C696E6B23D043
:100F9C00FCFF941E847461736B001DD0F2FFA01EC5
:100FAC008268700018D00000AC1E837061649CD104
:100FBC0093D10C94B005B61E8462617365000BD09E
:100FCC00EEFFC41E84757365720032D34BDC2DDECC
:100FDC00D6D404DE85D3FF91EF91CBDB820D931D2C
:100FEC000895B01B82303D000197880B990B089532
:100FFC00D01E86736F757263650088D10C948B0458
:10100C00FE1E872F737472696E6765DD6EDDB0DD51
:10101C007CDDA0DD84DD08950E1FC15CEEDF6FD199
:10102C0059D060640C946A05261F857061727365D3
:10103C00BBD2E3DF64D1F0D1E8DF8F939F935DDD0A
:10104C00E0DA53DD62DD59DDF3DA009709F0F9DD02
:10105C0066DD65DD52DD8CDD52D110DEE5DE0C94F3
:10106C00BE05361F84776F726400E2DF34DDE9DD84
:10107C00DBDE0C94B010701F85636D6F76652BDD15
:10108C0041DE43DD03C016D060DE67DE48D5D8F7FD
:10109C001F910F9142DE0C946A05841F85706C6160
:1010AC0063654DDCE0DE05DC16DD0C944508A81FFD
:1010BC008363402B9A938A9301960DDD0C949510C3
:1010CC00BC1F82402B009A938A93029604DD0C94E9
:1010DC007A1081210C943F10CE1F836E3E63EADFA1
:1010EC008F7038DD0C944B04E61F83633E6E6AD31D
:1010FC005BD2B5DE0E94381027FFC9F30895F61FA6
:10110C008328662970689C01FC01FF50A881B98175
:10111C0095919F708D91891B39F49A9585910D91BC
:10112C00801B11F49A95D2F78030C90171F00297A7
:10113C0077FD05C0FC01FF508591959103C00E947D
:10114C007A107F770097F9F607C088839983C7DFF9
:10115C00C2DC08D049DF816008950C2086696D6D72
:10116C0065643F007CDE982E807408956820846648
:10117C00696E640010D2142CC5DF009721F4A4DC36
:10118C0039D34AD1BFDF08957A20866469676974C0
:10119C003F008A331CF081361AF08797C0970AF407
:1011AC009CC102D20CDF38D10C9464069620857356
:1011BC0069676E3F9ADC53DE082F86DC0D3219F01E
:1011CC000B3219F003C004D091C102D00C94730AF5
:1011DC00E9DB0C940B08BA208375642A8F939F93D8
:1011EC00E6DD72DC78DC9BDCE2DD87DC0C94B005A0
:1011FC00E4208675642F6D6F640087DC6ED199DCFA
:10120C00DDDD7BDC7ADC8BDCD9DD0C948305FE2008
:10121C00873E6E756D62657221E00097D1F075DCCA
:10122C008F939F931CDE8E3279F0B3DFB5DD21F402
:10123C004BDC75DC74DC0DC068DCC1DEEDD0CEDFC0
:10124C006EDC90DC20E001C03FDC69DC68DCC0DFD8
:10125C00E4CF820F08951C21876E756D6265723F15
:10126C00A3D13BD13AD149DC25DFA4DF4EDCA7DE8C
:10127C00D3D04BDC3ADCF3DD8397833038F412DBCC
:10128C008AD1D61367DC2FDAA3DF01C01DDCC4DFE3
:10129C0046DC95DE1FDF80DD29F041DC49DB48DBD5
:1012AC001CD111C00197DBDD0E94381038DC74DDD5
:1012BC0009F05ED42E3221F420DC82E090E003C0F1
:1012CC0003DCABDD6FDB08958473776170000C94E5
:1012DC00710564218374692360DE9ED008960C949A
:1012EC007A10E0218374696205D00C947A10F02195
:1012FC008374697570DEF0FFFC21833E696E6BDED2
:10130C00FAFF06228727736F7572636564DEF6FF3A
:10131C004BD1FF91EF912DDAF695E795CADC3CDDC8
:10132C000994102289696E74657270726574EEDFAF
:10133C00F5DAD3D0E4DFCEDE9FD549D296DE34D1B8
:10134C008EDD2ADD09F464C015DF009709F445C071
:10135C0073DC44D249DE4FDC1FDD99F094FE0AC0E9
:10136C003DD277DB0C434F4D50494C45204F4E4CF2
:10137C005900FDD06F7BADD966FDDECF6F7E6F7DE2
:10138C002AC06F7EC5DFF41E11F0606120C067FFBC
:10139C0014C0BEDFF21A11F010DC1DC0B9DF021B45
:1013AC0011F014DC18C0B4DF601A11F0ECDB13C0C0
:1013BC00AFDF7C1A11F0EEDB0EC06F7DA9DFB42419
:1013CC0009F0606295FE03C00E946B0D04C01ED133
:1013DC006D7F94FC62606F77AFCF6F7475DB40DF0D
:1013EC00009781F0FBD1D8DC59F0082F89919991A5
:1013FC0001FF03C06CDF0E940B100E940B109CCFEE
:10140C0063DBE9CF61DB45D055DE15DB66D0A6D0BA
:10141C0033D50C946A0581400C947A103022837376
:10142C006862E8D1F9DFC0D01ADD67DBE4DB4FDF9F
:10143C000C94B0102A2389696D6D656469617465BB
:10144C00AAD040000C94170A422387696E6C696E0F
:10145C006564A1D020000C94170A5623832E737454
:10146C009AD03C0021D90E9449111ED994D02C004D
:10147C001BD90E946D11DFDA8ED03E0015D90C9469
:10148C00820C823E72000C948B0564D90A00836432
:10149C00703E81D0000BBDD1F8DF0C944508833E23
:1014AC00647079D0000B2EDCB4D175D009002DDB23
:1014BC0001DE7AD023D4F8DB6FDC11F046DC01C0FE
:1014CC0003DB4BDC2CD3A0F71F910F9126DC0C9483
:1014DC006A0568238566616C73659A938A9388277D
:1014EC0099270895E0238474727565009A938A9302
:1014FC008FEF9FEF0895F22384717569740059D9A9
:10150C000FD183D9C6DFBED886D0EEDE4DD0E4DE57
:10151C000A9752DA24DA0BDF61D13EDCA1F794D4BE
:10152C00C0DF97DA03206F6B86DA07D00C94880A39
:10153C0004248670726F6D7074000E94EC100A0B9C
:10154C003E248561626F72745BD166DF2ED90C9478
:10155C00850A4E24873F61626F72743F7ADA013FCD
:10156C000C94BD0A6024863F61626F727400C5DA08
:10157C0013DC19F4F4D95FDAE7DF0C949E047224BF
:10158C00D661626F727422007ADAFCD87A240895DC
:10159C008C24836C6974FF91EF91EBD8F695E795E9
:1015AC0009943A1AA36475709A938A930895F01E5D
:1015BC0082303C00990F880B990B08959E2481274B
:1015CC0006D153DDD7DD0C94B40ACA248463686158
:1015DC007200FDD02DDD78DA0C949510D824C1283A
:1015EC00DADF290025DD60640C949E04EA24856909
:1015FC00686572656ED010CFFA24D65B6368617231
:10160C005D00E7DF0C940B108363662C0C9469046B
:10161C00062582637200BFDF0D000E945A03BBDFF8
:10162C000A000C945A031E2586637265617465006A
:10163C00CED01BDDB9DF9EDDF0DBD6DC0ADA0F4144
:10164C004C524541445920444546494E45448FDF50
:10165C00ABDF05DCA7D99FDF10001CDB7FDFCADF07
:10166C0014D937D037DDC6D0D7DEB8DA23DDC2DFE8
:10167C009BDFC0D02FDD39DA806837DAF4DB19D97B
:10168C002ADAFDDCB7DFEBDB8F77D6DAFED877D141
:10169C0082DF601621D9EFD8CFD8C4D87DDB09F40E
:1016AC00D5DA0C9437113425D8706F7374706F6E53
:1016BC0065008DD0DADC5EDD77DF50DF7BDF6CDB45
:1016CC0021F00E94C803901689CA0C94690483699E
:1016DC0064700E94B00311028728646F65733E2901
:1016EC001EDA88D099DEFBDCF4DF96DECCDEF1DF8F
:1016FC00F1DC51DF0E940E9437110E9437110FDA82
:10170C00E8DF0C943F10B425D5646F65733E0E94DE
:10171C00C803EC250E94C803701608951426C15BFB
:10172C0050921C0208952A26815D60921C02089535
:10173C003426813A7DDFF9DF0C9484043E26873A07
:10174C006E6F6E616D6556DF0C949B0B4A26D13B18
:10175C00E7DF61FD23C04EDF28D08C01107F105DC8
:10176C0059F08991999121D08E509449B1F48CE023
:10177C0094E9B1D90C943F1050DB9F7093FD906F9E
:10178C0071DA38DFE7D907DFFEFFF9D004DF0C94FC
:10179C0007D09F509695879503C0CAD8FCDE089554
:1017AC000C9437115A26822D40000CD0FDDE0C947F
:1017BC007A10B226D35B275D03DF0C940B10C02686
:1017CC00A2322D0002970895CC2682626C000E94F2
:1017DC00B0032000D6268573746174659A938A933E
:1017EC0080911C0290911C020895E226866C617413
:1017FC00657374000E94B0031702F82682733000E0
:10180C00EADBE4FF082782723000E5DBE6FF836940
:10181C006E690E94B0030F021227857469636B73A3
:10182C009A938A93C70108952627826D7300F8DF77
:10183C0091D9F3D48C01F8940E191F097894CAF736
:10184C000C946A053627832E696434DC8F705DD95D
:10185C0003C030DC0AD0E5DE62D1D8F71F910F91BE
:10186C000C946A055227833E70729927803012F0CF
:10187C0080320AF48EE208951DDC8DDE0F00B3D9A0
:10188C002AD938DA28D916DC38D92FD971D9D4D934
:10189C0024DEDADA3AD90AC00E94A50428D25DDA2D
:1018AC001AD90E945B1111F0989403C038D1A0F79B
:1018BC0018941F910F910CC00E94A504DDDF21F03C
:1018CC0073DEC3DF0E94B5047DDFA6DD0097A1F7B0
:1018DC000C949E04722785776F72647378DFC5DB76
:1018EC0063DE59DE142C02D085DF96DD94DE0C9479
:1018FC00620CE227822E73000E94B50455DE0E9412
:10190C00D3037EDF89DD5EDF0E94A504D7D944DADC
:10191C0019F04BDFF4DAF8CFD7D80C949E040028DA
:10192C008464756D700037DE10005ADAEED820C072
:10193C0072DE3ADE30DE0400ECDA2DDE3A0071DEC7
:10194C002ADE0F00E2D8B6DB26DE0200E2DAE7D0B0
:10195C00D0F71F910F911FDE10000AD91CDE0F006B
:10196C00D4D8A8DB82DF5DDEDAD0D8F71F910F91D7
:10197C00D6D0F0F61F910F910C946A058120A9DE48
:10198C000C9444062C2883783E72FC018991999121
:10199C0009D03196829392935292CF010895922856
:1019AC00833E78619F50969587950895AC288378EF
:1019BC00613E880F991F915F0895BA288370666CF9
:1019CC000E94B003000FC828837A666C0E94B00393
:1019DC000000842C3F303D0065FD03C0DCDDA41C01
:1019EC0003C004D0D8DDB01C6F7D6FC0D4DDFCFF0C
:1019FC00C6CF3ED99F70906CD3CECDDD08F0D0CE43
:101A0C00CADD09F464FD9B7FCBCED428D269660075
:101A1C0064FDECDFE1DFF4DF6F7EECDD5EDD0C946A
:101A2C00FF0C1829D4656C736500E4DD56DDE1DF2D
:101A3C004EDC0C94250D3029D47468656E00626000
:101A4C00D9DD0E947B0594D8BDDE12D9A4DD00C07F
:101A5C00D2D83DDC0C943F104429D5626567696E81
:101A6C000C94000B6629D5756E74696C626064FD0C
:101A7C00BDDFB2DFC5DF6F7E0C94480D7229D561D6
:101A8C006761696E6260B6DD0E94BE059BDE0C94D8
:101A9C00FF0C8A29D57768696C65BADF0C947105DF
:101AAC00A029D672657065617400ECDF0C94250D6D
:101ABC00AE29D6696E6C696E65006F7E6F7D80DDB8
:101ACC000C946B0DBE2983696E2CFDDA6DDD63DD24
:101ADC000895EAD861D919F00E943711F6CF0C9409
:101AEC009E04D229D3666F720E94C803161A82DD37
:101AFC00F4DC7FDF7FDD0C947105F029D46E657802
:101B0C0074009DDF0E94C8032A2A77DFBBDF43DD08
:101B1C003C2A0C946B0D87286E6578742920FF91F4
:101B2C00EF91BF91AF911197AF93BF930994089523
:101B3C001F910F910895082A95656E646974FF9141
:101B4C00EF911F910F915F925F920994442AB572A5
:101B5C0064726F700F910F9108955A2A83733E64CB
:101B6C0097FFBBCCC3CC682A87646E6567617465CC
:101B7C0049D00E94D8040C94B805742A883F646E2E
:101B8C0065676174650016DD07D909F0F1DF08950A
:101B9C00882A84646162730007DD0C94C90D9E2A47
:101BAC0082642B00A991B991E991F991099119914C
:101BBC00A00FB11F8E1F9F1FBA93AA930895AC2A32
:101BCC0082642D00D5DF0C94D80DCC2A8364322F7F
:101BDC000991199195958795179507951A930A93DD
:101BEC000895D82A8364322A09911991000F111F84
:101BFC00881F991F1A930A930895F02A8764696EB7
:101C0C00766572740991199100951095809590954F
:101C1C001A930A930895082B8364303DA991B991C6
:101C2C00892B8A2B8B2B51F48FEF9FEF0895242B4C
:101C3C008364303CA991B9919030B2F388279927ED
:101C4C0008953C2B82643D00BDDF0C94140E502B88
:101C5C0082643C00B7DF899199918FEF9FEF14F06C
:101C6C008095909508955C2B82643E000E94AC0494
:101C7C000C94300E742B8375642E0AD922D92AD970
:101C8C000E9421050C94B504822B82642E0000D98D
:101C9C008F939F9381DF15D90E94950526D91AD968
:101CAC000E9421050C94B504962B8268690073DCA4
:101CBC00CA2B0E9418040E94B0050C947A10FF8C59
:101CCC00FF0EFF0AB62B85706F7274629A938A931B
:101CDC0085E290E00895D22B8464647262009A933A
:101CEC008A9384E290E00895E42BA24070009A93CA
:101CFC008A93CA010895F62B837063409A938A9352
:101D0C00CA010C949510042CA370322B470D551D51
:101D1C0008950000866D61726B6572000E94FD0370
:101D2C0087DC39DC000B0E942204AFDBA8D9ADDBC9
:101D3C000E9463050E940B04D3DC0E94B80369DD8A
:101D4C00A4DB0C9445085C14856C6F61642B70618A
:101D5C000895542C856C6F61642D7F7E479808958F
:101D6C0000FE03C018DC50005CDC01FE03C013DC79
:101D7C00450057DC02FE03C00EDC420052DC03FEC1
:101D8C0003C009DC57004DDC16FE03C004DC4D001B
:101D9C0048DC0C94B50474FF01C0479876FF0CC066
:101DAC0009E3201649F4E091EC01E03029F460924B
:101DBC00530088955092530074FD479A0895602CF7
:101DCC00837478302AD20091C80005FFFBCF809332
:101DDC00CE00899199910895E091C800E5FFFCCF60
:101DEC00F093CE000895CC2C8372783016D220D08C
:101DFC000E94D206D9F39A938A93EDEEF1E0A0916A
:101E0C00EB01EA0FF51D8081992700915F00F89492
:101E1C00A395AF71A093EB01A091EC01AA95A093AF
:101E2C00EC0100935F000895F42C847278303F002D
:101E3C00A091EC01A5110C947C0A0C94730A1C144F
:101E4C008669666C7573680060FD0C94653F089537
:101E5C00362D85656D7074799EDBA8139CDB000BA9
:101E6C009ADB0C000E9445080E94730A94DB020B5B
:101E7C000E94B0100C944F0A5524E1E0F2E03F01AF
:101E8C0008957E13847761726D00F894AA27BB279E
:101E9C00C9E1D0E0DD93C150E9F710905F000090EC
:101EAC00540050925400B1E00091D80000610093AE
:101EBC00D800A0E15D92BA30E9F7AF3FD9F75C9258
:101ECC00BA94C7EBD2E00AE712E00DBF1EBFD4DF15
:101EDC000E94820209E312E018015DDBB4135BDBA4
:101EEC001B0259DB1C000E94450855DB000BFCD083
:101EFC00FDDA0E945F060E94D20609F0ADDF7092F7
:101F0C00440003E00093450009EF009347007092F2
:101F1C006E0041DB00103FDB1A0067D009E1009333
:101F2C00CC0008E90093C90006E00093CA00B1DABE
:101F3C005092EC015092EA0178940E94B60E25D092
:101F4C003F9A64D10E94D206D9F00E942F05034516
:101F5C0053430E9421051FDBD0070E941D0C0E94D9
:101F6C0067030E94D20649F00E94600314DB1B0039
:101F7C000E945F060E94D20619F448D10E946F039A
:101F8C000C94AA0A902D837665720E942F05244624
:101F9C006C617368466F72746820352041546D65AE
:101FAC006761333275342032362E30332E32303274
:101FBC00310D0A000C942105922EA26569007894CB
:101FCC000895C62EA2646900F8940895D02EC23BE1
:101FDC006900E1DA0C9445D1DEDA5A0042D10C9456
:101FEC00960BDA2E84696E742100FC01EE0F80E9E9
:101FFC00E80FF1E0899199910E94D80C0C9444104F
:10200C00F02EC76C69746572616CC5DAB4240E94D9
:10201C006B0D80930D0290930E0260680E94DA0A99
:10202C00982F92959F708F70906E80681AD1892F1F
:10203C0092959F708F70906E80690C9437110E94EE
:10204C003B3F89919991A0E1B1E00091190200FD0B
:10205C000C947D110F77A00F8D939D9376C00E2F4E
:10206C00823E6100282F392F8991999108956C2F08
:10207C0081219B3040F4FC0189919991918380835B
:10208C0089919991089509D09F30C8F60E94A504B2
:10209C006DD001960981088369C062FF08950E9482
:1020AC00820C0E942F050341443F0E94210568CFFA
:1020BC00FC01FF50FB110BC00E2F00780A1539F4F0
:1020CC00A0E1B1E0EF77AE0F8D919D9108958591D0
:1020DC00959108957C2F82613E009A938A93822F6A
:1020EC00932F0895E22F81409B3020F4FC018191C5
:1020FC00919108959F30E0F6F999FECF9B5081BDE8
:10210C0092BDF89A00B5839581BDF89A90B5802F51
:10211C000895CEDF99270895F22F826340009B30FB
:10212C0020F4FC018191992708959F3090F7E4DF0A
:10213C00992708950E943B3F89919991A0E1B1E0C4
:10214C00009119020F77A00F8D93616009C02630A2
:10215C00826321009B3038F4FC0189919991808332
:10216C0089919991089599DF9F3020F7F894F99906
:10217C00FDCF9B5081BD92BD8991999180BDFA9AFA
:10218C00F99AF999FECF7894EBCF5C3083666C2D7D
:10219C0064600895983083666C2B6B7F0895A23031
:1021AC008576616C756544DA0E94270499DA0E9481
:1021BC00B8030C947A10AC3085646566657238DAB5
:1021CC000E94D10A54240E9427048ADA0E94B80380
:1021DC000C947903C430C26973000E94E60A0E9411
:1021EC003206FCDA0E94D20629F00FDF0E94C803E7
:1021FC007E2F01C03EDF0895E230C2746F000C9454
:10220C00F3100631877475726E6B65790E94DD1060
:10221C000F0210318570617573650E9402010E9476
:10222C004001B9DDA895DF93CF939F938F935F9374
:10223C004F93F101F8940EB702930DB70293B2913C
:10224C00A2911D010E910EBF0E910DBF4F915F918A
:10225C008F919F91CF91DF91789408953414826976
:10226C002C000E94000B05DF0E9438040C94C50C56
:10227C006A318369632C0E94000B6CDF0E94D804C6
:10228C000C94C50C81200E94E5070E947A108031C5
:10229C0011F484E209C08A3011F483E205C0823063
:1022AC0011F485E201C08FE308950E948B0509C0EB
:1022BC000E94EA020E94BE050E94D20611F00C9404
:1022CC005E0C0E94950DA0F70C945A0C81200E9474
:1022DC0018040E94D10AD0130E94B0050E94120A61
:1022EC000E9460080E94D10A0F000C94F9059A9381
:1022FC008A938091190290911A020E94820C0E947A
:10230C002F050341443F0E9421050C94AA0A08950D
:02231C00089522
:107E00000F921F9209911991809FD001EE27FF27B1
:107E1000909FB00DE11DF51D819FB00DE11DF51D79
:107E2000919FE00DF11DBA93AA93CF011F900F907F
:107E30000895E894882329F4992319F468940C94FC
:107E40004B0FDC011990E9918991999100E1FF278D
:107E5000880F991F111CEE1FFF1F1A16EB07F5055F
:107E600018F083951A1AEB0B0A9589F7EA931A9280
:107E700008950C9483119F50052D00C08093190222
:107E800090931A02003011F49E3798F7003011F4E5
:107E9000943278F30091190200780A1105C000911C
:107EA0001A020B1101C008950E942A0F00911902B5
:107EB0000078A02EB0901A0200E8F501A0E1B1E030
:107EC00015911D930A95E1F708950E948D11F8947C
:107ED0000027F501003011F4FE3738F5003011F4B9
:107EE000F43218F113E030D011E12ED000E4A0E11B
:107EF000B1E00F921F920D901D9011E00E94A43FDF
:107F000032960150C1F7E058F04015E00E94A43FBE
:107F100013D000E8A058B04005901D9001100C94BB
:107F20004B0F0150C9F71F900F900FEFB02E6E7FCF
:107F300078940E948E1108958090570086FE0895CF
:107F400011E10E94A43FF8CF8090570080FCFCCF45
:107F500010935700E8958090570080FCFCCF08955F
:00000001FF
