:100000000C94790F63D0000061D000005FD0000035
:100010005DD000005BD0000059D0000057D0000038
:1000200055D0000053D0000051D000004FD0000048
:100030004DD000004BD0000049D0000047D0000058
:1000400045D0000043D0000041D000003FD0000068
:100050003DD000004FC0000039D0000037D0000074
:1000600035D0000033D0000031D000002FD0000088
:100070002DD000002BD0000029D0000027D0000098
:1000800025D0000023D0000021D000001FD00000A8
:100090001DD000001BD0000019D0000017D00000B8
:1000A00015D0000013D0000011D000000FD00000C8
:1000B0000DD000009F918F911F910F91FF91EF91B3
:1000C000A991B991B0935F00B9911895BA93B09185
:1000D0005F00BA93AA93BF91AF91EF93FF930F93F1
:1000E0001F938F939F93552401E9A00FB1E0ED91E9
:1000F000FD910994BA93B0915F00E60CF51CE2CF34
:10010000B091CE00A091EC01A395A093EC01EDEE8F
:10011000F1E0A091EA01EA0FF51DB083A395AF715C
:0C012000A093EA01C7CF01000317800084
:10012C001201100102000020F0FAF0FA00000001A8
:10013C000001040309040A034600460035003000A0
:10014C0009023E0002010080320904000001020293
:10015C0001000524001001042402020524060001FC
:10016C00070582030800FF09040100020A000000D1
:10017C000705030208000007058402080000BA2DD9
:10018C00847573622B000091D9000330F1F4009157
:10019C00D8000033D1F40091D70001600093D70050
:1001AC0002E100934900009149000170E1F30091D4
:1001BC00D80000680093D8000091D8000F7D009300
:1001CC00D8005092E0005092000108950091C800B0
:1001DC0005FFFCCF1093CE008C10847573622D003C
:1001EC00509200016092E00000E30093D80050921E
:1001FC0049005092D70008950091D8000039C1F4FD
:10020C000091E100087091F05092E9000091EB0030
:10021C0001600093EB005092EC0002E20093ED00C1
:10022C00509200016092EA005092EA005092E10074
:10023C000895BCD00091E8000470D1F705910093AB
:10024C00F1000091F200003209F4AFD01A95B1F729
:10025C000091F200003061F3C0C0A8D0019100936E
:10026C00F1001A95D1F7B9C00091EB00016200932F
:10027C00EB0008950091D8000039D1F60091E90007
:10028C005092E9000091E8000C7091F2E1E0F1E08D
:10029C0018E091D002EFA2D0009101010078F9F1A1
:1002AC00009102010630B1F0083029F0003041F025
:1002BC00013261F0D9CF009100010093F10082C0AE
:1002CC005092F1007FD05092F1007CC0E9E0F1E057
:1002DC0017E0C3CF00910401013029F0023039F04E
:1002EC00033089F0C1CFECE2F1E012E1A2CFECE4F3
:1002FC00F1E000910701109108010950104019E03C
:10030C0009F01EE396CF00910501003021F4EEE3D5
:10031C00F1E014E08ECFE2E4F1E01AE08ACF009134
:10032C000201093079F00530A9F1003219F00232DE
:10033C00E1F19ACF0091E8000470E1F3E9E0F1E01B
:10034C0017E039C04AD07092E9006092EB0001ECE2
:10035C000093EC007092ED0003E00093E9006092D2
:10036C00EB0000E80093EC007092ED0004E00093C9
:10037C00E9006092EB0001E80093EC007092ED0054
:10038C000CE10093EA005092EA0000910301009303
:10039C0000012AC0009103010093E30006D00091F4
:1003AC00E30000680093E300089517D00091E80083
:1003BC000170E1F308950091F10001931A95D9F7BA
:1003CC0008D00BC001E0A091E800A02BA093E8009E
:1003DC0008950BEF03C00FE701C00EEFA091E800EA
:1003EC00A023A093E800089506E900930A01509217
:1003FC00090150920B0150920C0150920D01509238
:10040C000E0108E000930F010895E61084727875D0
:10041C003F0000910001003049F09A938A9303E069
:10042C000093E9008091F20090E008950C94880A02
:10043C001813837278750E944211009100010030EC
:10044C00D1F303E00093E9000091E800007899F300
:10045C00C0DF0091F200003029F09A938A938091CA
:10046C00F10090E00091F200003009F4B4DF08953F
:10047C003E13837478750E94421100910001003084
:10048C0059F004E00093E9000091E800017099F341
:10049C00A4DF8093F1009FDF0C948F0500007E3366
:1004AC000C0B15037C2C96230002B7027A022C2D20
:1004BC00542D982D0A00BB024414000000000000CB
:1004CC0000003902241732174217AA1EB81EC81E84
:1004DC007E318377642BF894A89590916000986195
:1004EC0090936000877088608093600078940C947F
:1004FC008F05DE138377642DF894A89550925400E1
:10050C0008E1009360005092600078940895001404
:10051C00A3637764A89508950000846578697400D6
:10052C000F910F910895A82D886F70657261746F8B
:10053C0072000E94C80344143902000040004000BD
:10054C005A0026148469646C650070640895501414
:10055C008462757379007F7B0895DC31846D7365DB
:10056C007400FC01899199910191082B0293899156
:10057C00999108956814846D636C7200FC018991E3
:10058C0099910191809508230293899199910895ED
:10059C008214866C736869667400FC018991999168
:1005AC0031971AF0880F991FFBCF08959E1486720D
:1005BC00736869667400FC018991999131971AF0FE
:1005CC0096958795FBCF089599D5BCD297D5BAC28D
:1005DC00BA14826E3D00A991B991FC01FF5085912E
:1005EC008F700D90102C081A31F485910D90081A0B
:1005FC0011F41A94D1F7802D99270895DE14847381
:10060C006B69700099910991A991B991903051F051
:10061C000C91803211F4003210F0081719F4119675
:10062C009A95F4CFBA93AA93892F992708950A150E
:10063C00847363616E009991A991A991B9919030DD
:10064C0051F00C91803211F4003228F0801719F01F
:10065C0011969A95F4CFBA93AA93892F90E00895A6
:10066C003C15846D74737400FC018191099119918E
:10067C008023992708956E158346637983D0803E35
:10068C00A4D00E94280CDDD60E94230CDAD6F9D215
:10069C0026D304D20353503F82D7089594D7060B28
:1006AC000E94AA1090D715038ED7DF0A0E947506F8
:1006BC000E94F70661F40E94600FF0D10A0A4450C0
:1006CC003F20454D50545900DBD10C94790F0895BF
:1006DC00841584656D69740074D30C949103DE15D4
:1006EC00836B657974D30C949103EC15846B6579E9
:1006FC003F0073D30C949103F81587657865637587
:10070C007465FC01FF5089919991F695E7950994D0
:10071C0006168340657895D60C9487031E1688764A
:10072C0061726961626C65009FD0B4D0EBD10C949E
:10073C00B1032A1689327661726961626C6594D054
:10074C0042D70400DFD10C94B103401688636F6E5E
:10075C007374616E74000E94BD0B0E943C100C946B
:10076C00CB0B58168932636F6E7374616E74D8D16B
:10077C000E94BD0B0E943C100E943C100C94CB0BB1
:10078C0083286329FF91EF910CD0FF91EF9109948D
:10079C0083286429BF91AF91FF91EF9102D0FD01A5
:1007AC0009949A938A93EE0FFF1F85919591089562
:1007BC0083282C29FF91EF91F4DFF695E795EF93C1
:1007CC00FF9399C0701683737040FE019A938A93BD
:1007DC00CF010895D21683737021EC0108958372B2
:1007EC007030BF91AF910E94280C2BD68DBF9EBF4D
:1007FC0089919991FD010994E216B37270409A9314
:10080C008A938DB79EB708950617A23E3C00082F19
:10081C00892F902F0895161785666C617368509216
:10082C001B020895241786656570726F6D007092B7
:10083C001B02089532178372616D04E000931B0252
:10084C00089542178264700061D704D00C94D505CA
:10085C00836373659A938A9380911B0299270895F9
:10086C005017846865726500EFDF0C94AA106E1740
:10087C00812CFADF53D40ED00C9488057C1782633C
:10088C002C00F2DF15D3B3D00C9488058A1784633F
:10089C00656C6C009A938A9382E090E008959A17A5
:1008AC0085616C69676EE0DF08D0CEDF0C946E104A
:1008BC00AC1787616C69676E656401968E7F0895CD
:1008CC00BE17A563656C6C2B02960895CE17A563B5
:1008DC00656C6C73880F991F0895DA17A5636861AE
:1008EC00722B01960895E817A563686172730895D9
:1008FC00F4178363662C70D695D65FD14BD163D633
:10090C00F00F0AD26ED241F05ED60E940E946611A0
:10091C009F509695879506C085D64FD170D7CDD16F
:10092C009F70906D0C94661182213A004CD6FAFFA0
:10093C000C94E30CFE17823240004ED682D5F0D0D8
:10094C00C3DF0C94270A421882322100E9D0F2D07E
:10095C00BBDFE4D30C946E105418853264726F7044
:10096C00D8D00C948F056618843264757000E2D070
:10097C000C94A0057418853273776170E3D0EAD0BB
:10098C00E1D0F2D00895821885326F7665729A9311
:10099C008A938E819F819A938A938E819F810895E9
:1009AC0094188573706163652FD70C947203AE181D
:1009BC008673706163657300009719F0F5DF66D17B
:1009CC00FBCF0C948F05BC1884756D696E00CFDF5E
:1009DC00B0D106C0D41884756D617800C8DFA2D17F
:1009EC0000D209F09DD00C948F05E21881319A93B6
:1009FC008A9381E090E00895F818866163636570CE
:100A0C00740098D0CCD0A6D0E7D56CDE8D3039F000
:100A1C008A3041F0883079F08F3769F01AC02AD0CB
:100A2C0047D221C076D026D03FD2DBD1E1F06AD5B7
:100A3C0021D03ED2EACF66D51DD03AD26AD097DF0C
:100A4C005DD1CFD111F722D129D00308200818D0BD
:100A5C00DCCFC2D541DE6ED02BD213D18FD06AD071
:100A6C004DD1BFD191F20F910F915AD00C94E30557
:100A7C0083666372D5D2F5FF0619847479706500AC
:100A8C0069D002C03BD328DE0E94AD0DD8F71F9170
:100A9C000F910C948F05861983287322FF91EF9187
:100AAC00EE0FFF1F05919A938A93CF01915F9A9352
:100ABC008A93802F9927E00FF91F3196F695E795C9
:100ACC000994A419D273220075DEA819A8DE05D0EA
:100ADC000C942304D019822C220075D52200CDD27F
:100AEC00C3DE28D0CED0E9DE0DD00C947B08E21901
:100AFC00D22E2200E9DF5EDE8C190895FC19856187
:100B0C006C6C6F74A1DE0C9469060A1AA464726F83
:100B1C007000899199910895181A84737761700007
:100B2C00099119919A938A93C8010895261A846F92
:100B3C00766572009A938A938A819B8108953A1AFA
:100B4C0083726F7407D0ECDF0FD00C9496054C1A9F
:100B5C00923E7200FF91EF918F939F93899199919F
:100B6C0009945C1A92723E00FF91EF919A938A93CA
:100B7C009F918F910994701A92724000FF91EF919E
:100B8C009A938A939F918F918F939F930994E024CA
:100B9C008361627321D50C9447079C1A812B0991B0
:100BAC001991800F911F0895A81A826D2B000E9435
:100BBC00CE0D0C94F00DB61A812D09911991081BCC
:100BCC00190BC801089500900D0210900E020895A3
:100BDC00FADF00941094060C151C0BD001C008D041
:100BEC00906521D0F9D4812D07D0806990641BC009
:100BFC00EADF14D713D7802D982F92958F709F70A2
:100C0C0080680895F5DF90670ED0E6D4812DF4DF6F
:100C1C008069906708C0ECDF906605D0DDD4812D2B
:100C2C00EBDF806990660C946611C41A83616E6464
:100C3C0009911991802391230895381B826F7200BA
:100C4C0009911991802B912B0895481B83786F7211
:100C5C0009911991802791270895581BA6696E76E2
:100C6C0065727400809590950895681B866E656713
:100C7C00617465008095909501960895781BA2315A
:100C8C002B00019608958A1BA2312D00019708951F
:100C9C00941BA2322B00029608959E1B853E626F18
:100CAC00647904960C94AA10A81BA2322A00880F0F
:100CBC00991F0895B61BA2322F009595879508951C
:100CCC00C21B822B21002CDF35DFBBD368DF28DF72
:100CDC000C946E10CE1B8677697468696E002ADFDF
:100CEC006CDF38DF6ADF40DF0C949806E21B823C35
:100CFC003E0004D00C941F08EC24813D5EDF0C9464
:100D0C001F08061C813C59DF8FEF9FEF14F0809574
:100D1C0090950895101C813E03DF0C948906221CCB
:100D2C0082753C004ADF880B990B08952C1C827548
:100D3C003E00F6DE0C9498063A1C82217000AC0141
:100D4C00899199910895461C9421703E7200FF91EF
:100D5C00EF914F935F93AC01899199910994541C35
:100D6C0093723E70FF91EF915F914F9109946C1CBF
:100D7C00827040009A938A93CA010C94AA107C1C2E
:100D8C00827021009A938A93CA010C946E108C1C69
:100D9C00837063219A938A93CA010C94DF109C1C74
:100DAC00A2702B00460D551D0895AC1C83702B2B87
:100DBC00480F591F899199910895B81C8527656D25
:100DCC0069742ED1E8FFC81C84276B65790028D183
:100DDC00EAFFD41C85276B65793F22D1ECFF833F5A
:100DEC00303D00978991999108958364303D009727
:100DFC000895E01C83756D2A0C94023F001D8675C6
:100E0C006D2F6D6F64000C941B3F0A1D85752F6D43
:100E1C006F6478D385DE0C941B3F181D812AECDFA0
:100E2C000C948F05281D82752F00F3DF0C94380766
:100E3C00321D86752A2F6D6F64008CDEDDDF94DE2B
:100E4C000C9409073E1D812F92DD02DF83DEA2DEAA
:100E5C0067DEA0DE65DEE9DF87DE0C944707521DF6
:100E6C00A36E69700991099108956C1D8474756362
:100E7C006B0056DE0C94A005781D873F6E6567618C
:100E8C007465B0D3AEDF09F0F5DE0895861D836D71
:100E9C0061786DDD38DFA4CD9A1D836D696E67DDD9
:100EAC003BDF9ECD826340000C94C5108263210011
:100EBC000C94DF10A61D8275700064DC0200C21D4C
:100ECC0084686F6C640027D392D0FDDE90D0B9D2C9
:100EDC000C94DF10CC1D823C23008ED088D00C9457
:100EEC006E10E21D8564696769748A300CF0879610
:100EFC00C0960895F01D812387D0A3D293D122DE12
:100F0C00F4DF0C946907021E82237300F5DF2FDDDA
:100F1C0097DE67DFD9F70895141E82233E0020DD8B
:100F2C0066D08FD269D006DE0C94E305261E84733E
:100F3C0069676E0090301AF446D32D00C4DF0C9410
:100F4C008F053A1E82752E00C8DFDCD2DFDFE7DFAB
:100F5C0097DD0C94DA04501E83752E72BEDF96DE7C
:100F6C00F9DDD0D201C0C8DFF2D5E8F71F910F919F
:100F7C00CDDFD5DF85DD0C94DA04641E812EADDF68
:100F8C002BD308DEBFD2C2DFDDDDD4DFC8DF78DDD6
:100F9C000C94DA04881E87646563696D616C8AD26F
:100FAC0033D00C946E10A21E836865780CD310009D
:100FBC002BD00C946E10B41E8362696E6BDC24D043
:100FCC000C946E10C41E85727361766529D0FEFF79
:100FDC00D21E85756C696E6B23D0FCFFDE1E84748B
:100FEC0061736B001DD0F2FFEA1E8268700018D08E
:100FFC000000F61E826862008CD183D10C94D5055A
:10100C00001F8462617365000BD0EEFF0E1F8475A8
:10101C007365720025D33EDC2DDECFD404DE7DD388
:10102C00FF91EF91BEDB820D931D0895FA1B823068
:10103C003D000197880B990B08951A1F86736F75E5
:10104C007263650078D10C94A304481F872F7374C6
:10105C0072696E6765DD6EDDB0DD7CDDA0DD84DD83
:10106C000895581FC15CEEDF5FD158D060640C94BA
:10107C008F05701F857061727365AED2E3DF54D13A
:10108C00E0D1E8DF8F939F935DDDBCDA53DD62DD49
:10109C0059DDD1DA009709F0F9DD66DD65DD52DD49
:1010AC008CDD42D110DEE5DE0C94E305801F8477E5
:1010BC006F726400E2DF4ED618D00C94B00EBA1FDB
:1010CC0085636D6F76652CDD42DE44DD03C016D082
:1010DC0061DE68DE3CD5D8F71F910F9143DE0C948E
:1010EC008F05CC1F85706C61636541DCE1DEF9DB3B
:1010FC0017DD0C946908F01F8363402B9A938A9335
:10110C0001960EDD0C94C510042082402B009A939E
:10111C008A93029605DD0C94AA1081210C946E1012
:10112C001620836E3E63EADF8F7039DD0C94630406
:10113C002E2083633E6E63D34FD2B6DE0E946710BF
:10114C0027FFC9F308953E2083286629A881B98119
:10115C009A938A9342DA009751F089919991029768
:10116C00FC01FF5085919591009781F709C0D1DC66
:10117C0079DE32D2D8DFD4DC09D05BDF38DC60DD3D
:10118C000895542086696D6D65643F008DDE982E40
:10119C008074089590208466696E640014D2702C5B
:1011AC00D5DF009729F4B5DC0ED2080B4AD1CEDF7F
:1011BC000895A2208664696769743F008A331CF025
:1011CC0081361AF08797C0970AF49CC105D21CDFB0
:1011DC0038D10C948906C020857369676E3FAADCF0
:1011EC0063DE082F96DC0D3219F00B3219F003C0B8
:1011FC0004D091C102D00C94880AF9DB0C9430080D
:10120C00E4208375642A8F939F93F6DD82DC88DC5F
:10121C00ABDCF2DD97DC0C94D5050E218675642FC2
:10122C006D6F640097DC6ED1A9DCEDDD8BDC8ADCA4
:10123C009BDCE9DD0C94A8052821873E6E756D6258
:10124C00657221E00097D1F085DC8F939F932CDEA3
:10125C008E3279F0B3DFC5DD21F45BDC85DC84DC18
:10126C000DC078DCD1DEEDD0CEDF7EDCA0DC20E062
:10127C0001C04FDC79DC78DCC0DFE4CF820F08954D
:10128C004621876E756D6265723FA6D13BD13AD10E
:10129C0059DC34DFA4DF5EDCB7DED3D05BDC4ADCA8
:1012AC0003DE8397833038F415DB8DD1D61377DCCE
:1012BC0032DAA3DF01C02DDCC4DF56DCA5DE2EDF65
:1012CC0090DD29F051DC4CDB4BDB1CD111C00197BC
:1012DC00EBDD0E94671048DC84DD09F061D42E320E
:1012EC0021F430DC82E090E003C013DCBBDD7FDB5B
:1012FC0008958473776170000C9496058E21837425
:10130C00692370DE9ED008960C94AA100A2283746E
:10131C00696205D00C94AA101A228374697580DE58
:10132C00F0FF2622833E696E7BDEFAFF3022872790
:10133C00736F7572636574DEF6FF4ED1FF91EF919A
:10134C0030DAF695E795DADC4CDD09943A228969B6
:10135C006E74657270726574EEDFF8DAD3D0E4DF08
:10136C00DDDEB8D551D2A6DE37D19EDD3ADD09F4EB
:10137C0064C014DF009709F445C083DC4CD259DEFD
:10138C005FDC2FDD99F094FE0AC045D287DB0D435C
:10139C004F4D50494C45204F4E4C591500D16F7B49
:1013AC00B0D966FDDECF6F7E6F7D2AC06F7EC5DF44
:1013BC003E1F11F0606120C067FF14C0BEDF3C1BF4
:1013CC0011F020DC1DC0B9DF4C1B11F024DC18C05F
:1013DC00B4DFAA1A11F0FCDB13C0AFDFC61A11F090
:1013EC00FEDB0EC06F7DA9DFE42409F0606295FE80
:1013FC0003C00E94830D04C021D16D7F94FC6260F8
:10140C006F77AFCF6F7485DB40DF009781F003D22D
:10141C00E8DC59F0082F8991999101FF03C06CDF2A
:10142C000E943C100E943C109CCF73DBE9CF71DB17
:10143C0045D064DE25DB66D0A8D04CD50C948F0546
:10144C0081400C94AA105A2283736862F0D1F9DFA0
:10145C00C3D02ADD77DBF4DB4FDF0C94DF10542391
:10146C0089696D6D656469617465ADD040000C94DB
:10147C002C0A6C2387696E6C696E6564A4D020009D
:10148C000C942C0A8023832E73749DD03C0024D999
:10149C000E94781121D997D02C001ED90E949C1142
:1014AC00EFDA91D03E0018D90C949F0C823E72005A
:1014BC000C94B00567D90A008364703E84D0000B8D
:1014CC00C5D1F8DF0C946908833E64707CD0000BA6
:1014DC003EDCBCD178D009003DDB10DE7DD032D4AF
:1014EC0008DC7FDC11F056DC01C013DB5BDC2FD396
:1014FC00A0F71F910F9136DC0C948F059223856613
:10150C00616C73659A938A938827992708950A24A6
:10151C008474727565009A938A938FEF9FEF089588
:10152C001C248471756974005CD917D186D9C6DF07
:10153C007F77B4D8A5D887D0ECDE4ED0E2DE0A9700
:10154C0060DA32DA09DF67D14CDC91F7ABD4BEDF5D
:10155C00A5DA03206F6B94DA07D00C949D0A2E2425
:10156C008670726F6D7074000E941B110A0B6C24D4
:10157C008561626F727461D164DF2FD90C949A0A01
:10158C007C24873F61626F72743F88DA023F1500DA
:10159C000C94D50A8E24863F61626F727400D2DA85
:1015AC0020DC19F401DA6CDAE6DF0C94B604A22420
:1015BC00D661626F7274220087DAFCD8AA2408956F
:1015CC00BC24836C6974FF91EF91EBD8F695E79589
:1015DC000994841AA36475709A938A9308953A1F98
:1015EC0082303C00990F880B990B0895CE248127EB
:1015FC000BD160DDD3DD0C94CB0AFA2484636861D3
:10160C00720002D13ADD85DA0C94C5100825C12888
:10161C00DADF290032DD60640C94B6041A25856982
:10162C006865726573D00DCF2A25D65B63686172CD
:10163C005D00E7DF0C943C108363662C0C948104F2
:10164C00362582637200BFDF0D000E947203BBDF80
:10165C000A000C9472034E258663726561746500F2
:10166C0077FD20D477FD32DFCFD024DDB5DF96DDDA
:10167C00F9DBDFDC13DA0F414C524541445920446D
:10168C004546494E45448BDFA7DF0EDCB0D99BDFC6
:10169C00100025DB7ADF7068C5DF0FD937D03EDD4F
:1016AC00C6D0CFDEC0DA2ADDBDDF96DFC0D036DD96
:1016BC0041DA80683FDAFCDB14D932DA04DDB2DFC0
:1016CC00F3DB8F77DEDAF9D878D17DDF90161CD971
:1016DC00EAD8CAD8BFD885DB09F4DDDA0C946611D8
:1016EC006425D8706F7374706F6E65008DD0E2DCFA
:1016FC0055DD72DF4ADF76DF74DB21F00E94E003F8
:10170C00C01691CA0C948104836964700E94C8034A
:10171C0011028728646F65733E2926DA88D091DE22
:10172C0002DDF4DF8EDEC4DEF1DFF8DC4CDF0E947C
:10173C000E9466110E94661117DAE8DF0C946E1095
:10174C00EE25D5646F65733E0E94E00326260E9449
:10175C00E003A01608954E26C15B50921C0208951A
:10176C006426815D60921C0208956E26813A78DFB2
:10177C00F9DF0C949C047826873A6E6F6E616D6568
:10178C0051DF0C94B80B8426D13BE7DF61FD23C0FD
:10179C0049DF28D08C01107F105D59F08991999107
:1017AC0021D08E509449B1F48CE094E9B9D90C94C1
:1017BC006E1058DB9F7093FD906F79DA33DFEFD9A1
:1017CC0002DFFEFFFAD0FFDE0C9407D09F509695F7
:1017DC00879503C0C5D8F7DE08950C94661194263E
:1017EC00822D40000CD0F8DE0C94AA10EC26D35BB2
:1017FC00275DFEDE0C943C10FA26A2322D000297D7
:10180C000895062782626C000E94C80320001027EE
:10181C008573746174659A938A9380911C0290917C
:10182C001C0208951C27866C6174657374000E94F9
:10183C00C8031702322782733000F2DBE4FF422721
:10184C0082723000EDDBE6FF83696E690E94C8038B
:10185C000F024C27857469636B739A938A93C70143
:10186C0008956027826D7300F8DF99D905D58C0136
:10187C00F8940E191F097894CAF70C948F057027E9
:10188C00832E69643BDC8F7065D903C037DC0AD0CA
:10189C00E0DE5DD1D8F71F910F910C948F058C274A
:1018AC00833E70729927803012F080320AF48EE2F7
:1018BC00089524DC88DE0F00BBD932D940DA30D948
:1018CC001DDC40D937D979D9DCD91CDEE2DA42D912
:1018DC000AC00E94BD042FD265DA22D90E948A1157
:1018EC0011F0989403C033D1A0F718941F910F9165
:1018FC000CC00E94BD04DDDF21F06EDEC3DF0E9450
:10190C00DA047DDF9EDD0097A1F70C94B604AC27BA
:10191C0085776F72647378DFCDDB5EDE54DE702CFE
:10192C0002D085DF8EDD8FDE0C947F0C1C28822E7E
:10193C0073000E94DA0450DE0E94EB037EDF81DD2F
:10194C005EDF0E94BD04DFD94CDA19F04BDFFCDA04
:10195C00F8CFDFD80C94B6043A288464756D700007
:10196C000F9631DE100061DAF5D820C06CDE34DE63
:10197C002ADE0400F3DA27DE3A006BDE24DE0F00E9
:10198C00E9D8BCDB20DE0200E9DAE1D0D0F71F9108
:10199C000F9119DE100011D916DE0F00DBD8AEDB6B
:1019AC0081DF57DED4D0D8F71F910F91D0D0F0F64D
:1019BC001F910F910C948F058120A8DE0C94690661
:1019CC00662883783E72FC018991999109D03196F1
:1019DC00829392935292CF010895CE28833E7861E0
:1019EC009F50969587950895E8288378613E880FD7
:1019FC00991F915F0895F6288370666C0E94C80346
:101A0C00000F842C3F303D0065FD03C0DCDDEE1C77
:101A1C0003C004D0D8DDFA1C6F7D6FC0D4DDFCFF91
:101A2C00CCCF4BD99F70906CD8CECDDD08F0D5CEF5
:101A3C00CADD09F464FD9B7FD0CE0429D26966000F
:101A4C0064FDECDFE1DFF4DF6F7EECDD5BDD0C943D
:101A5C00170D4829D4656C736500E4DD53DDE1DFB7
:101A6C004BDC0C943D0D6029D47468656E0062608B
:101A7C00D9DD0E94A005A1D8C2DE1FD9A4DD00C00B
:101A8C00DFD83ADC0C946E107429D5626567696EE8
:101A9C000C94180B9629D5756E74696C626064FD94
:101AAC00BDDFB2DFC5DF6F7E0C94600DA229D5615E
:101ABC006761696E6260B6DD0E94E305A0DE0C947E
:101ACC00170DBA29D57768696C65BADF0C94960541
:101ADC00D029D672657065617400ECDF0C943D0DF5
:101AEC00DE29D6696E6C696E65006F7E6F7D80DD58
:101AFC000C94830DEE2983696E2C09DB6DDD63DD9F
:101B0C000895F7D86ED919F00E946611F6CF0C948F
:101B1C00B604022AD3666F720E94E003601A82DD5B
:101B2C00F1DC7FDF7FDD0C949605202AD46E65787E
:101B3C0074009DDF0E94E0035A2A77DFBBDF43DD90
:101B4C006C2A0C94830D87286E6578742920FF917C
:101B5C00EF91BF91AF911197AF93BF9309940895F3
:101B6C001F910F910895382A95656E646974FF91E1
:101B7C00EF911F910F915F925F920994742AB57245
:101B8C0064726F700F910F9108958A2A83733E646B
:101B9C0097FFB8CCC0CC982A87646E656761746572
:101BAC0049D00E94FD040C94DD05A42A883F646E84
:101BBC0065676174650016DD14D909F0F1DF0895CD
:101BCC00B82A84646162730007DD0C94E10DCE2A9F
:101BDC0082642B00A991B991E991F991099119911C
:101BEC00A00FB11F8E1F9F1FBA93AA930895DC2AD2
:101BFC0082642D00D5DF0C94F00DFC2A8364322F07
:101C0C000991199195958795179507951A930A93AC
:101C1C000895082B8364322A09911991000F111F22
:101C2C00881F991F1A930A930895202B8764696E55
:101C3C00766572740991199100951095809590951F
:101C4C001A930A930895382B8364303DA991B99166
:101C5C00892B8A2B8B2B51F48FEF9FEF0895542BEC
:101C6C008364303CA991B9919030B2F388279927BD
:101C7C0008956C2B82643D00BDDF0C942C0E802BE0
:101C8C0082643C00B7DF899199918FEF9FEF14F03C
:101C9C008095909508958C2B82643E000E94C4041C
:101CAC000C94480EA42B8375642E17D92FD937D9D1
:101CBC000E9446050C94DA04B22B82642E000DD9D6
:101CCC008F939F9381DF22D90E94BA0533D927D9EC
:101CDC000E9446050C94DA04C62B86756E757365E6
:101CEC00640009D00E943A040E94E3050C94470654
:101CFC00E62B8268690067DC122C0E9430040E947B
:101D0C00D5050C94AA10FF8CFF0EFF0AFE2B8570D4
:101D1C006F7274629A938A9385E290E008951A2CFC
:101D2C008464647262009A938A9384E290E00895CA
:101D3C002C2CA24070009A938A93CA0108953E2CD1
:101D4C00837063409A938A93CA010C94C5104C2CEF
:101D5C00837061649A938A93809115029091160214
:101D6C0008955C2CA370322B470D551D089500006F
:101D7C00866D61726B6572000E94150471DC23DC48
:101D8C00000B0E943A0496DB9ED994DB0E948805D6
:101D9C000E942304C2DC0E94D00358DD8BDB0C9420
:101DAC0069085C14856C6F61642B70610895B02CAC
:101DBC00856C6F61642D7F7E4798089500FE03C08B
:101DCC0002DC500046DC01FE03C0FDDB450041DCBB
:101DDC0002FE03C0F8DB42003CDC03FE03C0F3DB75
:101DEC00570037DC16FE03C0EEDB4D0032DC0C94E2
:101DFC00DA0474FF01C0479876FF0CC009E3201683
:101E0C0049F4E091EC01E03029F46092530088959C
:101E1C005092530074FD479A0895BC2C837478300B
:101E2C002BD20091C80005FFFBCF8093CE00899187
:101E3C0099910895E091C800E5FFFCCFF093CE0096
:101E4C000895282D8372783017D220D00E94F7067F
:101E5C00D9F39A938A93EDEEF1E0A091EB01EA0F9E
:101E6C00F51D8081992700915F00F894A395AF71BF
:101E7C00A093EB01A091EC01AA95A093EC01009327
:101E8C005F000895502D847278303F00A091EC01D2
:101E9C00A5110C94910A0C94880A1C148669666C22
:101EAC007573680060FD0C94673F0895922D8565ED
:101EBC006D70747988DBA81386DB000B84DB0C0057
:101ECC000E9469080E94880A7EDB020B0E94DF10C8
:101EDC000C94640A5524E1E0F2E03F0108957E136E
:101EEC00847761726D00F894AA27BB27C9E1D0E012
:101EFC00DD93C150E9F710905F00009054005092B0
:101F0C005400B1E00091D80000610093D800A0E12A
:101F1C005D92BA30E9F7AF3FD9F75C92BA94C7EB50
:101F2C00D2E00AE712E00DBF1EBFD4DF0E9482028E
:101F3C0009E312E0180147DBB41345DB1B0243DB5A
:101F4C001C000E9469083FDB000BFED0E4DA0E9403
:101F5C0084060E94F70609F0ADDF7092440003E09E
:101F6C000093450009EF0093470070926E002BDB45
:101F7C00001029DB1A006AD003E30093CC0002E0C6
:101F8C000093C80008E90093C90006E00093CA005A
:101F9C0095DA5092EC015092EA0178940E94E40E8A
:101FAC0025D03F9A62D10E94F706D9F00E945405C1
:101FBC00034553430E94460506DBD0070E943A0CAA
:101FCC000E947F030E94F70649F00E947803FBDA17
:101FDC001B000E9484060E94F70619F446D10E9449
:101FEC0087030C94C10AEC2D837665720E9454050C
:101FFC0024466C617368466F7274682035204154B6
:10200C006D656761333275342031302E30362E32A7
:10201C003032330D0A000C944605F42EA26569008B
:10202C0078940895282FA2646900F8940895322FAB
:10203C00C23B6900C8DA0C9443D1C5DA5A0040D1CE
:10204C000C94B30B3C2F84696E742100FC01EE0FD1
:10205C0080E9E80FF1E0899199910E94F60C0C94BB
:10206C007310522FC76C69746572616CACDAE4241E
:10207C000E94830D80930D0290930E0260680E9463
:10208C00F20A982F92959F708F70906E806818D17D
:10209C00892F92959F708F70906E80690C94661149
:1020AC000E943D3F89919991A0911902A0FD4EC1CA
:1020BC00AF77A05FB1E08D939D9376C0702F823E79
:1020CC006100282F392F899199910895CA2F812168
:1020DC009B3040F4FC018991999191838083899183
:1020EC009991089509D09F30D8F60E94BD046DD007
:1020FC0001960981088369C062FF08950E949F0CB4
:10210C000E9454050341443F0E9446056ACFFC01DE
:10211C00FF5060FF0CC0FB110AC00E2F00780A158F
:10212C0031F4EF77E05FF1E0819191910895859121
:10213C0095910895DA2F82613E009A938A93822FAB
:10214C00932F0895423081409B3020F4FC01819103
:10215C00919108959F30D8F6F999FECF9B5081BD8F
:10216C0092BDF89A00B5839581BDF89A90B5802FF1
:10217C000895CDDF992708955230826340009B303B
:10218C0020F4FC018191992708959F3090F7E4DFAA
:10219C00992708950E943D3F89919991A091190228
:1021AC00AF77A05FB1E08D93616009C08630826328
:1021BC0021009B3038F4FC0189919991808389919D
:1021CC009991089599DF9F3028F7F894F999FDCFEC
:1021DC009B5081BD92BD8991999180BDFA9AF99AD3
:1021EC00F999FECF7894EBCFBA3083666C2D64608E
:1021FC000895F63083666C2B6B7F089500318576DD
:10220C00616C75652DDA0E943F0487DA0E94D00359
:10221C000C94AA100A3185646566657221DA0E94F5
:10222C00E90A82240E943F0478DA0E94D0030C94BD
:10223C0091032231C26973000E94FE0A0E94570664
:10224C00EADA0E94F70629F011DF0E94E003DC2F86
:10225C0001C03EDF08954031C2746F000C9422110E
:10226C006431877475726E6B65790E940C110F0264
:10227C006E318570617573650E9402010E94400188
:10228C00B8DDA895DF93CF939F938F935F934F9374
:10229C00F101F8940EB702930DB70293B291A2918B
:1022AC001D010E910EBF0E910DBF4F915F918F913D
:1022BC009F91CF91DF9178940895341482692C000A
:1022CC000E94180B05DF0E9450040C94E30CC831DB
:1022DC008369632C0E94180B6CDF0E94FD040C9424
:1022EC00E30C81200E940A080E94AA10803111F48C
:1022FC0084E209C08A3011F483E205C0823011F403
:10230C0085E201C08FE308950E94B00509C00E94C8
:10231C00EA020E94E3050E94F70611F00C947B0C74
:10232C000E94AD0DA0F70C94770C81200E94300414
:10233C000E94E90AD0130E94D5050E94270A0E9428
:10234C0084080E94E90A0F000C941E069A938A9343
:10235C008091190290911A020E949F0C0E945405C0
:10236C000441443F15000E9446050C94C10A08958F
:02237C000895C2
:107E00000C94790F0F921F9209911991809FD001C4
:107E1000EE27FF27909FB00DE11DF51D819FB00D4E
:107E2000E11DF51D919FE00DF11DBA93AA93CF01BD
:107E30001F900F900895E894882329F4992319F44A
:107E400068940C94790FDC011990E99189919991CA
:107E500000E1FF27880F991F111CEE1FFF1F1A1644
:107E6000EB07F50518F083951A1AEB0B0A9589F7BD
:107E7000EA931A9208950C94B2119F50052D00C0F8
:107E80008093190290931A02003011F49E3798F7EC
:107E9000003011F4943278F30091190200780A113D
:107EA00005C000911A020B1101C008950E94580FDD
:107EB000009119020078A02EB0901A0200E8F50196
:107EC000A0E1B1E015911D930A95E1F708950E9494
:107ED000BD11F8940027F501003011F4FE3738F594
:107EE000003011F4F43218F113E030D011E12ED04B
:107EF00000E4A0E1B1E00F921F920D901D9011E0FF
:107F00000E94A63F32960150C1F7E058F04015E0BC
:107F10000E94A63F13D000E8A058B04005901D90E5
:107F200001100C94790F0150C9F71F900F900FEFBB
:107F3000B02E6E7F78940E94BE11089580905700F5
:107F400086FE089511E10E94A63FF8CF8090570069
:107F500080FCFCCF10935700E8958090570080FC80
:047F6000FCCF0895B5
:00000001FF
