:020000022000DC
:10FE00000F942EF209C00F9478EF0F9463F20F94C1
:10FE100076F311F00D94EAF80F941DFAA0F70D9403
:02FE2000E6F802
:020000023000CC
:10DE00000002640427046EF9BCF9FCF90A006804F6
:10DE100060DE0000000000000000E60381200F9497
:10DE2000BDF00F945EF744FF0F9456F20F949FF6E7
:10DE30000F94FFF40F945EF70F000D94A0F2000012
:10DE40008465786974000F910F910F91089504FB18
:10DE5000886F70657261746F72000F944FF060DEAE
:10DE6000E6030000400040005A0040DE8469646C14
:10DE70006500706408956CDE8462757379007F7B41
:10DE800008950EFF846D73657400FC01899199916A
:10DE90000081082B008389919991089584DE846D17
:10DEA000636C7200FC01899199910081809508232F
:10DEB00000838991999108959EDE866C73686966E6
:10DEC0007400FC018991999131971AF0880F991F7C
:10DED000FBCF0895BADE8672736869667400FC0130
:10DEE0008991999131971AF096958795FBCF08956E
:10DEF00086D5ACD284D5AAC2D6DE826E3D00F8DFCC
:10DF00008F7083D3F3D3B1F049D379D5A7D20CC0A6
:10DF1000EFDF76D3EBD321F07CD70F942EFA04C039
:10DF2000B3D2E4D309F46CD70F941DFA88F71F918C
:10DF30000F9101C06ED71BD40D94B7F3FADE847332
:10DF40006B6970008BD2D8D389F078D232D4C0D725
:10DF5000B5D709005AD3CAD329F496D256D3C6D31B
:10DF600029F001C05AD2C9D1F5D4EDCF0F910F914C
:10DF700008953EDF847363616E006CD36FD210C06E
:10DF80003ED5A6D79BD7090040D3B0D311F045D2D8
:10DF900005C00F9406FB39D3A9D311F0FFD203C0FB
:10DFA0000F941DFA68F765D2F4D260D3089574DF38
:10DFB000846D74737400FC0181910991199180231F
:10DFC00099270895B0DF8346637969D0803E8373D3
:10DFD000703F8ED00F9494F8B2D60F948FF8AFD6CE
:10DFE000D8D204D3DED10353503F54D70895C6DFAF
:10DFF00084656D6974006AD30D941AF0F0DF836B49
:10E0000065796AD30D941AF0FEDF846B65793F0061
:10E0100069D30D941AF00AE08765786563757465B5
:10E02000FC01899199910894F795E795199418E066
:10E030008340657884D60D9410F030E08876617264
:10E040006961626C6500A3D0B8D0E0D10D943AF05C
:10E050003CE089327661726961626C6598D02ED736
:10E060000400D4D10D943AF052E088636F6E73745B
:10E07000616E7400ECD70F945CFE0D9435F86AE085
:10E080008932636F6E7374616E74CED1E0D70F9472
:10E090005CFE0F945CFE0D9435F883286329FF9194
:10E0A000FF91EF910FD0FF91FF91EF911994832889
:10E0B0006429BF91BF91AF91FF91FF91EF9102D081
:10E0C000FD0119949A938A93EE0FFF1F8791979100
:10E0D000089583282C290F91FF91EF91F3DFF79595
:10E0E000E795EF93FF930F9399C080E0837370409F
:10E0F000FE019A938A93CF01089583737021EC01F6
:10E10000089583727030BF91BF91AF910F9494F8CE
:10E1100016D68DBF9EBF89919991FD011994ECE0AF
:10E12000B37270409A938A938DB79EB7089520E199
:10E13000A23E3C00082F892F902F089530E185667C
:10E140006C6173685092C80308953EE186656570FE
:10E15000726F6D007092C80308954CE18372616D17
:10E1600004E00093C80308955CE18264700043D723
:10E1700004D00D9456F2836373659A938A938091C9
:10E18000C803992708956AE1846865726500EFDF26
:10E190000D94C8FE88E1812CFADF3FD40ED00D9497
:10E1A00006F296E182632C00F2DF07D3A6D00D942D
:10E1B00006F2A4E18463656C6C009A938A9382E012
:10E1C00090E00895B4E185616C69676EE0DF08D086
:10E1D000CEDF0D948BFEC6E187616C69676E656466
:10E1E00001968E7F0895D8E1A563656C6C2B02962D
:10E1F0000895E8E1A563656C6C73880F991F089515
:10E20000F4E1A5636861722B0196089502E2A563AB
:10E210006861727308950EE28363662C59D684D6C2
:10E2200052D13FD14BD6F00FFAD160D241F046D651
:10E230000F940F947FFF08949795879506C074D626
:10E2400042D14FD7C1D19F70906D0D947FFF822135
:10E250003A0034D6FAFF0D944DF918E282324000AC
:10E2600037D66DD5E1D0C3DF0D949FF65CE28232E4
:10E270002100DAD0E3D0BBDFD0D30D948BFE6EE269
:10E28000853264726F70C9D00D940DF280E28432D1
:10E2900064757000D3D00D941EF28EE285327377D0
:10E2A0006170D4D0DBD0D2D0E4D008959CE28573E5
:10E2B000706163651BD70D94FBEFAEE286737061EE
:10E2C0006365730019D219F0F5DF68D1FBCF0D94A7
:10E2D0000DF2BCE284756D696E00DCDFADD106C065
:10E2E000D4E284756D617800D5DF9FD1FFD109F04C
:10E2F0009BD00D940DF2E2E281319A938A9381E0F2
:10E3000090E00895F8E2866163636570740096D0CA
:10E31000CDD094D076DE8D3029F47BD52FD04DD260
:10E320007CD026C08A3049F478D028D042D2DED1C1
:10E33000F9F066D523D041D2EDCF62D51FD03DD2C2
:10E34000C7D559DEC5D5BAD508005FD1CFD139F0D0
:10E3500064D024D183D072D08CD0C6DFDBCF6ED016
:10E360002CD217D16BD0B9DF95DF4AD1BFD191F64E
:10E37000FED15AD00D9463F283666372D7D2F5FF53
:10E3800006E384747970650069D002C038D333DE47
:10E390000F941DFAD8F71F910F910D940DF2832859
:10E3A0007322FF91FF91EF91EE0FFF1F07919A9358
:10E3B0008A93CF019A938A93802F9927E00FF91FB0
:10E3C00031960894F795E795199482E3D273220069
:10E3D00082DEA2E3B7DE05D00D94B0F0CCE3822C50
:10E3E00022006CD52200C9D2D2DE28D0D2D0F8DEED
:10E3F0000DD00D94F6F4DEE3D22E2200E9DF6BDEC1
:10E4000088E30895F8E385616C6C6F74B0DE0D9459
:10E41000EAF206E4A464726F7000899199910895FC
:10E4200014E4847377617000099119919A938A9327
:10E43000C801089522E4846F766572009A938A93E6
:10E440008A819B81089536E483726F7407D0ECDF74
:10E4500010D00D9414F248E4923E7200FF91FF91A7
:10E46000EF918F939F9389919991199458E49272A7
:10E470003E00FF91FF91EF919A938A939F918F9124
:10E4800019946EE492724000FF91FF91EF919A937C
:10E490008A939F918F918F939F931994CCEE836170
:10E4A000627316D50D94C6F39EE4812B09911991E0
:10E4B000800F911F0895AAE4826D2B00E2D70D947E
:10E4C00063FAB8E4812D09911991081B190BC80151
:10E4D0000895E091B803F091B903E095F095319675
:10E4E000E093B803F093B90309D0906524D0F0D439
:10E4F0008091B90307D0806990641DC005D704D707
:10E500008091B803982F92958F709F7080680895BE
:10E51000F5DF906710D0DCD48091B903F3DF806918
:10E52000906709C0EBDF906606D0D2D48091B90322
:10E53000E9DF806990660D947FFFC4E483616E64B7
:10E54000099119918023912308953CE5826F72000F
:10E5500009911991802B912B08954CE583786F7266
:10E56000099119918027912708955CE5A6696E7637
:10E57000657274008095909508956CE5866E656768
:10E580006174650080959095019608957CE5A231AF
:10E590002B00019608958EE5A2312D000197089574
:10E5A00098E5A2322B0002960895A2E5A53E626F7F
:10E5B000647904960895ACE5A2322A00880F991F69
:10E5C0000895B8E5A2322F00959587950895C4E582
:10E5D000822B210029DF32DFB2D368DF25DF0D94E3
:10E5E0008BFED0E58677697468696E0027DF6BDF84
:10E5F00035DF69DF3EDF0D9415F3E4E5823C3E0034
:10E6000004D00D946EF7E6EE813D5DDF0D946EF75C
:10E6100008E6813C58DF0D9475F712E6813E04DF71
:10E620000D940AF31CE682753C004DDF880B990BB4
:10E63000089526E682753E00F7DE0D9415F334E664
:10E6400082217000AC0189919991089540E694214E
:10E65000703E7200FF91FF91EF914F935F93AC0179
:10E660008991999119944EE693723E70FF91FF91B2
:10E67000EF915F914F91199468E6827040009A93F0
:10E680008A93CA010D94C8FE7AE6827021009A939B
:10E690008A93CA010D948BFE8AE6837063219A9354
:10E6A0008A93CA010D94FDFE9AE6A2702B00460DD6
:10E6B000551D0895AAE683702B2B480F591F899189
:10E6C00099910895B6E68527656D69742FD1E8FFA5
:10E6D000C6E684276B65790029D1EAFFD2E6852753
:10E6E0006B65793F23D1ECFF833F303D00978991E3
:10E6F000999108958364303D00970895DEE683750F
:10E700006D2A0D94A5FFFEE686756D2F6D6F640072
:10E710000D94BEFF08E785752F6D6F6471D384DE9D
:10E720000D94BEFF16E7812AECDF0D940DF226E76B
:10E7300082752F00F3DF0D94B7F330E786752A2F2B
:10E740006D6F64008BDEDDDF94DE0D9488F33CE7B3
:10E75000812FA0DD05DF82DEA4DE66DEA2DE64DEC0
:10E76000E9DF87DE0D94C6F350E7A36E6970099167
:10E77000099108956AE7847475636B0055DE0D9402
:10E780001EF276E7873F6E6567617465AED3AEDFD4
:10E7900009F0F8DE089584E7836D61787BDD3ADF68
:10E7A000A5CD98E7836D696E75DD39DF9FCD8263F6
:10E7B00040000D94E3FE826321000D94FDFEA4E76A
:10E7C000827570006CDC0200C0E784686F6C6400C6
:10E7D00020D392D0FFDE90D0B2D20D94FDFECAE7D6
:10E7E000823C23008ED088D00D948BFEE0E78564B8
:10E7F000696769748A300CF08796C0960895EEE7D1
:10E80000812387D09CD285D121DEF4DF0D94E8F3FB
:10E8100000E882237300F5DF3DDD9ADE67DFD9F77C
:10E82000089512E882233E002EDD66D088D269D09A
:10E8300005DE0D9463F224E8847369676E009030FE
:10E840001AF43CD32D00C4DF0D940DF238E8827524
:10E850002E00C8DFD5D2DFDFE7DF96DD0D945AF159
:10E860004EE883752E72BEDF99DEF8DDC9D201C095
:10E87000C8DFE3D5E8F71F910F91CDDFD5DF84DD49
:10E880000D945AF162E8812EADDF22D30ADEB8D2B0
:10E89000C2DFDCDDD4DFC8DF77DD0D945AF186E816
:10E8A00087646563696D616C83D233D00D948BFE90
:10E8B000A0E88368657802D310002BD00D948BFEFE
:10E8C000B2E88362696E79DC24D00D948BFEC2E8D5
:10E8D0008572736176652AD0FEFFD0E885756C6914
:10E8E0006E6B24D0FCFFDCE8847461736B001ED077
:10E8F000F2FFE8E88268700019D00000F4E8837045
:10E90000616486D17DD10D9456F2FEE88462617314
:10E9100065000CD0EEFF0CE984757365720021D39D
:10E920004CDC30DEBAD40F947FFF6BD3FF91FF91A4
:10E93000EF91C8DB820D931D089518E986736F75FA
:10E940007263650077D10D9430F13CE9872F7374C1
:10E9500072696E6769DD72DDB6DD80DDA7DD89DD98
:10E9600008954CE9C15CEEDF5ED157D060640D9430
:10E970000DF264E9857061727365AAD2E3DF53D149
:10E98000DED1E8DFA5D26ADD61DDDCDA57DD66DDE8
:10E990005DDDF3DAB1DE09F001DE6BDD6ADD56DD47
:10E9A00092DD41D117DEEADE0D9463F274E98477DB
:10E9B0006F726400E2DF38DDF1DDE0DE0D94FDFE14
:10E9C000AEE985636D6F76652FDD44DE47DD03C0FC
:10E9D00016D065DE6CDE31D5D8F71F910F9146DE7B
:10E9E0000D940DF2C2E985706C61636553DCE5DE60
:10E9F0000BDC1ADD0D94E4F4E6E98363402B68D266
:10EA0000C8DD12DD0D94E3FEFAE982402B0060D2EE
:10EA1000CADD0ADD0D94C8FE81210D948BFE0AEA41
:10EA2000836E3E63ECDF8F7041DD0D94F0F020EAE1
:10EA300083633E6E56D34CD2BCDE0F9484FE27FF18
:10EA4000C9F3089530EA8328662924DC58DA54DEB5
:10EA500021F0E3DC46D373D13BD248DEB1F74CDE84
:10EA600041F085DE35D2DEDFDFDC09D037D245DC90
:10EA70006FDD089546EA86696D6D65643F0099DE35
:10EA8000982E8074089576EA8466696E640016D2C2
:10EA900026F6DBDF31DE21F4C0DC3BD350D1D5DFFD
:10EAA000089588EA8664696769743F0080340CF0D1
:10EAB0008797C0970DD22DDF42D1ACDDBFDC15D2D8
:10EAC00059DD0D94A0F2A4EA857369676E3FB6DC48
:10EAD00070DE8C97FDD1E5DC10DC97DD31DD0CDEDE
:10EAE00029F057DDBBDC09DC35DFC3DC0895C8EA5B
:10EAF0008375642AEDD1B2DC04DE8FDC95DCB9DCF1
:10EB000000DEA4DC0D9456F2F0EA8675642F6D6F7A
:10EB10006400A4DC75D1B8DCFBDD98DC97DCA9DCF3
:10EB2000F7DD0D9426F20AEB873E6E756D62657215
:10EB3000E3DDB1F093DCCCD191DC3BDEB7DFD6DD99
:10EB400021F46BDC96DC95DC0BC088DCE2DEF7D0D0
:10EB5000D1DF8FDCB3DC8DDC8CDCCFDBFBDEE8CF00
:10EB60000895A8E8B6E8C6E828EB876E756D62657B
:10EB7000723FAED145D144D169DC41DFA8DF6EDC04
:10EB8000C8DEDDD06BDC5ADC14DE8397833040F4C2
:10EB900034DB94D162EB8ADC4DDAAFDBDBDE01C023
:10EBA0003CDCC6DF66DCB5DE38DF92D19AD29DD17F
:10EBB0009DDD31F45EDC31DC66DB65DB21D117C025
:10EBC00070DB57DC93DD09F064D46BDB8FDD61F023
:10EBD0000F94E3FE73D12E0076DC88DD71F736DC0E
:10EBE0001CDC6CD1020003C04EDBC1DD86DB089566
:10EBF0008473776170000D9414F26AEB8374692357
:10EC000076DE9DD008960D94C8FEFCEB8374696295
:10EC100005D00D94C8FE0CEC8374697587DEF0FF97
:10EC200018EC833E696E82DEFAFF22EC8727736F51
:10EC3000757263657BDEF6FF4BD10F91FF91EF910B
:10EC400041DAF795E795E1DC51DD19942CEC8969FF
:10EC50006E74657270726574EDDF0BDBD1D0E3DF2B
:10EC6000DCDE44D2A7DE34D1A4DD40DD09F464C08B
:10EC70000EDF42DD09F445C08CDC3FD22FD168DCC9
:10EC800035DD99F094FE0AC038D28BDB0C434F4D32
:10EC900050494C45204F4E4C5900FCD06F7BC0D999
:10ECA00066FDDFCF6F7E6F7D2AC06F7EC5DFDCEE35
:10ECB00011F0606120C067FF14C0BEDF40E511F0B5
:10ECC00027DC1DC0B9DF50E511F02CDC18C0B4DF23
:10ECD000ACE411F0FEDB13C0AFDFC6E411F004DCDE
:10ECE0000EC06F7DA9DFD0EE09F0606295FE03C013
:10ECF0000F94F4F904C024D16D7F94FC62606F77A7
:10ED0000B0CF6F748ADB35DFF7DC81F0F6D1EEDC53
:10ED100059F0082F8991999101FF03C06CDF0F947E
:10ED20005CFE0F945CFE9DCF78DBE9CF76DB44D0B0
:10ED300066DE2ADB65D0A5D00D940DF281400D94DE
:10ED4000C8FE4EEC83736862E4D1F9DFC1D031DDD7
:10ED50007DDBFEDB50DF0D94FDFE44ED89696D6DBA
:10ED6000656469617465AAD040000D94A4F65CEDF9
:10ED700087696E6C696E6564A1D020000D94A4F65D
:10ED800070ED832E73749AD03C0035D90F9491FFA7
:10ED900032D994D02C002FD90F940FEFF5DA8ED002
:10EDA0003E0029D90D940CF9823E72000D942EF28A
:10EDB00076D90A008364703E81D00022B9D1F8DF91
:10EDC0000D94E4F4833E647079D0002243DCB0D12A
:10EDD00075D0040043DB1BDE7BD051DC11DC86DC0C
:10EDE00011F055DC01C019DB20D427D3A0F71F9107
:10EDF0000F913CDC0D940DF282ED8566616C7365BC
:10EE00009A938A93882799270895FAED84747275E6
:10EE100065009A938A938FEF9FEF08950CEE8471AB
:10EE20007569740070D909D19BD9C6DFD2D88DD04D
:10EE3000EFDE4ED0E5DE0A976ADA3CDA0DDF5DD10F
:10EE400055DCA1F763D6C0DFACDA03206F6B9CDA28
:10EE500007D00D9415F71EEE8670726F6D707400FA
:10EE60000F9435FF0A2258EE8561626F727457D194
:10EE700066DF45D90D9412F768EE873F61626F72C5
:10EE8000743F8FDA013F0D944AF77AEE863F616254
:10EE90006F727400DBDA2ADC19F40CDA75DAE7DF5A
:10EEA0000D9443F18CEED661626F7274220090DA99
:10EEB00012D994EE0895A6EE836C6974FF91FF91C8
:10EEC000EF9100D9F795E795199484E4A3647570E0
:10EED0009A938A930895FCE582303D000197880B50
:10EEE000990B0895D8EE82303C00990F880B990B4E
:10EEF0000895B8EE8127FAD05DDDC9DD0D9441F7A4
:10EF0000F4EE846368617200F1D037DD86DA0D9427
:10EF1000E3FE02EFC128D2DF29002FDD60640D94EB
:10EF200043F185696865726566D009CF14EFD65BD9
:10EF3000636861725D00E8DF0D945CFE8363662C9C
:10EF40000D940EF12EEF82637200B8DF0D0053D8DE
:10EF5000B5DF0A000D94FBEF46EF866372656174BE
:10EF60006500C4D027DDB4DF92DD01DCB7DF19DA3C
:10EF70000F414C524541445920444546494E454471
:10EF800089DFA6DF16DCB9D999DF10002FDB79DF26
:10EF9000C0D0D5DE0F947FFF32DDC6DF99DFB9D058
:10EFA0003CDD24DDC1DF05DC89DF8000CDDEF1DA68
:10EFB00017D973D183DF9EE03AD908D9E8D8DDD8D4
:10EFC00095DB09F4F0DA0D947FFF5AEFD8706F7378
:10EFD00074706F6E65008AD0EDDC59DD79DF51DF2A
:10EFE00084DF84DB21F077D8D6E00D947FFF0D9489
:10EFF0000EF18369647053D8BC038728646F65730E
:10F000003E29FF9136DA85D09ADE0CDDF4DF97DEFB
:10F01000CDDEF1DF02DD880F991F09D92ADAEBDF97
:10F020000D948BFECCEFD5646F65733E54D802F01F
:10F0300052D8B2E0089526F0C15B5092C9030895FA
:10F0400038F0815D6092C903089542F0813A89DF0A
:10F05000F9DF0D9429F14CF0873A6E6F6E616D65A2
:10F0600063DF0D9422F858F0D13BE7DF61FD25C046
:10F070005BDF2AD08C01107F105D59F08991999146
:10F0800023D08F509449C1F48DE094E9CDD90D94EB
:10F090008BFE6DDB9F7093FD906F90DA45DF06DA93
:10F0A0000DDFFEFFFAD00ADF0D940F947FFF089466
:10F0B000979587950D947FFFE6D800DF08950D940E
:10F0C0007FFF68F0822D40000CD002DF0D94C8FE57
:10F0D000C4F0D35B275D0FDF0D945CFED2F0A2324B
:10F0E0002D0002970895DEF082626C000F944FF0BD
:10F0F0002000E8F08573746174659A938A93809117
:10F10000C9039091C9030895F4F0866C6174657326
:10F1100074000F944FF0C2030AF18273300006DCD2
:10F12000E4FF1AF18272300001DCE6FF83696E6948
:10F130000F944FF0BA0324F1857469636B739A934B
:10F140008A930FB7F8948E2D9F2D0FBF089538F135
:10F15000826D7300F4DFAAD9B2D6BADEF0DFB3D97C
:10F16000C4DEC4DAC9F30D940DF250F1832E696444
:10F1700046DC8F7073D903C042DC0AD0EBDE5DD170
:10F18000D8F71F910F910D940DF26CF1833E7072C0
:10F190009927803012F080320AF48EE208952FDC35
:10F1A0008DDE0F00CDD940D94DDA3ED928DC4ED9BD
:10F1B00045D989D9EED924DEF1DA50D909C06AD807
:10F1C00025D275DA31D90F94007F11F0989403C0DD
:10F1D00034D1A8F718941F910F910AC05BD8DFDFD4
:10F1E00019F076DEC5DF66D87CDFA9DD85DAB1F7F8
:10F1F0000D9443F18CF185776F72647377DFDADBFE
:10F2000067DE5CDE26F602D084DF99DD9EDE0D949B
:10F21000EEF8F6F1822E73004DD85ADE0F9478F096
:10F220007EDF8DDD5EDF36D8F5D960DA19F04CDF90
:10F2300010DBF9CFF2D80D9443F114F28464756DAC
:10F2400070003CDE100076DA09D920C07EDE40DE98
:10F2500035DE040008DB32DE3A007CDE2FDE0F00F4
:10F26000FDD8CDDB2BDE0200FEDAE7D0D0F71F9110
:10F270000F9124DE100027D921DE0F00EFD8BFDB6D
:10F2800087DF68DEDAD0D8F71F910F91D6D0F0F67D
:10F290001F910F910D940DF28120ADDE0D94EAF2D5
:10F2A0003CF283783E72FC01899199910AD03196A3
:10F2B0008293929362925292CF010895A2F2833E7A
:10F2C00078610894979587950895BEF28378613E9A
:10F2D000880F991F0895CCF28370666C0F944FF0DD
:10F2E0000032D8F2837A666C0F944FF00300842CBE
:10F2F0003F303D0065FD03C0E1DDECE603C004D016
:10F30000DDDDF8E66F7D70C0D9DDFCFFC6CF5CD9CE
:10F310009F70906C0D947FFFD1DD08F00D947FFFFE
:10F32000CDDD09F464FD9B7F0D947FFFE4F2D2698B
:10F33000660064FDE9DFDEDFF3DF6F7EF5DD60DDB3
:10F340000D9487F92EF3D4656C736500EDDD58DDFF
:10F35000DEDF51DC0D94B0F946F3D47468656E00BD
:10F360006260E2DD6BD8AFD8BCDE2ED9A7DD00C06D
:10F37000EFD841DC0D948BFE5AF3D5626567696E58
:10F380000D9494F77AF3D5756E74696C626064FDC0
:10F39000BBDFB0DFC5DF6F7E0D94D2F986F3D56198
:10F3A0006761696E6260C0DD8ED89BDE0D9487F95F
:10F3B0009EF3D57768696C65BCDF0D9414F2B2F3E7
:10F3C000D672657065617400EDDF0D94B0F9C0F31D
:10F3D000D6696E6C696E65006F7E6F7D8CDD0D94F5
:10F3E000F4F9D0F383696E2C12DB72DD67DD0895CA
:10F3F00007D97CD911F083D5F7CF0D9443F1E4F30D
:10F40000D3666F720F946BF05CE48EDDF9DC7FDF06
:10F410008BDD0D9414F200F4D46E65787400A0DFD7
:10F420000F946BF03AF478DFBDDF48DD4EF40D94B5
:10F43000F4F987286E6578742920FF91FF91EF9188
:10F44000BF91AF911197AF93BF93199408951F91F6
:10F450000F91089518F495656E646974FF91FF919A
:10F46000EF911F910F915F925F92199456F4D572AC
:10F4700064726F7023DD4EF40D94F4F96EF48373AF
:10F480003E6497FFBDCCC5CC7EF487646E65676132
:10F49000746549D00F947DF10D945EF28AF4883F33
:10F4A000646E65676174650020DD20D909F0F1DFC5
:10F4B00008959EF48464616273000ADD0D9454FA29
:10F4C000B4F482642B00A991B991E991F991099161
:10F4D0001991A00FB11F8E1F9F1FBA93AA93089571
:10F4E000C2F482642D00D5DF0D9463FAE2F48364E4
:10F4F000322F0991199195958795179507951A932C
:10F500000A930895EEF48364322A09911991000F49
:10F51000111F881F991F1A930A93089506F587648F
:10F52000696E7665727409911991009510958095B0
:10F5300090951A930A9308951EF58364303DA9911E
:10F54000B991892B8A2B8B2B51F48FEF9FEF089564
:10F550003AF58364303CA991B9919030B2F3882791
:10F560009927089552F582643D00BDDF0D949FFAFE
:10F5700066F582643C00B7DF0D94ABFA72F58264E5
:10F580003E000F9451F10D94BBFA7EF58375642E05
:10F5900029D941D949D90F94C4F10D945AF18CF568
:10F5A00082642E001FD90F9468F70F942EF285DF26
:10F5B00032D90F9439F243D937D90F94C4F10D944D
:10F5C0005AF1A0F58268690079DCD8F50F94BDF096
:10F5D0000F9456F20D94C8FEFFDDFF31FF217EFD32
:10F5E000827840008BBF89919991FC018791979116
:10F5F00003E00BBF0895E0F582782100082F0F94F7
:10F600000DF20DD273C3C4F5A24070009A938A9391
:10F61000CA01089508F6837063409A938A93CA01D9
:10F620000D94E3FE16F6A370322B470D551D089579
:10F630000000866D61726B6572000F94A2F091DC20
:10F640003DDC00220F94C7F0B3DBBED9B1DB0F94D1
:10F6500006F20F94B0F0D5DC0F9459F069DDA8DB09
:10F660000D94E4F478DE856C6F61642B706108950D
:10F6700066F6856C6F61642D7F7E27982F980895BC
:10F68000F6F983747831813161F0833191F017D4C8
:10F690000091C80005FFFBCF8093CE00899199911E
:10F6A00008958991999102C071FF08957D7FF1E1DC
:10F6B00007C08991999102C071FD08957260F3E1CC
:10F6C000E091C800E5FFFCCFF093CE00089582F6EC
:10F6D00083727831F4D31ED00F9476F3D9F39A93D2
:10F6E0008A93E8E9F3E0A0919603EA0FF51D808183
:10F6F00099270FB7F894A395AF71A0939603A091A3
:10F700009703AA95A09397030FBF0895D0F684722C
:10F7100078313F00A0919703A5110D9409F7C4DF3C
:10F720000D9400F7E8E9F3E0A0919503EA0FF51DC9
:10F73000B091CE00B083A395AF71A0939503A09133
:10F740009703A395A0939703AE3109F404D0A43096
:10F750000AF0B4DFC6C0FCE7B3CF00FE03C0AEDBE7
:10F760005000F8DB01FE03C0A9DB4500F3DB02FE1D
:10F7700003C0A4DB4200EEDB03FE03C09FDB5700A7
:10F78000E9DB16FE03C09ADB4D00E4DB0D945AF171
:10F7900074FF02C0279A2F9876FF07C006EE201646
:10F7A00021F401E003BF889553BE74FD2F9A08959C
:06F800000D949BFD79D080
:02F8080077D0B7
:02F80C0075D0B5
:02F8100073D0B3
:02F8140071D0B1
:02F818006FD0AF
:02F81C006DD0AD
:02F820006BD0AB
:02F8240069D0A9
:02F8280067D0A7
:02F82C0065D0A5
:02F8300063D0A3
:02F8340061D0A1
:02F838005FD09F
:02F83C005DD09D
:02F840005BD09B
:02F8440059D099
:02F8480057D097
:02F84C0055D095
:02F8500053D093
:02F8540063C08F
:02F858004FD08F
:02F85C004DD08D
:02F860004BD08B
:02F8640049D089
:02F8680047D087
:02F86C0045D085
:02F8700043D083
:02F8740041D081
:02F878003FD07F
:02F87C003DD07D
:02F880003BD07B
:02F8840039D079
:02F8880037D077
:02F88C0035D075
:02F8900033D073
:02F8940031D071
:02F898002FD06F
:02F89C002DD06D
:02F8A0002BD06B
:02F8A40029D069
:02F8A80027D067
:02F8AC0025D065
:02F8B00023D063
:02F8B40021D061
:02F8B8001FD05F
:02F8BC001DD05D
:02F8C0001BD05B
:02F8C40019D059
:02F8C80017D057
:02F8CC0015D055
:02F8D00013D053
:02F8D40011D051
:02F8D8000FD04F
:02F8DC000DD04D
:10F8E0000BD09F918F911F910F91FF91EF91A99153
:10F8F000B991BFBFB9911895BA93BFB7BA93AA93FC
:10F90000BF91BF91AF91EF93FF930F931F938F938D
:10F910009F93A150B3E0ED91FD911994BA93BFB7B5
:10F92000BA93AA93E60CF51CE2CFE5E7F3E0A091C9
:10F930007203EA0FF51DB091C600BF3009F460CF25
:10F94000B083A395AF71A0937203A0917403A395A4
:10F95000A0937403AE3109F404D0A4300AF022D08D
:10F96000C0CFFCE721C0DECE72F6837478308131DF
:10F9700061F0833191F0A3D20091C00005FFFBCF6D
:10F980008093C6008991999108958991999102C0B7
:10F9900070FF08957E7FF1E107C08991999102C0BF
:10F9A00070FD08957160F3E1E091C000E5FFFCCFC8
:10F9B000F093C60008956AF98372783080D21ED021
:10F9C0000F9476F3D9F39A938A93E5E7F3E0A09145
:10F9D0007303EA0FF51D808199270FB7F894A3955B
:10F9E000AF71A0937303A0917403AA95A0937403BD
:10F9F0000FBF0895B8F9847278303F00A091740366
:10FA0000A5110D9409F7C4DF0D9400F705DC0F94E0
:10FA1000D1F10341443F0F94C4F129CA03E080931C
:10FA2000C4039093C5030093C603033011F49E3DB5
:10FA300068F70091C40300700A110BC00091C50360
:10FA40000B1107C00091C6031091C703011301C039
:10FA500008955CD00091C4030070A02EB090C5033F
:10FA60000091C6030093C7030BBF00E0F501A0E0BF
:10FA7000B2E017911D930A95E1F703E00BBF0895DB
:10FA80001DDA13000F94FBEF19DA0A0063DBF89418
:10FA9000F5010091C7030BBF13E02DD011E12BD06E
:10FAA00000E0A0E0B2E00D901D9011E024D032966D
:10FAB0000250C9F7E050F14015E01DD016D000E02B
:10FAC000A050B14007901D90011035C00150D1F7F2
:10FAD0000FEFB02E0093C70303E00BBF6E7F789447
:10FAE000EDD911000F94FBEF089587B686FE0895B7
:10FAF00011E101D0FACF87B680FCFDCF17BFE895A2
:10FB00000895B8FE8669666C7573680060FDB8CFAD
:10FB100008950EF785656D707479D0D9BCFFCED984
:10FB20000022CCD90C000F94E4F40D94DCF614FB05
:10FB3000847761726D00F894AA27BB27C9E1D0E0F1
:10FB4000DD93C150E9F71FB604B650923400ACE122
:10FB50005D92B031E9F7BA94B092C703C1E06C2E60
:10FB6000C2E07C2EC4E6D4E007E214E00DBF1EBF65
:10FB700006EE13E0180103E00BBF6CBE9FD900DE58
:10FB80009DD9C8039BD91C000F94E4F497D9002297
:10FB9000FFD03FD90F9405F30F9476F309F0BDDF42
:10FBA00065BE75BE74BC03E005BD09EF07BD70926C
:10FBB0006E0084D995FC82D93203ADD007E600935C
:10FBC000C40008E90093C10006E00093C200716020
:10FBD00075D9B3FC73D948039ED009E10093CC00DA
:10FBE00008E90093C90006E00093CA007260E4D8F7
:10FBF0007894B3DD23D05CD10F9476F3D1F00F94D9
:10FC0000D1F1034553430F94C4F158D9D007A2DA78
:10FC10000F9408F00F9476F349F00F9401F04ED949
:10FC20001B000F9405F30F9476F319F441D10F9450
:10FC300010F00D9437F730FB837665720F94D1F195
:10FC400024466C617368466F727468203520415495
:10FC50006D656761323536302030372E30312E32C7
:10FC60003031370D0A000D94C4F138FCA2656900EB
:10FC7000789408956CFCA2646900F894089576FC69
:10FC8000C23B69001BD90D943AD118D971FC37D108
:10FC90000D941DF880FC84696E742100FC0131977D
:10FCA000EE0FF3E0899199910CDB0D9490FE96FC98
:10FCB000C76C69746572616C01D9D0EE95DB809375
:10FCC000B8039093B90360680F9468F7982F9295E2
:10FCD0009F708F70906E806812D1892F92959F705F
:10FCE0008F70906E80690D947FFF98DE8991999155
:10FCF000A0E0B2E00091C4030F7FA00F8D939D930D
:10FD000077C0B0FC823E6100282F392F89919991EC
:10FD1000089504FD8121923240F4FC01899199916A
:10FD20009183808389919991089509D09233E8F65F
:10FD30000F944AF16ED00196098108836AC062FF70
:10FD400008956ADA0F94D1F10341443F0F94C4F14E
:10FD500070CFFC010091C703033069F4FB110BC0A5
:10FD60000E2F00700A1539F4A0E0B2E0EF7FAE0F5D
:10FD70008D919D91089587919791089514FD8261C9
:10FD80003E009A938A93822F932F0895F8F581402D
:10FD9000923220F4FC018191919108959233C8F63A
:10FDA000F999FECF925281BD92BDF89A00B5839524
:10FDB00081BDF89A90B5802F0895CBDF99270895DB
:10FDC0008EFD82634000923220F4FC0181919927DC
:10FDD0000895923390F7E4DF992708951FDE899103
:10FDE0009991A0E0B2E00091C4030F7FA00F8D9322
:10FDF000616009C0C2FD82632100923238F4FC01C7
:10FE000089919991808389919991089598DF92338E
:10FE100028F7F999FECF925281BD92BD89919991AF
:10FE200080BDFA9AF99AEFCFF6FD83666C2D646077
:10FE300008952AFE83666C2B6B7F089534FE8576C9
:10FE4000616C75658ED80F94CCF0DBD80F9459F0A7
:10FE50000D94C8FE3EFE85646566657282D80F9477
:10FE60005EF76EEE0F94CCF0CCD80F9459F00D9451
:10FE70001AF056FEC26973000F947BF70F94D3F209
:10FE80000F94D3F285DF39D90F9476F329F014DF7C
:10FE90000F946BF016FD01C03EDF089574FEC2742E
:10FEA0006F000D943CFF9EFE877475726E6B6579D2
:10FEB0000F9426FFBA03A8FE85706175736568DC30
:10FEC0001FB7F894DF93CF939F938F935F934F93D4
:10FED000F1010EB702930DB70293B291A2911D01E9
:10FEE0000E910EBF0E910DBF4F915F918F919F911B
:10FEF000CF91DF911FBF089550DE82692C000F94CF
:10FF000094F709DF0F94DDF00D944DF9FAFE836943
:10FF1000632C0F9494F771DF0F947DF10D944DF9DC
:10FF200081200F9489F434DF803111F484E209C018
:10FF30008A3011F483E205C0823011F485E201C0F9
:10FF40008FE308953EE14CE15CE10F921F9209912D
:10FF50001991809FD001EE27FF27909FB00DE11DE2
:10FF6000F51D819FB00DE11DF51D919FE00DF11D67
:10FF7000BA93AA93CF011F900F900895E894882315
:10FF800029F4992319F468940D949BFDDC011990D0
:10FF9000E9918991999100E1FF27880F991F111C20
:10FFA000EE1FFF1F1A16EB07F50518F083951A1AB6
:10FFB000EB0B0A9589F7EA931A9208950000003234
:08FFC0000C22C20432F686EDAA
:00000001FF
