:020000023000CC
:10DE0000E894882329F4992319F468940D949DFDCE
:10DE1000DC011990E9918991999100E1FF27880F20
:10DE2000991F111CEE1FFF1F1A16EB07F50518F0BE
:10DE300083951A1AEB0B0A9589F7EA931A920895BB
:10DE400000008465786974000F910F910F91089517
:10DE500042DE8469646C65007F7B089552DE8462D3
:10DE600075737900706408954AFF846D736574005A
:10DE7000FC01899199910081082B008389919991E6
:10DE800008956ADE846D636C7200FC01899199913A
:10DE9000008180950823008389919991089584DEFB
:10DEA000866C736869667400FC0189919991319759
:10DEB0001AF0880F991FFBCF0895A0DE8672736851
:10DEC00069667400FC018991999131971AF09695D1
:10DED0008795FBCF089550D59DD24ED50D940AF26B
:10DEE000BCDE826E3D00F7DF8F703FD3B0D3B1F060
:10DEF00003D342D596D20CC0EEDF30D3A8D321F0A5
:10DF000040D70F94D5F904C0A2D2A1D309F430D7D9
:10DF10000F94C4F988F71F910F9101C032D7D8D35D
:10DF20000D9468F3E2DE84736B6970007AD288D74F
:10DF30008ED349F067D2EED38AD217D388D319F0A3
:10DF4000C4D1C5D4F4CF0F910F91089526DF847307
:10DF500063616E0030D365D208C00ED50F949BFA72
:10DF600004D375D311F0C8D203C00F94C4F9A8F735
:10DF700063D2BDD22CD308954EDF846D74737400C8
:10DF80000F94EAFE0D944FF27ADF8346637969D0ED
:10DF9000803E8373703F8ED00F9450F887D60F94D5
:10DFA0004BF884D6A4D2D0D2E4D10353503F2BD720
:10DFB00008958ADF84656D69740039D30D94FCEF90
:10DFC000B4DF836B657939D30D94FCEFC2DF846BCA
:10DFD00065793F0038D30D94FCEFCEDF8765786517
:10DFE00063757465FC01899199910894F795E7959B
:10DFF0001994DCDF8340657859D60D94F2EFF4DF95
:10E00000887661726961626C6500A2D0B7D0E2D196
:10E010000D941CF000E089327661726961626C6572
:10E0200097D004D70400D6D10D941CF016E0886375
:10E030006F6E7374616E7400C6D70F944AFE0D94B0
:10E04000F1F72EE08932636F6E7374616E74D0D114
:10E05000BAD70F944AFE0F944AFE0D94F1F7832825
:10E060006329FF91FF91EF910FD0FF91FF91EF9105
:10E07000199483286429BF91BF91AF91FF91FF91BB
:10E08000EF9102D0FD0119949A938A93EE0FFF1F2E
:10E0900087919791089583282C290F91FF91EF91F3
:10E0A000F3DFF795E795EF93FF930F939AC044E062
:10E0B00083737040FE019A938A93CF01089583730E
:10E0C0007021EC01089583727030BF91BF91AF91C0
:10E0D000E7D7ECD58DBF9EBF89919991FD01199429
:10E0E000B0E0B37270409A938A938DB79EB708954B
:10E0F000E2E0A23E3C00082F892F902F0895F2E025
:10E1000085666C6173685092C803089500E1866566
:10E110006570726F6D007092C80308950EE183728E
:10E12000616D04E00093C80308951EE182647000ED
:10E130001CD704D00D9439F2836373659A938A9344
:10E140008091C803992708952CE184686572650061
:10E15000EFDF0D94BFFE4AE1812CFADF1BD40ED015
:10E160000D94EAF158E182632C00F2DFD7D2ADD0F2
:10E170000D94EAF166E18463656C6C009A938A936E
:10E1800082E090E0089576E185616C69676EE0DF7A
:10E1900008D0CEDF0D9476FE88E187616C69676EEA
:10E1A0006564019643D6FEFF0D944FF29AE1A56394
:10E1B000656C6C2B02960895AEE1A563656C6C737B
:10E1C000880F991F0895BAE1A5636861722B0196C3
:10E1D0000895C8E1A563686172730895D4E183630B
:10E1E000662C2ED65BD652D13FD120D6F00FC7D1A8
:10E1F0002ED251F01BD60F940F949DFF0894979543
:10E2000087950F949DFF08C049D640D126D78AD163
:10E210009F70906D0F949DFF08958621636F6C6FC2
:10E220006E0004D6FAFF0D94F4F8DEE1823240006D
:10E2300007D63CD5DDD0BEDF0D9456F62CE28232F7
:10E240002100D6D0DFD0B6DFA5D30D9476FE3EE216
:10E25000853264726F70C5D00D94F1F150E2843252
:10E2600064757000CFD00D9402F25EE28532737750
:10E270006170D0D0D6D0CED0DFD008956CE2857357
:10E2800070616365EFD60D94DDEF7EE28673706199
:10E2900063657300E2D119F0F5DF2ED1FBCF0D9449
:10E2A000F1F18CE284756D696E00DCDF76D106C019
:10E2B000A4E284756D617800D5DF67D1C8D109F01B
:10E2C00097D00D94F1F1B2E281319A938A9381E073
:10E2D00090E00895C8E2866163636570740092D02F
:10E2E000C8D090D070DE8D3029F44BD52FD016D207
:10E2F00078D026C08A3049F474D028D00BD2A7D168
:10E30000F9F036D523D00AD2EDCF32D51FD006D2C0
:10E3100097D553DE95D58AD5080027D198D139F005
:10E3200060D0EAD07ED06ED087D0C6DFDBCF6AD097
:10E33000F5D1DDD067D0B9DF95DF10D188D191F666
:10E34000C7D156D00D9446F283666372A7D2F5FF0B
:10E35000D6E284747970650064D002C00DD32DDEDE
:10E360000F94C4F9D8F71F910F910D94F1F1832800
:10E370007322FF916CD0880F991FFED261D5B7D060
:10E3800010DF9695879558D074D0FC0189919991AA
:10E39000199452E3D273220080DE72E3B4DE05D01A
:10E3A0000D9491F094E3822C220040D52200A2D259
:10E3B000CFDE28D09CD0F5DE0DD00D94B3F4A6E3CB
:10E3C000D22E2200E9DF69DE58E30895C0E38561BB
:10E3D0006C6C6F74ADDE0D9498F2CEE3A464726F32
:10E3E0007000899199910895DCE3847377617000DE
:10E3F000099119919A938A93C8010895EAE3846F69
:10E40000766572009A938A938A819B810895FEE3D0
:10E4100083726F7406D0ECDF0FD0EACF10E4923E27
:10E420007200FF91FF91EF918F939F938991999142
:10E4300019941EE492723E00FF91FF91EF919A931E
:10E440008A939F918F91199434E492724000FF91C6
:10E45000FF91EF919A938A939F918F918F939F93BE
:10E4600019943CEE83616273EBD40D9477F364E40A
:10E47000812B09911991800F911F089570E4826D8D
:10E480002B00A8D70D940CFA7EE4812D09911991E7
:10E49000081B190BC80108958AE483616E64099111
:10E4A00019918023912308959AE4826F7200099153
:10E4B0001991802B912B0895AAE483786F720991AA
:10E4C0001991802791270895BAE4A6696E7665723E
:10E4D0007400809590950895CAE4866E65676174AE
:10E4E0006500F7DF0D9477F2DAE4A2312B00019694
:10E4F0000895EAE4A2312D0001970895F4E4A232D0
:10E500002B0002960895FEE4A53E626F647904969E
:10E51000089508E5A2322A00880F991F089514E58E
:10E52000A2322F0095958795089520E5822B210032
:10E530005FDF68DFBBD39DDF5BDF0D9476FE2CE5EC
:10E540008677697468696E005DDFA0DF6ADF9EDF31
:10E5500073DF0D94C5F240E5823C3E0097DF09F47D
:10E560007FC40D9428F758EE813D90DF0D9426F777
:10E5700068E5813C8BDF0D942EF772E5813E38DF34
:10E580000D94BAF27CE582753C0080DF08F460C42B
:10E590000D9430F786E582753E002ADF0D94C5F2B2
:10E5A00096E582217000AC01899199910895A2E5C8
:10E5B0009421703E7200FF91FF91EF914F935F9312
:10E5C000AC01899199911994B0E593723E70FF91D5
:10E5D000FF91EF915F914F911994CAE582704000CD
:10E5E0009A938A93CA010D94BFFEDCE582702100E4
:10E5F0009A938A93CA010D9476FEECE583706321A9
:10E600009A938A93CA010D940DFFFCE5A2702B002A
:10E61000460D551D08950CE683702B2B480F591F8E
:10E6200089919991089518E68527656D697436D1A9
:10E63000E8FF28E684276B65790030D1EAFF34E6ED
:10E6400085276B65793F2AD1ECFF833F303D0097EA
:10E650008991999108958364303D0097089540E62B
:10E6600083756D2A0D94D4FF60E686756D2F6D6FEE
:10E6700064000D9400EF6AE685752F6D6F6478D3A2
:10E68000B7DE0D9400EF78E6812AECDF0D94F1F10E
:10E6900088E682752F00F3DF0D9468F392E68675A5
:10E6A0002A2F6D6F6400BDDEDDDFC6DE0D9439F309
:10E6B0009EE6812FD7DD03DFB4DED6DE99DED4DE21
:10E6C00097DEE9DFB9DE0D9477F3B2E6836E697009
:10E6D0008FDE0D94F1F1CCE6847475636B0088DEF7
:10E6E0000D9402F2D8E6873F6E6567617465B6D314
:10E6F000AEDF09F0F6DE0895E6E6836D6178B2DDFF
:10E7000039DFDCCDFAE6836D696EACDD38DFD6CD5E
:10E71000826340000D94EAFE826321000D940DFF98
:10E7200006E7827570009DDC020022E784686F6C4A
:10E73000640027D39AD0FCDE98D0B8D20D940DFF98
:10E740002CE7823C230096D090D00D9476FE42E7D1
:10E75000863E64696769740073D368D309000FDF6C
:10E7600065D327009CDE85DE61D330000D9439F23D
:10E7700050E7812386D09AD298D14CDEEDDF0D94FC
:10E7800099F372E782237300F5DF6CDD90DE5FDFC3
:10E79000D9F7089584E782233E005DDD66D086D2F6
:10E7A00069D030DE0D9446F296E7847369676E0097
:10E7B00055D34DDF19F03AD32D00BBDF0895AAE7FA
:10E7C00082752E00C0DFD4D2DFDFE7DFC5DD0D9418
:10E7D00042F1C0E783752E72B6DF8EDE22DEC8D22C
:10E7E00001C0C8DFD1D5E8F71F910F91CDDFD5DF8C
:10E7F000B3DD0D9442F1D4E7812EA5DF21D334DEC1
:10E80000B7D2C2DF07DED4DFC8DFA6DD0D9442F148
:10E81000F8E787646563696D616C82D232D00D94CC
:10E8200076FE12E88368657801D310002AD00D9433
:10E8300076FE24E88362696EA1DC23D00D9476FE17
:10E8400034E885727361766529D0FEFF42E88575EC
:10E850006C696E6B23D0FCFF4EE8847461736B00AF
:10E860001DD0F2FF5AE88268700018D0000066E8F8
:10E87000837061649FD196D10D9439F28462617383
:10E8800065000CD0EEFF70E884757365720023D3C9
:10E8900075DC27DEA9D40F949DFF6DD39A938A93DC
:10E8A000FF91FF91EF91EE0FFF1F87919791820DDE
:10E8B000931D089588E886736F75726365008CD127
:10E8C0000D9418F1B6E8872F737472696E6790DD46
:10E8D00099DDDCDDA6DDCDDDAFDD0895C6E8C15CE8
:10E8E000EEDF73D157D060640D94F1F1DEE88570EE
:10E8F00061727365A5D2E3DF68D1D8D1E8DFA0D219
:10E9000090DD88DD13DB7EDD8CDD84DD23DBA5DEA1
:10E9100009F0F2DD91DD90DD7DDDB8DD56D108DE58
:10E92000DEDE0D9446F2EEE884776F726400E2DF7B
:10E930005FDDE2DDD4DE0D940DFF28E985636D6FA8
:10E94000766556DD38DE6DDD03C016D059DE60DE3B
:10E950001BD5D8F71F910F913ADE0D94F1F13CE9E8
:10E9600085706C6163657EDCD9DE31DC41DD0D9440
:10E97000A1F460E98363402B63D2B9DD39DD0D94E6
:10E98000EAFE74E982402B005BD2BBDD31DD0D94E1
:10E99000BFFE81210D9476FE84E9836E3E63ECDF39
:10E9A00045D20F007CDD65DD0D94D1F09AE98363DB
:10E9B0003E6E53D345D2AEDE39D27F00E0DD47DE76
:10E9C000C1F30895AEE9832866294CDC8CDA45DE74
:10E9D00021F007DD42D36AD133D239DEB1F73DDE13
:10E9E00041F076DE2DD2DBDF03DD09D02FD26DDCE6
:10E9F0005EDD0895C6E986696D6D65643F008ADE57
:10EA0000982E14D240000D944FF2F6E98466696E98
:10EA100064000CD250F5D9DF20DE21F4E2DC35D3DE
:10EA200045D1D3DF08950CEA8664696769743F00B5
:10EA300007D2FCD13900A3DD0ADE19F0F7D1270097
:10EA400025DDF4D1300022DDFBD11BDF2FD192DD9B
:10EA5000D9DC04D23EDD0D944FF228EA8573696754
:10EA60006E3FD0DC57DEE2D12C0010DDE9D1FCDCBA
:10EA70002CDC7BDD14DDF1DD29F039DDD2DC25DC99
:10EA800026DFDADC08955CEA8375642AD9D1C9DC13
:10EA9000E9DDA7DCADDCD0DCE5DDBCDC0D9439F2D2
:10EAA00088EA8675642F6D6F6400BBDC61D1CFDCB2
:10EAB000E0DDB0DCAFDCC0DCDCDD0D940AF2A2EA04
:10EAC000873E6E756D626572C8DDB1F0AADCB8D1A3
:10EAD000A8DC20DEADDFBBDD21F483DCADDCACDC0B
:10EAE0000BC09FDCCEDEE2D0D1DFA6DCCADCA4DC2A
:10EAF000A3DCEBDBECDEE8CF08951AE828E838E881
:10EB0000C0EA876E756D6265723F9AD131D130D19E
:10EB100081DC32DFA6DF85DCB4DEC8D082DC72DCCB
:10EB2000F9DD84D12300B2DC8BD180D103002DDD4F
:10EB30008EDD41F045DB7AD1FAEA9BDC5DDAC5DB9C
:10EB4000C6DE01C04EDCC0DF77DC9BDE23DF78D180
:10EB500084D284D17CDD31F46FDC43DC7CDB7BDB75
:10EB600007D117C086DB68DC72DD09F03BD481DB9E
:10EB70006EDD61F00F94EAFE59D12E0087DC67DD6F
:10EB800071F748DC2EDC52D1020003C064DBA0DD4B
:10EB90009CDB08958473776170000D94F8F102EBAB
:10EBA000837469235DDE82D005960D94EAFEA0EBA6
:10EBB0008374696205D00D94BFFEB0EB83746975F0
:10EBC0006DDEF0FFBCEB833E696E68DEFAFFC6EBDC
:10EBD0008727736F7572636561DEF6FFD0EB896915
:10EBE0006E74657270726574F7DF2BDBC1D0EDDF78
:10EBF000D1DE38D29CDE24D18DDD29DD09F453C06D
:10EC000008DF2BDDA1F173DC34D220D150DC1FDD15
:10EC100099F094FE0AC02DD2ACDB0C434F4D504905
:10EC20004C45204F4E4C5900EED06F7BDBD966FD32
:10EC3000E0CF6F7E6F7DDDCF6F7E02D1F7D04CEEDF
:10EC400094DC05DD11F060610DC06F7DF9D0EED070
:10EC500040EE8BDCFCDC09F0606295FE03C00F9493
:10EC60009BF9C7CF27D16D7F94FC6260C2CF6F7EC6
:10EC70006F7DB7DB4ADFF1DC81F0FBD1E8DC59F0D6
:10EC8000082F8991999101FF03C087DF0F944AFEF5
:10EC90000F944AFEAECFA5DBACCFA3DB45D06CDE34
:10ECA0005BDB66D0A7D00D94F1F181400D94BFFEDF
:10ECB000DEEB83736862E9D1F9DFC2D02BDDAADB1A
:10ECC000F6DB6BDF0D940DFFB2EC89696D6D656449
:10ECD00069617465ABD040000D945BF6CAEC87693E
:10ECE0006E6C696E6564A2D020000D945BF6DEEC5C
:10ECF000832E73749BD03C0060D90F94AFFF5DD915
:10ED000095D02C005AD90F94C4FF26DB8FD03E003B
:10ED100054D90D94B3F8823E72000D9411F28161C2
:10ED2000A0D90A008364703E81D00022BDD1F8DFF3
:10ED30000D94A1F4833E647079D000223CDCB4D100
:10ED400075D004006EDB20DE7BD04ADC07DC7FDC84
:10ED500011F04EDC01C045DBFDD316D3A0F71F91A7
:10ED60000F9135DC0D94F1F1F0EC8566616C736503
:10ED70009A938A938827992708956AED8474727507
:10ED800065009A938A938FEF9FEF08957CED8471CD
:10ED9000756974009AD90BD1C4D9BAD6C5DFFBD82E
:10EDA0008ED008DF4DD0FEDEBBDF70DB98DA6ADA8A
:10EDB0001BDF5FD14CDC99F7BFDFDBDA03206F6B21
:10EDC000CBDA07D0EACF08958EED8670726F6D7042
:10EDD00074000F9447FF0A22CAED8561626F727456
:10EDE0005AD164DF6ED90D94CAF6DAED873F6162BD
:10EDF0006F72743FBEDA013F0D9403F7ECED863F6E
:10EE000061626F72740006DB22DC19F43BDAA4DA6B
:10EE1000E7DF0D942BF1FEEDD661626F7274220074
:10EE2000BBDA3BD906EE0895836C6974FF91FF91BC
:10EE3000EF912AD9F795E79519944AE4A364757080
:10EE40009A938A93089558E582303D00982B41F4B7
:10EE50009FEF8FEF089548EE82303C009923C2F374
:10EE600099278827089518EE8127FCD060DDD1DD31
:10EE70000D94FAF668EE846368617200F3D03ADDAF
:10EE8000B0DA0D94EAFE76EEC128D0DF290032DD3B
:10EE900060640D942BF185696865726566D006CF54
:10EEA00088EED65B636861725D00E8DF0D944AFE10
:10EEB0008363662C0D94F1F0A2EE82637200B6DFDC
:10EEC0000D007BD8B3DF0A000D94DDEFBAEE866348
:10EED000726561746500C6D02ADDB2DF9ADDF8DBA9
:10EEE000B5DF47DA0F414C5245414459204445466D
:10EEF000494E454488DFA4DF0DDCE7D997DF1000D9
:10EF000023DB78DFC2D0D2DE0F949DFF35DDC6DF74
:10EF100097DFBBD03FDD27DDC1DFFCDB87DF800073
:10EF2000CADEE5DA3ED960D181DF62E063D92FD94C
:10EF30000FD904D98CDB09F4E4DA0D949DFFCEEEF1
:10EF4000D8706F7374706F6E65008CD0F0DC61DD0B
:10EF500077DF50DF83DF7BDB21F09FD89AE00D94D1
:10EF60009DFF0D94F1F0836964707BD8BA03872804
:10EF7000646F65733E29FF915FDA87D097DE0FDDFE
:10EF8000F4DF94DECADEF1DF05DD880F991F32D988
:10EF900053DAEBDF0D9476FE40EFD5646F65733E78
:10EFA0007CD876EF7AD876E008959AEFC15B00704E
:10EFB0000093C9030895ACEF815D0F6F0093C903FF
:10EFC0000895B8EF813A87DFF8DF0D9411F1C4EFAF
:10EFD000873A6E6F6E616D6561DF0D94DDF7D0EF7E
:10EFE000D13BE5DF61FD25C059DF2AD08C01107FC0
:10EFF000105D59F08991999123D08F509449C1F4B3
:10F000008DE094E9F5D90D9476FE62DB9F7093FD57
:10F01000906F82DA43DF2DDA09DFFEFFE5D006DFED
:10F020000D940F949DFF0894979587950D949DFFDF
:10F0300012D9FCDE08950D949DFFE0EF822D400073
:10F040000CD0FEDE0D94BFFE3CF0D35B275D0DDFE0
:10F050000D944AFE4AF0A2322D000297089556F010
:10F0600082626C000F9431F0200060F0857374614F
:10F0700074659A938A938091C9039091C903089506
:10F080006CF0866C6174657374000F9431F0C0038A
:10F0900082F08273300002DCE4FF92F08272300072
:10F0A000FDDBE6FF83696E690F9431F0B8039CF0D5
:10F0B000857469636B739A938A930FB6F8948E2D57
:10F0C0009F2D0FBE0895B0F0826D7300F4DFD1D98B
:10F0D00008D7B6DEF0DFDAD9C1DEB9DAC9F30D94AC
:10F0E000F1F1C8F0832E696447DCA0DE0F00D7D9A8
:10F0F00098D903C041DC0AD0E7DE46D1D8F71F918A
:10F100000F910D94F1F1E4F0833E7072803012F0B3
:10F1100080320AF48EE2089508F185776F72647385
:10F1200027DECDDE83DE50F505D022DEC8DEC7DE69
:10F13000ACDFBCDD85DED8DF30DDD9D981DE76DE1F
:10F140000700ADD984DA21F071DE0900BDDE01C00F
:10F15000B6DE23DD82DFAADD80DA61F70D942BF1C4
:10F160001AF1822E73008ED86BDE0F945AF093DF63
:10F170009DDD73DF77D8FED96ADA19F061DF22DB13
:10F18000F9CF2FD90D942BF162F18464756D700065
:10F190004DDE100080DA45D920C091DE51DE46DE1A
:10F1A00004001ADB43DE3A008FDE40DE0F0039D95F
:10F1B000E3DB3CDE020010DBE7D0D0F71F910F91BC
:10F1C00035DE100063D932DE0F002BD9D5DB9EDF90
:10F1D0007BDEDAD0D8F71F910F91D6D0F0F61F91D1
:10F1E0000F910D94F1F18120C0DE0D9498F28AF117
:10F1F00083783E72FC01899199910AD0319682936D
:10F20000929362925292CF010895F0F1833E786119
:10F2100008949795879508950CF28378613E880F3E
:10F22000991F08951AF28370666C0F9431F00000F4
:10F2300026F2837A666C0F9431F00300842C3F3001
:10F240003D0065FD03C0F2DD4EE603C004D0EEDDF7
:10F250005AE66F7D70C0EADDFCFFC6CF63D99F70B0
:10F26000906C0D949DFFE2DD08F00D949DFFDEDDB6
:10F2700009F464FD9B7F0D949DFF32F2D269660014
:10F2800064FDE9DFDEDFF3DF6F7E08DE71DD0D9404
:10F290002EF97CF2D4656C73650000DE69DDDEDF7B
:10F2A0007CDC0D9457F994F2D47468656E0062604A
:10F2B000F5DDA8D8EBD8D1DE35D9B8DD00C0F7D858
:10F2C0006CDC0D9476FEA8F2D5626567696E0D94CC
:10F2D0004EF7C8F2D5756E74696C626064FDBBDF71
:10F2E000B0DFC5DF6F7E0D9479F9D4F2D561676127
:10F2F000696E6260D3DDCAD8B0DE0D942EF9ECF2EF
:10F30000D57768696C65BCDF0D94F8F100F3D672AF
:10F31000657065617400EDDF0D9457F90EF3D669E1
:10F320006E6C696E65006F7E6F7D9FDD0D949BF93D
:10F330001EF383696E2C28DB83DD78DD08950ED9FA
:10F3400086D911F0FAD5F7CF0D942BF132F3D366AD
:10F350006F720F944DF022E4A1DD0ADD7FDF9EDDA8
:10F360000D94F8F14EF3D46E65787400A0DF0F941D
:10F370004DF088F378DFBDDF59DD9CF30D949BF9E8
:10F3800087286E6578742920FF91FF91EF91BF91D6
:10F39000AF911197AF93BF93199408951F910F9157
:10F3A000089566F395656E646974FF91FF91EF911E
:10F3B0001F910F91002711270F931F931994A4F306
:10F3C000D57264726F7032DD9CF30D949BF9C0F3BB
:10F3D00083733E6497FFCCCCD4CCD0F387646E6546
:10F3E0006761746549D00F9465F10D9441F2DCF3C7
:10F3F000883F646E65676174650030DD28D909F067
:10F40000F1DF0895F0F384646162730019DD0D94F7
:10F41000FDF906F482642B00A991B9910990199025
:10F4200009911991A00FB11F801D911DBA93AA9344
:10F43000089514F482642D00D5DF0D940CFA34F491
:10F440008364322F099119919595879517950795A2
:10F450001A930A93089540F48364322A099119910A
:10F46000000F111F881F991F1A930A93089558F4CB
:10F470008764696E76657274A991B991A095B0950B
:10F4800080959095BA93AA93089570F48364303D63
:10F49000A991B991892B8A2B8B2B51F48FEF9FEF78
:10F4A00008958CF48364303CA991B9919030B2F303
:10F4B000882799270895A4F482643D00BDDF0D9448
:10F4C00048FAB8F482643C00B7DF0D9454FAC4F4EF
:10F4D00082643E000F9439F10D9464FAD0F4837580
:10F4E000642E31D951D959D90F94ACF10D9442F110
:10F4F000DEF482642E0027D90F9420F70F9411F2C6
:10F5000085DF42D90F941CF253D947D90F94ACF13F
:10F510000D9442F1F2F48268690088DC2AF50F94B8
:10F520009EF00F9439F20D94BFFEFF10FF31FF21C2
:10F5300016F5A24070009A938A93CA01089532F595
:10F54000837063409A938A93CA010D94EAFE40F552
:10F55000A370322B470D551D08950000866D617212
:10F560006B6572000F9483F0B6DC60DC00220F94B0
:10F57000A8F0D6DBE6D9D4DB0F94EAF10F9491F032
:10F58000FADC0F943BF090DDCBDB0D94A1F43EFA56
:10F5900083747831813171F08331A1F07068A1D426
:10F5A0000091C80005FFFACF8093CE008991999110
:10F5B0007F7708958991999102C071FF08957D7FA9
:10F5C000F1E107C08991999102C071FD08957260BF
:10F5D000F3E1E091C800E5FFFCCFF093CE00089581
:10F5E00090F5837278317DD41ED00F9427F3D9F330
:10F5F0009A938A93E8E9F3E0A0919603EA0FF51D48
:10F60000808199270FB6F894A395AF71A0939603C4
:10F61000A0919703AA95A09397030FBE0895E2F5D2
:10F62000847278313F00A0919703A5110D94C1F623
:10F63000C4DF0D94B8F6E8E9F3E0A0919503EA0F72
:10F64000F51DB091CE00B083A395AF71A093950343
:10F65000A0919703A395A0939703AE3109F404D02A
:10F66000A4300AF0B4DF47C1FCE7B3CF00FE03C00B
:10F67000DDDB500029DC01FE03C0D8DB450024DCC3
:10F6800002FE03C0D3DB42001FDC03FE03C0CEDB5F
:10F6900057001ADC16FE03C0C9DB440015DC0D94CC
:10F6A00042F175FF1FC09A938A930FB6F8947F7D3D
:10F6B0008091C4039091C5039A938A938091C60365
:10F6C0005092C4035092C5035092C6030FBE9927AF
:10F6D0009A938A9380E090EA0F9439F38093C7035A
:10F6E0000F942BF174FF02C0279A2F9876FD0BC060
:10F6F00077FD09C006EE201631F401E003BF5092F9
:10F700008100889553BE74FD2F9A0895E091C4033B
:10F71000F091C5030091C603B0918400EB0FB09146
:10F720008500FB1F051D5092850050928400E093D8
:10F73000C403F093C5030093C603EE2009F470627E
:02F74000DAC02D
:06F800000D949DFD80D077
:02F808007ED0B0
:02F80C007CD0AE
:02F810007AD0AC
:02F8140078D0AA
:02F8180076D0A8
:02F81C0074D0A6
:02F8200072D0A4
:02F8240070D0A2
:02F828006ED0A0
:02F82C006CD09E
:02F830006AD09C
:02F8340068D09A
:02F8380066D098
:02F83C0064D096
:02F8400062D094
:02F8440060D092
:02F848005ED090
:02F84C005CD08E
:02F850005AD08C
:02F8540058D08A
:02F8580056D088
:02F85C0054D086
:02F8600052D084
:02F8640050D082
:02F868004ED080
:02F86C004CD07E
:02F870004AD07C
:02F8740048D07A
:02F8780046D078
:02F87C0044D076
:02F8800042D074
:02F8840040D072
:02F888003ED070
:02F88C003CD06E
:02F890003AD06C
:02F8940038D06A
:02F8980036D068
:02F89C0034D066
:02F8A00032D064
:02F8A40030D062
:02F8A8002ED060
:02F8AC002CD05E
:02F8B0002AD05C
:02F8B40028D05A
:02F8B80026D058
:02F8BC0024D056
:02F8C00022D054
:02F8C40020D052
:02F8C8001ED050
:02F8D0001AD04C
:02F8D40018D04A
:02F8D80016D048
:02F8DC0014D046
:02F8E00012D044
:10F8E4009F918F911F900F901F9103C0E60CF51C00
:10F8F4000BCF0F91FF91EF91A991B991BFBFB9912E
:10F90400189560928100BA93BFB7BA93AA93BF9136
:10F91400BF91AF91EF93FF930F93AB3239F3A333BE
:10F9240061F0A93441F11F930F921F928F939F931B
:10F93400A150B3E0ED91FD911994E5E7F3E0A091B6
:10F944007203EA0FF51DB091C600BF3009F456CF1B
:10F95400B083A395AF71A0937203A0917403A39590
:10F96400A0937403AE3109F404D0A4300AF03CD05F
:10F97400C0CFFCE73BC05DCE5EDE856C6F61642B5F
:10F98400706108957EF9856C6F61642D7F7E279880
:10F994002F9808958AF9846C6F6164009A938A930E
:10F9A40099278091C70308959AF983747830813137
:10F9B40071F08331A1F0706892D20091C00005FF0C
:10F9C400FACF8093C600899199917F7708958991A0
:10F9D400999102C070FF08957E7FF1E107C089917B
:10F9E400999102C070FD08957160F3E1E091C00047
:10F9F400E5FFFCCFF093C6000895AEF9837278302A
:10FA04006ED21ED00F9427F3D9F39A938A93E5E725
:10FA1400F3E0A0917303EA0FF51D808199270FB6D7
:10FA2400F894A395AF71A0937303A0917403AA955E
:10FA3400A09374030FBE089500FA847278303F00D7
:10FA4400A0917403A5110D94C1F6C4DF0D94B8F60A
:10FA540088DB0F94B9F10341443F0F94ACF1BEC964
:10FA64000D2D003EA8F70C2D00700A1103C0DB1009
:10FA740001C008954BD00C2D0070A02EBD2C00E0C9
:10FA8400F501A0E0B2E017911D930A95E1F70895FE
:10FA9400CBD913000F94DDEFC7D90A0015DBF89416
:10FAA400F50113E028D011E126D000E0A0E0B2E097
:10FAB4000D901D9011E01FD032960250C9F7E0500E
:10FAC400F14015E018D011D000E0A050B1400790EB
:10FAD4001D90011030C00150D1F7BB246E7F789483
:10FAE400A3D911000F94DDEF089587B686FE08951B
:10FAF40011E101D0FACF87B680FCFDCF17BFE8959E
:10FB04000895DCFE8669666C7573680060FDC0CF7D
:10FB1400089520F685656D70747986D9EEFF84D9D1
:10FB2400002282D90C000F94A1F40D9494F618FBD2
:10FB3400847761726D00F894AA27BB27C9E1D0E0ED
:10FB4400DD93C150E9F71FB604B650923400ACE11E
:10FB54005D92B031E9F7C1E06C2EC2E07C2EC4E8BE
:10FB6400D4E007E414E00DBF1EBF06EE13E0180155
:10FB740003E00BBF6CBE58D9D2FF56D9C80354D981
:10FB84001C000F94A1F450D90022F7D0F8D80F9498
:10FB9400B5F20F9427F309F0C0DF65BE75BE74BCDF
:10FBA40003E005BD09EF07BD70926E0009E1009303
:10FBB400C40008E90093C10006E00093C20071602C
:10FBC40009E10093CC0008E90093C90006E0009322
:10FBD400CA007260A7D8789447DD23D079D10F94F6
:10FBE40027F3D1F00F94B9F1034553430F94ACF1CB
:10FBF4001BD9D00769DA0F94EAEF0F9427F349F081
:10FC04000F94E3EF11D91B000F94B5F20F9427F36F
:10FC140019F45ED10F94F2EF0D94F0F634FB837671
:10FC240065720F94B9F117466C617368466F72740C
:10FC3400682041746D65676120352E300D0A0D947E
:10FC4400ACF122FCA26569007894089548FCA26492
:10FC54006900F894089552FCC23B6900E5D80D94FC
:10FC64006AD1E2D872FC67D10D94D7F75CFC846941
:10FC74006E742100FC013197EE0FF3E089919991A4
:10FC8400C5DA0D947BFE72FCC76C69746572616C95
:10FC9400CBD840EE4EDB0F9420F7982F92959F70AF
:10FCA4008F70906E806847D1892F92959F708F7066
:10FCB400906E80690D949DFF39D06C01D1DE8991DD
:10FCC4009991A0E0B2E00C2D0F7FA00F8D939D932E
:10FCD40089919991616008958CFC823E6100E2EC07
:10FCE400F3E007C0DEFC8121923240F4FC018991EB
:10FCF4009991918380838991999108959233E0F643
:10FD040015D0F999FDCF925281BD92BD89919991F7
:10FD140080BDFA9AF99AF999FECF81B5839581BD90
:10FD240090BDFA9AF99A89919991089562FF08957C
:10FD340018DA0F94B9F10341443F0F94ACF16CCF3E
:10FD4400FC01FB110BC00E2F00700A1539F4A0E062
:10FD5400B2E0EF7FAE0F8D919D91089587919791B9
:10FD640003E00BBF0895EAFC82613E009A938A93F4
:10FD7400E2ECF3E005C06CFD8140923220F4FC011A
:10FD84008191919108959233D8F6F999FECF9252C8
:10FD940081BD92BDF89A80B591B5939591BDF89ABD
:10FDA40090B50895FC01FB110BC00E2F00700A15CD
:10FDB40039F4A0E0B2E0EF7FAE0F8D91992708955A
:10FDC4008791992703E00BBF08957CFD826340006F
:10FDD400923220F4FC01819199270895923310F70F
:10FDE400F999FECF925281BD92BDF89A80B59927B8
:10FDF40008959CDF6C0134DE89919991A0E0B2E012
:10FE04000C2D0F7FA00F8D938991999161600895B6
:10FE1400D0FD82632100923238F4FC0189919991DA
:10FE24008083899199910895923318F77FDFF99926
:10FE3400FDCF925281BD92BD8991999180BDFA9A6C
:10FE4400F99A89919991089516FE83666C2D6460E0
:10FE540008954EFE83666C2B6B7F089558FE85765D
:10FE6400616C756536D80F94ADF083D80F943BF070
:10FE74000D94BFFE62FE8564656665722AD80F9490
:10FE840016F7E0ED0F94ADF074D80F943BF00D9499
:10FE9400FCEF7AFEC26973000F9435F70F9481F278
:10FEA4000F9481F26ADFE3D80F9427F329F0F0DE90
:10FEB4000F944DF0ECFC01C017DF089598FEC27456
:10FEC4006F000D944EFFC2FE877475726E6B657978
:10FED4000F9438FFB803CCFE857061757365DFDB62
:10FEE4000FB6F894DF93CF939F938F935F934F93C1
:10FEF400F1010EB702930DB70293B291A2911D01C5
:10FF04000E910EBF0E910DBF4F915F918F919F91F6
:10FF1400CF91DF910FBE089508FB886F7065726101
:10FF2400746F72000F9431F02EFFE60300604054AA
:10FF34001EFF82692C000F944EF7D6DE0F94BEF09C
:10FF44000D94F4F836FF8369632C0F944EF763DF46
:10FF54000F9465F10D94F4F881200F9441F40DDFB2
:10FF6400803111F484E209C08A3011F483E205C0BF
:10FF7400823011F485E201C08FE3089500E10EE1BF
:10FF84001EE181200F949EF00F9416F780FF0F94CA
:10FF940039F20F9456F60F94BCF40F9416F70F0031
:10FFA4000D944FF209911991809FD001EE27FF27FC
:10FFB400909FB00DE11DF51D819FB00DE11DF51D54
:10FFC400919FE00DF11DBA93AA93CF010895000209
:10FFD40084044704B2F904FA44FA0A0088042EFFA0
:10FFE4000000000000000000E603000000320C22C4
:06FFF400DC045CF5F4ECF6
:00000001FF
