:020000020000FC
:105F0000E894882329F4992319F468940C945F3D4C
:105F1000DC011990E9918991999100E1FF27880F9F
:105F2000991F111CEE1FFF1F1A16EB07F50518F03D
:105F300083951A1AEB0B0A9589F7EA931A9208953A
:105F400000008465786974000F910F91089542DF15
:105F50008469646C65007F7B089550DF846275738B
:105F6000790070640895B4FE846D73657400FC015B
:105F7000899199910081082B0083899199910895C5
:105F800068DF846D636C7200FC01899199910081D6
:105F900080950823008389919991089582DF866C0A
:105FA000736869667400FC018991999131971AF0C0
:105FB000880F991FFBCF08959EDF8672736869660C
:105FC0007400FC018991999131971AF09695879503
:105FD000FBCF089546D598D244D50C948432BADFCD
:105FE000826E3D00F7DF8F7037D3A6D3B1F0FBD2BE
:105FF00038D591D20CC0EEDF28D39ED321F036D70E
:106000000E94493A04C09BD297D309F426D70E9434
:10601000393A88F71F910F9101C028D7CED30C943D
:10602000DD33E0DF84736B69700075D27DD784D374
:1060300049F062D2E4D383D20FD37ED319F0BFD11B
:10604000BBD4F4CF0F910F91089524E08473636162
:106050006E0028D360D208C004D50E940E3BFCD24B
:106060006BD311F0C0D203C00E94393AA8F75DD2B9
:10607000B5D223D308954CE0846D747374000E94EC
:106080009F3E0C94C63278E0834663796AD0803EA6
:106090008373703F89D00E94C4387DD60E94BF3878
:1060A0007AD69CD2C8D2DFD10353503F21D708956E
:1060B00088E084656D6974002FD30C947C30B2E065
:1060C000836B65792FD30C947C30C0E0846B657949
:1060D0003F002ED30C947C30CCE0876578656375E7
:1060E0007465FC01F058899199918894F795E7952A
:1060F0000994DAE0834065784ED60C947130F4E070
:10610000887661726961626C65009BD0B0D0DCD129
:106110000C949C3000E189327661726961626C6531
:1061200090D0F9D60400D0D10C949C3016E188634D
:106130006F6E7374616E7400B9D70E94013E0C9447
:1061400064382EE18932636F6E7374616E74CAD1E4
:10615000ADD70E94013E0E94013E0C946438832812
:106160006329FF91EF910CD0FF91EF91099483285F
:106170006429BF91AF91FF91EF9102D0FD01099485
:106180009A938A93EE0FFF1F859195910895832826
:106190002C29FF91EF91F4DFF795E795EF93FF93AB
:1061A00099C044E183737040FE019A938A93CF01B2
:1061B000089583737021EC01089583727030BF914C
:1061C000AF91E2D7E8D58DBF9EBF89919991FD012E
:1061D0000994A4E1B37270409A938A938DB79EB7E5
:1061E0000895D4E1A23E3C00082F892F902F0895F6
:1061F000E4E185666C6173685092E7010895F2E10D
:1062000086656570726F6D007092E701089500E217
:106210008372616D04E00093E701089510E28264E7
:10622000700017D704D00C94B032836373659A93CF
:106230008A938091E701992708951EE28468657228
:106240006500EFDF0C94753E3CE2812CFADF17D439
:106250000ED00C9464324AE282632C00F2DFD3D277
:10626000AED00C94643258E28463656C6C009A93EF
:106270008A9382E090E0089568E285616C69676EB8
:10628000E0DF08D0CEDF0C942D3E7AE287616C69A6
:10629000676E656401963FD6FEFF0C94C6328CE2B1
:1062A000A563656C6C2B02960895A0E2A563656CEE
:1062B0006C73880F991F0895ACE2A5636861722B17
:1062C00001960895BAE2A563686172730895C6E203
:1062D0008363662C29D656D650D13DD11CD6F00FFB
:1062E000C5D12AD259F017D60E940E94523F905829
:1062F0008894979587950E94523F08C043D63DD118
:1063000020D787D19F70906D0E94523F08958621BB
:10631000636F6C6F6E00FFD5FAFF0C946839D0E2A2
:106320008232400001D637D5DDD0BDDF0C94CB36AC
:1063300020E382322100D6D0DFD0B5DFA0D30C9489
:106340002D3E32E3853264726F70C5D00C946B328F
:1063500044E3843264757000CFD00C947C3252E3F5
:10636000853273776170D0D0D6D0CED0DED008958C
:1063700060E3857370616365E9D60C945C3072E309
:106380008673706163657300DDD119F0F5DF2BD181
:10639000FBCF0C946B3280E384756D696E00DCDF9B
:1063A00073D106C098E384756D617800D5DF64D140
:1063B000C3D109F097D00C946B32A6E381319A9344
:1063C0008A9381E090E00895BCE386616363657021
:1063D000740092D0C5D090D075DE8D3029F446D5AA
:1063E0002FD011D278D026C08A3049F474D028D06A
:1063F00006D2A2D1F9F031D523D005D2EDCF2DD5DB
:106400001FD001D291D558DE8FD585D5080024D173
:1064100093D139F060D0E7D07ED06ED086D0C6DF81
:10642000DBCF6AD0F0D1DAD067D0B9DF95DF0DD1FC
:1064300083D191F6C2D156D00C94BD32836663727B
:10644000A3D2F5FFCAE384747970650064D002C0FA
:1064500008D332DE0E94393AD8F71F910F910C947D
:106460006B32832873226BD0880F991F9058F9D212
:106470005BD5B4D00FDF9695879557D071D0FC01CE
:1064800089919991099446E4D273220082DE66E4F0
:10649000B3DE05D00C940A3188E4822C22003BD56F
:1064A00022009DD2CEDE28D099D0F4DE0DD00C94FF
:1064B00028359AE4D22E2200E9DF6BDE4CE4089501
:1064C000B4E485616C6C6F74ACDE0C940F33C2E481
:1064D000A464726F7000899199910895D0E48473D7
:1064E00077617000099119919A938A93C801089570
:1064F000DEE4846F766572009A938A938A819B8129
:106500000895F2E483726F7406D0ECDF0ED0EACF08
:1065100004E5923E7200FF91EF918F939F938991D2
:106520009991099412E592723E00FF91EF919A932E
:106530008A939F918F91099426E592724000FF9172
:10654000EF919A938A939F918F918F939F93099440
:1065500024EF83616273E8D40C94EC3352E5812B11
:1065600009911991800F911F08955EE5826D2B00AE
:10657000A4D70C947F3A6CE5812D09911991081BE1
:10658000190BC801089578E583616E64099119912A
:1065900080239123089588E5826F720009911991F3
:1065A000802B912B089598E583786F72099119914A
:1065B000802791270895A8E5A6696E766572740014
:1065C000809590950895B8E5866E6567617465005D
:1065D000F7DF0C94EE32C8E5A2312B000196089546
:1065E000D8E5A2312D0001970895E2E5A2322B00F3
:1065F00002960895ECE5A53E626F647904960895CD
:10660000F6E5A2322A00880F991F089502E6A23209
:106610002F009595879508950EE6822B210062DF65
:106620006BDFB9D39DDF5EDF0C942D3E1AE68677D3
:10663000697468696E0060DFA0DF6DDF9EDF75DF63
:106640000C943C332EE6823C3E0097DF09F47CC478
:106650000C949C3740EF813D90DF0C949A3756E6BE
:10666000813C8BDF0C94A23760E6813E3BDF0C94CB
:1066700031336AE682753C0080DF08F45DC40C9417
:10668000A43774E682753E002DDF0C943C3384E61B
:1066900082217000AC0189919991089590E694212E
:1066A000703E7200FF91EF914F935F93AC0189911F
:1066B000999109949EE693723E70FF91EF915F91DC
:1066C0004F910994B6E6827040009A938A93CA016A
:1066D0000C94753EC6E6827021009A938A93CA0193
:1066E0000C942D3ED6E6837063219A938A93CA0157
:1066F0000C94C23EE6E6A2702B00460D551D08958F
:10670000F6E683702B2B480F591F899199910895B4
:1067100002E78527656D697437D1E8FF12E78427A2
:106720006B65790031D1EAFF1EE785276B65793FFC
:106730002BD1ECFF833F303D0097899199910895CB
:106740008364303D009708952AE783756D2A0C9481
:10675000893F4AE786756D2F6D6F64000C94802F1A
:1067600054E785752F6D6F6478D3BCDE0C94802F51
:1067700062E7812AECDF0C946B3272E782752F009E
:10678000F3DF0C94DD337CE786752A2F6D6F640090
:10679000C2DEDDDFCADE0C94AE3388E7812FDCDD9C
:1067A00005DFB9DED8DE9EDED6DE9CDEE9DFBDDEAB
:1067B0000C94EC339CE7836E697094DE0C946B321E
:1067C000B6E7847475636B008DDE0C947C32C2E78F
:1067D000873F6E6567617465B5D3AEDF09F0F8DE9B
:1067E0000895D0E7836D6178B7DD3BDFE1CDE4E765
:1067F000836D696EB1DD3ADFDBCD826340000C94BE
:106800009F3E826321000C94C23EF0E782757000C7
:10681000A8DC02000CE884686F6C640027D39AD06F
:10682000FEDE98D0B8D20C94C23E16E8823C23001B
:1068300096D090D00C942D3E2CE8863E6469676912
:10684000740072D368D3090011DF65D327009EDE80
:1068500087DE61D330000C94B0323AE8812387D0D0
:106860009AD298D151DEEDDF0C940E345CE882238D
:106870007300F5DF71DD92DE5FDFD9F708956EE812
:1068800082233E0062DD66D086D269D035DE0C946C
:10689000BD3280E8847369676E0054D34DDF19F010
:1068A0003AD32D00BBDF089594E882752E00C0DF37
:1068B000D4D2DFDFE7DFCADD0C94BC31AAE88375F0
:1068C0002E72B6DF90DE27DEC8D201C0C8DFD1D578
:1068D000E8F71F910F91CDDFD5DFB8DD0C94BC3107
:1068E000BEE8812EA5DF20D336DEB7D2C2DF0CDEB4
:1068F000D4DFC8DFABDD0C94BC31E2E887646563AC
:10690000696D616C82D233D00C942D3EFCE88368B3
:10691000657801D310002BD00C942D3E0EE98362D4
:10692000696EA5DC24D00C942D3E1EE9857273613E
:1069300076652AD0FEFF2CE985756C696E6B24D0D4
:10694000FCFF38E9847461736B001ED0F2FF44E9E8
:106950008268700019D0000050E9837061649FD193
:1069600096D10C94B0325AE98462617365000CD000
:10697000EEFF68E984757365720021D378DC28DE48
:10698000A7D40E94523F6BD39A938A93FF91EF91C1
:10699000EE0FFF1F85919591820D931D089574E967
:1069A00086736F75726365008CD10C949231A0E987
:1069B000872F737472696E6795DD9EDDDEDDABDD5A
:1069C000CFDDB3DD0895B0E9C15CEEDF73D157D000
:1069D00060640C946B32C8E9857061727365A4D2EF
:1069E000E3DF68D1D8D1E8DF9FD295DD8DDD1DDBF7
:1069F00083DD91DD89DD2DDBA5DE09F0F4DD95DD9C
:106A000094DD82DDBADD56D10ADEDEDE0C94BD32C5
:106A1000D8E984776F726400E2DF64DDE4DDD4DE00
:106A20000C94C23E12EA85636D6F76655BDD3ADEDB
:106A300072DD03C016D059DE60DE1BD5D8F71F917A
:106A40000F913BDE0C946B3226EA85706C616365B6
:106A500083DCD9DE35DC46DD0C9416354AEA8363E7
:106A6000402B62D2BBDD3EDD0C949F3E5EEA82404D
:106A70002B005AD2BDDD36DD0C94753E81210C947D
:106A80002D3E6EEA836E3E63ECDF45D20F007EDD65
:106A900067DD0C944A3184EA83633E6E52D344D25C
:106AA000AEDE39D27F00E2DD47DEC1F3089598EA19
:106AB0008328662951DC96DA45DE21F00CDD41D3CE
:106AC0006AD132D239DEB1F73DDE41F076DE2CD22A
:106AD000DBDF08DD09D02ED272DC60DD0895B0EA7C
:106AE00086696D6D65643F008ADE982E14D2400081
:106AF0000C94C632E0EA8466696E64000CD236F605
:106B0000D9DF20DE21F4E7DC34D345D1D3DF08958B
:106B1000F6EA8664696769743F0006D2FCD13900E1
:106B2000A5DD0ADE19F0F7D1270027DDF4D130000A
:106B300024DDFAD11CDF2FD194DDDEDC03D240DD71
:106B40000C94C63212EB857369676E3FD5DC57DE55
:106B5000E2D12C0012DDE8D1FEDC31DC7DDD16DD7A
:106B6000F1DD29F03BDDD7DC2ADC26DFDEDC089511
:106B700046EB8375642AD8D1CEDCE9DDACDCB2DC2F
:106B8000D4DCE5DDC1DC0C94B03272EB8675642F89
:106B90006D6F6400C0DC61D1D2DCE0DDB5DCB4DC5B
:106BA000C4DCDCDD0C9484328CEB873E6E756D6248
:106BB0006572C8DDB1F0AFDCB7D1ADDC20DEADDF92
:106BC000BBDD21F488DCB1DCB0DC0BC0A4DCCFDEA3
:106BD000E2D0D1DFAADCCCDCA8DCA7DCF0DBECDE89
:106BE000E8CF089504E912E922E9AAEB876E756DF2
:106BF0006265723F99D131D130D186DC32DFA6DFB8
:106C00008ADCB5DEC8D087DC77DCF9DD84D12300EF
:106C1000B4DC8AD180D103002FDD8EDD41F049DB69
:106C20007AD1E4EB9DDC68DACADBC6DE01C053DC56
:106C3000C0DF7BDC9CDE23DF77D183D283D17CDD98
:106C400031F473DC48DC81DB80DB07D117C08BDBE0
:106C50006CDC72DD09F039D486DB6EDD61F00E94F8
:106C60009F3E59D12E0089DC67DD71F74DDC33DCA6
:106C700052D1020003C069DBA0DDA1DB089584735B
:106C8000776170000C947232ECEB837469235DDEE3
:106C900082D005960C949F3E8AEC8374696205D07D
:106CA0000C94753E9AEC837469756EDEF0FFA6EC69
:106CB000833E696E69DEFAFFB0EC8727736F7572E9
:106CC000636562DEF6FFBAEC89696E746572707294
:106CD0006574F7DF30DBC1D0EDDFD1DE37D29CDE6B
:106CE00023D18DDD29DD09F453C008DF2BDDA1F1AF
:106CF00075DC33D21FD152DC1FDD99F094FE0AC03F
:106D00002CD2B1DB0C434F4D50494C45204F4E4CDB
:106D10005900EED06F7BE5D966FDE0CF6F7E6F7DC9
:106D2000DDCF6F7E01D1F7D034EF96DC05DD11F0B9
:106D300060610DC06F7DF8D0EED028EF8DDCFCDCFB
:106D400009F0606295FE03C00E94103AC7CF26D1B9
:106D50006D7F94FC6260C2CF6F7E6F7DBCDB4ADFCB
:106D6000F1DC81F0FAD1E8DC59F0082F8991999192
:106D700001FF03C087DF0E94013E0E94013EAECFAB
:106D8000AADBACCFA8DB45D06CDE60DB66D0A7D039
:106D90000C946B3281400C94753EC8EC837368622E
:106DA000E8D1F9DFC1D02BDDAFDBF8DB6BDF0C9472
:106DB000C23E9CED89696D6D656469617465ABD097
:106DC00040000C94D036B4ED87696E6C696E6564D2
:106DD000A2D020000C94D036C8ED832E73749BD0C3
:106DE0003C006AD90E94643F67D995D02C0064D9D1
:106DF0000E94793F2BDB8FD03E005ED90C9427395F
:106E0000823E72000C948B328161ABD90A0083649C
:106E1000703E81D00009BCD1F8DF0C941635833E5A
:106E2000647079D000093EDCB3D175D0040073DB07
:106E300020DE7AD04ADC09DC7FDC11F04EDC01C0B8
:106E40004ADBFBD316D3A0F71F910F9136DC0C94CD
:106E50006B32DAED8566616C73659A938A93882745
:106E60009927089554EE8474727565009A938A93F5
:106E70008FEF9FEF089566EE8471756974009FD956
:106E800009D1C8D907D6C5DF05D98DD008DF4CD0C8
:106E9000FEDEBBDF72DB9DDA6FDA1BDF5ED14CDC1E
:106EA00099F7BFDFE0DA03206F6BD0DA07D0EACFC3
:106EB000089578EE8670726F6D7074000E94FC3ECB
:106EC0000A09B4EE8561626F727459D164DF73D9B7
:106ED0000C943F37C4EE873F61626F72743FC3DA30
:106EE000013F0C947837D6EE863F61626F72740072
:106EF0000BDB22DC19F440DAA9DAE7DF0C94A531C8
:106F0000E8EED661626F72742200C0DA42D9F0EE08
:106F10000895836C6974FF91EF9132D9F795E795E5
:106F200009943AE5A36475709A938A93089546E6A6
:106F300082303D00982B41F49FEF8FEF089530EFA2
:106F400082303C009923C2F399278827089502EFE5
:106F50008127FCD061DDD2DD0C946F3750EF846364
:106F600068617200F3D03BDDB6DA0C949F3E5EEFB1
:106F7000C128D1DF290033DD60640C94A531856917
:106F80006865726566D007CF70EFD65B6368617223
:106F90005D00E8DF0C94013E8363662C0C946A313B
:106FA0008AEF82637200B7DF0D0086D8B4DF0A0073
:106FB0000C945C30A2EF8663726561746500C6D084
:106FC0002BDDB2DF9BDDF9DBB5DF4DDA0F414C5233
:106FD0004541445920444546494E454489DFA4DF94
:106FE0000EDCEDD998DF100026DB79DFC2D0D3DECE
:106FF0000E94523F36DDC6DF97DFBBD040DD28DD83
:10700000C1DFFDDB88DF8000CBDEE8DA43D960D169
:1070100082DF62E168D934D914D909D98DDB09F44A
:10702000E7DA0C94523FB6EFD8706F7374706F6EDE
:1070300065008CD0F1DC62DD77DF51DF83DF7CDB44
:1070400021F0A7D892E10C94523F0C946A318369E5
:10705000647087D8D9018728646F65733E2965DA23
:1070600088D099DE11DDF5DF96DECCDEF2DF07DDBC
:10707000880F991F38D959DAECDF0C942D3E28F08F
:10708000D5646F65733E85D85EF083D872E108954C
:1070900080F0C15B00700093E801089592F0815D7B
:1070A0000F6F0093E80108959EF0813A88DFF8DFC2
:1070B0000C948B31AAF0873A6E6F6E616D6562DF5A
:1070C0000C945038B6F0D13BE5DF61FD26C05ADFA5
:1070D0002BD08C01107F105D59F08991999124D0AB
:1070E0008E509449C9F48CE094E9FCD90C942D3E5F
:1070F00064DB9F7093FD906F86DA44DF31DA0BDF3B
:10710000FEFFE6D008DF0C940E94523F905888940E
:10711000979587950C94523F18D9FDDE08950C94ED
:10712000523FC6F0822D40000CD0FEDE0C94753E1E
:1071300024F1D35B275D0DDF0C94013E32F1A232C6
:107140002D00029708953EF182626C000E94B130DA
:10715000200048F18573746174659A938A938091D5
:10716000E8019091E801089554F1866C61746573AB
:1071700074000E94B130DF016AF18273300004DCD8
:10718000E4FF7AF182723000FFDBE6FF83696E690B
:107190000E94B130D70184F1857469636B739A934F
:1071A0008A930FB6F8948E2D9F2D0FBE089598F1F7
:1071B000826D7300F4DFD4D949D6B6DEF0DFDDD9B5
:1071C000C1DEBADAC9F30C946B32B0F1832E696474
:1071D00048DCA1DE0F00DAD99ED903C042DC0AD018
:1071E000E7DE47D1D8F71F910F910C946B32CCF1A9
:1071F000833E7072803012F080320AF48EE208957D
:10720000F0F185776F72647328DECDDE84DE36F6AA
:1072100005D023DEC8DEC7DEACDFBDDD85DED8DF0E
:1072200031DDDCD981DE77DE0700B0D985DA21F0E7
:1072300072DE0900BDDE01C0B6DE24DD82DFABDD1B
:1072400081DA61F70C94A53102F2822E730094D892
:107250006BDE0E94D43093DF9EDD73DF7DD801DAD0
:107260006BDA19F061DF23DBF9CF35D90C94A53146
:107270004AF28464756D70004EDE100081DA4BD9DD
:1072800020C091DE51DE47DE04001BDB44DE3A0005
:107290008FDE41DE0F003FD9E4DB3DDE020011DB73
:1072A000E8D0D0F71F910F9136DE100066D933DE9B
:1072B0000F0031D9D6DB9EDF7BDEDBD0D8F71F9104
:1072C0000F91D7D0F0F61F910F910C946B32812063
:1072D000C0DE0C940F3372F283783E72FC01899108
:1072E000999109D03196829392935292CF01089549
:1072F000D8F2833E78619058889497958795089541
:10730000F2F28378613E880F991F9058089502F336
:107310008370666C0E94B130008010F3837A666CD3
:107320000E94B1300000842C3F303D0065FD03C059
:10733000F2DD38E703C004D0EEDD44E76F7D70C0B6
:10734000EADDFCFFC5CF65D99F70906C0C94523F6D
:10735000E2DD08F00C94523FDEDD09F464FD9B7F12
:107360000C94523F1CF3D269660064FDE9DFDEDF56
:10737000F3DF6F7E07DE71DD0C94A33966F3D4650D
:107380006C736500FFDD69DDDEDF7CDC0C94CC39DD
:107390007EF3D47468656E006260F4DDADD8EDD81C
:1073A000D0DE37D9B8DD00C0F9D86CDC0C942D3EA6
:1073B00092F3D5626567696E0C94C237B2F3D575E6
:1073C0006E74696C626064FDBBDFB0DFC5DF6F7E29
:1073D0000C94EE39BEF3D5616761696E6260D2DDEF
:1073E000CCD8AFDE0C94A339D6F3D57768696C6539
:1073F000BCDF0C947232EAF3D6726570656174007A
:10740000EDDF0C94CC39F8F3D6696E6C696E6500CB
:107410006F7E6F7D9EDD0C94103A08F483696E2CAC
:1074200028DB82DD78DD089510D986D911F03AD5B0
:10743000F7CF0C94A5311CF4D3666F720E94C9304B
:1074400016E5A0DD0ADD7FDF9DDD0C94723238F495
:10745000D46E65787400A0DF0E94C93072F478DFC2
:10746000BDDF59DD84F40C94103A87286E6578747A
:107470002920FF91EF91BF91AF911197AF93BF93E7
:10748000099408951F910F91089550F495656E64C5
:107490006974FF91EF911F910F91002711270F93AE
:1074A0001F9309948CF4D57264726F7034DD84F488
:1074B0000C94103AA6F483733E6497FFCECCD6CCDE
:1074C000B6F487646E656761746549D00E94DF31E8
:1074D0000C94B832C2F4883F646E656761746500CD
:1074E00031DD2AD909F0F1DF0895D6F484646162B0
:1074F00073001ADD0C94703AECF482642B00A991AD
:10750000B9910990199009911991A00FB11F801D8F
:10751000911DBA93AA930895FAF482642D00D5DFE1
:107520000C947F3A1AF58364322F0991199195953D
:107530008795179507951A930A93089526F58364FE
:10754000322A09911991000F111F881F991F1A9350
:107550000A9308953EF58764696E76657274A99101
:10756000B991A095B09580959095BA93AA930895F6
:1075700056F58364303DA991B991892B8A2B8B2BC9
:1075800051F48FEF9FEF089572F58364303CA99119
:10759000B9919030B2F38827992708958AF58264CB
:1075A0003D00BDDF0C94BB3A9EF582643C00B7DF22
:1075B0000C94C73AAAF582643E000E94B3310C9441
:1075C000D73AB6F58375642E33D953D95BD90E9467
:1075D00026320C94BC31C4F582642E0029D90E9455
:1075E00094370E948B3285DF44D90E94953255D959
:1075F00049D90E9426320C94BC31D8F582686900C2
:107600008ADC10F60E9417310E94B0320C94753E4D
:10761000FFDEFF0CFF08FCF5A24070009A938A93EE
:10762000CA01089518F6837063409A938A93CA0139
:107630000C949F3E26F6A370322B470D551D0895DE
:107640000000866D61726B6572000E94FC30B7DCD1
:1076500062DC00090E942131D8DBE8D9D6DB0E9428
:1076600064320E940A31FBDC0E94B93091DDCDDB2F
:107670000C94163500FE03C04EDC500099DC01FE70
:1076800003C049DC450094DC02FE03C044DC420038
:107690008FDC03FE03C03FDC57008ADC16FE03C00C
:1076A0003ADC4D0085DC0C94BC3175FF1FC09A9309
:1076B0008A930FB6F8947F7D8091E3019091E40165
:1076C0009A938A938091E5015092E3015092E401EC
:1076D0005092E5010FBE99279A938A9380E090EA31
:1076E0000E94AE338093E6010E94A53174FF02C070
:1076F000259A2D9876FD0BC077FD09C005E0201670
:1077000031F401E003BF50928100889553BE74FDAF
:107710002D9A0895E091E301F091E4010091E501D3
:10772000B0918400EB0FB0918500FB1F051D5092B6
:10773000850050928400E093E301F093E40100930C
:0A774000E501EE2009F4706298C024
:067800000C945F3D42D034
:0278080040D06E
:02780C003ED06C
:027810003CD06A
:027814003AD068
:0278180038D066
:02781C0036D064
:0278200034D062
:0278240032D060
:0278280030D05E
:02782C002ED05C
:027830002CD05A
:027834002AD058
:0278380028D056
:02783C0026D054
:0278400024D052
:0278440022D050
:0278480020D04E
:02784C001ED04C
:027850001CD04A
:027854001AD048
:0278580018D046
:02785C0016D044
:0278600014D042
:0278640012D040
:107868009F918F911F900F901F9103C0E60CF51CFC
:107878004DCF0F91FF91EF91A991B991BFBFB991E8
:10788800189560928100BA93BFB7BA93AA93BF9133
:10789800AF91EF93FF930F93AD3141F3A53261F0B0
:1078A8001F930F921F928F939F93A150B0E8AB0F35
:1078B800B1E0ED91FD910994E7EBF1E0A091B401FD
:1078C800EA0FF51DB091C600BF3009F495CFB0831B
:1078D800A395AF71A093B401A091B601A395A0930D
:1078E800B601AE3109F404D0A4300AF03BD0C1CFC0
:1078F800FCE73AC05CDF856C6F61642B70610895AA
:10790800FEF8856C6F61642D7F7E25982D9808950B
:107918000AF9846C6F6164009A938A93992780911D
:10792800E60108951AF983747830813171F0833152
:10793800A1F0706887D20091C00005FFFACF80934C
:10794800C600899199917F7708958991999102C08C
:1079580070FF08957E7FF1E107C08991999102C077
:1079680070FD08957160F3E1E091C000E5FFFCCF80
:10797800F093C60008952EF98372783063D21ED032
:107988000E949C33D9F39A938A93E7EBF1E0A09194
:10799800B501EA0FF51D808199270FB6F894A395D4
:1079A800AF71A093B501A091B601AA95A093B601B5
:1079B8000FBE089580F9847278303F00A091B60117
:1079C800A5110C943637C4DF0C942D373CDC0E948B
:1079D80033320341443F0E94263273CA0D2D0F3DB6
:1079E800A8F70C2D00780A1103C0DB1001C0089518
:1079F8004DD00C2D0078A02EBD2C00E8F501F058D4
:107A0800A0E0B1E015911D930A95E1F708957FDA9A
:107A180013000E945C307BDA0A00C8DBF894F50199
:107A2800F05813E028D011E126D000E8A0E0B1E03A
:107A38000D901D9011E01FD032960250C9F7E05802
:107A4800F04015E018D011D000E8A058B0400590DB
:107A58001D90011030C00150D1F7BB246E7F78947F
:107A680056DA11000E945C30089587B686FE0895A4
:107A780011E101D0FACF87B680FCFDCF17BFE8959A
:107A8800089546FE8669666C7573680060FDBFCF11
:107A98000895BEF985656D70747939DA58FF37DA5B
:107AA800000935DA0C000E9416350C9409379CFA47
:107AB800847761726D00F894AA27BB27C9E1D0E0EA
:107AC800DD93C150E9F71FB604B650923400ACE11B
:107AD8005D92B031E9F7C1E06C2EC2E07C2EC3EABA
:107AE800D2E006E612E00DBF1EBF05E012E0180165
:107AF8000EDA3CFF0CDAE7010ADA1C000E941635A0
:107B080006DA0009EED0AED90E942C330E949C33CD
:107B180009F0C3DF65BE75BE74BC03E005BD09EF9F
:107B280007BD70926E0009E10093C40008E9009354
:107B3800C10006E00093C200716067D9789496DDB1
:107B480023D079D10E949C33D1F00E94333203456F
:107B580053430E942632DBD9D00728DB0E946930C4
:107B68000E949C3349F00E946230D1D91B000E94C8
:107B78002C330E949C3319F45ED10E9471300C940E
:107B88006537B8FA837665720E94333217466C619E
:107B98007368466F7274682041746D65676120353B
:107BA8002E300D0A0C9426328CFBA265690078945D
:107BB8000895B2FBA2646900F8940895BCFBC23B27
:107BC8006900A5D90C946AD1A2D9343C67D10C9428
:107BD8004A38C6FB84696E742100FC013197EE0FA8
:107BE800F0E8EF0FF1E08991999181DB0C94323E36
:107BF800DCFBC76C69746572616C89D928EF0CDC91
:107C08000E949437982F92959F708F70906E80681D
:107C180045D1892F92959F708F70906E80690C94D2
:107C2800523F39D06C01DADE89919991A0E0B1E038
:107C38000C2D0F77A00F8D939D9389919991616079
:107C48000895FAFB823E6100E1EEF1E007C04CFCCA
:107C58008121993040F4FC01899199919183808325
:107C68008991999108959038E0F615D0F999FDCF4A
:107C7800995081BD92BD8991999180BDFA9AF99ADE
:107C8800F999FECF81B5839581BD90BDFA9AF99A8D
:107C980089919991089562FF0895D5DA0E94333247
:107CA8000341443F0E9426326ACFFC01FB110BC0FE
:107CB8000E2F00780A1539F4A0E0B1E0EF77AE0F87
:107CC8008D919D910895F05885919591089558FC4E
:107CD80082613E009A938A93E1EEF1E005C0D8FCF8
:107CE8008140993020F4FC01819191910895903858
:107CF800E0F6F999FECF995081BD92BDF89A80B50A
:107D080091B5939591BDF89A90B50895FC01FB1132
:107D18000BC00E2F00780A1539F4A0E0B1E0EF7718
:107D2800AE0F8D9199270895F05885919927089558
:107D3800E8FC82634000993020F4FC018191992786
:107D48000895903818F7F999FECF995081BD92BDE2
:107D5800F89A80B5992708959EDF6C013FDE8991D6
:107D68009991A0E0B1E00C2D0F77A00F8D93899128
:107D78009991616008953AFD82632100993038F441
:107D8800FC018991999180838991999108959038FE
:107D980018F781DFF999FDCF995081BD92BD89917E
:107DA800999180BDFA9AF99A89919991089580FDDF
:107DB80083666C2D64600895B8FD83666C2B6B7FB9
:107DC8000895C2FD8576616C7565F5D80E942631E7
:107DD80042D90E94B9300C94753ECCFD8564656625
:107DE8006572E9D80E948B37CAEE0E94263133D9D2
:107DF8000E94B9300C947C30E4FDC26973000E9483
:107E0800A9370E94F8320E94F8326BDFA2D90E948B
:107E18009C3329F0F2DE0E94C9305AFC01C019DFF8
:107E2800089502FEC2746F000C94033F2CFE877401
:107E380075726E6B65790E94ED3ED70136FE8570CE
:107E4800617573652EDC0FB6F894DF93CF939F931B
:107E58008F935F934F93F1010EB702930DB702937F
:107E6800B291A2911D010E910EBF0E910DBF4F91BF
:107E78005F918F919F91CF91DF910FBE08958CFAFA
:107E8800886F70657261746F72000E94B13098FEDD
:107E980005020060405488FE82692C000E94C237A7
:107EA800D8DE0E9437310C946839A0FE8369632CB0
:107EB8000E94C23763DF0E94DF310C946839812049
:107EC8000E94B7340EDF803111F484E209C08A3091
:107ED80011F483E205C0823011F485E201C08FE31A
:107EE8000895F2E100E210E281200E9417310E9419
:107EF8008B37EAFE0E94B0320E94CB360E943135A1
:107F08000E948B370F000C94C63209911991809FFB
:107F1800D001EE27FF27909FB00DE11DF51D819F31
:107F2800B00DE11DF51D919FE00DF11DBA93AA93C7
:107F3800CF0108950002A302660232F984F9C4F958
:107F48000A00A70298FE00000000000000000502D9
:0C7F5800000000800C09FB0242F6DEED88
:00000001FF
