:020000020000FC
:105F00000E94D03209C00E941E300E9402330E94BB
:105F1000E13311F00C943A390E946E3AA0F70C94D8
:105F2000363981200E945C310E94AB37BAFE0E9454
:105F3000F5320E94EE360E9469350E94AB370F00A1
:105F40000C940B33E894882329F4992319F468946A
:105F50000C94443D0F921F92DC011990E9918991B4
:105F6000999100E1FF27880F991F111CEE1FFF1F59
:105F70001A16EB07F50518F083951A1AEB0B0A951C
:105F800089F7EA931A921F900F9008950000846594
:105F9000786974000F910F91089556FA886F7065B3
:105FA0007261746F72000E94F630ACDF0102000073
:105FB000400040005A008EDF8469646C65007064A4
:105FC0000895B8DF8462757379007F7B089584FE3D
:105FD000846D73657400FC01899199910081082B8F
:105FE0000083899199910895D0DF846D636C72006C
:105FF000FC01899199910081809508230083899102
:1060000099910895EADF866C736869667400FC01F3
:106010008991999131971AF0880F991FFBCF0895B4
:1060200006E08672736869667400FC018991999133
:1060300031971AF096958795FBCF08954AD5A8D247
:1060400048D5A6C222E0826E3D00F8DF8F704AD3A9
:10605000B8D3B1F00DD33DD5A3D20CC0EFDF3AD306
:10606000B0D321F024D70E947E3A04C0ADD2A9D388
:1060700009F415D70E946E3A88F71F910F9101C05D
:1060800016D7E0D30C94223446E084736B69700019
:1060900087D29DD389F074D2F7D366D75CD7090035
:1060A00021D38FD329F490D21DD38BD329F001C0F3
:1060B00056D2CAD1B9D4EDCF0F910F9108958AE08D
:1060C000847363616E0033D36BD210C002D54CD79A
:1060D00042D7090007D375D311F041D205C00E9401
:1060E000413B00D36ED311F0C3D203C00E946E3A7D
:1060F00068F760D2B8D226D30895C0E0846D747377
:106100007400FC01819109911991802399270895C8
:10611000FCE0834663796AD0803E8373703F89D008
:106120000E94E2385BD60E94DD3858D69CD2C8D295
:10613000DFD10353503FFCD6089512E184656D69A9
:1061400074002FD30C94C1303CE1836B65792FD35D
:106150000C94C1304AE1846B65793F002ED30C94D6
:10616000C13056E18765786563757465FC01F05848
:10617000899199918894F795E795099464E1834012
:1061800065782CD60C94B6307EE1887661726961B0
:10619000626C65009BD0B0D0DBD10C94E1308AE119
:1061A00089327661726961626C6590D0D4D60400E0
:1061B000CFD10C94E130A0E188636F6E7374616E8F
:1061C000740092D70E94F33D0C948238B8E1893272
:1061D000636F6E7374616E74C9D186D70E94F33D8C
:1061E0000E94F33D0C94823883286329FF91EF913C
:1061F0000CD0FF91EF91099483286429BF91AF914E
:10620000FF91EF9102D0FD0109949A938A93EE0FCA
:10621000FF1F85919591089583282C29FF91EF9177
:10622000F4DFF795E795EF93FF9399C0CEE1837381
:106230007040FE019A938A93CF0108958373702171
:10624000EC01089583727030BF91AF91BBD7C6D572
:106250008DBF9EBF89919991FD0109942EE2B37281
:1062600070409A938A938DB79EB708955EE2A23EDE
:106270003C00082F892F902F08956EE285666C618F
:1062800073685092E30108957CE286656570726FD1
:106290006D007092E30108958AE28372616D04E0FB
:1062A0000093E30108959AE282647000F0D604D06E
:1062B0000C94F532836373659A938A938091E3011A
:1062C00099270895A8E2846865726500EFDF0C9451
:1062D000693EC6E2812CFADF0AD40ED00C94A832B3
:1062E000D4E282632C00F2DFD3D2AED00C94A83279
:1062F000E2E28463656C6C009A938A9382E090E09A
:106300000895F2E285616C69676EE0DF08D0CEDF48
:106310000C94213E04E387616C69676E65640196A5
:106320001AD6FEFF0C940B3316E3A563656C6C2B39
:10633000029608952AE3A563656C6C73880F991F14
:10634000089536E3A5636861722B0196089544E3CE
:10635000A56368617273089550E38363662C04D665
:106360002FD650D13DD1F7D5F00FC6D12AD259F052
:10637000F2D50E940E943A3F90588894979587954D
:106380000E943A3F08C01CD63DD1F9D687D19F70F4
:10639000906D0E943A3F08958621636F6C6F6E0086
:1063A000DAD5FAFF0C949D395AE382324000DCD5ED
:1063B00015D5DCD0BDDF0C94EE36AAE38232210085
:1063C000D5D0DED0B5DF93D30C94213EBCE385322B
:1063D00064726F70C4D00C94AF32CEE384326475B3
:1063E0007000CED00C94C032DCE3853273776170DC
:1063F000CFD0D6D0CDD0DED00895EAE385737061DA
:106400006365C2D60C94A130FCE38673706163654A
:106410007300DDD119F0F5DF2BD1FBCF0C94AF3237
:106420000AE484756D696E00DCDF73D106C022E476
:1064300084756D617800D5DF65D1C3D109F096D040
:106440000C94AF3230E481319A938A9381E090E0EA
:10645000089546E4866163636570740091D0C5D089
:106460008FD075DE8D3029F422D52FD011D277D080
:1064700026C08A3049F473D028D006D2A2D1F9F0D0
:106480000ED523D005D2EDCF0AD51FD001D26CD5C1
:1064900058DE6AD560D5080025D193D139F05FD098
:1064A000E7D07ED06DD086D0C6DFDBCF69D0F0D10B
:1064B000DAD066D0B9DF95DF0DD183D191F6C2D1A4
:1064C00055D00C940233836663729BD2F5FF54E47B
:1064D00084747970650064D002C0FBD232DE0E9401
:1064E0006E3AD8F71F910F910C94AF328328732224
:1064F0006BD0880F991F9058ECD236D5B4D00FDFEF
:106500009695879557D071D0FC0129D00994D0E495
:10651000D273220083DEF0E4B4DE05D00C944F3158
:1065200010E5822C220017D5220091D2CFDE28D090
:106530009AD0F5DE0DD00C94603522E5D22E2200E3
:10654000E9DF6CDED6E408953CE585616C6C6F7420
:10655000ADDE0C9454334AE5A464726F70008991E7
:106560009991089558E584737761700009911991A4
:106570009A938A93C801089566E5846F76657200E0
:106580009A938A938A819B8108957AE583726F74C6
:1065900007D0ECDF0FD00C94B6328CE5923E72003F
:1065A000FF91EF918F939F938991999109949CE525
:1065B00092723E00FF91EF919A938A939F918F91EF
:1065C0000994B0E592724000FF91EF919A938A93FB
:1065D0009F918F918F939F93099464EF836162736E
:1065E000C3D40C943134DCE5812B09911991800FCF
:1065F000911F0895E8E5826D2B0092D70C94B23A72
:10660000F6E5812D09911991081B190BC801089510
:1066100002E683616E6409911991802391230895A4
:1066200012E6826F720009911991802B912B0895C7
:1066300022E683786F720991199180279127089536
:1066400032E6A6696E76657274008095909508951D
:1066500042E6866E656761746500F7DF0C9433333C
:1066600052E6A2312B000196089562E6A2312D0078
:10667000019708956CE6A2322B000296089576E603
:10668000A53E626F64790496089580E6A2322A00DE
:10669000880F991F08958CE6A2322F009595879553
:1066A000089598E6822B210061DF6ADF97D39DDF92
:1066B0005DDF0C94213EA4E68677697468696E00FC
:1066C0005FDFA0DF6DDF9EDF75DF0C948233B8E6FD
:1066D000823C3E0097DF9FEF8FEF09F4019608950B
:1066E0007EEF813D8FDF0C94BA37E2E6813C8ADF92
:1066F0000C94C137ECE6813E39DF0C947733F6E633
:1067000082753C007FDF880B990B089500E7827546
:106710003E002CDF0C9482330EE782217000AC0126
:106720008991999108951AE79421703E7200FF9122
:10673000EF914F935F93AC0189919991099428E768
:1067400093723E70FF91EF915F914F91099440E7F2
:10675000827040009A938A93CA010C94693E50E774
:10676000827021009A938A93CA010C94213E60E7BB
:10677000837063219A938A93CA010C94B63E70E7A2
:10678000A2702B00460D551D089580E783702B2BBA
:10679000480F591F8991999108958CE78527656D58
:1067A00069742FD1E8FF9CE784276B65790029D1B4
:1067B000EAFFA8E785276B65793F23D1ECFF833F8C
:1067C000303D00978991999108958364303D0097F9
:1067D0000895B4E783756D2A0C94603FD4E78675FD
:1067E0006D2F6D6F64000C94A22FDEE785752F6D01
:1067F0006F6455D3BBDE0C94A22FECE7812AECDF4B
:106800000C94AF32FCE782752F00F3DF0C94223436
:1068100006E886752A2F6D6F6400C2DEDDDFCADEF2
:106820000C94F33312E8812FDCDD05DFB9DED8DE0E
:106830009DDED6DE9BDEE9DFBDDE0C94313426E83A
:10684000A36E697009910991089540E88474756395
:106850006B008CDE0C94C0324CE8873F6E6567613C
:1068600074658FD3AEDF09F0F8DE08955AE8836DC2
:106870006178B7DD3CDFE1CD6EE8836D696EB1DD37
:106880003BDFDBCD826340000C94933E82632100AA
:106890000C94B63E7AE882757000A8DC020096E897
:1068A00084686F6C640003D392D0FEDE90D096D2E1
:1068B0000C94B63EA0E8823C23008ED088D00C9485
:1068C000213EB6E88564696769748A300CF0879662
:1068D000C0960895C4E8812387D080D284D158DE41
:1068E000F4DF0C945334D6E882237300F5DF79DDAE
:1068F0009ADE67DFD9F70895E8E882233E006ADD73
:1069000066D06CD269D03CDE0C940233FAE8847312
:1069100069676E0090301AF41ED32D00C4DF0C940A
:10692000AF320EE982752E00C8DFB9D2DFDFE7DFB4
:10693000D2DD0C94013224E983752E72BEDF98DE1D
:106940002FDEADD201C0C8DFC9D5E8F71F910F9186
:10695000CDDFD5DFC0DD0C94013238E9812EADDF0B
:1069600003D33EDE9CD2C2DF13DED4DFC8DFB3DD4B
:106970000C9401325CE987646563696D616C67D270
:1069800033D00C94213E76E983686578E4D2100018
:106990002BD00C94213E88E98362696EADDC24D053
:1069A0000C94213E98E98572736176652AD0FEFFCA
:1069B000A6E985756C696E6B24D0FCFFB2E984741E
:1069C00061736B001ED0F2FFBEE98268700019D0BF
:1069D0000000CAE98370616485D17CD10C94F532E2
:1069E000D4E98462617365000CD0EEFFE2E984753E
:1069F0007365720002D380DC30DE9FD40E943A3F80
:106A00004CD3FF91EF9101DC820D931D0895EEE9C7
:106A100086736F757263650077D10C94D73110EA75
:106A2000872F737472696E67A1DDAADDEBDDB8DDB7
:106A3000DCDDC0DD089520EAC15CEEDF5ED157D019
:106A400060640C94AF3238EA8570617273658CD2E1
:106A5000E3DF53D1C3D1E8DF87D2A2DD99DD18DBB4
:106A60008FDD9EDD95DD2FDBB2DE09F001DEA2DDDC
:106A7000A1DD8EDDC7DD41D117DEEBDE0C940233E4
:106A800048EA84776F726400E2DF70DDF1DDE1DEF9
:106A90000C94B63E82EA85636D6F766567DD47DEEE
:106AA0007FDD03C016D066DE6DDE18D5D8F71F91E6
:106AB0000F9148DE0C94AF3296EA85706C61636585
:106AC00090DCE6DE42DC52DD0C944E35BAEA83639C
:106AD000402B4AD2C8DD4ADD0C94933ECEEA824078
:106AE0002B0042D2CADD42DD0C94693E81210C9418
:106AF000213EDEEA836E3E63ECDF8F7076DD0C9420
:106B00008F31F4EA83633E6E3AD32ED2BDDE0E940B
:106B10001A3E27FFC9F3089504EB8328662961DC38
:106B200094DA55DE21F01BDD2AD358D11DD249DE7F
:106B3000B1F74DDE41F086DE17D2DEDF17DD09D07A
:106B400019D282DC70DD08951AEB86696D6D65647B
:106B50003F009ADE982E807408954AEB8466696E31
:106B60006400F9D19CF6DBDF32DE21F4F8DC1FD3C0
:106B700035D1D5DF08955CEB8664696769743F00A1
:106B800080340CF08797C097EFD12EDF27D1AFDD8F
:106B9000F7DCF7D15ADD0C940B3378EB857369671A
:106BA0006E3FEEDC71DE8C97DFD11ADD4DDC9ADDB5
:106BB00032DD0DDE29F057DDF3DC46DC35DFFADCB3
:106BC00008959CEB8375642ACFD1EADC05DEC7DC2F
:106BD000CDDCF0DC01DEDCDC0C94F532C4EB867538
:106BE000642F6D6F6400DCDC5AD1EEDCFCDDD0DCA0
:106BF000CFDCE0DCF8DD0C94C832DEEB873E6E754E
:106C00006D626572E4DDB1F0CBDCAED1C9DC3CDE97
:106C1000B7DFD7DD21F4A3DCCDDCCCDC0BC0C0DCDE
:106C2000E3DEDCD0D1DFC6DCE8DCC4DCC3DC0CDCBA
:106C3000FBDEE8CF08957EE98CE99CE9FCEB876EEA
:106C4000756D6265723F90D12AD129D1A1DC41DFF7
:106C5000A8DFA6DCC9DEC2D0A3DC92DC15DE8397F8
:106C6000833040F46BDB77D136ECBFDC8ADAECDBC7
:106C7000DBDE01C074DCC6DF9DDCB6DE38DF74D13C
:106C80007ED27FD19EDD31F495DC69DCA3DBA2DB13
:106C900006D117C0ADDB8EDC94DD09F049D4A8DB4A
:106CA00090DD61F00E94933E56D12E00ABDC89DD71
:106CB00071F76EDC54DC4FD1020003C08BDBC2DD08
:106CC000C3DB08958473776170000C94B6323EEC98
:106CD0008374692377DE82D008960C94693ED0ECE9
:106CE0008374696205D00C94693EE0EC8374697525
:106CF00088DEF0FFECEC833E696E83DEFAFFF6EC93
:106D00008727736F757263657CDEF6FF00ED896916
:106D10006E74657270726574F7DF52DBC0D0EDDFA0
:106D2000E6DE32D2B1DE20D1AFDD4BDD09F453C057
:106D300018DF4DDDA1F197DC2ED21CD174DC41DDD2
:106D400099F094FE0AC027D2D3DB0C434F4D504933
:106D50004C45204F4E4C5900EBD06F7B07DA66FD57
:106D6000E0CF6F7E6F7DDDCF6F7EFED0F4D074EF0D
:106D7000B9DC27DD11F060610DC06F7DF5D0EBD07F
:106D800068EFB0DC1EDD09F0606295FE03C00E9472
:106D9000453AC7CF21D16D7F94FC6260C2CF6F7E30
:106DA0006F7DDDDB50DF13DD81F0F5D10ADD59F0B9
:106DB000082F8991999101FF03C087DF0E94F33D5D
:106DC0000E94F33DAECFCBDBACCFC9DB44D081DE3C
:106DD00082DB65D0A4D00C94AF3281400C94693E24
:106DE0000EED83736862E3D1F9DFBED04DDDD0DBF9
:106DF0001ADC6BDF0C94B63EE2ED89696D6D65645B
:106E000069617465A8D040000C94F336FAED876987
:106E10006E6C696E65649FD020000C94F3360EEEA4
:106E2000832E737498D03C008CD90E944C3F89D932
:106E300092D02C0086D90E94922F4DDB8CD03E0040
:106E400080D90C945C39823E72000C94D032CED939
:106E50000A008364703E7FD00009B8D1F8DF0C943B
:106E60004E35833E647077D0000961DCAFD173D0BA
:106E7000040096DB36DE78D06DDC2CDCA2DC11F071
:106E800071DC01C06CDB0CD429D3A0F71F910F91EA
:106E900059DC0C94AF3220EE8566616C736564D06A
:106EA00088279927089598EE8474727565005CD0E0
:106EB0008FEF9FEF0895A8EE847175697400C4D9AF
:106EC00007D1EDD9C8DF2BD98CD00CDF4DD002DF34
:106ED000BEDF98DBC3DA95DA1FDF5DD172DC99F78C
:106EE000BED5C1DF05DB03206F6BF5DA07D00C944C
:106EF0006237B8EE8670726F6D7074000E94F03E5B
:106F00000A09F4EE8561626F727457D167DF98D910
:106F10000C945F3704EF873F61626F72743FE8DA69
:106F2000013F0C94983716EF863F61626F727400D0
:106F30002FDB47DC19F465DACEDAE7DF0C94EA31AF
:106F400028EFD661626F72742200E4DA67D930EFFD
:106F50000895836C6974FF91EF9157D9F795E79580
:106F60000994C4E5A36475709A938A930895D0E652
:106F700082303D000197880B990B089570EF8230A5
:106F80003C00990F880B990B089542EF8127FCD0A4
:106F90007BDDE7DD0C948F378CEF846368617200D2
:106FA000F3D055DDDCDA0C94933E9AEFC128D3DFA1
:106FB00029004DDD60640C94EA318569686572656D
:106FC00066D00CCFACEFD65B636861725D00E8DF22
:106FD0000C94F33D8363662C0C94AF31C6EF82634F
:106FE0007200B9DF0D00ADD8B6DF0A000C94A130F5
:106FF000DEEF8663726561746500C6D045DDB4DF7F
:10700000B0DD20DCB7DF74DA0F414C524541445902
:1070100020444546494E45448BDFA6DF35DC14DA73
:107020009ADF10004DDB7BDFC2D0D8DE0E943A3FF2
:1070300050DDC6DF99DFBBD05ADD42DDC1DF24DC85
:107040008ADF8000D0DE0FDB6AD977D184DFECE104
:107050008FD95BD93BD930D9B4DB09F40EDB0C9462
:107060003A3FF2EFD8706F7374706F6E65008CD01A
:107070000BDD77DD79DF53DF84DFA3DB21F0CED8B2
:107080001CE20C943A3F0C94AF3183696470AED823
:10709000D9018728646F65733E298CDA88D09EDE1B
:1070A0002BDDF5DF9BDED1DEF2DF21DD880F991FBE
:1070B0005FD980DAECDF0C94213E64F0D5646F6513
:1070C000733EACD89AF0AAD8FCE10895BCF0C15B3D
:1070D00000700093E4010895CEF0815D0F6F00937E
:1070E000E4010895DAF0813A88DFF8DF0C94D031BA
:1070F000E6F0873A6E6F6E616D6562DF0C946E38F4
:10710000F2F0D13BE5DF61FD26C05ADF2BD08C01C8
:10711000107F105D59F08991999124D08E50944937
:10712000C9F48CE094E922DA0C94213E8BDB9F7049
:1071300093FD906FADDA44DF58DA0DDFFEFFFDD02E
:107140000ADF0C940E943A3F90588894979587954F
:107150000C943A3F3FD9FFDE08950C943A3F02F178
:10716000822D40000CD000DF0C94693E60F1D35BAF
:10717000275D0DDF0C94F33D6EF1A2322D000297D6
:1071800008957AF182626C000E94F630200084F14A
:107190008573746174659A938A938091E4019091E8
:1071A000E401089590F1866C6174657374000E9427
:1071B000F630DF01A6F18273300023DCE4FFB6F184
:1071C000827230001EDCE6FF83696E690E94F63031
:1071D000D701C0F1857469636B739A938A930FB773
:1071E000F8948E2D9F2D0FBF0895D4F1826D7300FA
:1071F000F4DFFBD91FD6B8DEF0DF04DAC2DEE1DA55
:10720000C9F30C94AF32ECF1832E696462DCA3DE27
:107210000F0001DAC5D903C05CDC0AD0E7DE5ED11D
:10722000D8F71F910F910C94AF3208F2833E707221
:107230009927803012F080320AF48EE2089549DCFA
:107240008ADE0F00E8D992D96ADA90D942DCA0D957
:1072500097D9D8D908DA23DE0CDBA2D909C0C1D866
:1072600010D290DA83D90E94802F11F0989403C035
:1072700035D1A8F718941F910F910AC0B2D8DFDF5B
:1072800019F072DEC3DFBDD87ADFA8DDA0DAB1F76E
:107290000C94EA312CF285776F72647375DFF4DB3E
:1072A00063DE59DE9CF602D082DF98DD9ADE0C9414
:1072B0003E3996F2822E7300A4D856DE0E94193110
:1072C0007CDF8CDD5CDF8DD812DA7BDA19F04ADFE7
:1072D0002BDBF9CF44D90C94EA31B4F28464756D98
:1072E000700039DE100091DA5BD920C07ADE3CDE16
:1072F00032DE040023DB2FDE3A0078DE2CDE0F00C6
:107300004FD9E7DB28DE020019DBE8D0D0F71F9168
:107310000F9121DE100076D91EDE0F0041D9D9DB96
:1073200087DF64DEDBD0D8F71F910F91D7D0F0F65E
:107330001F910F910C94AF328120A9DE0C9454332D
:10734000DCF283783E72FC018991999109D03196E3
:10735000829392935292CF01089542F3833E7861D3
:10736000905888949795879508955CF38378613E4B
:10737000880F991F905808956CF38370666C0E9473
:10738000F63000807AF3837A666C0E94F630000053
:10739000842C3F303D0065FD03C0DDDDC2E703C046
:1073A00004D0D9DDCEE76F7D70C0D5DDFCFFC5CF41
:1073B00075D99F70906C0C943A3FCDDD08F00C9419
:1073C0003A3FC9DD09F464FD9B7F0C943A3F86F394
:1073D000D269660064FDE9DFDEDFF3DF6F7EF0DD9A
:1073E0005EDD0C94D839D0F3D4656C736500E8DDAC
:1073F00056DDDEDF6ADC0C94013AE8F3D47468658C
:107400006E006260DDDDBCD8FDD8B9DE47D9A3DDF2
:1074100000C009D95ADC0C94213EFCF3D5626567A3
:10742000696E0C94E0371CF4D5756E74696C6260FB
:1074300064FDBBDFB0DFC5DF6F7E0C94233A28F418
:10744000D5616761696E6260BBDDDCD898DE0C9443
:10745000D83940F4D57768696C65BCDF0C94B632D6
:1074600054F4D672657065617400EDDF0C94013AD6
:1074700062F4D6696E6C696E65006F7E6F7D87DD24
:107480000C94453A72F483696E2C2BDB6DDD63DD61
:10749000089520D996D911F0EDD4F7CF0C94EA31A4
:1074A00086F4D3666F720E940E31A0E589DDF7DCA9
:1074B0007FDF86DD0C94B632A2F4D46E657874005A
:1074C000A0DF0E940E31DCF478DFBDDF44DDEEF496
:1074D0000C94453A87286E6578742920FF91EF91C6
:1074E000BF91AF911197AF93BF93099408951F91E6
:1074F0000F910895BAF495656E646974FF91EF91E8
:107500001F910F915F925F920994F6F4D5726472A5
:107510006F7021DDEEF40C94453A0CF583733E64F4
:1075200097FFBDCCC4CC1CF587646E65676174653C
:1075300049D00E9424320C94FD3228F5883F646EB5
:107540006567617465001DDD3CD909F0F1DF0895C0
:107550003CF584646162730007DD0C94A33A52F534
:1075600082642B00A991B991E991F991099119913E
:10757000A00FB11F8E1F9F1FBA93AA93089560F5A5
:1075800082642D00D5DF0C94B23A80F58364322FEB
:107590000991199195958795179507951A930A93CF
:1075A00008958CF58364322A09911991000F111FF7
:1075B000881F991F1A930A930895A4F58764696E2A
:1075C0007665727409911991009510958095909542
:1075D0001A930A930895BCF58364303DA991B9913B
:1075E000892B8A2B8B2B51F48FEF9FEF0895D8F5C1
:1075F0008364303CA991B9919030B2F388279927E0
:107600000895F0F582643D00BDDF0C94EE3A04F677
:1076100082643C00B7DF0C94FA3A10F682643E00B4
:107620000E94F8310C940A3B1CF68375642E45D9F0
:107630005DD965D90E946B320C9401322AF68264BE
:107640002E003BD90E94B4370E94D03285DF4ED93C
:107650000E94DA325FD953D90E946B320C94013206
:107660003EF68268690077DC76F60E945C310E9403
:10767000F5320C94693EFFDEFF0CFF0862F6A24073
:1076800070009A938A93CA0108957EF683706340CE
:107690009A938A93CA010C94933E8CF6A370322B72
:1076A000470D551D08950000866D61726B6572006F
:1076B0000E944131A2DC4FDC00090E946631C7DB29
:1076C000EDD9C5DB0E94A8320E944F31E6DC0E9452
:1076D000FE307CDDBCDB0C944E35C4DF856C6F6105
:1076E000642B70610895DCF6856C6F61642D7F7E7C
:1076F00025982D98089500027F024202F0F83EF985
:107700007EF90A008302ACDF0000000000000000E8
:10771000010200FE03C01FDC500068DC01FE03C054
:107720001ADC450063DC02FE03C015DC42005EDCAF
:1077300003FE03C010DC570059DC16FE03C00BDC4F
:107740004D0054DC0C94013274FF02C0259A2D9830
:1077500076FF07C001E0201621F401E003BF889501
:0877600053BE74FD2D9A08953B
:067800000C94443D3BD056
:0278080039D075
:02780C0037D073
:0278100035D071
:0278140033D06F
:0278180031D06D
:02781C002FD06B
:027820002DD069
:027824002BD067
:0278280029D065
:02782C0027D063
:0278300025D061
:0278340023D05F
:0278380033C05B
:02783C001FD05B
:027840001DD059
:027844001BD057
:0278480019D055
:02784C0017D053
:0278500015D051
:0278540013D04F
:0278580011D04D
:02785C000FD04B
:027860000DD049
:107864000BD09F918F911F910F91FF91EF91A9914F
:10787400B991BFBFB9911895BA93BFB7BA93AA93F8
:10788400BF91AF91EF93FF930F931F938F939F93A8
:10789400BFE7AB0FB1E0ED91FD910994BA93BFB787
:1078A400BA93AA93E60CF51CE2CFE7EBF1E0A091C2
:1078B400B401EA0FF51DB091C600BF3009F49ECFA4
:1078C400B083A395AF71A093B401A091B601A39521
:1078D400A093B601AE3109F404D0A4300AF021D04B
:1078E400C0CFFCE720C0E8F683747830813161F0C2
:1078F400833191F09DD20091C00005FFFBCF8093AE
:10790400C6008991999108958991999102C070FF57
:1079140008957E7FF1E107C08991999102C070FDBD
:1079240008957160F3E1E091C000E5FFFCCFF093AE
:10793400C6000895ECF8837278307AD21ED00E9483
:10794400E133D9F39A938A93E7EBF1E0A091B5017F
:10795400EA0FF51D808199270FB7F894A395AF71AD
:10796400A093B501A091B601AA95A093B6010FBF4B
:1079740008953AF9847278303F00A091B601A511B8
:107984000C945737C4DF0C944F3794DC0E94783240
:107994000341443F0E946B32B6CA90588093E10180
:1079A4009093E2019F3588F70091E10100780A1174
:1079B40005C00091E2010B1101C008954ED0009161
:1079C400E1010078A02EB090E20100E8F501A0E00A
:1079D400B1E015911D930A95E1F70895BADA130001
:1079E4000E94A130B6DA0A0001DCF894F50113E034
:1079F40029D011E127D000E8A0E0B1E00D901D905E
:107A040011E020D032960250C9F7E058F04015E05A
:107A140019D012D000E8A058B04005901D90011074
:107A240031C00150D1F70FEFB02E6E7F789491DA08
:107A340011000E94A130089587B686FE089511E1D1
:107A440001D0FACF87B680FCFDCF17BFE895089523
:107A54002EFE8669666C7573680060FDBFCF08955D
:107A640078F985656D70747974DAF2FE72DA00095A
:107A740070DA0C000E944E350C942B3766FA84772A
:107A840061726D00F894AA27BB27C9E1D0E0DD93A9
:107A9400C150E9F71FB604B650923400ACE15D92D0
:107AA400B031E9F7BA94C1E06C2EC2E07C2ECFE786
:107AB400D2E002E412E00DBF1EBF01E012E01801A3
:107AC40048DAF6F646DAE30144DA1C000E944E3541
:107AD40040DA0009FCD0E9D90E9472330E94E133F4
:107AE40009F0C2DF65BE75BE74BC03E005BD09EFD5
:107AF40007BD70926E002DDA573C2BDAA4019FD09B
:107B040007E60093C40008E90093C10006E000936F
:107B1400C20071609ED97894FADD23D082D10E948C
:107B2400E133D1F00E947832034553430E946B3213
:107B340010DAD0075BDB0E94AE300E94E13349F0DB
:107B44000E94A73006DA1B000E9472330E94E133C0
:107B540019F467D10E94B6300C94853782FA837683
:107B640065720E94783224466C617368466F727441
:107B74006820352041546D656761333238502031B7
:107B8400312E31312E323031360D0A000C946B32E5
:107B940062FBA26569007894089596FBA26469006B
:107BA400F8940895A0FBC23B6900D3D90C9460D12A
:107BB400D0D9333C5DD10C946838AAFB84696E74C7
:107BC4002100FC013197EE0FF0E8EF0FF1E089910D
:107BD4009991C4DB0C94263EC0FBC76C6974657232
:107BE400616CB7D968EF4FDC0E94B437982F929537
:107BF4009F708F70906E80683BD1892F92959F7093
:107C04008F70906E80690C943A3F3BD0C6DE8991A8
:107C14009991A0E0B1E00091E1010F77A00F8D935D
:107C24009D938991999161600895DEFB823E610084
:107C3400282F392F89919991089530FC8121993009
:107C440040F4FC0189919991918380838991999160
:107C540008959038D0F615D0F999FDCF995081BD8B
:107C640092BD8991999180BDFA9AF99AF999FECFBA
:107C740081B5839581BD90BDFA9AF99A89919991BC
:107C8400089562FF089516DB0E9478320341443F51
:107C94000E946B3261CFFC01F058FB110BC00E2F18
:107CA40000780A1539F4A0E0B1E0EF77AE0F8D91BA
:107CB4009D91089585919591089540FC82613E00BF
:107CC4009A938A93822F932F0895C0FC8140993010
:107CD40020F4FC018191919108959038E0F6F9998E
:107CE400FECF995081BD92BDF89A80B591B5939518
:107CF40091BDF89A90B50895FC01F058FB110BC0A2
:107D04000E2F00780A1539F4A0E0B1E0EF77AE0F3A
:107D14008D9199270895859199270895D0FC8263C0
:107D24004000993020F4FC018191992708959038FE
:107D340018F7F999FECF995081BD92BDF89A80B594
:107D4400992708959EDF29DE89919991A0E0B1E0F9
:107D54000091E1010F77A00F8D9389919991616052
:107D6400089522FD82632100993038F4FC01899141
:107D740099918083899199910895903818F781DFBA
:107D8400F999FDCF995081BD92BD8991999180BD9A
:107D9400FA9AF99A89919991089568FD83666C2DF0
:107DA40064600895A0FD83666C2B6B7F0895AAFD23
:107DB4008576616C75651FD90E946B316CD90E9400
:107DC400FE300C94693EB4FD85646566657213D912
:107DD4000E94AB370AEF0E946B315DD90E94FE30DE
:107DE4000C94C130CCFDC26973000E94C7370E9455
:107DF4003D330E943D336BDFCCD90E94E13329F03F
:107E0400F0DE0E940E3142FC01C019DF0895EAFD44
:107E1400C2746F000C94F73E14FE877475726E6B17
:107E240065790E94E13ED7011EFE85706175736518
:107E340089DC1FB7F894DF93CF939F938F935F935D
:107E44004F93F1010EB702930DB70293B291A29131
:107E54001D010E910EBF0E910DBF4F915F918F9139
:107E64009F91CF91DF911FBF08959CDF82692C0001
:107E74000E94E037E4DE0E947C310C949D3970FE50
:107E84008369632C0E94E0376FDF0E9424320C94D4
:107E94009D3981200E94F4341ADF803111F484E288
:107EA40009C08A3011F483E205C0823011F485E2FE
:107EB40001C08FE308957CE28AE29AE20F921F9256
:107EC40009911991809FD001EE27FF27909FB00D53
:107ED400E11DF51D819FB00DE11DF51D919FE00D84
:107EE400F11DBA93AA93CF011F900F90089500003B
:0A7EF40000800C09DD02A8F624EE60
:00000001FF
